{"contracts/AccessControlContract.sol":{"AccessControlContract":{"abi":[{"inputs":[{"internalType":"address","name":"_dataVaultContract","type":"address"},{"internalType":"address","name":"_institutionRegistry","type":"address"}],"stateMutability":"nonpayable","type":"constructor"},{"anonymous":false,"inputs":[{"indexed":true,"internalType":"string","name":"recordId","type":"string"},{"indexed":true,"internalType":"address","name":"grantee","type":"address"},{"indexed":false,"internalType":"uint256","name":"timestamp","type":"uint256"}],"name":"AccessExpired","type":"event"},{"anonymous":false,"inputs":[{"indexed":true,"internalType":"string","name":"recordId","type":"string"},{"indexed":true,"internalType":"address","name":"owner","type":"address"},{"indexed":true,"internalType":"address","name":"grantee","type":"address"},{"indexed":false,"internalType":"string","name":"permissionType","type":"string"},{"indexed":false,"internalType":"uint256","name":"expiresAt","type":"uint256"},{"indexed":false,"internalType":"uint256","name":"timestamp","type":"uint256"}],"name":"AccessGranted","type":"event"},{"anonymous":false,"inputs":[{"indexed":true,"internalType":"string","name":"recordId","type":"string"},{"indexed":true,"internalType":"address","name":"owner","type":"address"},{"indexed":true,"internalType":"address","name":"grantee","type":"address"},{"indexed":false,"internalType":"uint256","name":"timestamp","type":"uint256"}],"name":"AccessRevoked","type":"event"},{"anonymous":false,"inputs":[{"indexed":true,"internalType":"string","name":"recordId","type":"string"},{"indexed":true,"internalType":"address","name":"owner","type":"address"},{"indexed":true,"internalType":"address","name":"grantee","type":"address"},{"indexed":false,"internalType":"uint256","name":"timestamp","type":"uint256"}],"name":"PermissionUpdated","type":"event"},{"inputs":[{"internalType":"string","name":"_recordId","type":"string"},{"internalType":"address","name":"_grantee","type":"address"}],"name":"checkAccess","outputs":[{"internalType":"bool","name":"","type":"bool"}],"stateMutability":"view","type":"function"},{"inputs":[],"name":"dataVaultContract","outputs":[{"internalType":"address","name":"","type":"address"}],"stateMutability":"view","type":"function"},{"inputs":[{"internalType":"string","name":"_recordId","type":"string"},{"internalType":"address","name":"_grantee","type":"address"}],"name":"expireAccess","outputs":[],"stateMutability":"nonpayable","type":"function"},{"inputs":[{"internalType":"address","name":"_grantee","type":"address"}],"name":"getGranteeRecords","outputs":[{"internalType":"string[]","name":"","type":"string[]"}],"stateMutability":"view","type":"function"},{"inputs":[{"internalType":"string","name":"_recordId","type":"string"},{"internalType":"address","name":"_grantee","type":"address"}],"name":"getPermission","outputs":[{"internalType":"string","name":"recordId","type":"string"},{"internalType":"address","name":"owner","type":"address"},{"internalType":"address","name":"grantee","type":"address"},{"internalType":"uint256","name":"grantedAt","type":"uint256"},{"internalType":"uint256","name":"expiresAt","type":"uint256"},{"internalType":"bool","name":"isActive","type":"bool"},{"internalType":"string","name":"permissionType","type":"string"},{"internalType":"string","name":"grantReason","type":"string"}],"stateMutability":"view","type":"function"},{"inputs":[{"internalType":"string","name":"_recordId","type":"string"}],"name":"getRecordGrantees","outputs":[{"internalType":"address[]","name":"","type":"address[]"}],"stateMutability":"view","type":"function"},{"inputs":[{"internalType":"string","name":"_recordId","type":"string"},{"internalType":"address","name":"_grantee","type":"address"},{"internalType":"uint256","name":"_expiresAt","type":"uint256"},{"internalType":"string","name":"_permissionType","type":"string"},{"internalType":"string","name":"_grantReason","type":"string"}],"name":"grantAccess","outputs":[],"stateMutability":"nonpayable","type":"function"},{"inputs":[{"internalType":"address","name":"","type":"address"},{"internalType":"uint256","name":"","type":"uint256"}],"name":"granteeRecords","outputs":[{"internalType":"string","name":"","type":"string"}],"stateMutability":"view","type":"function"},{"inputs":[{"internalType":"string","name":"","type":"string"},{"internalType":"address","name":"","type":"address"}],"name":"hasAccess","outputs":[{"internalType":"bool","name":"","type":"bool"}],"stateMutability":"view","type":"function"},{"inputs":[],"name":"institutionRegistry","outputs":[{"internalType":"address","name":"","type":"address"}],"stateMutability":"view","type":"function"},{"inputs":[{"internalType":"string","name":"","type":"string"},{"internalType":"address","name":"","type":"address"}],"name":"permissions","outputs":[{"internalType":"string","name":"recordId","type":"string"},{"internalType":"address","name":"owner","type":"address"},{"internalType":"address","name":"grantee","type":"address"},{"internalType":"uint256","name":"grantedAt","type":"uint256"},{"internalType":"uint256","name":"expiresAt","type":"uint256"},{"internalType":"bool","name":"isActive","type":"bool"},{"internalType":"string","name":"permissionType","type":"string"},{"internalType":"string","name":"grantReason","type":"string"}],"stateMutability":"view","type":"function"},{"inputs":[{"internalType":"string","name":"","type":"string"},{"internalType":"uint256","name":"","type":"uint256"}],"name":"recordGrantees","outputs":[{"internalType":"address","name":"","type":"address"}],"stateMutability":"view","type":"function"},{"inputs":[{"internalType":"string","name":"_recordId","type":"string"},{"internalType":"address","name":"_grantee","type":"address"}],"name":"revokeAccess","outputs":[],"stateMutability":"nonpayable","type":"function"}],"evm":{"bytecode":{"linkReferences":{},"object":"6080346200012b57601f62001a2638819003918201601f19168301916001600160401b03831184841017620001305780849260409485528339810103126200012b576200005a6020620000528362000146565b920162000146565b6001600160a01b0391821691908215620000e65716908115620000a15760018060a01b03199081600454161760045560055416176005556040516118ca90816200015c8239f35b60405162461bcd60e51b815260206004820152601860248201527f496e76616c6964207265676973747279206164647265737300000000000000006044820152606490fd5b60405162461bcd60e51b815260206004820152601560248201527f496e76616c6964207661756c74206164647265737300000000000000000000006044820152606490fd5b600080fd5b634e487b7160e01b600052604160045260246000fd5b51906001600160a01b03821682036200012b5756fe60406080815260048036101561001457600080fd5b600091823560e01c8063065f593b14610af95780630c1244ee146108aa57806313bd20e2146108555780631b1fcb041461082c57806344a08b36146108075780635d572eaa146107df5780636fc8977b146106db57806382cb725b1461065d578063baadd702146104df578063d2244b2d146103fc57838163dfe0b5fe146101d957508063edbb398d1461014f5763f8681e75146100b157600080fd5b3461014b5780610147916020946100de6100ca36610cd3565b979081855193828580945193849201610d15565b8101848152030190206001600160a01b0396871682526020522061010181610e2a565b938560018301541695600283015416906003830154908301549060ff6005850154169261013c600761013560068801610e2a565b9601610e2a565b955198899889610d5d565b0390f35b8280fd5b50903461014b578160031936011261014b5780359067ffffffffffffffff82116101d55761017f91369101610c71565b9161019b60206024359481855193828580945193849201610d15565b810160018152030190209081548410156101d257506020926101bc91610dc2565b905491519160018060a01b039160031b1c168152f35b80fd5b8380fd5b808484346103f8576101ea36610cd3565b939060018060a01b038094541693835194602086858083809a01630540248f60e41b815284602485015283610222604482018a610d38565b0393610236601f1995868101835282610c33565b5190865afa610243610ed0565b81610394575b5095806103889695946102ef946102d9946102847ffca9e5383feff2471021f2af92b9704199954a3966435d939edeaf684d47591b9b610f0d565b6102b68c51918383019362e9a5e360e71b85526024840152826102aa604482018d610d38565b03908101835282610c33565b51915afa6102cb6102c5610ed0565b91610f51565b888082518301019101610fd6565b50505050505050505091505082339116146110ce565b845190825191878181860194610306818388610d15565b81016003815203019020971696878952865261032760ff868a205416611736565b845186818451610338818387610d15565b81018b815203019020878952865261036b866005878b20019260ff19938481541690558751809381928751928391610d15565b810160038152030190208789528652848820908154169055611221565b9151924284523393a480f35b80809397969594925051810103126103f457857ffca9e5383feff2471021f2af92b9704199954a3966435d939edeaf684d47591b966102ef938a610388986102846103e3836102d99801610f00565b959b50509450945094959650610249565b8580fd5b5050fd5b50903461014b57602090816003193601126101d55780359067ffffffffffffffff82116104db5761043291949294369101610c71565b908361044684519384815193849201610d15565b82019184816001948581520301902093835190818187549182815201908197855282852090855b8181106104bf5750505082610483910383610c33565b8451948186019282875251809352850195925b8281106104a35785870386f35b83516001600160a01b0316875295810195928101928401610496565b82546001600160a01b031684529284019291870191870161046d565b8480fd5b503461014b576104ee36610cd3565b929082519181519060209384818186019461050a818388610d15565b810160038152030190209560018060a01b031695868852845261053260ff8689205416611736565b845184818551610543818388610d15565b81018a81520301902086885284528487209080820154801561061a574211156105d75750916105ce916105b18560057fc59e87c7e6f2931a0bb1c18fb7163a104d4fce32884ac64a8efbcb5ca308a3109796019260ff19938481541690558851809381928751928391610d15565b810160038152030190208789528452858820908154169055611221565b9251428152a380f35b855162461bcd60e51b8152908101859052601a60248201527f5065726d697373696f6e206e6f742079657420657870697265640000000000006044820152606490fd5b865162461bcd60e51b8152808301879052601c60248201527f5065726d697373696f6e20686173206e6f2065787069726174696f6e000000006044820152606490fd5b5082346101d257816003193601126101d257610677610cbd565b6001600160a01b0316815260026020528181208054602435919082101561014b57906106a291610dc2565b9390936106c957610147836106b686610e2a565b9051918291602083526020830190610d38565b634e487b7160e01b8252819052602490fd5b509190346107db576020908160031936011261014b576001600160a01b03610701610cbd565b168352600282528383209182549167ffffffffffffffff83116107c857509290845190610733858260051b0183610c33565b8082528482018094845285842084915b8383106107a457505050508451938085019181865251809252858501958260051b8601019392955b8287106107785785850386f35b909192938280610794600193603f198a82030186528851610d38565b960192019601959291909261076b565b60018881926107b6859b98999b610e2a565b81520192019201919096949396610743565b634e487b7160e01b855260419052602484fd5b5080fd5b50903461014b578260031936011261014b575490516001600160a01b03909116815260209150f35b8382346107db5760209061082361081d36610cd3565b9061177b565b90519015158152f35b8382346107db57816003193601126107db5760055490516001600160a01b039091168152602090f35b8382346107db5760ff816020938461088361086f36610cd3565b929081865193828580945193849201610d15565b6003908201908152030190206001600160a01b039091168252855220549151911615158152f35b503461014b5760a036600319011261014b5767ffffffffffffffff82358181116104db576108db9036908501610c71565b6024938435906001600160a01b03908183168303610af557606435858111610af15761090a9036908301610c71565b94608435908111610af1576109229036908301610c71565b95826005541691898083519460209586810190631f0b428b60e11b82528d33908201528d815261095181610c17565b51915afa61095d610ed0565b81610ace575b5015610a8e5790838a9254169080519083808c8780860191630540248f60e41b835286015284610996604482018d610d38565b03946109aa601f1996878101835282610c33565b5190865afa6109b7610ed0565b81610a43575b5092610a409b6102aa6109fe87958c610a2199966109df610a379d9c9a610f0d565b519384918a8084019762e9a5e360e71b89528401526044830190610d38565b51915afa90610a14610a0e610ed0565b92610f51565b8082518301019101610fd6565b50505050505050505092915050339116146110ce565b60443591611241565b80f35b969580949150878096949396518101031261014b57610a409b6102aa6109fe85948c610a21996109df610a7a8b610a379f01610f00565b979a9c9d505096505095975050509b6109bd565b601c8984606494519362461bcd60e51b85528401528201527f4e6f742061207265676973746572656420696e737469747574696f6e000000006044820152fd5b90508381805181010312610aed5783610ae79101610f00565b38610963565b8a80fd5b8880fd5b8780fd5b5082346101d2578160209261014792610b28610b1436610cd3565b969081855193828580945193849201610d15565b8101848152030190206001600160a01b0395861682526020522081519190610b4f83610be4565b610b5881610e2a565b8352846001820154169460208401958652806002830154169683850197885260038301549060608601918252830154906080860191825260ff6005850154169260a08701931515845280610bc16007610bb360068901610e2a565b9760c08b0198895201610e2a565b978860e08201525199511699511690519151925115159351945198899889610d5d565b610100810190811067ffffffffffffffff821117610c0157604052565b634e487b7160e01b600052604160045260246000fd5b6060810190811067ffffffffffffffff821117610c0157604052565b90601f8019910116810190811067ffffffffffffffff821117610c0157604052565b67ffffffffffffffff8111610c0157601f01601f191660200190565b81601f82011215610cb857803590610c8882610c55565b92610c966040519485610c33565b82845260208383010111610cb857816000926020809301838601378301015290565b600080fd5b600435906001600160a01b0382168203610cb857565b6040600319820112610cb8576004359067ffffffffffffffff8211610cb857610cfe91600401610c71565b906024356001600160a01b0381168103610cb85790565b60005b838110610d285750506000910152565b8181015183820152602001610d18565b90602091610d5181518092818552858086019101610d15565b601f01601f1916010190565b969293610dbf989692610d7c610db19793610100808c528b0190610d38565b6001600160a01b0391821660208b01529516604089015260608801526080870152151560a086015284820360c0860152610d38565b9160e0818403910152610d38565b90565b8054821015610dda5760005260206000200190600090565b634e487b7160e01b600052603260045260246000fd5b90600182811c92168015610e20575b6020831014610e0a57565b634e487b7160e01b600052602260045260246000fd5b91607f1691610dff565b9060405191826000825492610e3e84610df0565b908184526001948581169081600014610ead5750600114610e6a575b5050610e6892500383610c33565b565b9093915060005260209081600020936000915b818310610e95575050610e6893508201013880610e5a565b85548884018501529485019487945091830191610e7d565b915050610e6894506020925060ff191682840152151560051b8201013880610e5a565b3d15610efb573d90610ee182610c55565b91610eef6040519384610c33565b82523d6000602084013e565b606090565b51908115158203610cb857565b15610f1457565b60405162461bcd60e51b8152602060048201526015602482015274149958dbdc9908191bd95cc81b9bdd08195e1a5cdd605a1b6044820152606490fd5b15610f5857565b60405162461bcd60e51b815260206004820152601460248201527311985a5b1959081d1bc819d95d081c9958dbdc9960621b6044820152606490fd5b81601f82011215610cb8578051610faa81610c55565b92610fb86040519485610c33565b81845260208284010111610cb857610dbf9160208085019101610d15565b9161018083830312610cb85782519067ffffffffffffffff91828111610cb85783611002918601610f94565b93602081015193604082015160018060a01b0381168103610cb857936060830151818111610cb85782611036918501610f94565b936080840151828111610cb8578361104f918601610f94565b9360a08101519360c0820151848111610cb8578161106e918401610f94565b9360e0830151818111610cb85782611087918501610f94565b936101008401519361109c6101208201610f00565b93610140820151848111610cb857816110b6918401610f94565b93610160830151908111610cb857610dbf9201610f94565b156110d557565b60405162461bcd60e51b81526020600482015260146024820152732737ba103a3432903932b1b7b9321037bbb732b960611b6044820152606490fd5b919091825167ffffffffffffffff8111610c015761112f8254610df0565b601f81116111d9575b50602080601f831160011461117557508192939460009261116a575b50508160011b916000199060031b1c1916179055565b015190503880611154565b90601f198316958460005282600020926000905b8882106111c1575050836001959697106111a8575b505050811b019055565b015160001960f88460031b161c1916905538808061119e565b80600185968294968601518155019501930190611189565b600083815260208120601f840160051c81019260208510611217575b601f0160051c01915b82811061120c575050611138565b8181556001016111fe565b90925082906111f5565b61123990602060405192828480945193849201610d15565b810103902090565b9293919290916001600160a01b039190828416156116f15733838516146116ac57841580156116a3575b1561165e578260055416906000806040519360208501631f0b428b60e11b8152602495888a16878201528681526112a181610c17565b51915afa6112ad610ed0565b8161163d575b50156115e95760405160208185516112ce8183858a01610d15565b8101600381520301902084861660005260205260ff60406000205416611544576113e5604051916112fe83610be4565b848352600760208401913383526113dd8b8b878a8d8d61135960206040860194838516865260e0606088019742895260808101998a52600160a082015260c081019a8b52019a8b528160405193828580945193849201610d15565b81016000815203019020911660005260205260406000209761137c8b518a611111565b8d60018a01915116906bffffffffffffffffffffffff60a01b91828254161790558d60028a019251169082541617905551600387015551600486015560a06005860197015115159660ff199760ff8983541691161790555160068501611111565b519101611111565b60405160208185516113fa8183858a01610d15565b81016003815203019020848616600052602052600160406000209182541617905560405160208184516114308183858901610d15565b81016001815203019020805468010000000000000000918282101561152f579061145f91600182018155610dc2565b81549060031b9086808916831b921b19161790558385166000526002602052604060002080549182101561151a579061149d91600182018155610dc2565b9190916115065750816114d57f4bbd4fdaaf443bfe8eb3270c8762f9881f4bacf6c11fe8c08099ed7b83b4a48694936114da93611111565b611221565b926114f060405196606088526060880190610d38565b94602087015242604087015216938033940390a4565b634e487b7160e01b60005260006004526000fd5b82634e487b7160e01b60005260416004526000fd5b83634e487b7160e01b60005260416004526000fd5b505090936114d5906115b7939460405160208186516115668183858b01610d15565b8101600081520301902087871660005260205260046040600020015560405160208185516115978183858a01610d15565b810160008152030190208686166000526020526006604060002001611111565b916040519142835216917fad6fa5256d43629aa84cada3818a35a4b56732482659b18914daa580ff29febd60203393a4565b60405162461bcd60e51b8152602060048201526027818401527f4772616e746565206973206e6f742061207265676973746572656420696e737460448201526634ba3aba34b7b760c91b6064820152608490fd5b9050602081805181010312610cb85760206116589101610f00565b386112b3565b60405162461bcd60e51b815260206004820152601760248201527f496e76616c69642065787069726174696f6e2074696d650000000000000000006044820152606490fd5b5042851161126b565b60405162461bcd60e51b815260206004820152601b60248201527f43616e6e6f74206772616e742061636365737320746f2073656c6600000000006044820152606490fd5b60405162461bcd60e51b815260206004820152601760248201527f496e76616c6964206772616e74656520616464726573730000000000000000006044820152606490fd5b1561173d57565b60405162461bcd60e51b8152602060048201526016602482015275139bc81858dd1a5d99481858d8d95cdcc8199bdd5b9960521b6044820152606490fd5b9060409081519183519360209384818184019761179981838b610d15565b810160038152030190209460018060a01b0380941691600096838852865260ff84882054161561188b576117d99186918551938492839251928391610d15565b8101888152030190209085528352808420918151936117f785610be4565b61180084610e2a565b8552816001850154169085015260028301541690830152600381015460608301526004810154916080810192835260e061185e600760ff6005860154169460a08501951515865261185360068201610e2a565b60c086015201610e2a565b91015251156118875751801515908161187d575b50610dbf5750600190565b9050421138611872565b5090565b5050505050509056fea2646970667358221220ebe298a2b8a0c13199e31facce0178465a0973c01059ec1d7663ef7ddfa13ff064736f6c63430008140033","opcodes":"PUSH1 0x80 CALLVALUE PUSH3 0x12B JUMPI PUSH1 0x1F PUSH3 0x1A26 CODESIZE DUP2 SWAP1 SUB SWAP2 DUP3 ADD PUSH1 0x1F NOT AND DUP4 ADD SWAP2 PUSH1 0x1 PUSH1 0x1 PUSH1 0x40 SHL SUB DUP4 GT DUP5 DUP5 LT OR PUSH3 0x130 JUMPI DUP1 DUP5 SWAP3 PUSH1 0x40 SWAP5 DUP6 MSTORE DUP4 CODECOPY DUP2 ADD SUB SLT PUSH3 0x12B JUMPI PUSH3 0x5A PUSH1 0x20 PUSH3 0x52 DUP4 PUSH3 0x146 JUMP JUMPDEST SWAP3 ADD PUSH3 0x146 JUMP JUMPDEST PUSH1 0x1 PUSH1 0x1 PUSH1 0xA0 SHL SUB SWAP2 DUP3 AND SWAP2 SWAP1 DUP3 ISZERO PUSH3 0xE6 JUMPI AND SWAP1 DUP2 ISZERO PUSH3 0xA1 JUMPI PUSH1 0x1 DUP1 PUSH1 0xA0 SHL SUB NOT SWAP1 DUP2 PUSH1 0x4 SLOAD AND OR PUSH1 0x4 SSTORE PUSH1 0x5 SLOAD AND OR PUSH1 0x5 SSTORE PUSH1 0x40 MLOAD PUSH2 0x18CA SWAP1 DUP2 PUSH3 0x15C DUP3 CODECOPY RETURN JUMPDEST PUSH1 0x40 MLOAD PUSH3 0x461BCD PUSH1 0xE5 SHL DUP2 MSTORE PUSH1 0x20 PUSH1 0x4 DUP3 ADD MSTORE PUSH1 0x18 PUSH1 0x24 DUP3 ADD MSTORE PUSH32 0x496E76616C696420726567697374727920616464726573730000000000000000 PUSH1 0x44 DUP3 ADD MSTORE PUSH1 0x64 SWAP1 REVERT JUMPDEST PUSH1 0x40 MLOAD PUSH3 0x461BCD PUSH1 0xE5 SHL DUP2 MSTORE PUSH1 0x20 PUSH1 0x4 DUP3 ADD MSTORE PUSH1 0x15 PUSH1 0x24 DUP3 ADD MSTORE PUSH32 0x496E76616C6964207661756C7420616464726573730000000000000000000000 PUSH1 0x44 DUP3 ADD MSTORE PUSH1 0x64 SWAP1 REVERT JUMPDEST PUSH1 0x0 DUP1 REVERT JUMPDEST PUSH4 0x4E487B71 PUSH1 0xE0 SHL PUSH1 0x0 MSTORE PUSH1 0x41 PUSH1 0x4 MSTORE PUSH1 0x24 PUSH1 0x0 REVERT JUMPDEST MLOAD SWAP1 PUSH1 0x1 PUSH1 0x1 PUSH1 0xA0 SHL SUB DUP3 AND DUP3 SUB PUSH3 0x12B JUMPI JUMP INVALID PUSH1 0x40 PUSH1 0x80 DUP2 MSTORE PUSH1 0x4 DUP1 CALLDATASIZE LT ISZERO PUSH2 0x14 JUMPI PUSH1 0x0 DUP1 REVERT JUMPDEST PUSH1 0x0 SWAP2 DUP3 CALLDATALOAD PUSH1 0xE0 SHR DUP1 PUSH4 0x65F593B EQ PUSH2 0xAF9 JUMPI DUP1 PUSH4 0xC1244EE EQ PUSH2 0x8AA JUMPI DUP1 PUSH4 0x13BD20E2 EQ PUSH2 0x855 JUMPI DUP1 PUSH4 0x1B1FCB04 EQ PUSH2 0x82C JUMPI DUP1 PUSH4 0x44A08B36 EQ PUSH2 0x807 JUMPI DUP1 PUSH4 0x5D572EAA EQ PUSH2 0x7DF JUMPI DUP1 PUSH4 0x6FC8977B EQ PUSH2 0x6DB JUMPI DUP1 PUSH4 0x82CB725B EQ PUSH2 0x65D JUMPI DUP1 PUSH4 0xBAADD702 EQ PUSH2 0x4DF JUMPI DUP1 PUSH4 0xD2244B2D EQ PUSH2 0x3FC JUMPI DUP4 DUP2 PUSH4 0xDFE0B5FE EQ PUSH2 0x1D9 JUMPI POP DUP1 PUSH4 0xEDBB398D EQ PUSH2 0x14F JUMPI PUSH4 0xF8681E75 EQ PUSH2 0xB1 JUMPI PUSH1 0x0 DUP1 REVERT JUMPDEST CALLVALUE PUSH2 0x14B JUMPI DUP1 PUSH2 0x147 SWAP2 PUSH1 0x20 SWAP5 PUSH2 0xDE PUSH2 0xCA CALLDATASIZE PUSH2 0xCD3 JUMP JUMPDEST SWAP8 SWAP1 DUP2 DUP6 MLOAD SWAP4 DUP3 DUP6 DUP1 SWAP5 MLOAD SWAP4 DUP5 SWAP3 ADD PUSH2 0xD15 JUMP JUMPDEST DUP2 ADD DUP5 DUP2 MSTORE SUB ADD SWAP1 KECCAK256 PUSH1 0x1 PUSH1 0x1 PUSH1 0xA0 SHL SUB SWAP7 DUP8 AND DUP3 MSTORE PUSH1 0x20 MSTORE KECCAK256 PUSH2 0x101 DUP2 PUSH2 0xE2A JUMP JUMPDEST SWAP4 DUP6 PUSH1 0x1 DUP4 ADD SLOAD AND SWAP6 PUSH1 0x2 DUP4 ADD SLOAD AND SWAP1 PUSH1 0x3 DUP4 ADD SLOAD SWAP1 DUP4 ADD SLOAD SWAP1 PUSH1 0xFF PUSH1 0x5 DUP6 ADD SLOAD AND SWAP3 PUSH2 0x13C PUSH1 0x7 PUSH2 0x135 PUSH1 0x6 DUP9 ADD PUSH2 0xE2A JUMP JUMPDEST SWAP7 ADD PUSH2 0xE2A JUMP JUMPDEST SWAP6 MLOAD SWAP9 DUP10 SWAP9 DUP10 PUSH2 0xD5D JUMP JUMPDEST SUB SWAP1 RETURN JUMPDEST DUP3 DUP1 REVERT JUMPDEST POP SWAP1 CALLVALUE PUSH2 0x14B JUMPI DUP2 PUSH1 0x3 NOT CALLDATASIZE ADD SLT PUSH2 0x14B JUMPI DUP1 CALLDATALOAD SWAP1 PUSH8 0xFFFFFFFFFFFFFFFF DUP3 GT PUSH2 0x1D5 JUMPI PUSH2 0x17F SWAP2 CALLDATASIZE SWAP2 ADD PUSH2 0xC71 JUMP JUMPDEST SWAP2 PUSH2 0x19B PUSH1 0x20 PUSH1 0x24 CALLDATALOAD SWAP5 DUP2 DUP6 MLOAD SWAP4 DUP3 DUP6 DUP1 SWAP5 MLOAD SWAP4 DUP5 SWAP3 ADD PUSH2 0xD15 JUMP JUMPDEST DUP2 ADD PUSH1 0x1 DUP2 MSTORE SUB ADD SWAP1 KECCAK256 SWAP1 DUP2 SLOAD DUP5 LT ISZERO PUSH2 0x1D2 JUMPI POP PUSH1 0x20 SWAP3 PUSH2 0x1BC SWAP2 PUSH2 0xDC2 JUMP JUMPDEST SWAP1 SLOAD SWAP2 MLOAD SWAP2 PUSH1 0x1 DUP1 PUSH1 0xA0 SHL SUB SWAP2 PUSH1 0x3 SHL SHR AND DUP2 MSTORE RETURN JUMPDEST DUP1 REVERT JUMPDEST DUP4 DUP1 REVERT JUMPDEST DUP1 DUP5 DUP5 CALLVALUE PUSH2 0x3F8 JUMPI PUSH2 0x1EA CALLDATASIZE PUSH2 0xCD3 JUMP JUMPDEST SWAP4 SWAP1 PUSH1 0x1 DUP1 PUSH1 0xA0 SHL SUB DUP1 SWAP5 SLOAD AND SWAP4 DUP4 MLOAD SWAP5 PUSH1 0x20 DUP7 DUP6 DUP1 DUP4 DUP1 SWAP11 ADD PUSH4 0x540248F PUSH1 0xE4 SHL DUP2 MSTORE DUP5 PUSH1 0x24 DUP6 ADD MSTORE DUP4 PUSH2 0x222 PUSH1 0x44 DUP3 ADD DUP11 PUSH2 0xD38 JUMP JUMPDEST SUB SWAP4 PUSH2 0x236 PUSH1 0x1F NOT SWAP6 DUP7 DUP2 ADD DUP4 MSTORE DUP3 PUSH2 0xC33 JUMP JUMPDEST MLOAD SWAP1 DUP7 GAS STATICCALL PUSH2 0x243 PUSH2 0xED0 JUMP JUMPDEST DUP2 PUSH2 0x394 JUMPI JUMPDEST POP SWAP6 DUP1 PUSH2 0x388 SWAP7 SWAP6 SWAP5 PUSH2 0x2EF SWAP5 PUSH2 0x2D9 SWAP5 PUSH2 0x284 PUSH32 0xFCA9E5383FEFF2471021F2AF92B9704199954A3966435D939EDEAF684D47591B SWAP12 PUSH2 0xF0D JUMP JUMPDEST PUSH2 0x2B6 DUP13 MLOAD SWAP2 DUP4 DUP4 ADD SWAP4 PUSH3 0xE9A5E3 PUSH1 0xE7 SHL DUP6 MSTORE PUSH1 0x24 DUP5 ADD MSTORE DUP3 PUSH2 0x2AA PUSH1 0x44 DUP3 ADD DUP14 PUSH2 0xD38 JUMP JUMPDEST SUB SWAP1 DUP2 ADD DUP4 MSTORE DUP3 PUSH2 0xC33 JUMP JUMPDEST MLOAD SWAP2 GAS STATICCALL PUSH2 0x2CB PUSH2 0x2C5 PUSH2 0xED0 JUMP JUMPDEST SWAP2 PUSH2 0xF51 JUMP JUMPDEST DUP9 DUP1 DUP3 MLOAD DUP4 ADD ADD SWAP2 ADD PUSH2 0xFD6 JUMP JUMPDEST POP POP POP POP POP POP POP POP POP SWAP2 POP POP DUP3 CALLER SWAP2 AND EQ PUSH2 0x10CE JUMP JUMPDEST DUP5 MLOAD SWAP1 DUP3 MLOAD SWAP2 DUP8 DUP2 DUP2 DUP7 ADD SWAP5 PUSH2 0x306 DUP2 DUP4 DUP9 PUSH2 0xD15 JUMP JUMPDEST DUP2 ADD PUSH1 0x3 DUP2 MSTORE SUB ADD SWAP1 KECCAK256 SWAP8 AND SWAP7 DUP8 DUP10 MSTORE DUP7 MSTORE PUSH2 0x327 PUSH1 0xFF DUP7 DUP11 KECCAK256 SLOAD AND PUSH2 0x1736 JUMP JUMPDEST DUP5 MLOAD DUP7 DUP2 DUP5 MLOAD PUSH2 0x338 DUP2 DUP4 DUP8 PUSH2 0xD15 JUMP JUMPDEST DUP2 ADD DUP12 DUP2 MSTORE SUB ADD SWAP1 KECCAK256 DUP8 DUP10 MSTORE DUP7 MSTORE PUSH2 0x36B DUP7 PUSH1 0x5 DUP8 DUP12 KECCAK256 ADD SWAP3 PUSH1 0xFF NOT SWAP4 DUP5 DUP2 SLOAD AND SWAP1 SSTORE DUP8 MLOAD DUP1 SWAP4 DUP2 SWAP3 DUP8 MLOAD SWAP3 DUP4 SWAP2 PUSH2 0xD15 JUMP JUMPDEST DUP2 ADD PUSH1 0x3 DUP2 MSTORE SUB ADD SWAP1 KECCAK256 DUP8 DUP10 MSTORE DUP7 MSTORE DUP5 DUP9 KECCAK256 SWAP1 DUP2 SLOAD AND SWAP1 SSTORE PUSH2 0x1221 JUMP JUMPDEST SWAP2 MLOAD SWAP3 TIMESTAMP DUP5 MSTORE CALLER SWAP4 LOG4 DUP1 RETURN JUMPDEST DUP1 DUP1 SWAP4 SWAP8 SWAP7 SWAP6 SWAP5 SWAP3 POP MLOAD DUP2 ADD SUB SLT PUSH2 0x3F4 JUMPI DUP6 PUSH32 0xFCA9E5383FEFF2471021F2AF92B9704199954A3966435D939EDEAF684D47591B SWAP7 PUSH2 0x2EF SWAP4 DUP11 PUSH2 0x388 SWAP9 PUSH2 0x284 PUSH2 0x3E3 DUP4 PUSH2 0x2D9 SWAP9 ADD PUSH2 0xF00 JUMP JUMPDEST SWAP6 SWAP12 POP POP SWAP5 POP SWAP5 POP SWAP5 SWAP6 SWAP7 POP PUSH2 0x249 JUMP JUMPDEST DUP6 DUP1 REVERT JUMPDEST POP POP REVERT JUMPDEST POP SWAP1 CALLVALUE PUSH2 0x14B JUMPI PUSH1 0x20 SWAP1 DUP2 PUSH1 0x3 NOT CALLDATASIZE ADD SLT PUSH2 0x1D5 JUMPI DUP1 CALLDATALOAD SWAP1 PUSH8 0xFFFFFFFFFFFFFFFF DUP3 GT PUSH2 0x4DB JUMPI PUSH2 0x432 SWAP2 SWAP5 SWAP3 SWAP5 CALLDATASIZE SWAP2 ADD PUSH2 0xC71 JUMP JUMPDEST SWAP1 DUP4 PUSH2 0x446 DUP5 MLOAD SWAP4 DUP5 DUP2 MLOAD SWAP4 DUP5 SWAP3 ADD PUSH2 0xD15 JUMP JUMPDEST DUP3 ADD SWAP2 DUP5 DUP2 PUSH1 0x1 SWAP5 DUP6 DUP2 MSTORE SUB ADD SWAP1 KECCAK256 SWAP4 DUP4 MLOAD SWAP1 DUP2 DUP2 DUP8 SLOAD SWAP2 DUP3 DUP2 MSTORE ADD SWAP1 DUP2 SWAP8 DUP6 MSTORE DUP3 DUP6 KECCAK256 SWAP1 DUP6 JUMPDEST DUP2 DUP2 LT PUSH2 0x4BF JUMPI POP POP POP DUP3 PUSH2 0x483 SWAP2 SUB DUP4 PUSH2 0xC33 JUMP JUMPDEST DUP5 MLOAD SWAP5 DUP2 DUP7 ADD SWAP3 DUP3 DUP8 MSTORE MLOAD DUP1 SWAP4 MSTORE DUP6 ADD SWAP6 SWAP3 JUMPDEST DUP3 DUP2 LT PUSH2 0x4A3 JUMPI DUP6 DUP8 SUB DUP7 RETURN JUMPDEST DUP4 MLOAD PUSH1 0x1 PUSH1 0x1 PUSH1 0xA0 SHL SUB AND DUP8 MSTORE SWAP6 DUP2 ADD SWAP6 SWAP3 DUP2 ADD SWAP3 DUP5 ADD PUSH2 0x496 JUMP JUMPDEST DUP3 SLOAD PUSH1 0x1 PUSH1 0x1 PUSH1 0xA0 SHL SUB AND DUP5 MSTORE SWAP3 DUP5 ADD SWAP3 SWAP2 DUP8 ADD SWAP2 DUP8 ADD PUSH2 0x46D JUMP JUMPDEST DUP5 DUP1 REVERT JUMPDEST POP CALLVALUE PUSH2 0x14B JUMPI PUSH2 0x4EE CALLDATASIZE PUSH2 0xCD3 JUMP JUMPDEST SWAP3 SWAP1 DUP3 MLOAD SWAP2 DUP2 MLOAD SWAP1 PUSH1 0x20 SWAP4 DUP5 DUP2 DUP2 DUP7 ADD SWAP5 PUSH2 0x50A DUP2 DUP4 DUP9 PUSH2 0xD15 JUMP JUMPDEST DUP2 ADD PUSH1 0x3 DUP2 MSTORE SUB ADD SWAP1 KECCAK256 SWAP6 PUSH1 0x1 DUP1 PUSH1 0xA0 SHL SUB AND SWAP6 DUP7 DUP9 MSTORE DUP5 MSTORE PUSH2 0x532 PUSH1 0xFF DUP7 DUP10 KECCAK256 SLOAD AND PUSH2 0x1736 JUMP JUMPDEST DUP5 MLOAD DUP5 DUP2 DUP6 MLOAD PUSH2 0x543 DUP2 DUP4 DUP9 PUSH2 0xD15 JUMP JUMPDEST DUP2 ADD DUP11 DUP2 MSTORE SUB ADD SWAP1 KECCAK256 DUP7 DUP9 MSTORE DUP5 MSTORE DUP5 DUP8 KECCAK256 SWAP1 DUP1 DUP3 ADD SLOAD DUP1 ISZERO PUSH2 0x61A JUMPI TIMESTAMP GT ISZERO PUSH2 0x5D7 JUMPI POP SWAP2 PUSH2 0x5CE SWAP2 PUSH2 0x5B1 DUP6 PUSH1 0x5 PUSH32 0xC59E87C7E6F2931A0BB1C18FB7163A104D4FCE32884AC64A8EFBCB5CA308A310 SWAP8 SWAP7 ADD SWAP3 PUSH1 0xFF NOT SWAP4 DUP5 DUP2 SLOAD AND SWAP1 SSTORE DUP9 MLOAD DUP1 SWAP4 DUP2 SWAP3 DUP8 MLOAD SWAP3 DUP4 SWAP2 PUSH2 0xD15 JUMP JUMPDEST DUP2 ADD PUSH1 0x3 DUP2 MSTORE SUB ADD SWAP1 KECCAK256 DUP8 DUP10 MSTORE DUP5 MSTORE DUP6 DUP9 KECCAK256 SWAP1 DUP2 SLOAD AND SWAP1 SSTORE PUSH2 0x1221 JUMP JUMPDEST SWAP3 MLOAD TIMESTAMP DUP2 MSTORE LOG3 DUP1 RETURN JUMPDEST DUP6 MLOAD PUSH3 0x461BCD PUSH1 0xE5 SHL DUP2 MSTORE SWAP1 DUP2 ADD DUP6 SWAP1 MSTORE PUSH1 0x1A PUSH1 0x24 DUP3 ADD MSTORE PUSH32 0x5065726D697373696F6E206E6F74207965742065787069726564000000000000 PUSH1 0x44 DUP3 ADD MSTORE PUSH1 0x64 SWAP1 REVERT JUMPDEST DUP7 MLOAD PUSH3 0x461BCD PUSH1 0xE5 SHL DUP2 MSTORE DUP1 DUP4 ADD DUP8 SWAP1 MSTORE PUSH1 0x1C PUSH1 0x24 DUP3 ADD MSTORE PUSH32 0x5065726D697373696F6E20686173206E6F2065787069726174696F6E00000000 PUSH1 0x44 DUP3 ADD MSTORE PUSH1 0x64 SWAP1 REVERT JUMPDEST POP DUP3 CALLVALUE PUSH2 0x1D2 JUMPI DUP2 PUSH1 0x3 NOT CALLDATASIZE ADD SLT PUSH2 0x1D2 JUMPI PUSH2 0x677 PUSH2 0xCBD JUMP JUMPDEST PUSH1 0x1 PUSH1 0x1 PUSH1 0xA0 SHL SUB AND DUP2 MSTORE PUSH1 0x2 PUSH1 0x20 MSTORE DUP2 DUP2 KECCAK256 DUP1 SLOAD PUSH1 0x24 CALLDATALOAD SWAP2 SWAP1 DUP3 LT ISZERO PUSH2 0x14B JUMPI SWAP1 PUSH2 0x6A2 SWAP2 PUSH2 0xDC2 JUMP JUMPDEST SWAP4 SWAP1 SWAP4 PUSH2 0x6C9 JUMPI PUSH2 0x147 DUP4 PUSH2 0x6B6 DUP7 PUSH2 0xE2A JUMP JUMPDEST SWAP1 MLOAD SWAP2 DUP3 SWAP2 PUSH1 0x20 DUP4 MSTORE PUSH1 0x20 DUP4 ADD SWAP1 PUSH2 0xD38 JUMP JUMPDEST PUSH4 0x4E487B71 PUSH1 0xE0 SHL DUP3 MSTORE DUP2 SWAP1 MSTORE PUSH1 0x24 SWAP1 REVERT JUMPDEST POP SWAP2 SWAP1 CALLVALUE PUSH2 0x7DB JUMPI PUSH1 0x20 SWAP1 DUP2 PUSH1 0x3 NOT CALLDATASIZE ADD SLT PUSH2 0x14B JUMPI PUSH1 0x1 PUSH1 0x1 PUSH1 0xA0 SHL SUB PUSH2 0x701 PUSH2 0xCBD JUMP JUMPDEST AND DUP4 MSTORE PUSH1 0x2 DUP3 MSTORE DUP4 DUP4 KECCAK256 SWAP2 DUP3 SLOAD SWAP2 PUSH8 0xFFFFFFFFFFFFFFFF DUP4 GT PUSH2 0x7C8 JUMPI POP SWAP3 SWAP1 DUP5 MLOAD SWAP1 PUSH2 0x733 DUP6 DUP3 PUSH1 0x5 SHL ADD DUP4 PUSH2 0xC33 JUMP JUMPDEST DUP1 DUP3 MSTORE DUP5 DUP3 ADD DUP1 SWAP5 DUP5 MSTORE DUP6 DUP5 KECCAK256 DUP5 SWAP2 JUMPDEST DUP4 DUP4 LT PUSH2 0x7A4 JUMPI POP POP POP POP DUP5 MLOAD SWAP4 DUP1 DUP6 ADD SWAP2 DUP2 DUP7 MSTORE MLOAD DUP1 SWAP3 MSTORE DUP6 DUP6 ADD SWAP6 DUP3 PUSH1 0x5 SHL DUP7 ADD ADD SWAP4 SWAP3 SWAP6 JUMPDEST DUP3 DUP8 LT PUSH2 0x778 JUMPI DUP6 DUP6 SUB DUP7 RETURN JUMPDEST SWAP1 SWAP2 SWAP3 SWAP4 DUP3 DUP1 PUSH2 0x794 PUSH1 0x1 SWAP4 PUSH1 0x3F NOT DUP11 DUP3 SUB ADD DUP7 MSTORE DUP9 MLOAD PUSH2 0xD38 JUMP JUMPDEST SWAP7 ADD SWAP3 ADD SWAP7 ADD SWAP6 SWAP3 SWAP2 SWAP1 SWAP3 PUSH2 0x76B JUMP JUMPDEST PUSH1 0x1 DUP9 DUP2 SWAP3 PUSH2 0x7B6 DUP6 SWAP12 SWAP9 SWAP10 SWAP12 PUSH2 0xE2A JUMP JUMPDEST DUP2 MSTORE ADD SWAP3 ADD SWAP3 ADD SWAP2 SWAP1 SWAP7 SWAP5 SWAP4 SWAP7 PUSH2 0x743 JUMP JUMPDEST PUSH4 0x4E487B71 PUSH1 0xE0 SHL DUP6 MSTORE PUSH1 0x41 SWAP1 MSTORE PUSH1 0x24 DUP5 REVERT JUMPDEST POP DUP1 REVERT JUMPDEST POP SWAP1 CALLVALUE PUSH2 0x14B JUMPI DUP3 PUSH1 0x3 NOT CALLDATASIZE ADD SLT PUSH2 0x14B JUMPI SLOAD SWAP1 MLOAD PUSH1 0x1 PUSH1 0x1 PUSH1 0xA0 SHL SUB SWAP1 SWAP2 AND DUP2 MSTORE PUSH1 0x20 SWAP2 POP RETURN JUMPDEST DUP4 DUP3 CALLVALUE PUSH2 0x7DB JUMPI PUSH1 0x20 SWAP1 PUSH2 0x823 PUSH2 0x81D CALLDATASIZE PUSH2 0xCD3 JUMP JUMPDEST SWAP1 PUSH2 0x177B JUMP JUMPDEST SWAP1 MLOAD SWAP1 ISZERO ISZERO DUP2 MSTORE RETURN JUMPDEST DUP4 DUP3 CALLVALUE PUSH2 0x7DB JUMPI DUP2 PUSH1 0x3 NOT CALLDATASIZE ADD SLT PUSH2 0x7DB JUMPI PUSH1 0x5 SLOAD SWAP1 MLOAD PUSH1 0x1 PUSH1 0x1 PUSH1 0xA0 SHL SUB SWAP1 SWAP2 AND DUP2 MSTORE PUSH1 0x20 SWAP1 RETURN JUMPDEST DUP4 DUP3 CALLVALUE PUSH2 0x7DB JUMPI PUSH1 0xFF DUP2 PUSH1 0x20 SWAP4 DUP5 PUSH2 0x883 PUSH2 0x86F CALLDATASIZE PUSH2 0xCD3 JUMP JUMPDEST SWAP3 SWAP1 DUP2 DUP7 MLOAD SWAP4 DUP3 DUP6 DUP1 SWAP5 MLOAD SWAP4 DUP5 SWAP3 ADD PUSH2 0xD15 JUMP JUMPDEST PUSH1 0x3 SWAP1 DUP3 ADD SWAP1 DUP2 MSTORE SUB ADD SWAP1 KECCAK256 PUSH1 0x1 PUSH1 0x1 PUSH1 0xA0 SHL SUB SWAP1 SWAP2 AND DUP3 MSTORE DUP6 MSTORE KECCAK256 SLOAD SWAP2 MLOAD SWAP2 AND ISZERO ISZERO DUP2 MSTORE RETURN JUMPDEST POP CALLVALUE PUSH2 0x14B JUMPI PUSH1 0xA0 CALLDATASIZE PUSH1 0x3 NOT ADD SLT PUSH2 0x14B JUMPI PUSH8 0xFFFFFFFFFFFFFFFF DUP3 CALLDATALOAD DUP2 DUP2 GT PUSH2 0x4DB JUMPI PUSH2 0x8DB SWAP1 CALLDATASIZE SWAP1 DUP6 ADD PUSH2 0xC71 JUMP JUMPDEST PUSH1 0x24 SWAP4 DUP5 CALLDATALOAD SWAP1 PUSH1 0x1 PUSH1 0x1 PUSH1 0xA0 SHL SUB SWAP1 DUP2 DUP4 AND DUP4 SUB PUSH2 0xAF5 JUMPI PUSH1 0x64 CALLDATALOAD DUP6 DUP2 GT PUSH2 0xAF1 JUMPI PUSH2 0x90A SWAP1 CALLDATASIZE SWAP1 DUP4 ADD PUSH2 0xC71 JUMP JUMPDEST SWAP5 PUSH1 0x84 CALLDATALOAD SWAP1 DUP2 GT PUSH2 0xAF1 JUMPI PUSH2 0x922 SWAP1 CALLDATASIZE SWAP1 DUP4 ADD PUSH2 0xC71 JUMP JUMPDEST SWAP6 DUP3 PUSH1 0x5 SLOAD AND SWAP2 DUP10 DUP1 DUP4 MLOAD SWAP5 PUSH1 0x20 SWAP6 DUP7 DUP2 ADD SWAP1 PUSH4 0x1F0B428B PUSH1 0xE1 SHL DUP3 MSTORE DUP14 CALLER SWAP1 DUP3 ADD MSTORE DUP14 DUP2 MSTORE PUSH2 0x951 DUP2 PUSH2 0xC17 JUMP JUMPDEST MLOAD SWAP2 GAS STATICCALL PUSH2 0x95D PUSH2 0xED0 JUMP JUMPDEST DUP2 PUSH2 0xACE JUMPI JUMPDEST POP ISZERO PUSH2 0xA8E JUMPI SWAP1 DUP4 DUP11 SWAP3 SLOAD AND SWAP1 DUP1 MLOAD SWAP1 DUP4 DUP1 DUP13 DUP8 DUP1 DUP7 ADD SWAP2 PUSH4 0x540248F PUSH1 0xE4 SHL DUP4 MSTORE DUP7 ADD MSTORE DUP5 PUSH2 0x996 PUSH1 0x44 DUP3 ADD DUP14 PUSH2 0xD38 JUMP JUMPDEST SUB SWAP5 PUSH2 0x9AA PUSH1 0x1F NOT SWAP7 DUP8 DUP2 ADD DUP4 MSTORE DUP3 PUSH2 0xC33 JUMP JUMPDEST MLOAD SWAP1 DUP7 GAS STATICCALL PUSH2 0x9B7 PUSH2 0xED0 JUMP JUMPDEST DUP2 PUSH2 0xA43 JUMPI JUMPDEST POP SWAP3 PUSH2 0xA40 SWAP12 PUSH2 0x2AA PUSH2 0x9FE DUP8 SWAP6 DUP13 PUSH2 0xA21 SWAP10 SWAP7 PUSH2 0x9DF PUSH2 0xA37 SWAP14 SWAP13 SWAP11 PUSH2 0xF0D JUMP JUMPDEST MLOAD SWAP4 DUP5 SWAP2 DUP11 DUP1 DUP5 ADD SWAP8 PUSH3 0xE9A5E3 PUSH1 0xE7 SHL DUP10 MSTORE DUP5 ADD MSTORE PUSH1 0x44 DUP4 ADD SWAP1 PUSH2 0xD38 JUMP JUMPDEST MLOAD SWAP2 GAS STATICCALL SWAP1 PUSH2 0xA14 PUSH2 0xA0E PUSH2 0xED0 JUMP JUMPDEST SWAP3 PUSH2 0xF51 JUMP JUMPDEST DUP1 DUP3 MLOAD DUP4 ADD ADD SWAP2 ADD PUSH2 0xFD6 JUMP JUMPDEST POP POP POP POP POP POP POP POP POP SWAP3 SWAP2 POP POP CALLER SWAP2 AND EQ PUSH2 0x10CE JUMP JUMPDEST PUSH1 0x44 CALLDATALOAD SWAP2 PUSH2 0x1241 JUMP JUMPDEST DUP1 RETURN JUMPDEST SWAP7 SWAP6 DUP1 SWAP5 SWAP2 POP DUP8 DUP1 SWAP7 SWAP5 SWAP4 SWAP7 MLOAD DUP2 ADD SUB SLT PUSH2 0x14B JUMPI PUSH2 0xA40 SWAP12 PUSH2 0x2AA PUSH2 0x9FE DUP6 SWAP5 DUP13 PUSH2 0xA21 SWAP10 PUSH2 0x9DF PUSH2 0xA7A DUP12 PUSH2 0xA37 SWAP16 ADD PUSH2 0xF00 JUMP JUMPDEST SWAP8 SWAP11 SWAP13 SWAP14 POP POP SWAP7 POP POP SWAP6 SWAP8 POP POP POP SWAP12 PUSH2 0x9BD JUMP JUMPDEST PUSH1 0x1C DUP10 DUP5 PUSH1 0x64 SWAP5 MLOAD SWAP4 PUSH3 0x461BCD PUSH1 0xE5 SHL DUP6 MSTORE DUP5 ADD MSTORE DUP3 ADD MSTORE PUSH32 0x4E6F742061207265676973746572656420696E737469747574696F6E00000000 PUSH1 0x44 DUP3 ADD MSTORE REVERT JUMPDEST SWAP1 POP DUP4 DUP2 DUP1 MLOAD DUP2 ADD SUB SLT PUSH2 0xAED JUMPI DUP4 PUSH2 0xAE7 SWAP2 ADD PUSH2 0xF00 JUMP JUMPDEST CODESIZE PUSH2 0x963 JUMP JUMPDEST DUP11 DUP1 REVERT JUMPDEST DUP9 DUP1 REVERT JUMPDEST DUP8 DUP1 REVERT JUMPDEST POP DUP3 CALLVALUE PUSH2 0x1D2 JUMPI DUP2 PUSH1 0x20 SWAP3 PUSH2 0x147 SWAP3 PUSH2 0xB28 PUSH2 0xB14 CALLDATASIZE PUSH2 0xCD3 JUMP JUMPDEST SWAP7 SWAP1 DUP2 DUP6 MLOAD SWAP4 DUP3 DUP6 DUP1 SWAP5 MLOAD SWAP4 DUP5 SWAP3 ADD PUSH2 0xD15 JUMP JUMPDEST DUP2 ADD DUP5 DUP2 MSTORE SUB ADD SWAP1 KECCAK256 PUSH1 0x1 PUSH1 0x1 PUSH1 0xA0 SHL SUB SWAP6 DUP7 AND DUP3 MSTORE PUSH1 0x20 MSTORE KECCAK256 DUP2 MLOAD SWAP2 SWAP1 PUSH2 0xB4F DUP4 PUSH2 0xBE4 JUMP JUMPDEST PUSH2 0xB58 DUP2 PUSH2 0xE2A JUMP JUMPDEST DUP4 MSTORE DUP5 PUSH1 0x1 DUP3 ADD SLOAD AND SWAP5 PUSH1 0x20 DUP5 ADD SWAP6 DUP7 MSTORE DUP1 PUSH1 0x2 DUP4 ADD SLOAD AND SWAP7 DUP4 DUP6 ADD SWAP8 DUP9 MSTORE PUSH1 0x3 DUP4 ADD SLOAD SWAP1 PUSH1 0x60 DUP7 ADD SWAP2 DUP3 MSTORE DUP4 ADD SLOAD SWAP1 PUSH1 0x80 DUP7 ADD SWAP2 DUP3 MSTORE PUSH1 0xFF PUSH1 0x5 DUP6 ADD SLOAD AND SWAP3 PUSH1 0xA0 DUP8 ADD SWAP4 ISZERO ISZERO DUP5 MSTORE DUP1 PUSH2 0xBC1 PUSH1 0x7 PUSH2 0xBB3 PUSH1 0x6 DUP10 ADD PUSH2 0xE2A JUMP JUMPDEST SWAP8 PUSH1 0xC0 DUP12 ADD SWAP9 DUP10 MSTORE ADD PUSH2 0xE2A JUMP JUMPDEST SWAP8 DUP9 PUSH1 0xE0 DUP3 ADD MSTORE MLOAD SWAP10 MLOAD AND SWAP10 MLOAD AND SWAP1 MLOAD SWAP2 MLOAD SWAP3 MLOAD ISZERO ISZERO SWAP4 MLOAD SWAP5 MLOAD SWAP9 DUP10 SWAP9 DUP10 PUSH2 0xD5D JUMP JUMPDEST PUSH2 0x100 DUP2 ADD SWAP1 DUP2 LT PUSH8 0xFFFFFFFFFFFFFFFF DUP3 GT OR PUSH2 0xC01 JUMPI PUSH1 0x40 MSTORE JUMP JUMPDEST PUSH4 0x4E487B71 PUSH1 0xE0 SHL PUSH1 0x0 MSTORE PUSH1 0x41 PUSH1 0x4 MSTORE PUSH1 0x24 PUSH1 0x0 REVERT JUMPDEST PUSH1 0x60 DUP2 ADD SWAP1 DUP2 LT PUSH8 0xFFFFFFFFFFFFFFFF DUP3 GT OR PUSH2 0xC01 JUMPI PUSH1 0x40 MSTORE JUMP JUMPDEST SWAP1 PUSH1 0x1F DUP1 NOT SWAP2 ADD AND DUP2 ADD SWAP1 DUP2 LT PUSH8 0xFFFFFFFFFFFFFFFF DUP3 GT OR PUSH2 0xC01 JUMPI PUSH1 0x40 MSTORE JUMP JUMPDEST PUSH8 0xFFFFFFFFFFFFFFFF DUP2 GT PUSH2 0xC01 JUMPI PUSH1 0x1F ADD PUSH1 0x1F NOT AND PUSH1 0x20 ADD SWAP1 JUMP JUMPDEST DUP2 PUSH1 0x1F DUP3 ADD SLT ISZERO PUSH2 0xCB8 JUMPI DUP1 CALLDATALOAD SWAP1 PUSH2 0xC88 DUP3 PUSH2 0xC55 JUMP JUMPDEST SWAP3 PUSH2 0xC96 PUSH1 0x40 MLOAD SWAP5 DUP6 PUSH2 0xC33 JUMP JUMPDEST DUP3 DUP5 MSTORE PUSH1 0x20 DUP4 DUP4 ADD ADD GT PUSH2 0xCB8 JUMPI DUP2 PUSH1 0x0 SWAP3 PUSH1 0x20 DUP1 SWAP4 ADD DUP4 DUP7 ADD CALLDATACOPY DUP4 ADD ADD MSTORE SWAP1 JUMP JUMPDEST PUSH1 0x0 DUP1 REVERT JUMPDEST PUSH1 0x4 CALLDATALOAD SWAP1 PUSH1 0x1 PUSH1 0x1 PUSH1 0xA0 SHL SUB DUP3 AND DUP3 SUB PUSH2 0xCB8 JUMPI JUMP JUMPDEST PUSH1 0x40 PUSH1 0x3 NOT DUP3 ADD SLT PUSH2 0xCB8 JUMPI PUSH1 0x4 CALLDATALOAD SWAP1 PUSH8 0xFFFFFFFFFFFFFFFF DUP3 GT PUSH2 0xCB8 JUMPI PUSH2 0xCFE SWAP2 PUSH1 0x4 ADD PUSH2 0xC71 JUMP JUMPDEST SWAP1 PUSH1 0x24 CALLDATALOAD PUSH1 0x1 PUSH1 0x1 PUSH1 0xA0 SHL SUB DUP2 AND DUP2 SUB PUSH2 0xCB8 JUMPI SWAP1 JUMP JUMPDEST PUSH1 0x0 JUMPDEST DUP4 DUP2 LT PUSH2 0xD28 JUMPI POP POP PUSH1 0x0 SWAP2 ADD MSTORE JUMP JUMPDEST DUP2 DUP2 ADD MLOAD DUP4 DUP3 ADD MSTORE PUSH1 0x20 ADD PUSH2 0xD18 JUMP JUMPDEST SWAP1 PUSH1 0x20 SWAP2 PUSH2 0xD51 DUP2 MLOAD DUP1 SWAP3 DUP2 DUP6 MSTORE DUP6 DUP1 DUP7 ADD SWAP2 ADD PUSH2 0xD15 JUMP JUMPDEST PUSH1 0x1F ADD PUSH1 0x1F NOT AND ADD ADD SWAP1 JUMP JUMPDEST SWAP7 SWAP3 SWAP4 PUSH2 0xDBF SWAP9 SWAP7 SWAP3 PUSH2 0xD7C PUSH2 0xDB1 SWAP8 SWAP4 PUSH2 0x100 DUP1 DUP13 MSTORE DUP12 ADD SWAP1 PUSH2 0xD38 JUMP JUMPDEST PUSH1 0x1 PUSH1 0x1 PUSH1 0xA0 SHL SUB SWAP2 DUP3 AND PUSH1 0x20 DUP12 ADD MSTORE SWAP6 AND PUSH1 0x40 DUP10 ADD MSTORE PUSH1 0x60 DUP9 ADD MSTORE PUSH1 0x80 DUP8 ADD MSTORE ISZERO ISZERO PUSH1 0xA0 DUP7 ADD MSTORE DUP5 DUP3 SUB PUSH1 0xC0 DUP7 ADD MSTORE PUSH2 0xD38 JUMP JUMPDEST SWAP2 PUSH1 0xE0 DUP2 DUP5 SUB SWAP2 ADD MSTORE PUSH2 0xD38 JUMP JUMPDEST SWAP1 JUMP JUMPDEST DUP1 SLOAD DUP3 LT ISZERO PUSH2 0xDDA JUMPI PUSH1 0x0 MSTORE PUSH1 0x20 PUSH1 0x0 KECCAK256 ADD SWAP1 PUSH1 0x0 SWAP1 JUMP JUMPDEST PUSH4 0x4E487B71 PUSH1 0xE0 SHL PUSH1 0x0 MSTORE PUSH1 0x32 PUSH1 0x4 MSTORE PUSH1 0x24 PUSH1 0x0 REVERT JUMPDEST SWAP1 PUSH1 0x1 DUP3 DUP2 SHR SWAP3 AND DUP1 ISZERO PUSH2 0xE20 JUMPI JUMPDEST PUSH1 0x20 DUP4 LT EQ PUSH2 0xE0A JUMPI JUMP JUMPDEST PUSH4 0x4E487B71 PUSH1 0xE0 SHL PUSH1 0x0 MSTORE PUSH1 0x22 PUSH1 0x4 MSTORE PUSH1 0x24 PUSH1 0x0 REVERT JUMPDEST SWAP2 PUSH1 0x7F AND SWAP2 PUSH2 0xDFF JUMP JUMPDEST SWAP1 PUSH1 0x40 MLOAD SWAP2 DUP3 PUSH1 0x0 DUP3 SLOAD SWAP3 PUSH2 0xE3E DUP5 PUSH2 0xDF0 JUMP JUMPDEST SWAP1 DUP2 DUP5 MSTORE PUSH1 0x1 SWAP5 DUP6 DUP2 AND SWAP1 DUP2 PUSH1 0x0 EQ PUSH2 0xEAD JUMPI POP PUSH1 0x1 EQ PUSH2 0xE6A JUMPI JUMPDEST POP POP PUSH2 0xE68 SWAP3 POP SUB DUP4 PUSH2 0xC33 JUMP JUMPDEST JUMP JUMPDEST SWAP1 SWAP4 SWAP2 POP PUSH1 0x0 MSTORE PUSH1 0x20 SWAP1 DUP2 PUSH1 0x0 KECCAK256 SWAP4 PUSH1 0x0 SWAP2 JUMPDEST DUP2 DUP4 LT PUSH2 0xE95 JUMPI POP POP PUSH2 0xE68 SWAP4 POP DUP3 ADD ADD CODESIZE DUP1 PUSH2 0xE5A JUMP JUMPDEST DUP6 SLOAD DUP9 DUP5 ADD DUP6 ADD MSTORE SWAP5 DUP6 ADD SWAP5 DUP8 SWAP5 POP SWAP2 DUP4 ADD SWAP2 PUSH2 0xE7D JUMP JUMPDEST SWAP2 POP POP PUSH2 0xE68 SWAP5 POP PUSH1 0x20 SWAP3 POP PUSH1 0xFF NOT AND DUP3 DUP5 ADD MSTORE ISZERO ISZERO PUSH1 0x5 SHL DUP3 ADD ADD CODESIZE DUP1 PUSH2 0xE5A JUMP JUMPDEST RETURNDATASIZE ISZERO PUSH2 0xEFB JUMPI RETURNDATASIZE SWAP1 PUSH2 0xEE1 DUP3 PUSH2 0xC55 JUMP JUMPDEST SWAP2 PUSH2 0xEEF PUSH1 0x40 MLOAD SWAP4 DUP5 PUSH2 0xC33 JUMP JUMPDEST DUP3 MSTORE RETURNDATASIZE PUSH1 0x0 PUSH1 0x20 DUP5 ADD RETURNDATACOPY JUMP JUMPDEST PUSH1 0x60 SWAP1 JUMP JUMPDEST MLOAD SWAP1 DUP2 ISZERO ISZERO DUP3 SUB PUSH2 0xCB8 JUMPI JUMP JUMPDEST ISZERO PUSH2 0xF14 JUMPI JUMP JUMPDEST PUSH1 0x40 MLOAD PUSH3 0x461BCD PUSH1 0xE5 SHL DUP2 MSTORE PUSH1 0x20 PUSH1 0x4 DUP3 ADD MSTORE PUSH1 0x15 PUSH1 0x24 DUP3 ADD MSTORE PUSH21 0x149958DBDC9908191BD95CC81B9BDD08195E1A5CDD PUSH1 0x5A SHL PUSH1 0x44 DUP3 ADD MSTORE PUSH1 0x64 SWAP1 REVERT JUMPDEST ISZERO PUSH2 0xF58 JUMPI JUMP JUMPDEST PUSH1 0x40 MLOAD PUSH3 0x461BCD PUSH1 0xE5 SHL DUP2 MSTORE PUSH1 0x20 PUSH1 0x4 DUP3 ADD MSTORE PUSH1 0x14 PUSH1 0x24 DUP3 ADD MSTORE PUSH20 0x11985A5B1959081D1BC819D95D081C9958DBDC99 PUSH1 0x62 SHL PUSH1 0x44 DUP3 ADD MSTORE PUSH1 0x64 SWAP1 REVERT JUMPDEST DUP2 PUSH1 0x1F DUP3 ADD SLT ISZERO PUSH2 0xCB8 JUMPI DUP1 MLOAD PUSH2 0xFAA DUP2 PUSH2 0xC55 JUMP JUMPDEST SWAP3 PUSH2 0xFB8 PUSH1 0x40 MLOAD SWAP5 DUP6 PUSH2 0xC33 JUMP JUMPDEST DUP2 DUP5 MSTORE PUSH1 0x20 DUP3 DUP5 ADD ADD GT PUSH2 0xCB8 JUMPI PUSH2 0xDBF SWAP2 PUSH1 0x20 DUP1 DUP6 ADD SWAP2 ADD PUSH2 0xD15 JUMP JUMPDEST SWAP2 PUSH2 0x180 DUP4 DUP4 SUB SLT PUSH2 0xCB8 JUMPI DUP3 MLOAD SWAP1 PUSH8 0xFFFFFFFFFFFFFFFF SWAP2 DUP3 DUP2 GT PUSH2 0xCB8 JUMPI DUP4 PUSH2 0x1002 SWAP2 DUP7 ADD PUSH2 0xF94 JUMP JUMPDEST SWAP4 PUSH1 0x20 DUP2 ADD MLOAD SWAP4 PUSH1 0x40 DUP3 ADD MLOAD PUSH1 0x1 DUP1 PUSH1 0xA0 SHL SUB DUP2 AND DUP2 SUB PUSH2 0xCB8 JUMPI SWAP4 PUSH1 0x60 DUP4 ADD MLOAD DUP2 DUP2 GT PUSH2 0xCB8 JUMPI DUP3 PUSH2 0x1036 SWAP2 DUP6 ADD PUSH2 0xF94 JUMP JUMPDEST SWAP4 PUSH1 0x80 DUP5 ADD MLOAD DUP3 DUP2 GT PUSH2 0xCB8 JUMPI DUP4 PUSH2 0x104F SWAP2 DUP7 ADD PUSH2 0xF94 JUMP JUMPDEST SWAP4 PUSH1 0xA0 DUP2 ADD MLOAD SWAP4 PUSH1 0xC0 DUP3 ADD MLOAD DUP5 DUP2 GT PUSH2 0xCB8 JUMPI DUP2 PUSH2 0x106E SWAP2 DUP5 ADD PUSH2 0xF94 JUMP JUMPDEST SWAP4 PUSH1 0xE0 DUP4 ADD MLOAD DUP2 DUP2 GT PUSH2 0xCB8 JUMPI DUP3 PUSH2 0x1087 SWAP2 DUP6 ADD PUSH2 0xF94 JUMP JUMPDEST SWAP4 PUSH2 0x100 DUP5 ADD MLOAD SWAP4 PUSH2 0x109C PUSH2 0x120 DUP3 ADD PUSH2 0xF00 JUMP JUMPDEST SWAP4 PUSH2 0x140 DUP3 ADD MLOAD DUP5 DUP2 GT PUSH2 0xCB8 JUMPI DUP2 PUSH2 0x10B6 SWAP2 DUP5 ADD PUSH2 0xF94 JUMP JUMPDEST SWAP4 PUSH2 0x160 DUP4 ADD MLOAD SWAP1 DUP2 GT PUSH2 0xCB8 JUMPI PUSH2 0xDBF SWAP3 ADD PUSH2 0xF94 JUMP JUMPDEST ISZERO PUSH2 0x10D5 JUMPI JUMP JUMPDEST PUSH1 0x40 MLOAD PUSH3 0x461BCD PUSH1 0xE5 SHL DUP2 MSTORE PUSH1 0x20 PUSH1 0x4 DUP3 ADD MSTORE PUSH1 0x14 PUSH1 0x24 DUP3 ADD MSTORE PUSH20 0x2737BA103A3432903932B1B7B9321037BBB732B9 PUSH1 0x61 SHL PUSH1 0x44 DUP3 ADD MSTORE PUSH1 0x64 SWAP1 REVERT JUMPDEST SWAP2 SWAP1 SWAP2 DUP3 MLOAD PUSH8 0xFFFFFFFFFFFFFFFF DUP2 GT PUSH2 0xC01 JUMPI PUSH2 0x112F DUP3 SLOAD PUSH2 0xDF0 JUMP JUMPDEST PUSH1 0x1F DUP2 GT PUSH2 0x11D9 JUMPI JUMPDEST POP PUSH1 0x20 DUP1 PUSH1 0x1F DUP4 GT PUSH1 0x1 EQ PUSH2 0x1175 JUMPI POP DUP2 SWAP3 SWAP4 SWAP5 PUSH1 0x0 SWAP3 PUSH2 0x116A JUMPI JUMPDEST POP POP DUP2 PUSH1 0x1 SHL SWAP2 PUSH1 0x0 NOT SWAP1 PUSH1 0x3 SHL SHR NOT AND OR SWAP1 SSTORE JUMP JUMPDEST ADD MLOAD SWAP1 POP CODESIZE DUP1 PUSH2 0x1154 JUMP JUMPDEST SWAP1 PUSH1 0x1F NOT DUP4 AND SWAP6 DUP5 PUSH1 0x0 MSTORE DUP3 PUSH1 0x0 KECCAK256 SWAP3 PUSH1 0x0 SWAP1 JUMPDEST DUP9 DUP3 LT PUSH2 0x11C1 JUMPI POP POP DUP4 PUSH1 0x1 SWAP6 SWAP7 SWAP8 LT PUSH2 0x11A8 JUMPI JUMPDEST POP POP POP DUP2 SHL ADD SWAP1 SSTORE JUMP JUMPDEST ADD MLOAD PUSH1 0x0 NOT PUSH1 0xF8 DUP5 PUSH1 0x3 SHL AND SHR NOT AND SWAP1 SSTORE CODESIZE DUP1 DUP1 PUSH2 0x119E JUMP JUMPDEST DUP1 PUSH1 0x1 DUP6 SWAP7 DUP3 SWAP5 SWAP7 DUP7 ADD MLOAD DUP2 SSTORE ADD SWAP6 ADD SWAP4 ADD SWAP1 PUSH2 0x1189 JUMP JUMPDEST PUSH1 0x0 DUP4 DUP2 MSTORE PUSH1 0x20 DUP2 KECCAK256 PUSH1 0x1F DUP5 ADD PUSH1 0x5 SHR DUP2 ADD SWAP3 PUSH1 0x20 DUP6 LT PUSH2 0x1217 JUMPI JUMPDEST PUSH1 0x1F ADD PUSH1 0x5 SHR ADD SWAP2 JUMPDEST DUP3 DUP2 LT PUSH2 0x120C JUMPI POP POP PUSH2 0x1138 JUMP JUMPDEST DUP2 DUP2 SSTORE PUSH1 0x1 ADD PUSH2 0x11FE JUMP JUMPDEST SWAP1 SWAP3 POP DUP3 SWAP1 PUSH2 0x11F5 JUMP JUMPDEST PUSH2 0x1239 SWAP1 PUSH1 0x20 PUSH1 0x40 MLOAD SWAP3 DUP3 DUP5 DUP1 SWAP5 MLOAD SWAP4 DUP5 SWAP3 ADD PUSH2 0xD15 JUMP JUMPDEST DUP2 ADD SUB SWAP1 KECCAK256 SWAP1 JUMP JUMPDEST SWAP3 SWAP4 SWAP2 SWAP3 SWAP1 SWAP2 PUSH1 0x1 PUSH1 0x1 PUSH1 0xA0 SHL SUB SWAP2 SWAP1 DUP3 DUP5 AND ISZERO PUSH2 0x16F1 JUMPI CALLER DUP4 DUP6 AND EQ PUSH2 0x16AC JUMPI DUP5 ISZERO DUP1 ISZERO PUSH2 0x16A3 JUMPI JUMPDEST ISZERO PUSH2 0x165E JUMPI DUP3 PUSH1 0x5 SLOAD AND SWAP1 PUSH1 0x0 DUP1 PUSH1 0x40 MLOAD SWAP4 PUSH1 0x20 DUP6 ADD PUSH4 0x1F0B428B PUSH1 0xE1 SHL DUP2 MSTORE PUSH1 0x24 SWAP6 DUP9 DUP11 AND DUP8 DUP3 ADD MSTORE DUP7 DUP2 MSTORE PUSH2 0x12A1 DUP2 PUSH2 0xC17 JUMP JUMPDEST MLOAD SWAP2 GAS STATICCALL PUSH2 0x12AD PUSH2 0xED0 JUMP JUMPDEST DUP2 PUSH2 0x163D JUMPI JUMPDEST POP ISZERO PUSH2 0x15E9 JUMPI PUSH1 0x40 MLOAD PUSH1 0x20 DUP2 DUP6 MLOAD PUSH2 0x12CE DUP2 DUP4 DUP6 DUP11 ADD PUSH2 0xD15 JUMP JUMPDEST DUP2 ADD PUSH1 0x3 DUP2 MSTORE SUB ADD SWAP1 KECCAK256 DUP5 DUP7 AND PUSH1 0x0 MSTORE PUSH1 0x20 MSTORE PUSH1 0xFF PUSH1 0x40 PUSH1 0x0 KECCAK256 SLOAD AND PUSH2 0x1544 JUMPI PUSH2 0x13E5 PUSH1 0x40 MLOAD SWAP2 PUSH2 0x12FE DUP4 PUSH2 0xBE4 JUMP JUMPDEST DUP5 DUP4 MSTORE PUSH1 0x7 PUSH1 0x20 DUP5 ADD SWAP2 CALLER DUP4 MSTORE PUSH2 0x13DD DUP12 DUP12 DUP8 DUP11 DUP14 DUP14 PUSH2 0x1359 PUSH1 0x20 PUSH1 0x40 DUP7 ADD SWAP5 DUP4 DUP6 AND DUP7 MSTORE PUSH1 0xE0 PUSH1 0x60 DUP9 ADD SWAP8 TIMESTAMP DUP10 MSTORE PUSH1 0x80 DUP2 ADD SWAP10 DUP11 MSTORE PUSH1 0x1 PUSH1 0xA0 DUP3 ADD MSTORE PUSH1 0xC0 DUP2 ADD SWAP11 DUP12 MSTORE ADD SWAP11 DUP12 MSTORE DUP2 PUSH1 0x40 MLOAD SWAP4 DUP3 DUP6 DUP1 SWAP5 MLOAD SWAP4 DUP5 SWAP3 ADD PUSH2 0xD15 JUMP JUMPDEST DUP2 ADD PUSH1 0x0 DUP2 MSTORE SUB ADD SWAP1 KECCAK256 SWAP2 AND PUSH1 0x0 MSTORE PUSH1 0x20 MSTORE PUSH1 0x40 PUSH1 0x0 KECCAK256 SWAP8 PUSH2 0x137C DUP12 MLOAD DUP11 PUSH2 0x1111 JUMP JUMPDEST DUP14 PUSH1 0x1 DUP11 ADD SWAP2 MLOAD AND SWAP1 PUSH12 0xFFFFFFFFFFFFFFFFFFFFFFFF PUSH1 0xA0 SHL SWAP2 DUP3 DUP3 SLOAD AND OR SWAP1 SSTORE DUP14 PUSH1 0x2 DUP11 ADD SWAP3 MLOAD AND SWAP1 DUP3 SLOAD AND OR SWAP1 SSTORE MLOAD PUSH1 0x3 DUP8 ADD SSTORE MLOAD PUSH1 0x4 DUP7 ADD SSTORE PUSH1 0xA0 PUSH1 0x5 DUP7 ADD SWAP8 ADD MLOAD ISZERO ISZERO SWAP7 PUSH1 0xFF NOT SWAP8 PUSH1 0xFF DUP10 DUP4 SLOAD AND SWAP2 AND OR SWAP1 SSTORE MLOAD PUSH1 0x6 DUP6 ADD PUSH2 0x1111 JUMP JUMPDEST MLOAD SWAP2 ADD PUSH2 0x1111 JUMP JUMPDEST PUSH1 0x40 MLOAD PUSH1 0x20 DUP2 DUP6 MLOAD PUSH2 0x13FA DUP2 DUP4 DUP6 DUP11 ADD PUSH2 0xD15 JUMP JUMPDEST DUP2 ADD PUSH1 0x3 DUP2 MSTORE SUB ADD SWAP1 KECCAK256 DUP5 DUP7 AND PUSH1 0x0 MSTORE PUSH1 0x20 MSTORE PUSH1 0x1 PUSH1 0x40 PUSH1 0x0 KECCAK256 SWAP2 DUP3 SLOAD AND OR SWAP1 SSTORE PUSH1 0x40 MLOAD PUSH1 0x20 DUP2 DUP5 MLOAD PUSH2 0x1430 DUP2 DUP4 DUP6 DUP10 ADD PUSH2 0xD15 JUMP JUMPDEST DUP2 ADD PUSH1 0x1 DUP2 MSTORE SUB ADD SWAP1 KECCAK256 DUP1 SLOAD PUSH9 0x10000000000000000 SWAP2 DUP3 DUP3 LT ISZERO PUSH2 0x152F JUMPI SWAP1 PUSH2 0x145F SWAP2 PUSH1 0x1 DUP3 ADD DUP2 SSTORE PUSH2 0xDC2 JUMP JUMPDEST DUP2 SLOAD SWAP1 PUSH1 0x3 SHL SWAP1 DUP7 DUP1 DUP10 AND DUP4 SHL SWAP3 SHL NOT AND OR SWAP1 SSTORE DUP4 DUP6 AND PUSH1 0x0 MSTORE PUSH1 0x2 PUSH1 0x20 MSTORE PUSH1 0x40 PUSH1 0x0 KECCAK256 DUP1 SLOAD SWAP2 DUP3 LT ISZERO PUSH2 0x151A JUMPI SWAP1 PUSH2 0x149D SWAP2 PUSH1 0x1 DUP3 ADD DUP2 SSTORE PUSH2 0xDC2 JUMP JUMPDEST SWAP2 SWAP1 SWAP2 PUSH2 0x1506 JUMPI POP DUP2 PUSH2 0x14D5 PUSH32 0x4BBD4FDAAF443BFE8EB3270C8762F9881F4BACF6C11FE8C08099ED7B83B4A486 SWAP5 SWAP4 PUSH2 0x14DA SWAP4 PUSH2 0x1111 JUMP JUMPDEST PUSH2 0x1221 JUMP JUMPDEST SWAP3 PUSH2 0x14F0 PUSH1 0x40 MLOAD SWAP7 PUSH1 0x60 DUP9 MSTORE PUSH1 0x60 DUP9 ADD SWAP1 PUSH2 0xD38 JUMP JUMPDEST SWAP5 PUSH1 0x20 DUP8 ADD MSTORE TIMESTAMP PUSH1 0x40 DUP8 ADD MSTORE AND SWAP4 DUP1 CALLER SWAP5 SUB SWAP1 LOG4 JUMP JUMPDEST PUSH4 0x4E487B71 PUSH1 0xE0 SHL PUSH1 0x0 MSTORE PUSH1 0x0 PUSH1 0x4 MSTORE PUSH1 0x0 REVERT JUMPDEST DUP3 PUSH4 0x4E487B71 PUSH1 0xE0 SHL PUSH1 0x0 MSTORE PUSH1 0x41 PUSH1 0x4 MSTORE PUSH1 0x0 REVERT JUMPDEST DUP4 PUSH4 0x4E487B71 PUSH1 0xE0 SHL PUSH1 0x0 MSTORE PUSH1 0x41 PUSH1 0x4 MSTORE PUSH1 0x0 REVERT JUMPDEST POP POP SWAP1 SWAP4 PUSH2 0x14D5 SWAP1 PUSH2 0x15B7 SWAP4 SWAP5 PUSH1 0x40 MLOAD PUSH1 0x20 DUP2 DUP7 MLOAD PUSH2 0x1566 DUP2 DUP4 DUP6 DUP12 ADD PUSH2 0xD15 JUMP JUMPDEST DUP2 ADD PUSH1 0x0 DUP2 MSTORE SUB ADD SWAP1 KECCAK256 DUP8 DUP8 AND PUSH1 0x0 MSTORE PUSH1 0x20 MSTORE PUSH1 0x4 PUSH1 0x40 PUSH1 0x0 KECCAK256 ADD SSTORE PUSH1 0x40 MLOAD PUSH1 0x20 DUP2 DUP6 MLOAD PUSH2 0x1597 DUP2 DUP4 DUP6 DUP11 ADD PUSH2 0xD15 JUMP JUMPDEST DUP2 ADD PUSH1 0x0 DUP2 MSTORE SUB ADD SWAP1 KECCAK256 DUP7 DUP7 AND PUSH1 0x0 MSTORE PUSH1 0x20 MSTORE PUSH1 0x6 PUSH1 0x40 PUSH1 0x0 KECCAK256 ADD PUSH2 0x1111 JUMP JUMPDEST SWAP2 PUSH1 0x40 MLOAD SWAP2 TIMESTAMP DUP4 MSTORE AND SWAP2 PUSH32 0xAD6FA5256D43629AA84CADA3818A35A4B56732482659B18914DAA580FF29FEBD PUSH1 0x20 CALLER SWAP4 LOG4 JUMP JUMPDEST PUSH1 0x40 MLOAD PUSH3 0x461BCD PUSH1 0xE5 SHL DUP2 MSTORE PUSH1 0x20 PUSH1 0x4 DUP3 ADD MSTORE PUSH1 0x27 DUP2 DUP5 ADD MSTORE PUSH32 0x4772616E746565206973206E6F742061207265676973746572656420696E7374 PUSH1 0x44 DUP3 ADD MSTORE PUSH7 0x34BA3ABA34B7B7 PUSH1 0xC9 SHL PUSH1 0x64 DUP3 ADD MSTORE PUSH1 0x84 SWAP1 REVERT JUMPDEST SWAP1 POP PUSH1 0x20 DUP2 DUP1 MLOAD DUP2 ADD SUB SLT PUSH2 0xCB8 JUMPI PUSH1 0x20 PUSH2 0x1658 SWAP2 ADD PUSH2 0xF00 JUMP JUMPDEST CODESIZE PUSH2 0x12B3 JUMP JUMPDEST PUSH1 0x40 MLOAD PUSH3 0x461BCD PUSH1 0xE5 SHL DUP2 MSTORE PUSH1 0x20 PUSH1 0x4 DUP3 ADD MSTORE PUSH1 0x17 PUSH1 0x24 DUP3 ADD MSTORE PUSH32 0x496E76616C69642065787069726174696F6E2074696D65000000000000000000 PUSH1 0x44 DUP3 ADD MSTORE PUSH1 0x64 SWAP1 REVERT JUMPDEST POP TIMESTAMP DUP6 GT PUSH2 0x126B JUMP JUMPDEST PUSH1 0x40 MLOAD PUSH3 0x461BCD PUSH1 0xE5 SHL DUP2 MSTORE PUSH1 0x20 PUSH1 0x4 DUP3 ADD MSTORE PUSH1 0x1B PUSH1 0x24 DUP3 ADD MSTORE PUSH32 0x43616E6E6F74206772616E742061636365737320746F2073656C660000000000 PUSH1 0x44 DUP3 ADD MSTORE PUSH1 0x64 SWAP1 REVERT JUMPDEST PUSH1 0x40 MLOAD PUSH3 0x461BCD PUSH1 0xE5 SHL DUP2 MSTORE PUSH1 0x20 PUSH1 0x4 DUP3 ADD MSTORE PUSH1 0x17 PUSH1 0x24 DUP3 ADD MSTORE PUSH32 0x496E76616C6964206772616E7465652061646472657373000000000000000000 PUSH1 0x44 DUP3 ADD MSTORE PUSH1 0x64 SWAP1 REVERT JUMPDEST ISZERO PUSH2 0x173D JUMPI JUMP JUMPDEST PUSH1 0x40 MLOAD PUSH3 0x461BCD PUSH1 0xE5 SHL DUP2 MSTORE PUSH1 0x20 PUSH1 0x4 DUP3 ADD MSTORE PUSH1 0x16 PUSH1 0x24 DUP3 ADD MSTORE PUSH22 0x139BC81858DD1A5D99481858D8D95CDCC8199BDD5B99 PUSH1 0x52 SHL PUSH1 0x44 DUP3 ADD MSTORE PUSH1 0x64 SWAP1 REVERT JUMPDEST SWAP1 PUSH1 0x40 SWAP1 DUP2 MLOAD SWAP2 DUP4 MLOAD SWAP4 PUSH1 0x20 SWAP4 DUP5 DUP2 DUP2 DUP5 ADD SWAP8 PUSH2 0x1799 DUP2 DUP4 DUP12 PUSH2 0xD15 JUMP JUMPDEST DUP2 ADD PUSH1 0x3 DUP2 MSTORE SUB ADD SWAP1 KECCAK256 SWAP5 PUSH1 0x1 DUP1 PUSH1 0xA0 SHL SUB DUP1 SWAP5 AND SWAP2 PUSH1 0x0 SWAP7 DUP4 DUP9 MSTORE DUP7 MSTORE PUSH1 0xFF DUP5 DUP9 KECCAK256 SLOAD AND ISZERO PUSH2 0x188B JUMPI PUSH2 0x17D9 SWAP2 DUP7 SWAP2 DUP6 MLOAD SWAP4 DUP5 SWAP3 DUP4 SWAP3 MLOAD SWAP3 DUP4 SWAP2 PUSH2 0xD15 JUMP JUMPDEST DUP2 ADD DUP9 DUP2 MSTORE SUB ADD SWAP1 KECCAK256 SWAP1 DUP6 MSTORE DUP4 MSTORE DUP1 DUP5 KECCAK256 SWAP2 DUP2 MLOAD SWAP4 PUSH2 0x17F7 DUP6 PUSH2 0xBE4 JUMP JUMPDEST PUSH2 0x1800 DUP5 PUSH2 0xE2A JUMP JUMPDEST DUP6 MSTORE DUP2 PUSH1 0x1 DUP6 ADD SLOAD AND SWAP1 DUP6 ADD MSTORE PUSH1 0x2 DUP4 ADD SLOAD AND SWAP1 DUP4 ADD MSTORE PUSH1 0x3 DUP2 ADD SLOAD PUSH1 0x60 DUP4 ADD MSTORE PUSH1 0x4 DUP2 ADD SLOAD SWAP2 PUSH1 0x80 DUP2 ADD SWAP3 DUP4 MSTORE PUSH1 0xE0 PUSH2 0x185E PUSH1 0x7 PUSH1 0xFF PUSH1 0x5 DUP7 ADD SLOAD AND SWAP5 PUSH1 0xA0 DUP6 ADD SWAP6 ISZERO ISZERO DUP7 MSTORE PUSH2 0x1853 PUSH1 0x6 DUP3 ADD PUSH2 0xE2A JUMP JUMPDEST PUSH1 0xC0 DUP7 ADD MSTORE ADD PUSH2 0xE2A JUMP JUMPDEST SWAP2 ADD MSTORE MLOAD ISZERO PUSH2 0x1887 JUMPI MLOAD DUP1 ISZERO ISZERO SWAP1 DUP2 PUSH2 0x187D JUMPI JUMPDEST POP PUSH2 0xDBF JUMPI POP PUSH1 0x1 SWAP1 JUMP JUMPDEST SWAP1 POP TIMESTAMP GT CODESIZE PUSH2 0x1872 JUMP JUMPDEST POP SWAP1 JUMP JUMPDEST POP POP POP POP POP POP SWAP1 JUMP INVALID LOG2 PUSH5 0x6970667358 0x22 SLT KECCAK256 0xEB 0xE2 SWAP9 LOG2 0xB8 LOG0 0xC1 BALANCE SWAP10 0xE3 0x1F 0xAC 0xCE ADD PUSH25 0x465A0973C01059EC1D7663EF7DDFA13FF064736F6C63430008 EQ STOP CALLER "},"methodIdentifiers":{"checkAccess(string,address)":"44a08b36","dataVaultContract()":"5d572eaa","expireAccess(string,address)":"baadd702","getGranteeRecords(address)":"6fc8977b","getPermission(string,address)":"065f593b","getRecordGrantees(string)":"d2244b2d","grantAccess(string,address,uint256,string,string)":"0c1244ee","granteeRecords(address,uint256)":"82cb725b","hasAccess(string,address)":"13bd20e2","institutionRegistry()":"1b1fcb04","permissions(string,address)":"f8681e75","recordGrantees(string,uint256)":"edbb398d","revokeAccess(string,address)":"dfe0b5fe"}}}}}