{"contracts/DataVaultContract.sol":{"DataVaultContract":{"abi":[{"inputs":[{"internalType":"address","name":"_institutionRegistry","type":"address"}],"stateMutability":"nonpayable","type":"constructor"},{"anonymous":false,"inputs":[{"indexed":true,"internalType":"string","name":"recordId","type":"string"},{"indexed":true,"internalType":"address","name":"owner","type":"address"},{"indexed":false,"internalType":"uint256","name":"timestamp","type":"uint256"}],"name":"DataDeactivated","type":"event"},{"anonymous":false,"inputs":[{"indexed":true,"internalType":"string","name":"recordId","type":"string"},{"indexed":true,"internalType":"address","name":"owner","type":"address"},{"indexed":false,"internalType":"uint256","name":"timestamp","type":"uint256"}],"name":"DataMetadataUpdated","type":"event"},{"anonymous":false,"inputs":[{"indexed":true,"internalType":"string","name":"recordId","type":"string"},{"indexed":true,"internalType":"address","name":"owner","type":"address"},{"indexed":false,"internalType":"uint256","name":"timestamp","type":"uint256"}],"name":"DataReactivated","type":"event"},{"anonymous":false,"inputs":[{"indexed":true,"internalType":"string","name":"recordId","type":"string"},{"indexed":true,"internalType":"address","name":"owner","type":"address"},{"indexed":false,"internalType":"bytes32","name":"dataHash","type":"bytes32"},{"indexed":false,"internalType":"string","name":"ipfsHash","type":"string"},{"indexed":false,"internalType":"uint256","name":"timestamp","type":"uint256"}],"name":"DataUploaded","type":"event"},{"inputs":[{"internalType":"uint256","name":"","type":"uint256"}],"name":"allRecordIds","outputs":[{"internalType":"string","name":"","type":"string"}],"stateMutability":"view","type":"function"},{"inputs":[{"internalType":"string","name":"","type":"string"}],"name":"dataRecords","outputs":[{"internalType":"string","name":"recordId","type":"string"},{"internalType":"bytes32","name":"dataHash","type":"bytes32"},{"internalType":"address","name":"owner","type":"address"},{"internalType":"string","name":"fileName","type":"string"},{"internalType":"string","name":"fileType","type":"string"},{"internalType":"uint256","name":"fileSize","type":"uint256"},{"internalType":"string","name":"ipfsHash","type":"string"},{"internalType":"string","name":"encryptionAlgorithm","type":"string"},{"internalType":"uint256","name":"uploadedAt","type":"uint256"},{"internalType":"bool","name":"isActive","type":"bool"},{"internalType":"string","name":"metadataURI","type":"string"},{"internalType":"string","name":"category","type":"string"}],"stateMutability":"view","type":"function"},{"inputs":[{"internalType":"string","name":"_recordId","type":"string"}],"name":"deactivateRecord","outputs":[],"stateMutability":"nonpayable","type":"function"},{"inputs":[{"internalType":"string","name":"_recordId","type":"string"}],"name":"getDataRecord","outputs":[{"internalType":"string","name":"recordId","type":"string"},{"internalType":"bytes32","name":"dataHash","type":"bytes32"},{"internalType":"address","name":"owner","type":"address"},{"internalType":"string","name":"fileName","type":"string"},{"internalType":"string","name":"fileType","type":"string"},{"internalType":"uint256","name":"fileSize","type":"uint256"},{"internalType":"string","name":"ipfsHash","type":"string"},{"internalType":"string","name":"encryptionAlgorithm","type":"string"},{"internalType":"uint256","name":"uploadedAt","type":"uint256"},{"internalType":"bool","name":"isActive","type":"bool"},{"internalType":"string","name":"metadataURI","type":"string"},{"internalType":"string","name":"category","type":"string"}],"stateMutability":"view","type":"function"},{"inputs":[{"internalType":"uint256","name":"_index","type":"uint256"}],"name":"getRecordByIndex","outputs":[{"internalType":"string","name":"","type":"string"}],"stateMutability":"view","type":"function"},{"inputs":[{"internalType":"address","name":"_owner","type":"address"}],"name":"getRecordsByOwner","outputs":[{"internalType":"string[]","name":"","type":"string[]"}],"stateMutability":"view","type":"function"},{"inputs":[],"name":"getTotalRecords","outputs":[{"internalType":"uint256","name":"","type":"uint256"}],"stateMutability":"view","type":"function"},{"inputs":[],"name":"institutionRegistry","outputs":[{"internalType":"address","name":"","type":"address"}],"stateMutability":"view","type":"function"},{"inputs":[{"internalType":"address","name":"","type":"address"},{"internalType":"uint256","name":"","type":"uint256"}],"name":"ownerRecords","outputs":[{"internalType":"string","name":"","type":"string"}],"stateMutability":"view","type":"function"},{"inputs":[{"internalType":"string","name":"_recordId","type":"string"}],"name":"reactivateRecord","outputs":[],"stateMutability":"nonpayable","type":"function"},{"inputs":[{"internalType":"string","name":"","type":"string"}],"name":"recordExists","outputs":[{"internalType":"bool","name":"","type":"bool"}],"stateMutability":"view","type":"function"},{"inputs":[{"internalType":"string","name":"_recordId","type":"string"},{"internalType":"string","name":"_metadataURI","type":"string"}],"name":"updateMetadata","outputs":[],"stateMutability":"nonpayable","type":"function"},{"inputs":[{"internalType":"string","name":"_recordId","type":"string"},{"internalType":"bytes32","name":"_dataHash","type":"bytes32"},{"internalType":"string","name":"_fileName","type":"string"},{"internalType":"string","name":"_fileType","type":"string"},{"internalType":"uint256","name":"_fileSize","type":"uint256"},{"internalType":"string","name":"_ipfsHash","type":"string"},{"internalType":"string","name":"_encryptionAlgorithm","type":"string"},{"internalType":"string","name":"_category","type":"string"},{"internalType":"string","name":"_metadataURI","type":"string"}],"name":"uploadData","outputs":[],"stateMutability":"nonpayable","type":"function"},{"inputs":[{"internalType":"string","name":"_recordId","type":"string"},{"internalType":"bytes32","name":"_providedHash","type":"bytes32"}],"name":"verifyData","outputs":[{"internalType":"bool","name":"","type":"bool"}],"stateMutability":"view","type":"function"}],"evm":{"bytecode":{"linkReferences":{},"object":"6080346100bf57601f6114c738819003918201601f19168301916001600160401b038311848410176100c4578084926020946040528339810103126100bf57516001600160a01b038116908190036100bf57801561007a57600480546001600160a01b0319169190911790556040516113ec90816100db8239f35b60405162461bcd60e51b815260206004820152601860248201527f496e76616c6964207265676973747279206164647265737300000000000000006044820152606490fd5b600080fd5b634e487b7160e01b600052604160045260246000fdfe608080604052600436101561001357600080fd5b60003560e01c9081630aeacb5e14610ee2575080631b1fcb0414610eb95780632a601f3314610d895780633a6827d414610c405780633dd390b214610c13578063540248f014610bc5578063552d710514610acb57806356ce0e6c146109d557806374d2f18014610863578063b3d4e03314610810578063b489fac614610780578063c146905114610223578063d1b4b039146101445763e1c627c4146100b957600080fd5b3461013f57602036600319011261013f57600435600354811015610104576100ec6100e661010092610f9c565b5061103b565b604051918291602083526020830190611115565b0390f35b60405162461bcd60e51b8152602060048201526013602482015272496e646578206f7574206f6620626f756e647360681b6044820152606490fd5b600080fd5b3461013f57602036600319011261013f576004356001600160401b03811161013f57602061017961018c923690600401610f55565b81604051938285809451938492016110f2565b8101600081520301902061019f8161103b565b600182015460028301549092610100916001600160a01b0316906101c56003820161103b565b6101d16004830161103b565b60058301546101e26006850161103b565b6101ee6007860161103b565b9160088601549360ff60098801541695610216600b61020f600a8b0161103b565b990161103b565b986040519c8d9c8d611150565b3461013f5761012036600319011261013f576001600160401b0360043581811161013f57610255903690600401610f55565b60443582811161013f5761026d903690600401610f55565b60643583811161013f57610285903690600401610f55565b60a43584811161013f5761029d903690600401610f55565b9360c43581811161013f576102b6903690600401610f55565b60e43582811161013f576102ce903690600401610f55565b926101043583811161013f576102e8903690600401610f55565b9260018060a01b036004541660405191631f0b428b60e11b602084015233602484015260248352826060810110906060840111176105f45781600092916060849301604052602082519201905afa3d15610779573d61034681610f3a565b906103546040519283610f19565b81523d6000602083013e5b81610757575b50156107125760ff604051602081816103848b838151938492016110f2565b8101600281520301902054166106cd57602435156106945784511561064f5786511561060a57604051946103b786610efd565b86865260243560208701523360408701526060860152608085015260843560a08501528560c085015260e08401524261010084015260016101208401526101408301526101608201526104f460405160208185516104188183858a016110f2565b8101600081520301902061042d835182611200565b602083015160018201556002810160018060a01b036040850151166bffffffffffffffffffffffff60a01b82541617905561046f606084015160038301611200565b610480608084015160048301611200565b60a0830151600582015561049b60c084015160068301611200565b6104ac60e084015160078301611200565b6101008301516008820155600b610160600983019461012081015115159560ff199660ff8883541691161790556104eb610140820151600a8601611200565b01519101611200565b6001604051602081855161050b8183858a016110f2565b810160028152030190209182541617905533600052600160205260406000208054906801000000000000000091828110156105f45761054f91600182018155610fe9565b6105de578261055d91611200565b600354908110156105f4578060016105789201600355610f9c565b9190916105de5761058c8161059193611200565b61130f565b7f34a5148f8ec91aeb7c64a6994e32c5862be65fd4cb5ca121d870a45c93044e736105cf604051936024358552606060208601526060850190611115565b924260408201528033940390a3005b634e487b7160e01b600052600060045260246000fd5b634e487b7160e01b600052604160045260246000fd5b60405162461bcd60e51b815260206004820152601960248201527f4950465320686173682063616e6e6f7420626520656d707479000000000000006044820152606490fd5b60405162461bcd60e51b815260206004820152601960248201527f46696c65206e616d652063616e6e6f7420626520656d707479000000000000006044820152606490fd5b60405162461bcd60e51b8152602060048201526011602482015270092dcecc2d8d2c840c8c2e8c240d0c2e6d607b1b6044820152606490fd5b60405162461bcd60e51b815260206004820152601860248201527f5265636f726420494420616c72656164792065786973747300000000000000006044820152606490fd5b60405162461bcd60e51b815260206004820152601c60248201527f4e6f742061207265676973746572656420696e737469747574696f6e000000006044820152606490fd5b905060208180518101031261013f5760200151801515810361013f5788610365565b606061035f565b3461013f57604036600319011261013f576004356001600160401b03811161013f576107b26020913690600401610f55565b6001604051916107e260ff8251948681818601976107d181838b6110f2565b81016002815203019020541661132f565b6107f4604051938492519283916110f2565b8201916000835283816024359403019020015414604051908152f35b3461013f57604036600319011261013f5761082961113a565b6001600160a01b0316600090815260016020526040902080546024359081101561013f5761085d6100ec9161010093610fe9565b906110e1565b3461013f57602036600319011261013f576004356001600160401b03811161013f5760206108986108c6923690600401610f55565b604051906108b560ff8251938581818601966107d181838a6110f2565b6040519384928392519283916110f2565b810160008152030190206040516108dc81610efd565b6108e58261103b565b81526101006001830154916020810192835260018060a01b038060028601541694604083019586526109196003820161103b565b916060840192835261092d6004830161103b565b60808501908152600583015460a0860190815261094c6006850161103b565b60c0870190815261095f6007860161103b565b9160e08801928352600886015493610100890194855260ff600988015416956101208a0196151587526109a8600b610999600a8b0161103b565b996101408d019a8b520161103b565b998a610160820152519b519c5116975190519151925193519451955115159651976040519c8d9c8d611150565b3461013f57604036600319011261013f576001600160401b0360043581811161013f57610a06903690600401610f55565b60243591821161013f5761058c610a24610a9c933690600401610f55565b600a610a8c6020604051610a4760ff8851928481818c01956107d18183896110f2565b610a7b60405160028951610a5c8184876110f2565b82019160008352858160018060a01b0394030190200154163314611373565b6040518093819289519283916110f2565b8101600081520301902001611200565b604051904282527f3c10e5e20050e138eb0910325c8f485ac17a2ace320a2e60bb909b3c5615467f60203393a3005b3461013f5760208060031936011261013f576001600160a01b03610aed61113a565b16600052600190818152604060002080546001600160401b0381116105f457838360405192610b21828260051b0185610f19565b8084528184018095600052826000206000915b838310610b9c5750505050604051928184019082855251809152604084019160408260051b86010195926000905b838210610b6f5786880387f35b90919293948380610b8b839a603f198b82030186528951611115565b999701959493919091019101610b62565b90858086819a989594610bb1859b999b61103b565b815201920192019250969496959395610b34565b3461013f57602036600319011261013f576004356001600160401b03811161013f5760ff610bfd602061017981943690600401610f55565b8101600281520301902054166040519015158152f35b3461013f57602036600319011261013f5760043560035481101561013f576100ec61085d61010092610f9c565b3461013f5760208060031936011261013f576004356001600160401b03811161013f57610c71903690600401610f55565b604051610c8d60ff8351928581818701956107d18183896110f2565b610cc160405160028451610ca28184876110f2565b82019160008352868160018060a01b0394030190200154163314611373565b60ff600960405185818651610cd78183896110f2565b81016000815203019020015416610d4c57906009610d0484610d1f946040518093819287519283916110f2565b8101600081520301902001600160ff1982541617905561130f565b7f54748dd6fbf0824e3c0cb520f1c9625ea97e13250191b7d58eaf1064c4b302cf604051924284523393a3005b60405162461bcd60e51b81526004810184905260156024820152745265636f726420616c72656164792061637469766560581b6044820152606490fd5b3461013f5760208060031936011261013f576004356001600160401b03811161013f57610dba903690600401610f55565b604051610dd660ff8351928581818701956107d18183896110f2565b610deb60405160028451610ca28184876110f2565b60ff600960405185818651610e018183896110f2565b8101600081520301902001541615610e7457906009610e2f84610e47946040518093819287519283916110f2565b810160008152030190200160ff19815416905561130f565b7f94bae1a830b918ee72fa71e68d17b4a106af6752a8a6fa9ebdfefc2a6c24149b604051924284523393a3005b60405162461bcd60e51b815260048101849052601a60248201527f5265636f726420616c72656164792064656163746976617465640000000000006044820152606490fd5b3461013f57600036600319011261013f576004546040516001600160a01b039091168152602090f35b3461013f57600036600319011261013f576020906003548152f35b61018081019081106001600160401b038211176105f457604052565b90601f801991011681019081106001600160401b038211176105f457604052565b6001600160401b0381116105f457601f01601f191660200190565b81601f8201121561013f57803590610f6c82610f3a565b92610f7a6040519485610f19565b8284526020838301011161013f57816000926020809301838601378301015290565b600354811015610fd35760036000527fc2575a0e9e593c00f959f8c92f12db2869c3395a3b0502d05e2516446f71f85b0190600090565b634e487b7160e01b600052603260045260246000fd5b8054821015610fd35760005260206000200190600090565b90600182811c92168015611031575b602083101461101b57565b634e487b7160e01b600052602260045260246000fd5b91607f1691611010565b906040519182600082549261104f84611001565b9081845260019485811690816000146110be575060011461107b575b505061107992500383610f19565b565b9093915060005260209081600020936000915b8183106110a65750506110799350820101388061106b565b8554888401850152948501948794509183019161108e565b91505061107994506020925060ff191682840152151560051b820101388061106b565b906105de576110ef9061103b565b90565b60005b8381106111055750506000910152565b81810151838201526020016110f5565b9060209161112e815180928185528580860191016110f2565b601f01601f1916010190565b600435906001600160a01b038216820361013f57565b9a96906111d4956111a56110ef9e9c98946111f19c9b978f6111c6986111816111b397610180808552840190611115565b60208301949094526001600160a01b03166040820152808303606090910152611115565b8d810360808f015290611115565b9160a08c01528a820360c08c0152611115565b9088820360e08a0152611115565b926101008701521515610120860152848203610140860152611115565b91610160818403910152611115565b91909182516001600160401b0381116105f45761121d8254611001565b601f81116112c7575b50602080601f8311600114611263575081929394600092611258575b50508160011b916000199060031b1c1916179055565b015190503880611242565b90601f198316958460005282600020926000905b8882106112af57505083600195969710611296575b505050811b019055565b015160001960f88460031b161c1916905538808061128c565b80600185968294968601518155019501930190611277565b600083815260208120601f840160051c81019260208510611305575b601f0160051c01915b8281106112fa575050611226565b8181556001016112ec565b90925082906112e3565b611327906020604051928284809451938492016110f2565b810103902090565b1561133657565b60405162461bcd60e51b8152602060048201526015602482015274149958dbdc9908191bd95cc81b9bdd08195e1a5cdd605a1b6044820152606490fd5b1561137a57565b60405162461bcd60e51b81526020600482015260146024820152732737ba103a3432903932b1b7b9321037bbb732b960611b6044820152606490fdfea2646970667358221220d0d8500df7c63352aa79f54c4bf5fb1babd915029220c0df0e78055a71f13f6d64736f6c63430008140033","opcodes":"PUSH1 0x80 CALLVALUE PUSH2 0xBF JUMPI PUSH1 0x1F PUSH2 0x14C7 CODESIZE DUP2 SWAP1 SUB SWAP2 DUP3 ADD PUSH1 0x1F NOT AND DUP4 ADD SWAP2 PUSH1 0x1 PUSH1 0x1 PUSH1 0x40 SHL SUB DUP4 GT DUP5 DUP5 LT OR PUSH2 0xC4 JUMPI DUP1 DUP5 SWAP3 PUSH1 0x20 SWAP5 PUSH1 0x40 MSTORE DUP4 CODECOPY DUP2 ADD SUB SLT PUSH2 0xBF JUMPI MLOAD PUSH1 0x1 PUSH1 0x1 PUSH1 0xA0 SHL SUB DUP2 AND SWAP1 DUP2 SWAP1 SUB PUSH2 0xBF JUMPI DUP1 ISZERO PUSH2 0x7A JUMPI PUSH1 0x4 DUP1 SLOAD PUSH1 0x1 PUSH1 0x1 PUSH1 0xA0 SHL SUB NOT AND SWAP2 SWAP1 SWAP2 OR SWAP1 SSTORE PUSH1 0x40 MLOAD PUSH2 0x13EC SWAP1 DUP2 PUSH2 0xDB DUP3 CODECOPY RETURN JUMPDEST PUSH1 0x40 MLOAD PUSH3 0x461BCD PUSH1 0xE5 SHL DUP2 MSTORE PUSH1 0x20 PUSH1 0x4 DUP3 ADD MSTORE PUSH1 0x18 PUSH1 0x24 DUP3 ADD MSTORE PUSH32 0x496E76616C696420726567697374727920616464726573730000000000000000 PUSH1 0x44 DUP3 ADD MSTORE PUSH1 0x64 SWAP1 REVERT JUMPDEST PUSH1 0x0 DUP1 REVERT JUMPDEST PUSH4 0x4E487B71 PUSH1 0xE0 SHL PUSH1 0x0 MSTORE PUSH1 0x41 PUSH1 0x4 MSTORE PUSH1 0x24 PUSH1 0x0 REVERT INVALID PUSH1 0x80 DUP1 PUSH1 0x40 MSTORE PUSH1 0x4 CALLDATASIZE LT ISZERO PUSH2 0x13 JUMPI PUSH1 0x0 DUP1 REVERT JUMPDEST PUSH1 0x0 CALLDATALOAD PUSH1 0xE0 SHR SWAP1 DUP2 PUSH4 0xAEACB5E EQ PUSH2 0xEE2 JUMPI POP DUP1 PUSH4 0x1B1FCB04 EQ PUSH2 0xEB9 JUMPI DUP1 PUSH4 0x2A601F33 EQ PUSH2 0xD89 JUMPI DUP1 PUSH4 0x3A6827D4 EQ PUSH2 0xC40 JUMPI DUP1 PUSH4 0x3DD390B2 EQ PUSH2 0xC13 JUMPI DUP1 PUSH4 0x540248F0 EQ PUSH2 0xBC5 JUMPI DUP1 PUSH4 0x552D7105 EQ PUSH2 0xACB JUMPI DUP1 PUSH4 0x56CE0E6C EQ PUSH2 0x9D5 JUMPI DUP1 PUSH4 0x74D2F180 EQ PUSH2 0x863 JUMPI DUP1 PUSH4 0xB3D4E033 EQ PUSH2 0x810 JUMPI DUP1 PUSH4 0xB489FAC6 EQ PUSH2 0x780 JUMPI DUP1 PUSH4 0xC1469051 EQ PUSH2 0x223 JUMPI DUP1 PUSH4 0xD1B4B039 EQ PUSH2 0x144 JUMPI PUSH4 0xE1C627C4 EQ PUSH2 0xB9 JUMPI PUSH1 0x0 DUP1 REVERT JUMPDEST CALLVALUE PUSH2 0x13F JUMPI PUSH1 0x20 CALLDATASIZE PUSH1 0x3 NOT ADD SLT PUSH2 0x13F JUMPI PUSH1 0x4 CALLDATALOAD PUSH1 0x3 SLOAD DUP2 LT ISZERO PUSH2 0x104 JUMPI PUSH2 0xEC PUSH2 0xE6 PUSH2 0x100 SWAP3 PUSH2 0xF9C JUMP JUMPDEST POP PUSH2 0x103B JUMP JUMPDEST PUSH1 0x40 MLOAD SWAP2 DUP3 SWAP2 PUSH1 0x20 DUP4 MSTORE PUSH1 0x20 DUP4 ADD SWAP1 PUSH2 0x1115 JUMP JUMPDEST SUB SWAP1 RETURN JUMPDEST PUSH1 0x40 MLOAD PUSH3 0x461BCD PUSH1 0xE5 SHL DUP2 MSTORE PUSH1 0x20 PUSH1 0x4 DUP3 ADD MSTORE PUSH1 0x13 PUSH1 0x24 DUP3 ADD MSTORE PUSH19 0x496E646578206F7574206F6620626F756E6473 PUSH1 0x68 SHL PUSH1 0x44 DUP3 ADD MSTORE PUSH1 0x64 SWAP1 REVERT JUMPDEST PUSH1 0x0 DUP1 REVERT JUMPDEST CALLVALUE PUSH2 0x13F JUMPI PUSH1 0x20 CALLDATASIZE PUSH1 0x3 NOT ADD SLT PUSH2 0x13F JUMPI PUSH1 0x4 CALLDATALOAD PUSH1 0x1 PUSH1 0x1 PUSH1 0x40 SHL SUB DUP2 GT PUSH2 0x13F JUMPI PUSH1 0x20 PUSH2 0x179 PUSH2 0x18C SWAP3 CALLDATASIZE SWAP1 PUSH1 0x4 ADD PUSH2 0xF55 JUMP JUMPDEST DUP2 PUSH1 0x40 MLOAD SWAP4 DUP3 DUP6 DUP1 SWAP5 MLOAD SWAP4 DUP5 SWAP3 ADD PUSH2 0x10F2 JUMP JUMPDEST DUP2 ADD PUSH1 0x0 DUP2 MSTORE SUB ADD SWAP1 KECCAK256 PUSH2 0x19F DUP2 PUSH2 0x103B JUMP JUMPDEST PUSH1 0x1 DUP3 ADD SLOAD PUSH1 0x2 DUP4 ADD SLOAD SWAP1 SWAP3 PUSH2 0x100 SWAP2 PUSH1 0x1 PUSH1 0x1 PUSH1 0xA0 SHL SUB AND SWAP1 PUSH2 0x1C5 PUSH1 0x3 DUP3 ADD PUSH2 0x103B JUMP JUMPDEST PUSH2 0x1D1 PUSH1 0x4 DUP4 ADD PUSH2 0x103B JUMP JUMPDEST PUSH1 0x5 DUP4 ADD SLOAD PUSH2 0x1E2 PUSH1 0x6 DUP6 ADD PUSH2 0x103B JUMP JUMPDEST PUSH2 0x1EE PUSH1 0x7 DUP7 ADD PUSH2 0x103B JUMP JUMPDEST SWAP2 PUSH1 0x8 DUP7 ADD SLOAD SWAP4 PUSH1 0xFF PUSH1 0x9 DUP9 ADD SLOAD AND SWAP6 PUSH2 0x216 PUSH1 0xB PUSH2 0x20F PUSH1 0xA DUP12 ADD PUSH2 0x103B JUMP JUMPDEST SWAP10 ADD PUSH2 0x103B JUMP JUMPDEST SWAP9 PUSH1 0x40 MLOAD SWAP13 DUP14 SWAP13 DUP14 PUSH2 0x1150 JUMP JUMPDEST CALLVALUE PUSH2 0x13F JUMPI PUSH2 0x120 CALLDATASIZE PUSH1 0x3 NOT ADD SLT PUSH2 0x13F JUMPI PUSH1 0x1 PUSH1 0x1 PUSH1 0x40 SHL SUB PUSH1 0x4 CALLDATALOAD DUP2 DUP2 GT PUSH2 0x13F JUMPI PUSH2 0x255 SWAP1 CALLDATASIZE SWAP1 PUSH1 0x4 ADD PUSH2 0xF55 JUMP JUMPDEST PUSH1 0x44 CALLDATALOAD DUP3 DUP2 GT PUSH2 0x13F JUMPI PUSH2 0x26D SWAP1 CALLDATASIZE SWAP1 PUSH1 0x4 ADD PUSH2 0xF55 JUMP JUMPDEST PUSH1 0x64 CALLDATALOAD DUP4 DUP2 GT PUSH2 0x13F JUMPI PUSH2 0x285 SWAP1 CALLDATASIZE SWAP1 PUSH1 0x4 ADD PUSH2 0xF55 JUMP JUMPDEST PUSH1 0xA4 CALLDATALOAD DUP5 DUP2 GT PUSH2 0x13F JUMPI PUSH2 0x29D SWAP1 CALLDATASIZE SWAP1 PUSH1 0x4 ADD PUSH2 0xF55 JUMP JUMPDEST SWAP4 PUSH1 0xC4 CALLDATALOAD DUP2 DUP2 GT PUSH2 0x13F JUMPI PUSH2 0x2B6 SWAP1 CALLDATASIZE SWAP1 PUSH1 0x4 ADD PUSH2 0xF55 JUMP JUMPDEST PUSH1 0xE4 CALLDATALOAD DUP3 DUP2 GT PUSH2 0x13F JUMPI PUSH2 0x2CE SWAP1 CALLDATASIZE SWAP1 PUSH1 0x4 ADD PUSH2 0xF55 JUMP JUMPDEST SWAP3 PUSH2 0x104 CALLDATALOAD DUP4 DUP2 GT PUSH2 0x13F JUMPI PUSH2 0x2E8 SWAP1 CALLDATASIZE SWAP1 PUSH1 0x4 ADD PUSH2 0xF55 JUMP JUMPDEST SWAP3 PUSH1 0x1 DUP1 PUSH1 0xA0 SHL SUB PUSH1 0x4 SLOAD AND PUSH1 0x40 MLOAD SWAP2 PUSH4 0x1F0B428B PUSH1 0xE1 SHL PUSH1 0x20 DUP5 ADD MSTORE CALLER PUSH1 0x24 DUP5 ADD MSTORE PUSH1 0x24 DUP4 MSTORE DUP3 PUSH1 0x60 DUP2 ADD LT SWAP1 PUSH1 0x60 DUP5 ADD GT OR PUSH2 0x5F4 JUMPI DUP2 PUSH1 0x0 SWAP3 SWAP2 PUSH1 0x60 DUP5 SWAP4 ADD PUSH1 0x40 MSTORE PUSH1 0x20 DUP3 MLOAD SWAP3 ADD SWAP1 GAS STATICCALL RETURNDATASIZE ISZERO PUSH2 0x779 JUMPI RETURNDATASIZE PUSH2 0x346 DUP2 PUSH2 0xF3A JUMP JUMPDEST SWAP1 PUSH2 0x354 PUSH1 0x40 MLOAD SWAP3 DUP4 PUSH2 0xF19 JUMP JUMPDEST DUP2 MSTORE RETURNDATASIZE PUSH1 0x0 PUSH1 0x20 DUP4 ADD RETURNDATACOPY JUMPDEST DUP2 PUSH2 0x757 JUMPI JUMPDEST POP ISZERO PUSH2 0x712 JUMPI PUSH1 0xFF PUSH1 0x40 MLOAD PUSH1 0x20 DUP2 DUP2 PUSH2 0x384 DUP12 DUP4 DUP2 MLOAD SWAP4 DUP5 SWAP3 ADD PUSH2 0x10F2 JUMP JUMPDEST DUP2 ADD PUSH1 0x2 DUP2 MSTORE SUB ADD SWAP1 KECCAK256 SLOAD AND PUSH2 0x6CD JUMPI PUSH1 0x24 CALLDATALOAD ISZERO PUSH2 0x694 JUMPI DUP5 MLOAD ISZERO PUSH2 0x64F JUMPI DUP7 MLOAD ISZERO PUSH2 0x60A JUMPI PUSH1 0x40 MLOAD SWAP5 PUSH2 0x3B7 DUP7 PUSH2 0xEFD JUMP JUMPDEST DUP7 DUP7 MSTORE PUSH1 0x24 CALLDATALOAD PUSH1 0x20 DUP8 ADD MSTORE CALLER PUSH1 0x40 DUP8 ADD MSTORE PUSH1 0x60 DUP7 ADD MSTORE PUSH1 0x80 DUP6 ADD MSTORE PUSH1 0x84 CALLDATALOAD PUSH1 0xA0 DUP6 ADD MSTORE DUP6 PUSH1 0xC0 DUP6 ADD MSTORE PUSH1 0xE0 DUP5 ADD MSTORE TIMESTAMP PUSH2 0x100 DUP5 ADD MSTORE PUSH1 0x1 PUSH2 0x120 DUP5 ADD MSTORE PUSH2 0x140 DUP4 ADD MSTORE PUSH2 0x160 DUP3 ADD MSTORE PUSH2 0x4F4 PUSH1 0x40 MLOAD PUSH1 0x20 DUP2 DUP6 MLOAD PUSH2 0x418 DUP2 DUP4 DUP6 DUP11 ADD PUSH2 0x10F2 JUMP JUMPDEST DUP2 ADD PUSH1 0x0 DUP2 MSTORE SUB ADD SWAP1 KECCAK256 PUSH2 0x42D DUP4 MLOAD DUP3 PUSH2 0x1200 JUMP JUMPDEST PUSH1 0x20 DUP4 ADD MLOAD PUSH1 0x1 DUP3 ADD SSTORE PUSH1 0x2 DUP2 ADD PUSH1 0x1 DUP1 PUSH1 0xA0 SHL SUB PUSH1 0x40 DUP6 ADD MLOAD AND PUSH12 0xFFFFFFFFFFFFFFFFFFFFFFFF PUSH1 0xA0 SHL DUP3 SLOAD AND OR SWAP1 SSTORE PUSH2 0x46F PUSH1 0x60 DUP5 ADD MLOAD PUSH1 0x3 DUP4 ADD PUSH2 0x1200 JUMP JUMPDEST PUSH2 0x480 PUSH1 0x80 DUP5 ADD MLOAD PUSH1 0x4 DUP4 ADD PUSH2 0x1200 JUMP JUMPDEST PUSH1 0xA0 DUP4 ADD MLOAD PUSH1 0x5 DUP3 ADD SSTORE PUSH2 0x49B PUSH1 0xC0 DUP5 ADD MLOAD PUSH1 0x6 DUP4 ADD PUSH2 0x1200 JUMP JUMPDEST PUSH2 0x4AC PUSH1 0xE0 DUP5 ADD MLOAD PUSH1 0x7 DUP4 ADD PUSH2 0x1200 JUMP JUMPDEST PUSH2 0x100 DUP4 ADD MLOAD PUSH1 0x8 DUP3 ADD SSTORE PUSH1 0xB PUSH2 0x160 PUSH1 0x9 DUP4 ADD SWAP5 PUSH2 0x120 DUP2 ADD MLOAD ISZERO ISZERO SWAP6 PUSH1 0xFF NOT SWAP7 PUSH1 0xFF DUP9 DUP4 SLOAD AND SWAP2 AND OR SWAP1 SSTORE PUSH2 0x4EB PUSH2 0x140 DUP3 ADD MLOAD PUSH1 0xA DUP7 ADD PUSH2 0x1200 JUMP JUMPDEST ADD MLOAD SWAP2 ADD PUSH2 0x1200 JUMP JUMPDEST PUSH1 0x1 PUSH1 0x40 MLOAD PUSH1 0x20 DUP2 DUP6 MLOAD PUSH2 0x50B DUP2 DUP4 DUP6 DUP11 ADD PUSH2 0x10F2 JUMP JUMPDEST DUP2 ADD PUSH1 0x2 DUP2 MSTORE SUB ADD SWAP1 KECCAK256 SWAP2 DUP3 SLOAD AND OR SWAP1 SSTORE CALLER PUSH1 0x0 MSTORE PUSH1 0x1 PUSH1 0x20 MSTORE PUSH1 0x40 PUSH1 0x0 KECCAK256 DUP1 SLOAD SWAP1 PUSH9 0x10000000000000000 SWAP2 DUP3 DUP2 LT ISZERO PUSH2 0x5F4 JUMPI PUSH2 0x54F SWAP2 PUSH1 0x1 DUP3 ADD DUP2 SSTORE PUSH2 0xFE9 JUMP JUMPDEST PUSH2 0x5DE JUMPI DUP3 PUSH2 0x55D SWAP2 PUSH2 0x1200 JUMP JUMPDEST PUSH1 0x3 SLOAD SWAP1 DUP2 LT ISZERO PUSH2 0x5F4 JUMPI DUP1 PUSH1 0x1 PUSH2 0x578 SWAP3 ADD PUSH1 0x3 SSTORE PUSH2 0xF9C JUMP JUMPDEST SWAP2 SWAP1 SWAP2 PUSH2 0x5DE JUMPI PUSH2 0x58C DUP2 PUSH2 0x591 SWAP4 PUSH2 0x1200 JUMP JUMPDEST PUSH2 0x130F JUMP JUMPDEST PUSH32 0x34A5148F8EC91AEB7C64A6994E32C5862BE65FD4CB5CA121D870A45C93044E73 PUSH2 0x5CF PUSH1 0x40 MLOAD SWAP4 PUSH1 0x24 CALLDATALOAD DUP6 MSTORE PUSH1 0x60 PUSH1 0x20 DUP7 ADD MSTORE PUSH1 0x60 DUP6 ADD SWAP1 PUSH2 0x1115 JUMP JUMPDEST SWAP3 TIMESTAMP PUSH1 0x40 DUP3 ADD MSTORE DUP1 CALLER SWAP5 SUB SWAP1 LOG3 STOP JUMPDEST PUSH4 0x4E487B71 PUSH1 0xE0 SHL PUSH1 0x0 MSTORE PUSH1 0x0 PUSH1 0x4 MSTORE PUSH1 0x24 PUSH1 0x0 REVERT JUMPDEST PUSH4 0x4E487B71 PUSH1 0xE0 SHL PUSH1 0x0 MSTORE PUSH1 0x41 PUSH1 0x4 MSTORE PUSH1 0x24 PUSH1 0x0 REVERT JUMPDEST PUSH1 0x40 MLOAD PUSH3 0x461BCD PUSH1 0xE5 SHL DUP2 MSTORE PUSH1 0x20 PUSH1 0x4 DUP3 ADD MSTORE PUSH1 0x19 PUSH1 0x24 DUP3 ADD MSTORE PUSH32 0x4950465320686173682063616E6E6F7420626520656D70747900000000000000 PUSH1 0x44 DUP3 ADD MSTORE PUSH1 0x64 SWAP1 REVERT JUMPDEST PUSH1 0x40 MLOAD PUSH3 0x461BCD PUSH1 0xE5 SHL DUP2 MSTORE PUSH1 0x20 PUSH1 0x4 DUP3 ADD MSTORE PUSH1 0x19 PUSH1 0x24 DUP3 ADD MSTORE PUSH32 0x46696C65206E616D652063616E6E6F7420626520656D70747900000000000000 PUSH1 0x44 DUP3 ADD MSTORE PUSH1 0x64 SWAP1 REVERT JUMPDEST PUSH1 0x40 MLOAD PUSH3 0x461BCD PUSH1 0xE5 SHL DUP2 MSTORE PUSH1 0x20 PUSH1 0x4 DUP3 ADD MSTORE PUSH1 0x11 PUSH1 0x24 DUP3 ADD MSTORE PUSH17 0x92DCECC2D8D2C840C8C2E8C240D0C2E6D PUSH1 0x7B SHL PUSH1 0x44 DUP3 ADD MSTORE PUSH1 0x64 SWAP1 REVERT JUMPDEST PUSH1 0x40 MLOAD PUSH3 0x461BCD PUSH1 0xE5 SHL DUP2 MSTORE PUSH1 0x20 PUSH1 0x4 DUP3 ADD MSTORE PUSH1 0x18 PUSH1 0x24 DUP3 ADD MSTORE PUSH32 0x5265636F726420494420616C7265616479206578697374730000000000000000 PUSH1 0x44 DUP3 ADD MSTORE PUSH1 0x64 SWAP1 REVERT JUMPDEST PUSH1 0x40 MLOAD PUSH3 0x461BCD PUSH1 0xE5 SHL DUP2 MSTORE PUSH1 0x20 PUSH1 0x4 DUP3 ADD MSTORE PUSH1 0x1C PUSH1 0x24 DUP3 ADD MSTORE PUSH32 0x4E6F742061207265676973746572656420696E737469747574696F6E00000000 PUSH1 0x44 DUP3 ADD MSTORE PUSH1 0x64 SWAP1 REVERT JUMPDEST SWAP1 POP PUSH1 0x20 DUP2 DUP1 MLOAD DUP2 ADD SUB SLT PUSH2 0x13F JUMPI PUSH1 0x20 ADD MLOAD DUP1 ISZERO ISZERO DUP2 SUB PUSH2 0x13F JUMPI DUP9 PUSH2 0x365 JUMP JUMPDEST PUSH1 0x60 PUSH2 0x35F JUMP JUMPDEST CALLVALUE PUSH2 0x13F JUMPI PUSH1 0x40 CALLDATASIZE PUSH1 0x3 NOT ADD SLT PUSH2 0x13F JUMPI PUSH1 0x4 CALLDATALOAD PUSH1 0x1 PUSH1 0x1 PUSH1 0x40 SHL SUB DUP2 GT PUSH2 0x13F JUMPI PUSH2 0x7B2 PUSH1 0x20 SWAP2 CALLDATASIZE SWAP1 PUSH1 0x4 ADD PUSH2 0xF55 JUMP JUMPDEST PUSH1 0x1 PUSH1 0x40 MLOAD SWAP2 PUSH2 0x7E2 PUSH1 0xFF DUP3 MLOAD SWAP5 DUP7 DUP2 DUP2 DUP7 ADD SWAP8 PUSH2 0x7D1 DUP2 DUP4 DUP12 PUSH2 0x10F2 JUMP JUMPDEST DUP2 ADD PUSH1 0x2 DUP2 MSTORE SUB ADD SWAP1 KECCAK256 SLOAD AND PUSH2 0x132F JUMP JUMPDEST PUSH2 0x7F4 PUSH1 0x40 MLOAD SWAP4 DUP5 SWAP3 MLOAD SWAP3 DUP4 SWAP2 PUSH2 0x10F2 JUMP JUMPDEST DUP3 ADD SWAP2 PUSH1 0x0 DUP4 MSTORE DUP4 DUP2 PUSH1 0x24 CALLDATALOAD SWAP5 SUB ADD SWAP1 KECCAK256 ADD SLOAD EQ PUSH1 0x40 MLOAD SWAP1 DUP2 MSTORE RETURN JUMPDEST CALLVALUE PUSH2 0x13F JUMPI PUSH1 0x40 CALLDATASIZE PUSH1 0x3 NOT ADD SLT PUSH2 0x13F JUMPI PUSH2 0x829 PUSH2 0x113A JUMP JUMPDEST PUSH1 0x1 PUSH1 0x1 PUSH1 0xA0 SHL SUB AND PUSH1 0x0 SWAP1 DUP2 MSTORE PUSH1 0x1 PUSH1 0x20 MSTORE PUSH1 0x40 SWAP1 KECCAK256 DUP1 SLOAD PUSH1 0x24 CALLDATALOAD SWAP1 DUP2 LT ISZERO PUSH2 0x13F JUMPI PUSH2 0x85D PUSH2 0xEC SWAP2 PUSH2 0x100 SWAP4 PUSH2 0xFE9 JUMP JUMPDEST SWAP1 PUSH2 0x10E1 JUMP JUMPDEST CALLVALUE PUSH2 0x13F JUMPI PUSH1 0x20 CALLDATASIZE PUSH1 0x3 NOT ADD SLT PUSH2 0x13F JUMPI PUSH1 0x4 CALLDATALOAD PUSH1 0x1 PUSH1 0x1 PUSH1 0x40 SHL SUB DUP2 GT PUSH2 0x13F JUMPI PUSH1 0x20 PUSH2 0x898 PUSH2 0x8C6 SWAP3 CALLDATASIZE SWAP1 PUSH1 0x4 ADD PUSH2 0xF55 JUMP JUMPDEST PUSH1 0x40 MLOAD SWAP1 PUSH2 0x8B5 PUSH1 0xFF DUP3 MLOAD SWAP4 DUP6 DUP2 DUP2 DUP7 ADD SWAP7 PUSH2 0x7D1 DUP2 DUP4 DUP11 PUSH2 0x10F2 JUMP JUMPDEST PUSH1 0x40 MLOAD SWAP4 DUP5 SWAP3 DUP4 SWAP3 MLOAD SWAP3 DUP4 SWAP2 PUSH2 0x10F2 JUMP JUMPDEST DUP2 ADD PUSH1 0x0 DUP2 MSTORE SUB ADD SWAP1 KECCAK256 PUSH1 0x40 MLOAD PUSH2 0x8DC DUP2 PUSH2 0xEFD JUMP JUMPDEST PUSH2 0x8E5 DUP3 PUSH2 0x103B JUMP JUMPDEST DUP2 MSTORE PUSH2 0x100 PUSH1 0x1 DUP4 ADD SLOAD SWAP2 PUSH1 0x20 DUP2 ADD SWAP3 DUP4 MSTORE PUSH1 0x1 DUP1 PUSH1 0xA0 SHL SUB DUP1 PUSH1 0x2 DUP7 ADD SLOAD AND SWAP5 PUSH1 0x40 DUP4 ADD SWAP6 DUP7 MSTORE PUSH2 0x919 PUSH1 0x3 DUP3 ADD PUSH2 0x103B JUMP JUMPDEST SWAP2 PUSH1 0x60 DUP5 ADD SWAP3 DUP4 MSTORE PUSH2 0x92D PUSH1 0x4 DUP4 ADD PUSH2 0x103B JUMP JUMPDEST PUSH1 0x80 DUP6 ADD SWAP1 DUP2 MSTORE PUSH1 0x5 DUP4 ADD SLOAD PUSH1 0xA0 DUP7 ADD SWAP1 DUP2 MSTORE PUSH2 0x94C PUSH1 0x6 DUP6 ADD PUSH2 0x103B JUMP JUMPDEST PUSH1 0xC0 DUP8 ADD SWAP1 DUP2 MSTORE PUSH2 0x95F PUSH1 0x7 DUP7 ADD PUSH2 0x103B JUMP JUMPDEST SWAP2 PUSH1 0xE0 DUP9 ADD SWAP3 DUP4 MSTORE PUSH1 0x8 DUP7 ADD SLOAD SWAP4 PUSH2 0x100 DUP10 ADD SWAP5 DUP6 MSTORE PUSH1 0xFF PUSH1 0x9 DUP9 ADD SLOAD AND SWAP6 PUSH2 0x120 DUP11 ADD SWAP7 ISZERO ISZERO DUP8 MSTORE PUSH2 0x9A8 PUSH1 0xB PUSH2 0x999 PUSH1 0xA DUP12 ADD PUSH2 0x103B JUMP JUMPDEST SWAP10 PUSH2 0x140 DUP14 ADD SWAP11 DUP12 MSTORE ADD PUSH2 0x103B JUMP JUMPDEST SWAP10 DUP11 PUSH2 0x160 DUP3 ADD MSTORE MLOAD SWAP12 MLOAD SWAP13 MLOAD AND SWAP8 MLOAD SWAP1 MLOAD SWAP2 MLOAD SWAP3 MLOAD SWAP4 MLOAD SWAP5 MLOAD SWAP6 MLOAD ISZERO ISZERO SWAP7 MLOAD SWAP8 PUSH1 0x40 MLOAD SWAP13 DUP14 SWAP13 DUP14 PUSH2 0x1150 JUMP JUMPDEST CALLVALUE PUSH2 0x13F JUMPI PUSH1 0x40 CALLDATASIZE PUSH1 0x3 NOT ADD SLT PUSH2 0x13F JUMPI PUSH1 0x1 PUSH1 0x1 PUSH1 0x40 SHL SUB PUSH1 0x4 CALLDATALOAD DUP2 DUP2 GT PUSH2 0x13F JUMPI PUSH2 0xA06 SWAP1 CALLDATASIZE SWAP1 PUSH1 0x4 ADD PUSH2 0xF55 JUMP JUMPDEST PUSH1 0x24 CALLDATALOAD SWAP2 DUP3 GT PUSH2 0x13F JUMPI PUSH2 0x58C PUSH2 0xA24 PUSH2 0xA9C SWAP4 CALLDATASIZE SWAP1 PUSH1 0x4 ADD PUSH2 0xF55 JUMP JUMPDEST PUSH1 0xA PUSH2 0xA8C PUSH1 0x20 PUSH1 0x40 MLOAD PUSH2 0xA47 PUSH1 0xFF DUP9 MLOAD SWAP3 DUP5 DUP2 DUP2 DUP13 ADD SWAP6 PUSH2 0x7D1 DUP2 DUP4 DUP10 PUSH2 0x10F2 JUMP JUMPDEST PUSH2 0xA7B PUSH1 0x40 MLOAD PUSH1 0x2 DUP10 MLOAD PUSH2 0xA5C DUP2 DUP5 DUP8 PUSH2 0x10F2 JUMP JUMPDEST DUP3 ADD SWAP2 PUSH1 0x0 DUP4 MSTORE DUP6 DUP2 PUSH1 0x1 DUP1 PUSH1 0xA0 SHL SUB SWAP5 SUB ADD SWAP1 KECCAK256 ADD SLOAD AND CALLER EQ PUSH2 0x1373 JUMP JUMPDEST PUSH1 0x40 MLOAD DUP1 SWAP4 DUP2 SWAP3 DUP10 MLOAD SWAP3 DUP4 SWAP2 PUSH2 0x10F2 JUMP JUMPDEST DUP2 ADD PUSH1 0x0 DUP2 MSTORE SUB ADD SWAP1 KECCAK256 ADD PUSH2 0x1200 JUMP JUMPDEST PUSH1 0x40 MLOAD SWAP1 TIMESTAMP DUP3 MSTORE PUSH32 0x3C10E5E20050E138EB0910325C8F485AC17A2ACE320A2E60BB909B3C5615467F PUSH1 0x20 CALLER SWAP4 LOG3 STOP JUMPDEST CALLVALUE PUSH2 0x13F JUMPI PUSH1 0x20 DUP1 PUSH1 0x3 NOT CALLDATASIZE ADD SLT PUSH2 0x13F JUMPI PUSH1 0x1 PUSH1 0x1 PUSH1 0xA0 SHL SUB PUSH2 0xAED PUSH2 0x113A JUMP JUMPDEST AND PUSH1 0x0 MSTORE PUSH1 0x1 SWAP1 DUP2 DUP2 MSTORE PUSH1 0x40 PUSH1 0x0 KECCAK256 DUP1 SLOAD PUSH1 0x1 PUSH1 0x1 PUSH1 0x40 SHL SUB DUP2 GT PUSH2 0x5F4 JUMPI DUP4 DUP4 PUSH1 0x40 MLOAD SWAP3 PUSH2 0xB21 DUP3 DUP3 PUSH1 0x5 SHL ADD DUP6 PUSH2 0xF19 JUMP JUMPDEST DUP1 DUP5 MSTORE DUP2 DUP5 ADD DUP1 SWAP6 PUSH1 0x0 MSTORE DUP3 PUSH1 0x0 KECCAK256 PUSH1 0x0 SWAP2 JUMPDEST DUP4 DUP4 LT PUSH2 0xB9C JUMPI POP POP POP POP PUSH1 0x40 MLOAD SWAP3 DUP2 DUP5 ADD SWAP1 DUP3 DUP6 MSTORE MLOAD DUP1 SWAP2 MSTORE PUSH1 0x40 DUP5 ADD SWAP2 PUSH1 0x40 DUP3 PUSH1 0x5 SHL DUP7 ADD ADD SWAP6 SWAP3 PUSH1 0x0 SWAP1 JUMPDEST DUP4 DUP3 LT PUSH2 0xB6F JUMPI DUP7 DUP9 SUB DUP8 RETURN JUMPDEST SWAP1 SWAP2 SWAP3 SWAP4 SWAP5 DUP4 DUP1 PUSH2 0xB8B DUP4 SWAP11 PUSH1 0x3F NOT DUP12 DUP3 SUB ADD DUP7 MSTORE DUP10 MLOAD PUSH2 0x1115 JUMP JUMPDEST SWAP10 SWAP8 ADD SWAP6 SWAP5 SWAP4 SWAP2 SWAP1 SWAP2 ADD SWAP2 ADD PUSH2 0xB62 JUMP JUMPDEST SWAP1 DUP6 DUP1 DUP7 DUP2 SWAP11 SWAP9 SWAP6 SWAP5 PUSH2 0xBB1 DUP6 SWAP12 SWAP10 SWAP12 PUSH2 0x103B JUMP JUMPDEST DUP2 MSTORE ADD SWAP3 ADD SWAP3 ADD SWAP3 POP SWAP7 SWAP5 SWAP7 SWAP6 SWAP4 SWAP6 PUSH2 0xB34 JUMP JUMPDEST CALLVALUE PUSH2 0x13F JUMPI PUSH1 0x20 CALLDATASIZE PUSH1 0x3 NOT ADD SLT PUSH2 0x13F JUMPI PUSH1 0x4 CALLDATALOAD PUSH1 0x1 PUSH1 0x1 PUSH1 0x40 SHL SUB DUP2 GT PUSH2 0x13F JUMPI PUSH1 0xFF PUSH2 0xBFD PUSH1 0x20 PUSH2 0x179 DUP2 SWAP5 CALLDATASIZE SWAP1 PUSH1 0x4 ADD PUSH2 0xF55 JUMP JUMPDEST DUP2 ADD PUSH1 0x2 DUP2 MSTORE SUB ADD SWAP1 KECCAK256 SLOAD AND PUSH1 0x40 MLOAD SWAP1 ISZERO ISZERO DUP2 MSTORE RETURN JUMPDEST CALLVALUE PUSH2 0x13F JUMPI PUSH1 0x20 CALLDATASIZE PUSH1 0x3 NOT ADD SLT PUSH2 0x13F JUMPI PUSH1 0x4 CALLDATALOAD PUSH1 0x3 SLOAD DUP2 LT ISZERO PUSH2 0x13F JUMPI PUSH2 0xEC PUSH2 0x85D PUSH2 0x100 SWAP3 PUSH2 0xF9C JUMP JUMPDEST CALLVALUE PUSH2 0x13F JUMPI PUSH1 0x20 DUP1 PUSH1 0x3 NOT CALLDATASIZE ADD SLT PUSH2 0x13F JUMPI PUSH1 0x4 CALLDATALOAD PUSH1 0x1 PUSH1 0x1 PUSH1 0x40 SHL SUB DUP2 GT PUSH2 0x13F JUMPI PUSH2 0xC71 SWAP1 CALLDATASIZE SWAP1 PUSH1 0x4 ADD PUSH2 0xF55 JUMP JUMPDEST PUSH1 0x40 MLOAD PUSH2 0xC8D PUSH1 0xFF DUP4 MLOAD SWAP3 DUP6 DUP2 DUP2 DUP8 ADD SWAP6 PUSH2 0x7D1 DUP2 DUP4 DUP10 PUSH2 0x10F2 JUMP JUMPDEST PUSH2 0xCC1 PUSH1 0x40 MLOAD PUSH1 0x2 DUP5 MLOAD PUSH2 0xCA2 DUP2 DUP5 DUP8 PUSH2 0x10F2 JUMP JUMPDEST DUP3 ADD SWAP2 PUSH1 0x0 DUP4 MSTORE DUP7 DUP2 PUSH1 0x1 DUP1 PUSH1 0xA0 SHL SUB SWAP5 SUB ADD SWAP1 KECCAK256 ADD SLOAD AND CALLER EQ PUSH2 0x1373 JUMP JUMPDEST PUSH1 0xFF PUSH1 0x9 PUSH1 0x40 MLOAD DUP6 DUP2 DUP7 MLOAD PUSH2 0xCD7 DUP2 DUP4 DUP10 PUSH2 0x10F2 JUMP JUMPDEST DUP2 ADD PUSH1 0x0 DUP2 MSTORE SUB ADD SWAP1 KECCAK256 ADD SLOAD AND PUSH2 0xD4C JUMPI SWAP1 PUSH1 0x9 PUSH2 0xD04 DUP5 PUSH2 0xD1F SWAP5 PUSH1 0x40 MLOAD DUP1 SWAP4 DUP2 SWAP3 DUP8 MLOAD SWAP3 DUP4 SWAP2 PUSH2 0x10F2 JUMP JUMPDEST DUP2 ADD PUSH1 0x0 DUP2 MSTORE SUB ADD SWAP1 KECCAK256 ADD PUSH1 0x1 PUSH1 0xFF NOT DUP3 SLOAD AND OR SWAP1 SSTORE PUSH2 0x130F JUMP JUMPDEST PUSH32 0x54748DD6FBF0824E3C0CB520F1C9625EA97E13250191B7D58EAF1064C4B302CF PUSH1 0x40 MLOAD SWAP3 TIMESTAMP DUP5 MSTORE CALLER SWAP4 LOG3 STOP JUMPDEST PUSH1 0x40 MLOAD PUSH3 0x461BCD PUSH1 0xE5 SHL DUP2 MSTORE PUSH1 0x4 DUP2 ADD DUP5 SWAP1 MSTORE PUSH1 0x15 PUSH1 0x24 DUP3 ADD MSTORE PUSH21 0x5265636F726420616C726561647920616374697665 PUSH1 0x58 SHL PUSH1 0x44 DUP3 ADD MSTORE PUSH1 0x64 SWAP1 REVERT JUMPDEST CALLVALUE PUSH2 0x13F JUMPI PUSH1 0x20 DUP1 PUSH1 0x3 NOT CALLDATASIZE ADD SLT PUSH2 0x13F JUMPI PUSH1 0x4 CALLDATALOAD PUSH1 0x1 PUSH1 0x1 PUSH1 0x40 SHL SUB DUP2 GT PUSH2 0x13F JUMPI PUSH2 0xDBA SWAP1 CALLDATASIZE SWAP1 PUSH1 0x4 ADD PUSH2 0xF55 JUMP JUMPDEST PUSH1 0x40 MLOAD PUSH2 0xDD6 PUSH1 0xFF DUP4 MLOAD SWAP3 DUP6 DUP2 DUP2 DUP8 ADD SWAP6 PUSH2 0x7D1 DUP2 DUP4 DUP10 PUSH2 0x10F2 JUMP JUMPDEST PUSH2 0xDEB PUSH1 0x40 MLOAD PUSH1 0x2 DUP5 MLOAD PUSH2 0xCA2 DUP2 DUP5 DUP8 PUSH2 0x10F2 JUMP JUMPDEST PUSH1 0xFF PUSH1 0x9 PUSH1 0x40 MLOAD DUP6 DUP2 DUP7 MLOAD PUSH2 0xE01 DUP2 DUP4 DUP10 PUSH2 0x10F2 JUMP JUMPDEST DUP2 ADD PUSH1 0x0 DUP2 MSTORE SUB ADD SWAP1 KECCAK256 ADD SLOAD AND ISZERO PUSH2 0xE74 JUMPI SWAP1 PUSH1 0x9 PUSH2 0xE2F DUP5 PUSH2 0xE47 SWAP5 PUSH1 0x40 MLOAD DUP1 SWAP4 DUP2 SWAP3 DUP8 MLOAD SWAP3 DUP4 SWAP2 PUSH2 0x10F2 JUMP JUMPDEST DUP2 ADD PUSH1 0x0 DUP2 MSTORE SUB ADD SWAP1 KECCAK256 ADD PUSH1 0xFF NOT DUP2 SLOAD AND SWAP1 SSTORE PUSH2 0x130F JUMP JUMPDEST PUSH32 0x94BAE1A830B918EE72FA71E68D17B4A106AF6752A8A6FA9EBDFEFC2A6C24149B PUSH1 0x40 MLOAD SWAP3 TIMESTAMP DUP5 MSTORE CALLER SWAP4 LOG3 STOP JUMPDEST PUSH1 0x40 MLOAD PUSH3 0x461BCD PUSH1 0xE5 SHL DUP2 MSTORE PUSH1 0x4 DUP2 ADD DUP5 SWAP1 MSTORE PUSH1 0x1A PUSH1 0x24 DUP3 ADD MSTORE PUSH32 0x5265636F726420616C7265616479206465616374697661746564000000000000 PUSH1 0x44 DUP3 ADD MSTORE PUSH1 0x64 SWAP1 REVERT JUMPDEST CALLVALUE PUSH2 0x13F JUMPI PUSH1 0x0 CALLDATASIZE PUSH1 0x3 NOT ADD SLT PUSH2 0x13F JUMPI PUSH1 0x4 SLOAD PUSH1 0x40 MLOAD PUSH1 0x1 PUSH1 0x1 PUSH1 0xA0 SHL SUB SWAP1 SWAP2 AND DUP2 MSTORE PUSH1 0x20 SWAP1 RETURN JUMPDEST CALLVALUE PUSH2 0x13F JUMPI PUSH1 0x0 CALLDATASIZE PUSH1 0x3 NOT ADD SLT PUSH2 0x13F JUMPI PUSH1 0x20 SWAP1 PUSH1 0x3 SLOAD DUP2 MSTORE RETURN JUMPDEST PUSH2 0x180 DUP2 ADD SWAP1 DUP2 LT PUSH1 0x1 PUSH1 0x1 PUSH1 0x40 SHL SUB DUP3 GT OR PUSH2 0x5F4 JUMPI PUSH1 0x40 MSTORE JUMP JUMPDEST SWAP1 PUSH1 0x1F DUP1 NOT SWAP2 ADD AND DUP2 ADD SWAP1 DUP2 LT PUSH1 0x1 PUSH1 0x1 PUSH1 0x40 SHL SUB DUP3 GT OR PUSH2 0x5F4 JUMPI PUSH1 0x40 MSTORE JUMP JUMPDEST PUSH1 0x1 PUSH1 0x1 PUSH1 0x40 SHL SUB DUP2 GT PUSH2 0x5F4 JUMPI PUSH1 0x1F ADD PUSH1 0x1F NOT AND PUSH1 0x20 ADD SWAP1 JUMP JUMPDEST DUP2 PUSH1 0x1F DUP3 ADD SLT ISZERO PUSH2 0x13F JUMPI DUP1 CALLDATALOAD SWAP1 PUSH2 0xF6C DUP3 PUSH2 0xF3A JUMP JUMPDEST SWAP3 PUSH2 0xF7A PUSH1 0x40 MLOAD SWAP5 DUP6 PUSH2 0xF19 JUMP JUMPDEST DUP3 DUP5 MSTORE PUSH1 0x20 DUP4 DUP4 ADD ADD GT PUSH2 0x13F JUMPI DUP2 PUSH1 0x0 SWAP3 PUSH1 0x20 DUP1 SWAP4 ADD DUP4 DUP7 ADD CALLDATACOPY DUP4 ADD ADD MSTORE SWAP1 JUMP JUMPDEST PUSH1 0x3 SLOAD DUP2 LT ISZERO PUSH2 0xFD3 JUMPI PUSH1 0x3 PUSH1 0x0 MSTORE PUSH32 0xC2575A0E9E593C00F959F8C92F12DB2869C3395A3B0502D05E2516446F71F85B ADD SWAP1 PUSH1 0x0 SWAP1 JUMP JUMPDEST PUSH4 0x4E487B71 PUSH1 0xE0 SHL PUSH1 0x0 MSTORE PUSH1 0x32 PUSH1 0x4 MSTORE PUSH1 0x24 PUSH1 0x0 REVERT JUMPDEST DUP1 SLOAD DUP3 LT ISZERO PUSH2 0xFD3 JUMPI PUSH1 0x0 MSTORE PUSH1 0x20 PUSH1 0x0 KECCAK256 ADD SWAP1 PUSH1 0x0 SWAP1 JUMP JUMPDEST SWAP1 PUSH1 0x1 DUP3 DUP2 SHR SWAP3 AND DUP1 ISZERO PUSH2 0x1031 JUMPI JUMPDEST PUSH1 0x20 DUP4 LT EQ PUSH2 0x101B JUMPI JUMP JUMPDEST PUSH4 0x4E487B71 PUSH1 0xE0 SHL PUSH1 0x0 MSTORE PUSH1 0x22 PUSH1 0x4 MSTORE PUSH1 0x24 PUSH1 0x0 REVERT JUMPDEST SWAP2 PUSH1 0x7F AND SWAP2 PUSH2 0x1010 JUMP JUMPDEST SWAP1 PUSH1 0x40 MLOAD SWAP2 DUP3 PUSH1 0x0 DUP3 SLOAD SWAP3 PUSH2 0x104F DUP5 PUSH2 0x1001 JUMP JUMPDEST SWAP1 DUP2 DUP5 MSTORE PUSH1 0x1 SWAP5 DUP6 DUP2 AND SWAP1 DUP2 PUSH1 0x0 EQ PUSH2 0x10BE JUMPI POP PUSH1 0x1 EQ PUSH2 0x107B JUMPI JUMPDEST POP POP PUSH2 0x1079 SWAP3 POP SUB DUP4 PUSH2 0xF19 JUMP JUMPDEST JUMP JUMPDEST SWAP1 SWAP4 SWAP2 POP PUSH1 0x0 MSTORE PUSH1 0x20 SWAP1 DUP2 PUSH1 0x0 KECCAK256 SWAP4 PUSH1 0x0 SWAP2 JUMPDEST DUP2 DUP4 LT PUSH2 0x10A6 JUMPI POP POP PUSH2 0x1079 SWAP4 POP DUP3 ADD ADD CODESIZE DUP1 PUSH2 0x106B JUMP JUMPDEST DUP6 SLOAD DUP9 DUP5 ADD DUP6 ADD MSTORE SWAP5 DUP6 ADD SWAP5 DUP8 SWAP5 POP SWAP2 DUP4 ADD SWAP2 PUSH2 0x108E JUMP JUMPDEST SWAP2 POP POP PUSH2 0x1079 SWAP5 POP PUSH1 0x20 SWAP3 POP PUSH1 0xFF NOT AND DUP3 DUP5 ADD MSTORE ISZERO ISZERO PUSH1 0x5 SHL DUP3 ADD ADD CODESIZE DUP1 PUSH2 0x106B JUMP JUMPDEST SWAP1 PUSH2 0x5DE JUMPI PUSH2 0x10EF SWAP1 PUSH2 0x103B JUMP JUMPDEST SWAP1 JUMP JUMPDEST PUSH1 0x0 JUMPDEST DUP4 DUP2 LT PUSH2 0x1105 JUMPI POP POP PUSH1 0x0 SWAP2 ADD MSTORE JUMP JUMPDEST DUP2 DUP2 ADD MLOAD DUP4 DUP3 ADD MSTORE PUSH1 0x20 ADD PUSH2 0x10F5 JUMP JUMPDEST SWAP1 PUSH1 0x20 SWAP2 PUSH2 0x112E DUP2 MLOAD DUP1 SWAP3 DUP2 DUP6 MSTORE DUP6 DUP1 DUP7 ADD SWAP2 ADD PUSH2 0x10F2 JUMP JUMPDEST PUSH1 0x1F ADD PUSH1 0x1F NOT AND ADD ADD SWAP1 JUMP JUMPDEST PUSH1 0x4 CALLDATALOAD SWAP1 PUSH1 0x1 PUSH1 0x1 PUSH1 0xA0 SHL SUB DUP3 AND DUP3 SUB PUSH2 0x13F JUMPI JUMP JUMPDEST SWAP11 SWAP7 SWAP1 PUSH2 0x11D4 SWAP6 PUSH2 0x11A5 PUSH2 0x10EF SWAP15 SWAP13 SWAP9 SWAP5 PUSH2 0x11F1 SWAP13 SWAP12 SWAP8 DUP16 PUSH2 0x11C6 SWAP9 PUSH2 0x1181 PUSH2 0x11B3 SWAP8 PUSH2 0x180 DUP1 DUP6 MSTORE DUP5 ADD SWAP1 PUSH2 0x1115 JUMP JUMPDEST PUSH1 0x20 DUP4 ADD SWAP5 SWAP1 SWAP5 MSTORE PUSH1 0x1 PUSH1 0x1 PUSH1 0xA0 SHL SUB AND PUSH1 0x40 DUP3 ADD MSTORE DUP1 DUP4 SUB PUSH1 0x60 SWAP1 SWAP2 ADD MSTORE PUSH2 0x1115 JUMP JUMPDEST DUP14 DUP2 SUB PUSH1 0x80 DUP16 ADD MSTORE SWAP1 PUSH2 0x1115 JUMP JUMPDEST SWAP2 PUSH1 0xA0 DUP13 ADD MSTORE DUP11 DUP3 SUB PUSH1 0xC0 DUP13 ADD MSTORE PUSH2 0x1115 JUMP JUMPDEST SWAP1 DUP9 DUP3 SUB PUSH1 0xE0 DUP11 ADD MSTORE PUSH2 0x1115 JUMP JUMPDEST SWAP3 PUSH2 0x100 DUP8 ADD MSTORE ISZERO ISZERO PUSH2 0x120 DUP7 ADD MSTORE DUP5 DUP3 SUB PUSH2 0x140 DUP7 ADD MSTORE PUSH2 0x1115 JUMP JUMPDEST SWAP2 PUSH2 0x160 DUP2 DUP5 SUB SWAP2 ADD MSTORE PUSH2 0x1115 JUMP JUMPDEST SWAP2 SWAP1 SWAP2 DUP3 MLOAD PUSH1 0x1 PUSH1 0x1 PUSH1 0x40 SHL SUB DUP2 GT PUSH2 0x5F4 JUMPI PUSH2 0x121D DUP3 SLOAD PUSH2 0x1001 JUMP JUMPDEST PUSH1 0x1F DUP2 GT PUSH2 0x12C7 JUMPI JUMPDEST POP PUSH1 0x20 DUP1 PUSH1 0x1F DUP4 GT PUSH1 0x1 EQ PUSH2 0x1263 JUMPI POP DUP2 SWAP3 SWAP4 SWAP5 PUSH1 0x0 SWAP3 PUSH2 0x1258 JUMPI JUMPDEST POP POP DUP2 PUSH1 0x1 SHL SWAP2 PUSH1 0x0 NOT SWAP1 PUSH1 0x3 SHL SHR NOT AND OR SWAP1 SSTORE JUMP JUMPDEST ADD MLOAD SWAP1 POP CODESIZE DUP1 PUSH2 0x1242 JUMP JUMPDEST SWAP1 PUSH1 0x1F NOT DUP4 AND SWAP6 DUP5 PUSH1 0x0 MSTORE DUP3 PUSH1 0x0 KECCAK256 SWAP3 PUSH1 0x0 SWAP1 JUMPDEST DUP9 DUP3 LT PUSH2 0x12AF JUMPI POP POP DUP4 PUSH1 0x1 SWAP6 SWAP7 SWAP8 LT PUSH2 0x1296 JUMPI JUMPDEST POP POP POP DUP2 SHL ADD SWAP1 SSTORE JUMP JUMPDEST ADD MLOAD PUSH1 0x0 NOT PUSH1 0xF8 DUP5 PUSH1 0x3 SHL AND SHR NOT AND SWAP1 SSTORE CODESIZE DUP1 DUP1 PUSH2 0x128C JUMP JUMPDEST DUP1 PUSH1 0x1 DUP6 SWAP7 DUP3 SWAP5 SWAP7 DUP7 ADD MLOAD DUP2 SSTORE ADD SWAP6 ADD SWAP4 ADD SWAP1 PUSH2 0x1277 JUMP JUMPDEST PUSH1 0x0 DUP4 DUP2 MSTORE PUSH1 0x20 DUP2 KECCAK256 PUSH1 0x1F DUP5 ADD PUSH1 0x5 SHR DUP2 ADD SWAP3 PUSH1 0x20 DUP6 LT PUSH2 0x1305 JUMPI JUMPDEST PUSH1 0x1F ADD PUSH1 0x5 SHR ADD SWAP2 JUMPDEST DUP3 DUP2 LT PUSH2 0x12FA JUMPI POP POP PUSH2 0x1226 JUMP JUMPDEST DUP2 DUP2 SSTORE PUSH1 0x1 ADD PUSH2 0x12EC JUMP JUMPDEST SWAP1 SWAP3 POP DUP3 SWAP1 PUSH2 0x12E3 JUMP JUMPDEST PUSH2 0x1327 SWAP1 PUSH1 0x20 PUSH1 0x40 MLOAD SWAP3 DUP3 DUP5 DUP1 SWAP5 MLOAD SWAP4 DUP5 SWAP3 ADD PUSH2 0x10F2 JUMP JUMPDEST DUP2 ADD SUB SWAP1 KECCAK256 SWAP1 JUMP JUMPDEST ISZERO PUSH2 0x1336 JUMPI JUMP JUMPDEST PUSH1 0x40 MLOAD PUSH3 0x461BCD PUSH1 0xE5 SHL DUP2 MSTORE PUSH1 0x20 PUSH1 0x4 DUP3 ADD MSTORE PUSH1 0x15 PUSH1 0x24 DUP3 ADD MSTORE PUSH21 0x149958DBDC9908191BD95CC81B9BDD08195E1A5CDD PUSH1 0x5A SHL PUSH1 0x44 DUP3 ADD MSTORE PUSH1 0x64 SWAP1 REVERT JUMPDEST ISZERO PUSH2 0x137A JUMPI JUMP JUMPDEST PUSH1 0x40 MLOAD PUSH3 0x461BCD PUSH1 0xE5 SHL DUP2 MSTORE PUSH1 0x20 PUSH1 0x4 DUP3 ADD MSTORE PUSH1 0x14 PUSH1 0x24 DUP3 ADD MSTORE PUSH20 0x2737BA103A3432903932B1B7B9321037BBB732B9 PUSH1 0x61 SHL PUSH1 0x44 DUP3 ADD MSTORE PUSH1 0x64 SWAP1 REVERT INVALID LOG2 PUSH5 0x6970667358 0x22 SLT KECCAK256 0xD0 0xD8 POP 0xD 0xF7 0xC6 CALLER MSTORE 0xAA PUSH26 0xF54C4BF5FB1BABD915029220C0DF0E78055A71F13F6D64736F6C PUSH4 0x43000814 STOP CALLER "},"methodIdentifiers":{"allRecordIds(uint256)":"3dd390b2","dataRecords(string)":"d1b4b039","deactivateRecord(string)":"2a601f33","getDataRecord(string)":"74d2f180","getRecordByIndex(uint256)":"e1c627c4","getRecordsByOwner(address)":"552d7105","getTotalRecords()":"0aeacb5e","institutionRegistry()":"1b1fcb04","ownerRecords(address,uint256)":"b3d4e033","reactivateRecord(string)":"3a6827d4","recordExists(string)":"540248f0","updateMetadata(string,string)":"56ce0e6c","uploadData(string,bytes32,string,string,uint256,string,string,string,string)":"c1469051","verifyData(string,bytes32)":"b489fac6"}}}}}