{"contracts/InstitutionRegistry.sol":{"InstitutionRegistry":{"abi":[{"inputs":[],"stateMutability":"nonpayable","type":"constructor"},{"anonymous":false,"inputs":[{"indexed":true,"internalType":"address","name":"wallet","type":"address"},{"indexed":false,"internalType":"uint256","name":"timestamp","type":"uint256"}],"name":"InstitutionDeactivated","type":"event"},{"anonymous":false,"inputs":[{"indexed":true,"internalType":"address","name":"wallet","type":"address"},{"indexed":false,"internalType":"uint256","name":"timestamp","type":"uint256"}],"name":"InstitutionReactivated","type":"event"},{"anonymous":false,"inputs":[{"indexed":true,"internalType":"address","name":"wallet","type":"address"},{"indexed":false,"internalType":"string","name":"name","type":"string"},{"indexed":false,"internalType":"string","name":"institutionType","type":"string"},{"indexed":false,"internalType":"uint256","name":"timestamp","type":"uint256"}],"name":"InstitutionRegistered","type":"event"},{"anonymous":false,"inputs":[{"indexed":true,"internalType":"address","name":"wallet","type":"address"},{"indexed":false,"internalType":"string","name":"name","type":"string"},{"indexed":false,"internalType":"uint256","name":"timestamp","type":"uint256"}],"name":"InstitutionUpdated","type":"event"},{"inputs":[{"internalType":"address","name":"_wallet","type":"address"}],"name":"deactivateInstitution","outputs":[],"stateMutability":"nonpayable","type":"function"},{"inputs":[{"internalType":"address","name":"_wallet","type":"address"}],"name":"getInstitution","outputs":[{"internalType":"string","name":"name","type":"string"},{"internalType":"string","name":"institutionType","type":"string"},{"internalType":"string","name":"registrationNumber","type":"string"},{"internalType":"address","name":"walletAddress","type":"address"},{"internalType":"uint256","name":"registeredAt","type":"uint256"},{"internalType":"bool","name":"isActive","type":"bool"},{"internalType":"string","name":"metadataURI","type":"string"}],"stateMutability":"view","type":"function"},{"inputs":[{"internalType":"uint256","name":"_index","type":"uint256"}],"name":"getInstitutionByIndex","outputs":[{"internalType":"address","name":"","type":"address"}],"stateMutability":"view","type":"function"},{"inputs":[],"name":"getTotalInstitutions","outputs":[{"internalType":"uint256","name":"","type":"uint256"}],"stateMutability":"view","type":"function"},{"inputs":[{"internalType":"uint256","name":"","type":"uint256"}],"name":"institutionAddresses","outputs":[{"internalType":"address","name":"","type":"address"}],"stateMutability":"view","type":"function"},{"inputs":[{"internalType":"address","name":"","type":"address"}],"name":"institutions","outputs":[{"internalType":"string","name":"name","type":"string"},{"internalType":"string","name":"institutionType","type":"string"},{"internalType":"string","name":"registrationNumber","type":"string"},{"internalType":"address","name":"walletAddress","type":"address"},{"internalType":"uint256","name":"registeredAt","type":"uint256"},{"internalType":"bool","name":"isActive","type":"bool"},{"internalType":"string","name":"metadataURI","type":"string"}],"stateMutability":"view","type":"function"},{"inputs":[{"internalType":"address","name":"","type":"address"}],"name":"isRegistered","outputs":[{"internalType":"bool","name":"","type":"bool"}],"stateMutability":"view","type":"function"},{"inputs":[],"name":"owner","outputs":[{"internalType":"address","name":"","type":"address"}],"stateMutability":"view","type":"function"},{"inputs":[{"internalType":"address","name":"_wallet","type":"address"}],"name":"reactivateInstitution","outputs":[],"stateMutability":"nonpayable","type":"function"},{"inputs":[{"internalType":"address","name":"_walletAddress","type":"address"},{"internalType":"string","name":"_name","type":"string"},{"internalType":"string","name":"_institutionType","type":"string"},{"internalType":"string","name":"_registrationNumber","type":"string"},{"internalType":"string","name":"_metadataURI","type":"string"}],"name":"registerInstitution","outputs":[],"stateMutability":"nonpayable","type":"function"},{"inputs":[{"internalType":"string","name":"_name","type":"string"},{"internalType":"string","name":"_metadataURI","type":"string"}],"name":"updateInstitution","outputs":[],"stateMutability":"nonpayable","type":"function"},{"inputs":[{"internalType":"address","name":"_wallet","type":"address"}],"name":"verifyInstitution","outputs":[{"internalType":"bool","name":"","type":"bool"}],"stateMutability":"view","type":"function"}],"evm":{"bytecode":{"linkReferences":{},"object":"6080806040523461002857600380546001600160a01b03191633179055611442908161002e8239f35b600080fdfe608080604052600436101561001357600080fd5b60003560e01c9081633e1685161461105557508063594598be146110375780637119923614610f4f5780637f41683514610f265780638da5cb5b14610efd578063a354c5b214610e80578063a354e08e14610d8f578063b2d9767f14610d06578063b445b7f61461097b578063c3c5a5471461093c578063c3e168ab146101975763c6bd734e146100a357600080fd5b3461019257602080600319360112610192576100bd6110ac565b6003546001600160a01b0391906100d79083163314611371565b169081600052600181526100f260ff604060002054166113c8565b816000526000815260ff600560406000200154161561014e577fb745a626a355a4fe2a9617333e0db79e43d4f21f73418eb9116fe779127c306c908260005260008152600560406000200160ff198154169055604051428152a2005b6064906040519062461bcd60e51b82526004820152601f60248201527f496e737469747574696f6e20616c7265616479206465616374697661746564006044820152fd5b600080fd5b346101925760a0366003190112610192576101b06110ac565b60243567ffffffffffffffff8111610192576101d09036906004016112d7565b60443567ffffffffffffffff8111610192576101f09036906004016112d7565b60643567ffffffffffffffff8111610192576102109036906004016112d7565b60843567ffffffffffffffff8111610192576102309036906004016112d7565b6001600160a01b03851660009081526001602052604090205460ff166108f75761025c8451151561132e565b8251156108b3576001600160a01b03851615610875576040519161027f836111f3565b848352836020840152604083015260018060a01b0385166060830152426080830152600160a083015260c082015260018060a01b0384166000526000602052604060002090805180519067ffffffffffffffff82116105435781906102e485546111b9565b601f8111610825575b50602090601f83116001146107b9576000926107ae575b50508160011b916000199060031b1c19161782555b602081015180519067ffffffffffffffff821161054357819061033f60018601546111b9565b601f811161075b575b50602090601f83116001146106e9576000926106de575b50508160011b916000199060031b1c19161760018301555b604081015180519067ffffffffffffffff82116105435761039b60028501546111b9565b601f8111610697575b50602090601f83116001146106245760c093929160009183610619575b50508160011b916000199060031b1c19161760028401555b6003830160018060a01b036060830151166bffffffffffffffffffffffff60a01b825416179055608081015160048401556005830160a0820151151560ff80198354169116179055015180519067ffffffffffffffff82116105435761044260068401546111b9565b601f81116105d2575b50602090601f8311600114610564576006929160009183610559575b50508160011b916000199060031b1c1916179101555b60018060a01b03831660005260016020526040600020600160ff1982541617905560025491680100000000000000008310156105435761052c61051e926104eb8560017f2d10a18eca5d453423fca77c61f6b5675540c603317b9f24882ee50da5569063970160025561116c565b81546001600160a01b0389811660039390931b92831b921b191617905560405160608082529094859490918501906110c2565b9083820360208501526110c2565b4260408301526001600160a01b03909416930390a2005b634e487b7160e01b600052604160045260246000fd5b015190508780610467565b90601f198316916006850160005260206000209260005b8181106105ba575091600193918560069694106105a1575b505050811b0191015561047d565b015160001960f88460031b161c19169055878080610593565b9293602060018192878601518155019501930161057b565b600684016000526020600020601f840160051c810160208510610612575b601f830160051c8201811061060657505061044b565b600081556001016105f0565b50806105f0565b0151905088806103c1565b906002850160005260206000209160005b601f198516811061067f575091839160019360c09695601f19811610610666575b505050811b0160028401556103d9565b015160001960f88460031b161c19169055888080610656565b91926020600181928685015181550194019201610635565b600285016000526020600020601f840160051c8101602085106106d7575b601f830160051c820181106106cb5750506103a4565b600081556001016106b5565b50806106b5565b01519050878061035f565b9250600185016000526020600020906000935b601f1984168510610740576001945083601f19811610610727575b505050811b016001830155610377565b015160001960f88460031b161c19169055878080610717565b818101518355602094850194600190930192909101906106fc565b909150600185016000526020600020601f840160051c8101602085106107a7575b90849392915b601f830160051c82018110610798575050610348565b60008155859450600101610782565b508061077c565b015190508780610304565b9250846000526020600020906000935b601f198416851061080a576001945083601f198116106107f1575b505050811b018255610319565b015160001960f88460031b161c191690558780806107e4565b818101518355602094850194600190930192909101906107c9565b909150846000526020600020601f840160051c81016020851061086e575b90849392915b601f830160051c8201811061085f5750506102ed565b60008155859450600101610849565b5080610843565b60405162461bcd60e51b8152602060048201526016602482015275496e76616c69642077616c6c6574206164647265737360501b6044820152606490fd5b606460405162461bcd60e51b815260206004820152602060248201527f496e737469747574696f6e20747970652063616e6e6f7420626520656d7074796044820152fd5b60405162461bcd60e51b815260206004820152601e60248201527f496e737469747574696f6e20616c7265616479207265676973746572656400006044820152606490fd5b34610192576020366003190112610192576001600160a01b0361095d6110ac565b166000526001602052602060ff604060002054166040519015158152f35b346101925760403660031901126101925767ffffffffffffffff600435818111610192576109ad9036906004016112d7565b602435828111610192576109c59036906004016112d7565b903360005260019160209383855260ff6040600020541615610cc157336000526000855260ff6005604060002001541615610c7c57610a068351151561132e565b336000526000855260406000209383519482861161054357610a2881546111b9565b95601f96878111610c36575b508088888211600114610bd557600091610bca575b50600019600383901b1c191690831b1790555b3360005260008652600660406000200192805192831161054357610a8084546111b9565b868111610b84575b5086958311600114610b025782917f7b160d34ba749ddf83adedee3d4afc3715fb0a01251f1e86525585e5a13c4dc4968392600094610af7575b50501b916000199060031b1c19161790555b610ae9604051916040835260408301906110c2565b9242908201528033930390a2005b015192508880610ac2565b601f9291921982169584600052876000209160005b89898210610b70575050837f7b160d34ba749ddf83adedee3d4afc3715fb0a01251f1e86525585e5a13c4dc49810610b57575b505050811b019055610ad4565b015160001960f88460031b161c19169055868080610b4a565b828401518555938601939283019201610b17565b84600052876000208780860160051c8201928a8710610bc1575b0160051c019083905b828110610bb5575050610a88565b60008155018390610ba7565b92508192610b9e565b905086015189610a49565b849250601f19821690846000528a6000209160005b8c828210610c205750508311610c07575b5050811b019055610a5c565b88015160001960f88460031b161c191690558980610bfb565b838c015185558896909401939283019201610bea565b82600052886000208880840160051c8201928b8510610c73575b0160051c019084905b828110610c67575050610a34565b60008155018490610c59565b92508192610c50565b60405162461bcd60e51b815260048101869052601a60248201527f496e737469747574696f6e2069732064656163746976617465640000000000006044820152606490fd5b60405162461bcd60e51b815260048101869052601a60248201527f496e737469747574696f6e206e6f7420726567697374657265640000000000006044820152606490fd5b34610192576020366003190112610192576001600160a01b0380610d286110ac565b166000526000602052604060002090610d8b610d4383611231565b91610d5060018501611231565b93610d5d60028201611231565b91600382015416600482015490610d7e600660ff6005860154169401611231565b9360405197889788611102565b0390f35b346101925760208060031936011261019257610da96110ac565b6003546001600160a01b039190610dc39083163314611371565b16908160005260018152610dde60ff604060002054166113c8565b816000526000815260ff60056040600020015416610e3c577f2bfea66b50069ddba7202e01f1ad6beb8b3875485bb9a198e9f9fbe9cd3822459082600052600081526005604060002001600160ff19825416179055604051428152a2005b6064906040519062461bcd60e51b82526004820152601a60248201527f496e737469747574696f6e20616c7265616479206163746976650000000000006044820152fd5b3461019257602036600319011261019257600435600254811015610ec257610ea960209161116c565b905460405160039290921b1c6001600160a01b03168152f35b60405162461bcd60e51b8152602060048201526013602482015272496e646578206f7574206f6620626f756e647360681b6044820152606490fd5b34610192576000366003190112610192576003546040516001600160a01b039091168152602090f35b346101925760203660031901126101925760043560025481101561019257610ea960209161116c565b34610192576020366003190112610192576001600160a01b0380610f716110ac565b16806000526001602052610f8c60ff604060002054166113c8565b6000526000602052604060002090610d8b604051610fa9816111f3565b610fb284611231565b8152610fc060018501611231565b9260208201938452610fd460028601611231565b946040830195865281600382015416916060840192835260048201549060808501918252611015600660ff6005860154169460a08801951515865201611231565b948560c082015251965197519351169051915115159260405197889788611102565b34610192576000366003190112610192576020600254604051908152f35b34610192576020366003190112610192576020906001600160a01b036110796110ac565b166000526001825260ff6040600020541680611096575b15158152f35b506000825260ff60056040600020015416611090565b600435906001600160a01b038216820361019257565b919082519283825260005b8481106110ee575050826000602080949584010152601f8019910116010190565b6020818301810151848301820152016110cd565b93959261113161116998969361112361113f9460e0895260e08901906110c2565b9087820360208901526110c2565b9085820360408701526110c2565b6001600160a01b0390951660608401526080830152151560a082015280830360c0909101526110c2565b90565b6002548110156111a35760026000527f405787fa12a823e0f2b7631cc41b3ba8828b3321ca811111fa75cd3aa3bb5ace0190600090565b634e487b7160e01b600052603260045260246000fd5b90600182811c921680156111e9575b60208310146111d357565b634e487b7160e01b600052602260045260246000fd5b91607f16916111c8565b60e0810190811067ffffffffffffffff82111761054357604052565b90601f8019910116810190811067ffffffffffffffff82111761054357604052565b9060405191826000825492611245846111b9565b9081845260019485811690816000146112b45750600114611271575b505061126f9250038361120f565b565b9093915060005260209081600020936000915b81831061129c57505061126f93508201013880611261565b85548884018501529485019487945091830191611284565b91505061126f94506020925060ff191682840152151560051b8201013880611261565b81601f820112156101925780359067ffffffffffffffff8211610543576040519261130c601f8401601f19166020018561120f565b8284526020838301011161019257816000926020809301838601378301015290565b1561133557565b60405162461bcd60e51b81526020600482015260146024820152734e616d652063616e6e6f7420626520656d70747960601b6044820152606490fd5b1561137857565b60405162461bcd60e51b815260206004820152602260248201527f4f6e6c79206f776e65722063616e20706572666f726d2074686973206163746960448201526137b760f11b6064820152608490fd5b156113cf57565b60405162461bcd60e51b8152602060048201526015602482015274125b9cdd1a5d1d5d1a5bdb881b9bdd08199bdd5b99605a1b6044820152606490fdfea26469706673582212205c183a6478a61b67351696ab5b2cac5774224c41f9939163ecbb26f03e76958464736f6c63430008140033","opcodes":"PUSH1 0x80 DUP1 PUSH1 0x40 MSTORE CALLVALUE PUSH2 0x28 JUMPI PUSH1 0x3 DUP1 SLOAD PUSH1 0x1 PUSH1 0x1 PUSH1 0xA0 SHL SUB NOT AND CALLER OR SWAP1 SSTORE PUSH2 0x1442 SWAP1 DUP2 PUSH2 0x2E DUP3 CODECOPY RETURN JUMPDEST PUSH1 0x0 DUP1 REVERT INVALID PUSH1 0x80 DUP1 PUSH1 0x40 MSTORE PUSH1 0x4 CALLDATASIZE LT ISZERO PUSH2 0x13 JUMPI PUSH1 0x0 DUP1 REVERT JUMPDEST PUSH1 0x0 CALLDATALOAD PUSH1 0xE0 SHR SWAP1 DUP2 PUSH4 0x3E168516 EQ PUSH2 0x1055 JUMPI POP DUP1 PUSH4 0x594598BE EQ PUSH2 0x1037 JUMPI DUP1 PUSH4 0x71199236 EQ PUSH2 0xF4F JUMPI DUP1 PUSH4 0x7F416835 EQ PUSH2 0xF26 JUMPI DUP1 PUSH4 0x8DA5CB5B EQ PUSH2 0xEFD JUMPI DUP1 PUSH4 0xA354C5B2 EQ PUSH2 0xE80 JUMPI DUP1 PUSH4 0xA354E08E EQ PUSH2 0xD8F JUMPI DUP1 PUSH4 0xB2D9767F EQ PUSH2 0xD06 JUMPI DUP1 PUSH4 0xB445B7F6 EQ PUSH2 0x97B JUMPI DUP1 PUSH4 0xC3C5A547 EQ PUSH2 0x93C JUMPI DUP1 PUSH4 0xC3E168AB EQ PUSH2 0x197 JUMPI PUSH4 0xC6BD734E EQ PUSH2 0xA3 JUMPI PUSH1 0x0 DUP1 REVERT JUMPDEST CALLVALUE PUSH2 0x192 JUMPI PUSH1 0x20 DUP1 PUSH1 0x3 NOT CALLDATASIZE ADD SLT PUSH2 0x192 JUMPI PUSH2 0xBD PUSH2 0x10AC JUMP JUMPDEST PUSH1 0x3 SLOAD PUSH1 0x1 PUSH1 0x1 PUSH1 0xA0 SHL SUB SWAP2 SWAP1 PUSH2 0xD7 SWAP1 DUP4 AND CALLER EQ PUSH2 0x1371 JUMP JUMPDEST AND SWAP1 DUP2 PUSH1 0x0 MSTORE PUSH1 0x1 DUP2 MSTORE PUSH2 0xF2 PUSH1 0xFF PUSH1 0x40 PUSH1 0x0 KECCAK256 SLOAD AND PUSH2 0x13C8 JUMP JUMPDEST DUP2 PUSH1 0x0 MSTORE PUSH1 0x0 DUP2 MSTORE PUSH1 0xFF PUSH1 0x5 PUSH1 0x40 PUSH1 0x0 KECCAK256 ADD SLOAD AND ISZERO PUSH2 0x14E JUMPI PUSH32 0xB745A626A355A4FE2A9617333E0DB79E43D4F21F73418EB9116FE779127C306C SWAP1 DUP3 PUSH1 0x0 MSTORE PUSH1 0x0 DUP2 MSTORE PUSH1 0x5 PUSH1 0x40 PUSH1 0x0 KECCAK256 ADD PUSH1 0xFF NOT DUP2 SLOAD AND SWAP1 SSTORE PUSH1 0x40 MLOAD TIMESTAMP DUP2 MSTORE LOG2 STOP JUMPDEST PUSH1 0x64 SWAP1 PUSH1 0x40 MLOAD SWAP1 PUSH3 0x461BCD PUSH1 0xE5 SHL DUP3 MSTORE PUSH1 0x4 DUP3 ADD MSTORE PUSH1 0x1F PUSH1 0x24 DUP3 ADD MSTORE PUSH32 0x496E737469747574696F6E20616C726561647920646561637469766174656400 PUSH1 0x44 DUP3 ADD MSTORE REVERT JUMPDEST PUSH1 0x0 DUP1 REVERT JUMPDEST CALLVALUE PUSH2 0x192 JUMPI PUSH1 0xA0 CALLDATASIZE PUSH1 0x3 NOT ADD SLT PUSH2 0x192 JUMPI PUSH2 0x1B0 PUSH2 0x10AC JUMP JUMPDEST PUSH1 0x24 CALLDATALOAD PUSH8 0xFFFFFFFFFFFFFFFF DUP2 GT PUSH2 0x192 JUMPI PUSH2 0x1D0 SWAP1 CALLDATASIZE SWAP1 PUSH1 0x4 ADD PUSH2 0x12D7 JUMP JUMPDEST PUSH1 0x44 CALLDATALOAD PUSH8 0xFFFFFFFFFFFFFFFF DUP2 GT PUSH2 0x192 JUMPI PUSH2 0x1F0 SWAP1 CALLDATASIZE SWAP1 PUSH1 0x4 ADD PUSH2 0x12D7 JUMP JUMPDEST PUSH1 0x64 CALLDATALOAD PUSH8 0xFFFFFFFFFFFFFFFF DUP2 GT PUSH2 0x192 JUMPI PUSH2 0x210 SWAP1 CALLDATASIZE SWAP1 PUSH1 0x4 ADD PUSH2 0x12D7 JUMP JUMPDEST PUSH1 0x84 CALLDATALOAD PUSH8 0xFFFFFFFFFFFFFFFF DUP2 GT PUSH2 0x192 JUMPI PUSH2 0x230 SWAP1 CALLDATASIZE SWAP1 PUSH1 0x4 ADD PUSH2 0x12D7 JUMP JUMPDEST PUSH1 0x1 PUSH1 0x1 PUSH1 0xA0 SHL SUB DUP6 AND PUSH1 0x0 SWAP1 DUP2 MSTORE PUSH1 0x1 PUSH1 0x20 MSTORE PUSH1 0x40 SWAP1 KECCAK256 SLOAD PUSH1 0xFF AND PUSH2 0x8F7 JUMPI PUSH2 0x25C DUP5 MLOAD ISZERO ISZERO PUSH2 0x132E JUMP JUMPDEST DUP3 MLOAD ISZERO PUSH2 0x8B3 JUMPI PUSH1 0x1 PUSH1 0x1 PUSH1 0xA0 SHL SUB DUP6 AND ISZERO PUSH2 0x875 JUMPI PUSH1 0x40 MLOAD SWAP2 PUSH2 0x27F DUP4 PUSH2 0x11F3 JUMP JUMPDEST DUP5 DUP4 MSTORE DUP4 PUSH1 0x20 DUP5 ADD MSTORE PUSH1 0x40 DUP4 ADD MSTORE PUSH1 0x1 DUP1 PUSH1 0xA0 SHL SUB DUP6 AND PUSH1 0x60 DUP4 ADD MSTORE TIMESTAMP PUSH1 0x80 DUP4 ADD MSTORE PUSH1 0x1 PUSH1 0xA0 DUP4 ADD MSTORE PUSH1 0xC0 DUP3 ADD MSTORE PUSH1 0x1 DUP1 PUSH1 0xA0 SHL SUB DUP5 AND PUSH1 0x0 MSTORE PUSH1 0x0 PUSH1 0x20 MSTORE PUSH1 0x40 PUSH1 0x0 KECCAK256 SWAP1 DUP1 MLOAD DUP1 MLOAD SWAP1 PUSH8 0xFFFFFFFFFFFFFFFF DUP3 GT PUSH2 0x543 JUMPI DUP2 SWAP1 PUSH2 0x2E4 DUP6 SLOAD PUSH2 0x11B9 JUMP JUMPDEST PUSH1 0x1F DUP2 GT PUSH2 0x825 JUMPI JUMPDEST POP PUSH1 0x20 SWAP1 PUSH1 0x1F DUP4 GT PUSH1 0x1 EQ PUSH2 0x7B9 JUMPI PUSH1 0x0 SWAP3 PUSH2 0x7AE JUMPI JUMPDEST POP POP DUP2 PUSH1 0x1 SHL SWAP2 PUSH1 0x0 NOT SWAP1 PUSH1 0x3 SHL SHR NOT AND OR DUP3 SSTORE JUMPDEST PUSH1 0x20 DUP2 ADD MLOAD DUP1 MLOAD SWAP1 PUSH8 0xFFFFFFFFFFFFFFFF DUP3 GT PUSH2 0x543 JUMPI DUP2 SWAP1 PUSH2 0x33F PUSH1 0x1 DUP7 ADD SLOAD PUSH2 0x11B9 JUMP JUMPDEST PUSH1 0x1F DUP2 GT PUSH2 0x75B JUMPI JUMPDEST POP PUSH1 0x20 SWAP1 PUSH1 0x1F DUP4 GT PUSH1 0x1 EQ PUSH2 0x6E9 JUMPI PUSH1 0x0 SWAP3 PUSH2 0x6DE JUMPI JUMPDEST POP POP DUP2 PUSH1 0x1 SHL SWAP2 PUSH1 0x0 NOT SWAP1 PUSH1 0x3 SHL SHR NOT AND OR PUSH1 0x1 DUP4 ADD SSTORE JUMPDEST PUSH1 0x40 DUP2 ADD MLOAD DUP1 MLOAD SWAP1 PUSH8 0xFFFFFFFFFFFFFFFF DUP3 GT PUSH2 0x543 JUMPI PUSH2 0x39B PUSH1 0x2 DUP6 ADD SLOAD PUSH2 0x11B9 JUMP JUMPDEST PUSH1 0x1F DUP2 GT PUSH2 0x697 JUMPI JUMPDEST POP PUSH1 0x20 SWAP1 PUSH1 0x1F DUP4 GT PUSH1 0x1 EQ PUSH2 0x624 JUMPI PUSH1 0xC0 SWAP4 SWAP3 SWAP2 PUSH1 0x0 SWAP2 DUP4 PUSH2 0x619 JUMPI JUMPDEST POP POP DUP2 PUSH1 0x1 SHL SWAP2 PUSH1 0x0 NOT SWAP1 PUSH1 0x3 SHL SHR NOT AND OR PUSH1 0x2 DUP5 ADD SSTORE JUMPDEST PUSH1 0x3 DUP4 ADD PUSH1 0x1 DUP1 PUSH1 0xA0 SHL SUB PUSH1 0x60 DUP4 ADD MLOAD AND PUSH12 0xFFFFFFFFFFFFFFFFFFFFFFFF PUSH1 0xA0 SHL DUP3 SLOAD AND OR SWAP1 SSTORE PUSH1 0x80 DUP2 ADD MLOAD PUSH1 0x4 DUP5 ADD SSTORE PUSH1 0x5 DUP4 ADD PUSH1 0xA0 DUP3 ADD MLOAD ISZERO ISZERO PUSH1 0xFF DUP1 NOT DUP4 SLOAD AND SWAP2 AND OR SWAP1 SSTORE ADD MLOAD DUP1 MLOAD SWAP1 PUSH8 0xFFFFFFFFFFFFFFFF DUP3 GT PUSH2 0x543 JUMPI PUSH2 0x442 PUSH1 0x6 DUP5 ADD SLOAD PUSH2 0x11B9 JUMP JUMPDEST PUSH1 0x1F DUP2 GT PUSH2 0x5D2 JUMPI JUMPDEST POP PUSH1 0x20 SWAP1 PUSH1 0x1F DUP4 GT PUSH1 0x1 EQ PUSH2 0x564 JUMPI PUSH1 0x6 SWAP3 SWAP2 PUSH1 0x0 SWAP2 DUP4 PUSH2 0x559 JUMPI JUMPDEST POP POP DUP2 PUSH1 0x1 SHL SWAP2 PUSH1 0x0 NOT SWAP1 PUSH1 0x3 SHL SHR NOT AND OR SWAP2 ADD SSTORE JUMPDEST PUSH1 0x1 DUP1 PUSH1 0xA0 SHL SUB DUP4 AND PUSH1 0x0 MSTORE PUSH1 0x1 PUSH1 0x20 MSTORE PUSH1 0x40 PUSH1 0x0 KECCAK256 PUSH1 0x1 PUSH1 0xFF NOT DUP3 SLOAD AND OR SWAP1 SSTORE PUSH1 0x2 SLOAD SWAP2 PUSH9 0x10000000000000000 DUP4 LT ISZERO PUSH2 0x543 JUMPI PUSH2 0x52C PUSH2 0x51E SWAP3 PUSH2 0x4EB DUP6 PUSH1 0x1 PUSH32 0x2D10A18ECA5D453423FCA77C61F6B5675540C603317B9F24882EE50DA5569063 SWAP8 ADD PUSH1 0x2 SSTORE PUSH2 0x116C JUMP JUMPDEST DUP2 SLOAD PUSH1 0x1 PUSH1 0x1 PUSH1 0xA0 SHL SUB DUP10 DUP2 AND PUSH1 0x3 SWAP4 SWAP1 SWAP4 SHL SWAP3 DUP4 SHL SWAP3 SHL NOT AND OR SWAP1 SSTORE PUSH1 0x40 MLOAD PUSH1 0x60 DUP1 DUP3 MSTORE SWAP1 SWAP5 DUP6 SWAP5 SWAP1 SWAP2 DUP6 ADD SWAP1 PUSH2 0x10C2 JUMP JUMPDEST SWAP1 DUP4 DUP3 SUB PUSH1 0x20 DUP6 ADD MSTORE PUSH2 0x10C2 JUMP JUMPDEST TIMESTAMP PUSH1 0x40 DUP4 ADD MSTORE PUSH1 0x1 PUSH1 0x1 PUSH1 0xA0 SHL SUB SWAP1 SWAP5 AND SWAP4 SUB SWAP1 LOG2 STOP JUMPDEST PUSH4 0x4E487B71 PUSH1 0xE0 SHL PUSH1 0x0 MSTORE PUSH1 0x41 PUSH1 0x4 MSTORE PUSH1 0x24 PUSH1 0x0 REVERT JUMPDEST ADD MLOAD SWAP1 POP DUP8 DUP1 PUSH2 0x467 JUMP JUMPDEST SWAP1 PUSH1 0x1F NOT DUP4 AND SWAP2 PUSH1 0x6 DUP6 ADD PUSH1 0x0 MSTORE PUSH1 0x20 PUSH1 0x0 KECCAK256 SWAP3 PUSH1 0x0 JUMPDEST DUP2 DUP2 LT PUSH2 0x5BA JUMPI POP SWAP2 PUSH1 0x1 SWAP4 SWAP2 DUP6 PUSH1 0x6 SWAP7 SWAP5 LT PUSH2 0x5A1 JUMPI JUMPDEST POP POP POP DUP2 SHL ADD SWAP2 ADD SSTORE PUSH2 0x47D JUMP JUMPDEST ADD MLOAD PUSH1 0x0 NOT PUSH1 0xF8 DUP5 PUSH1 0x3 SHL AND SHR NOT AND SWAP1 SSTORE DUP8 DUP1 DUP1 PUSH2 0x593 JUMP JUMPDEST SWAP3 SWAP4 PUSH1 0x20 PUSH1 0x1 DUP2 SWAP3 DUP8 DUP7 ADD MLOAD DUP2 SSTORE ADD SWAP6 ADD SWAP4 ADD PUSH2 0x57B JUMP JUMPDEST PUSH1 0x6 DUP5 ADD PUSH1 0x0 MSTORE PUSH1 0x20 PUSH1 0x0 KECCAK256 PUSH1 0x1F DUP5 ADD PUSH1 0x5 SHR DUP2 ADD PUSH1 0x20 DUP6 LT PUSH2 0x612 JUMPI JUMPDEST PUSH1 0x1F DUP4 ADD PUSH1 0x5 SHR DUP3 ADD DUP2 LT PUSH2 0x606 JUMPI POP POP PUSH2 0x44B JUMP JUMPDEST PUSH1 0x0 DUP2 SSTORE PUSH1 0x1 ADD PUSH2 0x5F0 JUMP JUMPDEST POP DUP1 PUSH2 0x5F0 JUMP JUMPDEST ADD MLOAD SWAP1 POP DUP9 DUP1 PUSH2 0x3C1 JUMP JUMPDEST SWAP1 PUSH1 0x2 DUP6 ADD PUSH1 0x0 MSTORE PUSH1 0x20 PUSH1 0x0 KECCAK256 SWAP2 PUSH1 0x0 JUMPDEST PUSH1 0x1F NOT DUP6 AND DUP2 LT PUSH2 0x67F JUMPI POP SWAP2 DUP4 SWAP2 PUSH1 0x1 SWAP4 PUSH1 0xC0 SWAP7 SWAP6 PUSH1 0x1F NOT DUP2 AND LT PUSH2 0x666 JUMPI JUMPDEST POP POP POP DUP2 SHL ADD PUSH1 0x2 DUP5 ADD SSTORE PUSH2 0x3D9 JUMP JUMPDEST ADD MLOAD PUSH1 0x0 NOT PUSH1 0xF8 DUP5 PUSH1 0x3 SHL AND SHR NOT AND SWAP1 SSTORE DUP9 DUP1 DUP1 PUSH2 0x656 JUMP JUMPDEST SWAP2 SWAP3 PUSH1 0x20 PUSH1 0x1 DUP2 SWAP3 DUP7 DUP6 ADD MLOAD DUP2 SSTORE ADD SWAP5 ADD SWAP3 ADD PUSH2 0x635 JUMP JUMPDEST PUSH1 0x2 DUP6 ADD PUSH1 0x0 MSTORE PUSH1 0x20 PUSH1 0x0 KECCAK256 PUSH1 0x1F DUP5 ADD PUSH1 0x5 SHR DUP2 ADD PUSH1 0x20 DUP6 LT PUSH2 0x6D7 JUMPI JUMPDEST PUSH1 0x1F DUP4 ADD PUSH1 0x5 SHR DUP3 ADD DUP2 LT PUSH2 0x6CB JUMPI POP POP PUSH2 0x3A4 JUMP JUMPDEST PUSH1 0x0 DUP2 SSTORE PUSH1 0x1 ADD PUSH2 0x6B5 JUMP JUMPDEST POP DUP1 PUSH2 0x6B5 JUMP JUMPDEST ADD MLOAD SWAP1 POP DUP8 DUP1 PUSH2 0x35F JUMP JUMPDEST SWAP3 POP PUSH1 0x1 DUP6 ADD PUSH1 0x0 MSTORE PUSH1 0x20 PUSH1 0x0 KECCAK256 SWAP1 PUSH1 0x0 SWAP4 JUMPDEST PUSH1 0x1F NOT DUP5 AND DUP6 LT PUSH2 0x740 JUMPI PUSH1 0x1 SWAP5 POP DUP4 PUSH1 0x1F NOT DUP2 AND LT PUSH2 0x727 JUMPI JUMPDEST POP POP POP DUP2 SHL ADD PUSH1 0x1 DUP4 ADD SSTORE PUSH2 0x377 JUMP JUMPDEST ADD MLOAD PUSH1 0x0 NOT PUSH1 0xF8 DUP5 PUSH1 0x3 SHL AND SHR NOT AND SWAP1 SSTORE DUP8 DUP1 DUP1 PUSH2 0x717 JUMP JUMPDEST DUP2 DUP2 ADD MLOAD DUP4 SSTORE PUSH1 0x20 SWAP5 DUP6 ADD SWAP5 PUSH1 0x1 SWAP1 SWAP4 ADD SWAP3 SWAP1 SWAP2 ADD SWAP1 PUSH2 0x6FC JUMP JUMPDEST SWAP1 SWAP2 POP PUSH1 0x1 DUP6 ADD PUSH1 0x0 MSTORE PUSH1 0x20 PUSH1 0x0 KECCAK256 PUSH1 0x1F DUP5 ADD PUSH1 0x5 SHR DUP2 ADD PUSH1 0x20 DUP6 LT PUSH2 0x7A7 JUMPI JUMPDEST SWAP1 DUP5 SWAP4 SWAP3 SWAP2 JUMPDEST PUSH1 0x1F DUP4 ADD PUSH1 0x5 SHR DUP3 ADD DUP2 LT PUSH2 0x798 JUMPI POP POP PUSH2 0x348 JUMP JUMPDEST PUSH1 0x0 DUP2 SSTORE DUP6 SWAP5 POP PUSH1 0x1 ADD PUSH2 0x782 JUMP JUMPDEST POP DUP1 PUSH2 0x77C JUMP JUMPDEST ADD MLOAD SWAP1 POP DUP8 DUP1 PUSH2 0x304 JUMP JUMPDEST SWAP3 POP DUP5 PUSH1 0x0 MSTORE PUSH1 0x20 PUSH1 0x0 KECCAK256 SWAP1 PUSH1 0x0 SWAP4 JUMPDEST PUSH1 0x1F NOT DUP5 AND DUP6 LT PUSH2 0x80A JUMPI PUSH1 0x1 SWAP5 POP DUP4 PUSH1 0x1F NOT DUP2 AND LT PUSH2 0x7F1 JUMPI JUMPDEST POP POP POP DUP2 SHL ADD DUP3 SSTORE PUSH2 0x319 JUMP JUMPDEST ADD MLOAD PUSH1 0x0 NOT PUSH1 0xF8 DUP5 PUSH1 0x3 SHL AND SHR NOT AND SWAP1 SSTORE DUP8 DUP1 DUP1 PUSH2 0x7E4 JUMP JUMPDEST DUP2 DUP2 ADD MLOAD DUP4 SSTORE PUSH1 0x20 SWAP5 DUP6 ADD SWAP5 PUSH1 0x1 SWAP1 SWAP4 ADD SWAP3 SWAP1 SWAP2 ADD SWAP1 PUSH2 0x7C9 JUMP JUMPDEST SWAP1 SWAP2 POP DUP5 PUSH1 0x0 MSTORE PUSH1 0x20 PUSH1 0x0 KECCAK256 PUSH1 0x1F DUP5 ADD PUSH1 0x5 SHR DUP2 ADD PUSH1 0x20 DUP6 LT PUSH2 0x86E JUMPI JUMPDEST SWAP1 DUP5 SWAP4 SWAP3 SWAP2 JUMPDEST PUSH1 0x1F DUP4 ADD PUSH1 0x5 SHR DUP3 ADD DUP2 LT PUSH2 0x85F JUMPI POP POP PUSH2 0x2ED JUMP JUMPDEST PUSH1 0x0 DUP2 SSTORE DUP6 SWAP5 POP PUSH1 0x1 ADD PUSH2 0x849 JUMP JUMPDEST POP DUP1 PUSH2 0x843 JUMP JUMPDEST PUSH1 0x40 MLOAD PUSH3 0x461BCD PUSH1 0xE5 SHL DUP2 MSTORE PUSH1 0x20 PUSH1 0x4 DUP3 ADD MSTORE PUSH1 0x16 PUSH1 0x24 DUP3 ADD MSTORE PUSH22 0x496E76616C69642077616C6C65742061646472657373 PUSH1 0x50 SHL PUSH1 0x44 DUP3 ADD MSTORE PUSH1 0x64 SWAP1 REVERT JUMPDEST PUSH1 0x64 PUSH1 0x40 MLOAD PUSH3 0x461BCD PUSH1 0xE5 SHL DUP2 MSTORE PUSH1 0x20 PUSH1 0x4 DUP3 ADD MSTORE PUSH1 0x20 PUSH1 0x24 DUP3 ADD MSTORE PUSH32 0x496E737469747574696F6E20747970652063616E6E6F7420626520656D707479 PUSH1 0x44 DUP3 ADD MSTORE REVERT JUMPDEST PUSH1 0x40 MLOAD PUSH3 0x461BCD PUSH1 0xE5 SHL DUP2 MSTORE PUSH1 0x20 PUSH1 0x4 DUP3 ADD MSTORE PUSH1 0x1E PUSH1 0x24 DUP3 ADD MSTORE PUSH32 0x496E737469747574696F6E20616C726561647920726567697374657265640000 PUSH1 0x44 DUP3 ADD MSTORE PUSH1 0x64 SWAP1 REVERT JUMPDEST CALLVALUE PUSH2 0x192 JUMPI PUSH1 0x20 CALLDATASIZE PUSH1 0x3 NOT ADD SLT PUSH2 0x192 JUMPI PUSH1 0x1 PUSH1 0x1 PUSH1 0xA0 SHL SUB PUSH2 0x95D PUSH2 0x10AC JUMP JUMPDEST AND PUSH1 0x0 MSTORE PUSH1 0x1 PUSH1 0x20 MSTORE PUSH1 0x20 PUSH1 0xFF PUSH1 0x40 PUSH1 0x0 KECCAK256 SLOAD AND PUSH1 0x40 MLOAD SWAP1 ISZERO ISZERO DUP2 MSTORE RETURN JUMPDEST CALLVALUE PUSH2 0x192 JUMPI PUSH1 0x40 CALLDATASIZE PUSH1 0x3 NOT ADD SLT PUSH2 0x192 JUMPI PUSH8 0xFFFFFFFFFFFFFFFF PUSH1 0x4 CALLDATALOAD DUP2 DUP2 GT PUSH2 0x192 JUMPI PUSH2 0x9AD SWAP1 CALLDATASIZE SWAP1 PUSH1 0x4 ADD PUSH2 0x12D7 JUMP JUMPDEST PUSH1 0x24 CALLDATALOAD DUP3 DUP2 GT PUSH2 0x192 JUMPI PUSH2 0x9C5 SWAP1 CALLDATASIZE SWAP1 PUSH1 0x4 ADD PUSH2 0x12D7 JUMP JUMPDEST SWAP1 CALLER PUSH1 0x0 MSTORE PUSH1 0x1 SWAP2 PUSH1 0x20 SWAP4 DUP4 DUP6 MSTORE PUSH1 0xFF PUSH1 0x40 PUSH1 0x0 KECCAK256 SLOAD AND ISZERO PUSH2 0xCC1 JUMPI CALLER PUSH1 0x0 MSTORE PUSH1 0x0 DUP6 MSTORE PUSH1 0xFF PUSH1 0x5 PUSH1 0x40 PUSH1 0x0 KECCAK256 ADD SLOAD AND ISZERO PUSH2 0xC7C JUMPI PUSH2 0xA06 DUP4 MLOAD ISZERO ISZERO PUSH2 0x132E JUMP JUMPDEST CALLER PUSH1 0x0 MSTORE PUSH1 0x0 DUP6 MSTORE PUSH1 0x40 PUSH1 0x0 KECCAK256 SWAP4 DUP4 MLOAD SWAP5 DUP3 DUP7 GT PUSH2 0x543 JUMPI PUSH2 0xA28 DUP2 SLOAD PUSH2 0x11B9 JUMP JUMPDEST SWAP6 PUSH1 0x1F SWAP7 DUP8 DUP2 GT PUSH2 0xC36 JUMPI JUMPDEST POP DUP1 DUP9 DUP9 DUP3 GT PUSH1 0x1 EQ PUSH2 0xBD5 JUMPI PUSH1 0x0 SWAP2 PUSH2 0xBCA JUMPI JUMPDEST POP PUSH1 0x0 NOT PUSH1 0x3 DUP4 SWAP1 SHL SHR NOT AND SWAP1 DUP4 SHL OR SWAP1 SSTORE JUMPDEST CALLER PUSH1 0x0 MSTORE PUSH1 0x0 DUP7 MSTORE PUSH1 0x6 PUSH1 0x40 PUSH1 0x0 KECCAK256 ADD SWAP3 DUP1 MLOAD SWAP3 DUP4 GT PUSH2 0x543 JUMPI PUSH2 0xA80 DUP5 SLOAD PUSH2 0x11B9 JUMP JUMPDEST DUP7 DUP2 GT PUSH2 0xB84 JUMPI JUMPDEST POP DUP7 SWAP6 DUP4 GT PUSH1 0x1 EQ PUSH2 0xB02 JUMPI DUP3 SWAP2 PUSH32 0x7B160D34BA749DDF83ADEDEE3D4AFC3715FB0A01251F1E86525585E5A13C4DC4 SWAP7 DUP4 SWAP3 PUSH1 0x0 SWAP5 PUSH2 0xAF7 JUMPI JUMPDEST POP POP SHL SWAP2 PUSH1 0x0 NOT SWAP1 PUSH1 0x3 SHL SHR NOT AND OR SWAP1 SSTORE JUMPDEST PUSH2 0xAE9 PUSH1 0x40 MLOAD SWAP2 PUSH1 0x40 DUP4 MSTORE PUSH1 0x40 DUP4 ADD SWAP1 PUSH2 0x10C2 JUMP JUMPDEST SWAP3 TIMESTAMP SWAP1 DUP3 ADD MSTORE DUP1 CALLER SWAP4 SUB SWAP1 LOG2 STOP JUMPDEST ADD MLOAD SWAP3 POP DUP9 DUP1 PUSH2 0xAC2 JUMP JUMPDEST PUSH1 0x1F SWAP3 SWAP2 SWAP3 NOT DUP3 AND SWAP6 DUP5 PUSH1 0x0 MSTORE DUP8 PUSH1 0x0 KECCAK256 SWAP2 PUSH1 0x0 JUMPDEST DUP10 DUP10 DUP3 LT PUSH2 0xB70 JUMPI POP POP DUP4 PUSH32 0x7B160D34BA749DDF83ADEDEE3D4AFC3715FB0A01251F1E86525585E5A13C4DC4 SWAP9 LT PUSH2 0xB57 JUMPI JUMPDEST POP POP POP DUP2 SHL ADD SWAP1 SSTORE PUSH2 0xAD4 JUMP JUMPDEST ADD MLOAD PUSH1 0x0 NOT PUSH1 0xF8 DUP5 PUSH1 0x3 SHL AND SHR NOT AND SWAP1 SSTORE DUP7 DUP1 DUP1 PUSH2 0xB4A JUMP JUMPDEST DUP3 DUP5 ADD MLOAD DUP6 SSTORE SWAP4 DUP7 ADD SWAP4 SWAP3 DUP4 ADD SWAP3 ADD PUSH2 0xB17 JUMP JUMPDEST DUP5 PUSH1 0x0 MSTORE DUP8 PUSH1 0x0 KECCAK256 DUP8 DUP1 DUP7 ADD PUSH1 0x5 SHR DUP3 ADD SWAP3 DUP11 DUP8 LT PUSH2 0xBC1 JUMPI JUMPDEST ADD PUSH1 0x5 SHR ADD SWAP1 DUP4 SWAP1 JUMPDEST DUP3 DUP2 LT PUSH2 0xBB5 JUMPI POP POP PUSH2 0xA88 JUMP JUMPDEST PUSH1 0x0 DUP2 SSTORE ADD DUP4 SWAP1 PUSH2 0xBA7 JUMP JUMPDEST SWAP3 POP DUP2 SWAP3 PUSH2 0xB9E JUMP JUMPDEST SWAP1 POP DUP7 ADD MLOAD DUP10 PUSH2 0xA49 JUMP JUMPDEST DUP5 SWAP3 POP PUSH1 0x1F NOT DUP3 AND SWAP1 DUP5 PUSH1 0x0 MSTORE DUP11 PUSH1 0x0 KECCAK256 SWAP2 PUSH1 0x0 JUMPDEST DUP13 DUP3 DUP3 LT PUSH2 0xC20 JUMPI POP POP DUP4 GT PUSH2 0xC07 JUMPI JUMPDEST POP POP DUP2 SHL ADD SWAP1 SSTORE PUSH2 0xA5C JUMP JUMPDEST DUP9 ADD MLOAD PUSH1 0x0 NOT PUSH1 0xF8 DUP5 PUSH1 0x3 SHL AND SHR NOT AND SWAP1 SSTORE DUP10 DUP1 PUSH2 0xBFB JUMP JUMPDEST DUP4 DUP13 ADD MLOAD DUP6 SSTORE DUP9 SWAP7 SWAP1 SWAP5 ADD SWAP4 SWAP3 DUP4 ADD SWAP3 ADD PUSH2 0xBEA JUMP JUMPDEST DUP3 PUSH1 0x0 MSTORE DUP9 PUSH1 0x0 KECCAK256 DUP9 DUP1 DUP5 ADD PUSH1 0x5 SHR DUP3 ADD SWAP3 DUP12 DUP6 LT PUSH2 0xC73 JUMPI JUMPDEST ADD PUSH1 0x5 SHR ADD SWAP1 DUP5 SWAP1 JUMPDEST DUP3 DUP2 LT PUSH2 0xC67 JUMPI POP POP PUSH2 0xA34 JUMP JUMPDEST PUSH1 0x0 DUP2 SSTORE ADD DUP5 SWAP1 PUSH2 0xC59 JUMP JUMPDEST SWAP3 POP DUP2 SWAP3 PUSH2 0xC50 JUMP JUMPDEST PUSH1 0x40 MLOAD PUSH3 0x461BCD PUSH1 0xE5 SHL DUP2 MSTORE PUSH1 0x4 DUP2 ADD DUP7 SWAP1 MSTORE PUSH1 0x1A PUSH1 0x24 DUP3 ADD MSTORE PUSH32 0x496E737469747574696F6E206973206465616374697661746564000000000000 PUSH1 0x44 DUP3 ADD MSTORE PUSH1 0x64 SWAP1 REVERT JUMPDEST PUSH1 0x40 MLOAD PUSH3 0x461BCD PUSH1 0xE5 SHL DUP2 MSTORE PUSH1 0x4 DUP2 ADD DUP7 SWAP1 MSTORE PUSH1 0x1A PUSH1 0x24 DUP3 ADD MSTORE PUSH32 0x496E737469747574696F6E206E6F742072656769737465726564000000000000 PUSH1 0x44 DUP3 ADD MSTORE PUSH1 0x64 SWAP1 REVERT JUMPDEST CALLVALUE PUSH2 0x192 JUMPI PUSH1 0x20 CALLDATASIZE PUSH1 0x3 NOT ADD SLT PUSH2 0x192 JUMPI PUSH1 0x1 PUSH1 0x1 PUSH1 0xA0 SHL SUB DUP1 PUSH2 0xD28 PUSH2 0x10AC JUMP JUMPDEST AND PUSH1 0x0 MSTORE PUSH1 0x0 PUSH1 0x20 MSTORE PUSH1 0x40 PUSH1 0x0 KECCAK256 SWAP1 PUSH2 0xD8B PUSH2 0xD43 DUP4 PUSH2 0x1231 JUMP JUMPDEST SWAP2 PUSH2 0xD50 PUSH1 0x1 DUP6 ADD PUSH2 0x1231 JUMP JUMPDEST SWAP4 PUSH2 0xD5D PUSH1 0x2 DUP3 ADD PUSH2 0x1231 JUMP JUMPDEST SWAP2 PUSH1 0x3 DUP3 ADD SLOAD AND PUSH1 0x4 DUP3 ADD SLOAD SWAP1 PUSH2 0xD7E PUSH1 0x6 PUSH1 0xFF PUSH1 0x5 DUP7 ADD SLOAD AND SWAP5 ADD PUSH2 0x1231 JUMP JUMPDEST SWAP4 PUSH1 0x40 MLOAD SWAP8 DUP9 SWAP8 DUP9 PUSH2 0x1102 JUMP JUMPDEST SUB SWAP1 RETURN JUMPDEST CALLVALUE PUSH2 0x192 JUMPI PUSH1 0x20 DUP1 PUSH1 0x3 NOT CALLDATASIZE ADD SLT PUSH2 0x192 JUMPI PUSH2 0xDA9 PUSH2 0x10AC JUMP JUMPDEST PUSH1 0x3 SLOAD PUSH1 0x1 PUSH1 0x1 PUSH1 0xA0 SHL SUB SWAP2 SWAP1 PUSH2 0xDC3 SWAP1 DUP4 AND CALLER EQ PUSH2 0x1371 JUMP JUMPDEST AND SWAP1 DUP2 PUSH1 0x0 MSTORE PUSH1 0x1 DUP2 MSTORE PUSH2 0xDDE PUSH1 0xFF PUSH1 0x40 PUSH1 0x0 KECCAK256 SLOAD AND PUSH2 0x13C8 JUMP JUMPDEST DUP2 PUSH1 0x0 MSTORE PUSH1 0x0 DUP2 MSTORE PUSH1 0xFF PUSH1 0x5 PUSH1 0x40 PUSH1 0x0 KECCAK256 ADD SLOAD AND PUSH2 0xE3C JUMPI PUSH32 0x2BFEA66B50069DDBA7202E01F1AD6BEB8B3875485BB9A198E9F9FBE9CD382245 SWAP1 DUP3 PUSH1 0x0 MSTORE PUSH1 0x0 DUP2 MSTORE PUSH1 0x5 PUSH1 0x40 PUSH1 0x0 KECCAK256 ADD PUSH1 0x1 PUSH1 0xFF NOT DUP3 SLOAD AND OR SWAP1 SSTORE PUSH1 0x40 MLOAD TIMESTAMP DUP2 MSTORE LOG2 STOP JUMPDEST PUSH1 0x64 SWAP1 PUSH1 0x40 MLOAD SWAP1 PUSH3 0x461BCD PUSH1 0xE5 SHL DUP3 MSTORE PUSH1 0x4 DUP3 ADD MSTORE PUSH1 0x1A PUSH1 0x24 DUP3 ADD MSTORE PUSH32 0x496E737469747574696F6E20616C726561647920616374697665000000000000 PUSH1 0x44 DUP3 ADD MSTORE REVERT JUMPDEST CALLVALUE PUSH2 0x192 JUMPI PUSH1 0x20 CALLDATASIZE PUSH1 0x3 NOT ADD SLT PUSH2 0x192 JUMPI PUSH1 0x4 CALLDATALOAD PUSH1 0x2 SLOAD DUP2 LT ISZERO PUSH2 0xEC2 JUMPI PUSH2 0xEA9 PUSH1 0x20 SWAP2 PUSH2 0x116C JUMP JUMPDEST SWAP1 SLOAD PUSH1 0x40 MLOAD PUSH1 0x3 SWAP3 SWAP1 SWAP3 SHL SHR PUSH1 0x1 PUSH1 0x1 PUSH1 0xA0 SHL SUB AND DUP2 MSTORE RETURN JUMPDEST PUSH1 0x40 MLOAD PUSH3 0x461BCD PUSH1 0xE5 SHL DUP2 MSTORE PUSH1 0x20 PUSH1 0x4 DUP3 ADD MSTORE PUSH1 0x13 PUSH1 0x24 DUP3 ADD MSTORE PUSH19 0x496E646578206F7574206F6620626F756E6473 PUSH1 0x68 SHL PUSH1 0x44 DUP3 ADD MSTORE PUSH1 0x64 SWAP1 REVERT JUMPDEST CALLVALUE PUSH2 0x192 JUMPI PUSH1 0x0 CALLDATASIZE PUSH1 0x3 NOT ADD SLT PUSH2 0x192 JUMPI PUSH1 0x3 SLOAD PUSH1 0x40 MLOAD PUSH1 0x1 PUSH1 0x1 PUSH1 0xA0 SHL SUB SWAP1 SWAP2 AND DUP2 MSTORE PUSH1 0x20 SWAP1 RETURN JUMPDEST CALLVALUE PUSH2 0x192 JUMPI PUSH1 0x20 CALLDATASIZE PUSH1 0x3 NOT ADD SLT PUSH2 0x192 JUMPI PUSH1 0x4 CALLDATALOAD PUSH1 0x2 SLOAD DUP2 LT ISZERO PUSH2 0x192 JUMPI PUSH2 0xEA9 PUSH1 0x20 SWAP2 PUSH2 0x116C JUMP JUMPDEST CALLVALUE PUSH2 0x192 JUMPI PUSH1 0x20 CALLDATASIZE PUSH1 0x3 NOT ADD SLT PUSH2 0x192 JUMPI PUSH1 0x1 PUSH1 0x1 PUSH1 0xA0 SHL SUB DUP1 PUSH2 0xF71 PUSH2 0x10AC JUMP JUMPDEST AND DUP1 PUSH1 0x0 MSTORE PUSH1 0x1 PUSH1 0x20 MSTORE PUSH2 0xF8C PUSH1 0xFF PUSH1 0x40 PUSH1 0x0 KECCAK256 SLOAD AND PUSH2 0x13C8 JUMP JUMPDEST PUSH1 0x0 MSTORE PUSH1 0x0 PUSH1 0x20 MSTORE PUSH1 0x40 PUSH1 0x0 KECCAK256 SWAP1 PUSH2 0xD8B PUSH1 0x40 MLOAD PUSH2 0xFA9 DUP2 PUSH2 0x11F3 JUMP JUMPDEST PUSH2 0xFB2 DUP5 PUSH2 0x1231 JUMP JUMPDEST DUP2 MSTORE PUSH2 0xFC0 PUSH1 0x1 DUP6 ADD PUSH2 0x1231 JUMP JUMPDEST SWAP3 PUSH1 0x20 DUP3 ADD SWAP4 DUP5 MSTORE PUSH2 0xFD4 PUSH1 0x2 DUP7 ADD PUSH2 0x1231 JUMP JUMPDEST SWAP5 PUSH1 0x40 DUP4 ADD SWAP6 DUP7 MSTORE DUP2 PUSH1 0x3 DUP3 ADD SLOAD AND SWAP2 PUSH1 0x60 DUP5 ADD SWAP3 DUP4 MSTORE PUSH1 0x4 DUP3 ADD SLOAD SWAP1 PUSH1 0x80 DUP6 ADD SWAP2 DUP3 MSTORE PUSH2 0x1015 PUSH1 0x6 PUSH1 0xFF PUSH1 0x5 DUP7 ADD SLOAD AND SWAP5 PUSH1 0xA0 DUP9 ADD SWAP6 ISZERO ISZERO DUP7 MSTORE ADD PUSH2 0x1231 JUMP JUMPDEST SWAP5 DUP6 PUSH1 0xC0 DUP3 ADD MSTORE MLOAD SWAP7 MLOAD SWAP8 MLOAD SWAP4 MLOAD AND SWAP1 MLOAD SWAP2 MLOAD ISZERO ISZERO SWAP3 PUSH1 0x40 MLOAD SWAP8 DUP9 SWAP8 DUP9 PUSH2 0x1102 JUMP JUMPDEST CALLVALUE PUSH2 0x192 JUMPI PUSH1 0x0 CALLDATASIZE PUSH1 0x3 NOT ADD SLT PUSH2 0x192 JUMPI PUSH1 0x20 PUSH1 0x2 SLOAD PUSH1 0x40 MLOAD SWAP1 DUP2 MSTORE RETURN JUMPDEST CALLVALUE PUSH2 0x192 JUMPI PUSH1 0x20 CALLDATASIZE PUSH1 0x3 NOT ADD SLT PUSH2 0x192 JUMPI PUSH1 0x20 SWAP1 PUSH1 0x1 PUSH1 0x1 PUSH1 0xA0 SHL SUB PUSH2 0x1079 PUSH2 0x10AC JUMP JUMPDEST AND PUSH1 0x0 MSTORE PUSH1 0x1 DUP3 MSTORE PUSH1 0xFF PUSH1 0x40 PUSH1 0x0 KECCAK256 SLOAD AND DUP1 PUSH2 0x1096 JUMPI JUMPDEST ISZERO ISZERO DUP2 MSTORE RETURN JUMPDEST POP PUSH1 0x0 DUP3 MSTORE PUSH1 0xFF PUSH1 0x5 PUSH1 0x40 PUSH1 0x0 KECCAK256 ADD SLOAD AND PUSH2 0x1090 JUMP JUMPDEST PUSH1 0x4 CALLDATALOAD SWAP1 PUSH1 0x1 PUSH1 0x1 PUSH1 0xA0 SHL SUB DUP3 AND DUP3 SUB PUSH2 0x192 JUMPI JUMP JUMPDEST SWAP2 SWAP1 DUP3 MLOAD SWAP3 DUP4 DUP3 MSTORE PUSH1 0x0 JUMPDEST DUP5 DUP2 LT PUSH2 0x10EE JUMPI POP POP DUP3 PUSH1 0x0 PUSH1 0x20 DUP1 SWAP5 SWAP6 DUP5 ADD ADD MSTORE PUSH1 0x1F DUP1 NOT SWAP2 ADD AND ADD ADD SWAP1 JUMP JUMPDEST PUSH1 0x20 DUP2 DUP4 ADD DUP2 ADD MLOAD DUP5 DUP4 ADD DUP3 ADD MSTORE ADD PUSH2 0x10CD JUMP JUMPDEST SWAP4 SWAP6 SWAP3 PUSH2 0x1131 PUSH2 0x1169 SWAP9 SWAP7 SWAP4 PUSH2 0x1123 PUSH2 0x113F SWAP5 PUSH1 0xE0 DUP10 MSTORE PUSH1 0xE0 DUP10 ADD SWAP1 PUSH2 0x10C2 JUMP JUMPDEST SWAP1 DUP8 DUP3 SUB PUSH1 0x20 DUP10 ADD MSTORE PUSH2 0x10C2 JUMP JUMPDEST SWAP1 DUP6 DUP3 SUB PUSH1 0x40 DUP8 ADD MSTORE PUSH2 0x10C2 JUMP JUMPDEST PUSH1 0x1 PUSH1 0x1 PUSH1 0xA0 SHL SUB SWAP1 SWAP6 AND PUSH1 0x60 DUP5 ADD MSTORE PUSH1 0x80 DUP4 ADD MSTORE ISZERO ISZERO PUSH1 0xA0 DUP3 ADD MSTORE DUP1 DUP4 SUB PUSH1 0xC0 SWAP1 SWAP2 ADD MSTORE PUSH2 0x10C2 JUMP JUMPDEST SWAP1 JUMP JUMPDEST PUSH1 0x2 SLOAD DUP2 LT ISZERO PUSH2 0x11A3 JUMPI PUSH1 0x2 PUSH1 0x0 MSTORE PUSH32 0x405787FA12A823E0F2B7631CC41B3BA8828B3321CA811111FA75CD3AA3BB5ACE ADD SWAP1 PUSH1 0x0 SWAP1 JUMP JUMPDEST PUSH4 0x4E487B71 PUSH1 0xE0 SHL PUSH1 0x0 MSTORE PUSH1 0x32 PUSH1 0x4 MSTORE PUSH1 0x24 PUSH1 0x0 REVERT JUMPDEST SWAP1 PUSH1 0x1 DUP3 DUP2 SHR SWAP3 AND DUP1 ISZERO PUSH2 0x11E9 JUMPI JUMPDEST PUSH1 0x20 DUP4 LT EQ PUSH2 0x11D3 JUMPI JUMP JUMPDEST PUSH4 0x4E487B71 PUSH1 0xE0 SHL PUSH1 0x0 MSTORE PUSH1 0x22 PUSH1 0x4 MSTORE PUSH1 0x24 PUSH1 0x0 REVERT JUMPDEST SWAP2 PUSH1 0x7F AND SWAP2 PUSH2 0x11C8 JUMP JUMPDEST PUSH1 0xE0 DUP2 ADD SWAP1 DUP2 LT PUSH8 0xFFFFFFFFFFFFFFFF DUP3 GT OR PUSH2 0x543 JUMPI PUSH1 0x40 MSTORE JUMP JUMPDEST SWAP1 PUSH1 0x1F DUP1 NOT SWAP2 ADD AND DUP2 ADD SWAP1 DUP2 LT PUSH8 0xFFFFFFFFFFFFFFFF DUP3 GT OR PUSH2 0x543 JUMPI PUSH1 0x40 MSTORE JUMP JUMPDEST SWAP1 PUSH1 0x40 MLOAD SWAP2 DUP3 PUSH1 0x0 DUP3 SLOAD SWAP3 PUSH2 0x1245 DUP5 PUSH2 0x11B9 JUMP JUMPDEST SWAP1 DUP2 DUP5 MSTORE PUSH1 0x1 SWAP5 DUP6 DUP2 AND SWAP1 DUP2 PUSH1 0x0 EQ PUSH2 0x12B4 JUMPI POP PUSH1 0x1 EQ PUSH2 0x1271 JUMPI JUMPDEST POP POP PUSH2 0x126F SWAP3 POP SUB DUP4 PUSH2 0x120F JUMP JUMPDEST JUMP JUMPDEST SWAP1 SWAP4 SWAP2 POP PUSH1 0x0 MSTORE PUSH1 0x20 SWAP1 DUP2 PUSH1 0x0 KECCAK256 SWAP4 PUSH1 0x0 SWAP2 JUMPDEST DUP2 DUP4 LT PUSH2 0x129C JUMPI POP POP PUSH2 0x126F SWAP4 POP DUP3 ADD ADD CODESIZE DUP1 PUSH2 0x1261 JUMP JUMPDEST DUP6 SLOAD DUP9 DUP5 ADD DUP6 ADD MSTORE SWAP5 DUP6 ADD SWAP5 DUP8 SWAP5 POP SWAP2 DUP4 ADD SWAP2 PUSH2 0x1284 JUMP JUMPDEST SWAP2 POP POP PUSH2 0x126F SWAP5 POP PUSH1 0x20 SWAP3 POP PUSH1 0xFF NOT AND DUP3 DUP5 ADD MSTORE ISZERO ISZERO PUSH1 0x5 SHL DUP3 ADD ADD CODESIZE DUP1 PUSH2 0x1261 JUMP JUMPDEST DUP2 PUSH1 0x1F DUP3 ADD SLT ISZERO PUSH2 0x192 JUMPI DUP1 CALLDATALOAD SWAP1 PUSH8 0xFFFFFFFFFFFFFFFF DUP3 GT PUSH2 0x543 JUMPI PUSH1 0x40 MLOAD SWAP3 PUSH2 0x130C PUSH1 0x1F DUP5 ADD PUSH1 0x1F NOT AND PUSH1 0x20 ADD DUP6 PUSH2 0x120F JUMP JUMPDEST DUP3 DUP5 MSTORE PUSH1 0x20 DUP4 DUP4 ADD ADD GT PUSH2 0x192 JUMPI DUP2 PUSH1 0x0 SWAP3 PUSH1 0x20 DUP1 SWAP4 ADD DUP4 DUP7 ADD CALLDATACOPY DUP4 ADD ADD MSTORE SWAP1 JUMP JUMPDEST ISZERO PUSH2 0x1335 JUMPI JUMP JUMPDEST PUSH1 0x40 MLOAD PUSH3 0x461BCD PUSH1 0xE5 SHL DUP2 MSTORE PUSH1 0x20 PUSH1 0x4 DUP3 ADD MSTORE PUSH1 0x14 PUSH1 0x24 DUP3 ADD MSTORE PUSH20 0x4E616D652063616E6E6F7420626520656D707479 PUSH1 0x60 SHL PUSH1 0x44 DUP3 ADD MSTORE PUSH1 0x64 SWAP1 REVERT JUMPDEST ISZERO PUSH2 0x1378 JUMPI JUMP JUMPDEST PUSH1 0x40 MLOAD PUSH3 0x461BCD PUSH1 0xE5 SHL DUP2 MSTORE PUSH1 0x20 PUSH1 0x4 DUP3 ADD MSTORE PUSH1 0x22 PUSH1 0x24 DUP3 ADD MSTORE PUSH32 0x4F6E6C79206F776E65722063616E20706572666F726D20746869732061637469 PUSH1 0x44 DUP3 ADD MSTORE PUSH2 0x37B7 PUSH1 0xF1 SHL PUSH1 0x64 DUP3 ADD MSTORE PUSH1 0x84 SWAP1 REVERT JUMPDEST ISZERO PUSH2 0x13CF JUMPI JUMP JUMPDEST PUSH1 0x40 MLOAD PUSH3 0x461BCD PUSH1 0xE5 SHL DUP2 MSTORE PUSH1 0x20 PUSH1 0x4 DUP3 ADD MSTORE PUSH1 0x15 PUSH1 0x24 DUP3 ADD MSTORE PUSH21 0x125B9CDD1A5D1D5D1A5BDB881B9BDD08199BDD5B99 PUSH1 0x5A SHL PUSH1 0x44 DUP3 ADD MSTORE PUSH1 0x64 SWAP1 REVERT INVALID LOG2 PUSH5 0x6970667358 0x22 SLT KECCAK256 0x5C XOR GASPRICE PUSH5 0x78A61B6735 AND SWAP7 0xAB JUMPDEST 0x2C 0xAC JUMPI PUSH21 0x224C41F9939163ECBB26F03E76958464736F6C6343 STOP ADDMOD EQ STOP CALLER "},"methodIdentifiers":{"deactivateInstitution(address)":"c6bd734e","getInstitution(address)":"71199236","getInstitutionByIndex(uint256)":"a354c5b2","getTotalInstitutions()":"594598be","institutionAddresses(uint256)":"7f416835","institutions(address)":"b2d9767f","isRegistered(address)":"c3c5a547","owner()":"8da5cb5b","reactivateInstitution(address)":"a354e08e","registerInstitution(address,string,string,string,string)":"c3e168ab","updateInstitution(string,string)":"b445b7f6","verifyInstitution(address)":"3e168516"}}}}}