{"contracts/AuditTrailContract.sol":{"AuditTrailContract":{"abi":[{"anonymous":false,"inputs":[{"indexed":true,"internalType":"address","name":"owner","type":"address"},{"indexed":true,"internalType":"address","name":"grantee","type":"address"},{"indexed":false,"internalType":"string","name":"recordId","type":"string"},{"indexed":false,"internalType":"uint256","name":"timestamp","type":"uint256"}],"name":"AccessGrantedLog","type":"event"},{"anonymous":false,"inputs":[{"indexed":true,"internalType":"address","name":"owner","type":"address"},{"indexed":true,"internalType":"address","name":"grantee","type":"address"},{"indexed":false,"internalType":"string","name":"recordId","type":"string"},{"indexed":false,"internalType":"uint256","name":"timestamp","type":"uint256"}],"name":"AccessRevokedLog","type":"event"},{"anonymous":false,"inputs":[{"indexed":true,"internalType":"uint256","name":"logId","type":"uint256"},{"indexed":true,"internalType":"enum AuditTrailContract.ActionType","name":"actionType","type":"uint8"},{"indexed":true,"internalType":"address","name":"actor","type":"address"},{"indexed":false,"internalType":"string","name":"recordId","type":"string"},{"indexed":false,"internalType":"bool","name":"success","type":"bool"},{"indexed":false,"internalType":"uint256","name":"timestamp","type":"uint256"}],"name":"AuditLogCreated","type":"event"},{"anonymous":false,"inputs":[{"indexed":true,"internalType":"address","name":"accessor","type":"address"},{"indexed":false,"internalType":"string","name":"recordId","type":"string"},{"indexed":false,"internalType":"uint256","name":"timestamp","type":"uint256"}],"name":"DataAccessedLog","type":"event"},{"anonymous":false,"inputs":[{"indexed":true,"internalType":"address","name":"owner","type":"address"},{"indexed":true,"internalType":"bytes32","name":"hash","type":"bytes32"},{"indexed":false,"internalType":"string","name":"recordId","type":"string"},{"indexed":false,"internalType":"uint256","name":"timestamp","type":"uint256"}],"name":"DataUploadedLog","type":"event"},{"anonymous":false,"inputs":[{"indexed":true,"internalType":"address","name":"wallet","type":"address"},{"indexed":false,"internalType":"string","name":"name","type":"string"},{"indexed":false,"internalType":"uint256","name":"timestamp","type":"uint256"}],"name":"InstitutionRegisteredLog","type":"event"},{"anonymous":false,"inputs":[{"indexed":true,"internalType":"address","name":"verifier","type":"address"},{"indexed":true,"internalType":"bytes32","name":"hash","type":"bytes32"},{"indexed":false,"internalType":"string","name":"recordId","type":"string"},{"indexed":false,"internalType":"bool","name":"success","type":"bool"},{"indexed":false,"internalType":"uint256","name":"timestamp","type":"uint256"}],"name":"VerificationCompletedLog","type":"event"},{"anonymous":false,"inputs":[{"indexed":true,"internalType":"address","name":"verifier","type":"address"},{"indexed":true,"internalType":"bytes32","name":"hash","type":"bytes32"},{"indexed":false,"internalType":"string","name":"recordId","type":"string"},{"indexed":false,"internalType":"uint256","name":"timestamp","type":"uint256"}],"name":"VerificationRequestedLog","type":"event"},{"inputs":[{"internalType":"enum AuditTrailContract.ActionType","name":"","type":"uint8"},{"internalType":"uint256","name":"","type":"uint256"}],"name":"actionTypeLogs","outputs":[{"internalType":"uint256","name":"","type":"uint256"}],"stateMutability":"view","type":"function"},{"inputs":[{"internalType":"address","name":"","type":"address"},{"internalType":"uint256","name":"","type":"uint256"}],"name":"actorLogs","outputs":[{"internalType":"uint256","name":"","type":"uint256"}],"stateMutability":"view","type":"function"},{"inputs":[{"internalType":"uint256","name":"","type":"uint256"}],"name":"auditLogs","outputs":[{"internalType":"uint256","name":"logId","type":"uint256"},{"internalType":"enum AuditTrailContract.ActionType","name":"actionType","type":"uint8"},{"internalType":"address","name":"actor","type":"address"},{"internalType":"address","name":"targetAddress","type":"address"},{"internalType":"string","name":"recordId","type":"string"},{"internalType":"string","name":"actionDetails","type":"string"},{"internalType":"bytes32","name":"dataHash","type":"bytes32"},{"internalType":"bool","name":"success","type":"bool"},{"internalType":"uint256","name":"timestamp","type":"uint256"},{"internalType":"string","name":"ipAddress","type":"string"},{"internalType":"string","name":"userAgent","type":"string"}],"stateMutability":"view","type":"function"},{"inputs":[{"internalType":"enum AuditTrailContract.ActionType","name":"_actionType","type":"uint8"},{"internalType":"address","name":"_targetAddress","type":"address"},{"internalType":"string","name":"_recordId","type":"string"},{"internalType":"string","name":"_actionDetails","type":"string"},{"internalType":"bytes32","name":"_dataHash","type":"bytes32"},{"internalType":"bool","name":"_success","type":"bool"},{"internalType":"string","name":"_ipAddress","type":"string"},{"internalType":"string","name":"_userAgent","type":"string"}],"name":"createLog","outputs":[{"internalType":"uint256","name":"","type":"uint256"}],"stateMutability":"nonpayable","type":"function"},{"inputs":[{"internalType":"uint256","name":"_logId","type":"uint256"}],"name":"getLog","outputs":[{"internalType":"uint256","name":"logId","type":"uint256"},{"internalType":"enum AuditTrailContract.ActionType","name":"actionType","type":"uint8"},{"internalType":"address","name":"actor","type":"address"},{"internalType":"address","name":"targetAddress","type":"address"},{"internalType":"string","name":"recordId","type":"string"},{"internalType":"string","name":"actionDetails","type":"string"},{"internalType":"bytes32","name":"dataHash","type":"bytes32"},{"internalType":"bool","name":"success","type":"bool"},{"internalType":"uint256","name":"timestamp","type":"uint256"},{"internalType":"string","name":"ipAddress","type":"string"},{"internalType":"string","name":"userAgent","type":"string"}],"stateMutability":"view","type":"function"},{"inputs":[{"internalType":"enum AuditTrailContract.ActionType","name":"_actionType","type":"uint8"}],"name":"getLogsByActionType","outputs":[{"internalType":"uint256[]","name":"","type":"uint256[]"}],"stateMutability":"view","type":"function"},{"inputs":[{"internalType":"address","name":"_actor","type":"address"}],"name":"getLogsByActor","outputs":[{"internalType":"uint256[]","name":"","type":"uint256[]"}],"stateMutability":"view","type":"function"},{"inputs":[{"internalType":"string","name":"_recordId","type":"string"}],"name":"getLogsByRecord","outputs":[{"internalType":"uint256[]","name":"","type":"uint256[]"}],"stateMutability":"view","type":"function"},{"inputs":[{"internalType":"uint256","name":"_count","type":"uint256"}],"name":"getRecentLogs","outputs":[{"internalType":"uint256[]","name":"","type":"uint256[]"}],"stateMutability":"view","type":"function"},{"inputs":[],"name":"getTotalLogs","outputs":[{"internalType":"uint256","name":"","type":"uint256"}],"stateMutability":"view","type":"function"},{"inputs":[{"internalType":"address","name":"_owner","type":"address"},{"internalType":"address","name":"_grantee","type":"address"},{"internalType":"string","name":"_recordId","type":"string"}],"name":"logAccessGranted","outputs":[],"stateMutability":"nonpayable","type":"function"},{"inputs":[{"internalType":"address","name":"_owner","type":"address"},{"internalType":"address","name":"_grantee","type":"address"},{"internalType":"string","name":"_recordId","type":"string"}],"name":"logAccessRevoked","outputs":[],"stateMutability":"nonpayable","type":"function"},{"inputs":[],"name":"logCounter","outputs":[{"internalType":"uint256","name":"","type":"uint256"}],"stateMutability":"view","type":"function"},{"inputs":[{"internalType":"address","name":"_accessor","type":"address"},{"internalType":"string","name":"_recordId","type":"string"}],"name":"logDataAccess","outputs":[],"stateMutability":"nonpayable","type":"function"},{"inputs":[{"internalType":"address","name":"_owner","type":"address"},{"internalType":"string","name":"_recordId","type":"string"},{"internalType":"bytes32","name":"_dataHash","type":"bytes32"},{"internalType":"string","name":"_fileName","type":"string"}],"name":"logDataUpload","outputs":[],"stateMutability":"nonpayable","type":"function"},{"inputs":[{"internalType":"address","name":"_wallet","type":"address"},{"internalType":"string","name":"_name","type":"string"}],"name":"logInstitutionRegistration","outputs":[],"stateMutability":"nonpayable","type":"function"},{"inputs":[{"internalType":"address","name":"_verifier","type":"address"},{"internalType":"string","name":"_recordId","type":"string"},{"internalType":"bytes32","name":"_dataHash","type":"bytes32"},{"internalType":"bool","name":"_success","type":"bool"}],"name":"logVerificationCompletion","outputs":[],"stateMutability":"nonpayable","type":"function"},{"inputs":[{"internalType":"address","name":"_verifier","type":"address"},{"internalType":"string","name":"_recordId","type":"string"},{"internalType":"bytes32","name":"_dataHash","type":"bytes32"}],"name":"logVerificationRequest","outputs":[],"stateMutability":"nonpayable","type":"function"},{"inputs":[{"internalType":"string","name":"","type":"string"},{"internalType":"uint256","name":"","type":"uint256"}],"name":"recordLogs","outputs":[{"internalType":"uint256","name":"","type":"uint256"}],"stateMutability":"view","type":"function"}],"evm":{"bytecode":{"linkReferences":{},"object":"608080604052346100165761450f908161001c8239f35b600080fdfe608080604052600436101561001357600080fd5b60003560e01c9081633206b2c614613eee575080636076041514613e4d5780636a5d1f1914613743578063724136c21461301c5780637a893865146129215780637e15c7e9146128e3578063905d9a0d146121f9578063a9c85164146121af578063ac42100f14612191578063b84046b414612121578063bd628d2614612103578063d40fd39914612068578063d92b340d146118f8578063e0df6d2514611183578063e52e64f9146110b5578063ed08ce161461099c578063ed9b95e214610923578063f37299201461017c5763f87c51d0146100f057600080fd5b3461017757602080600319360112610177576001600160a01b036101126142ca565b166000526001808252604060002091604051918282855491828152019460005282600020926000905b8282106101625761015e86610152818a0382614203565b604051918291826143f3565b0390f35b8454875295860195938301939083019061013b565b600080fd5b346101775761018a366143b4565b6040517f496e737469747574696f6e20726567697374657265643a20000000000000000060208201526101db60388284516101cb8184840160208901614049565b8101036018810184520182614203565b604051906101e8826141e8565b60008252604051906101f9826141e8565b60008252604051610209816141e8565b600081526004549261021a8461442e565b6004556040519261022a846141b1565b8484526000602085015233604085015260018060a01b038816606085015285608085015260a0840152600060c0840152600160e084015242610100840152610120830152610140820152600054600160401b81101561067d578060016102939201600055614129565b91909161090d5780518255600182016020820151600b8110156108f757815460ff610100600160a81b03604086015160081b169216906001600160581b0360a81b16171790556002820160018060a01b036060830151166001600160601b0360a01b82541617905560808101518051906001600160401b03821161067d5781906103206003860154614177565b601f81116108a4575b50602090601f831160011461083257600092610827575b50508160011b916000199060031b1c19161760038301555b60a08101518051906001600160401b03821161067d57819061037d6004860154614177565b601f81116107d4575b50602090601f831160011461076257600092610757575b50508160011b916000199060031b1c19161760048301555b60c081015160058301556006820160e0820151151560ff8019835416911617905561010081015160078301556101208101518051906001600160401b03821161067d576104056008850154614177565b601f8111610710575b50602090601f831160011461069e5761014093929160009183610693575b50508160011b916000199060031b1c19161760088401555b01518051906001600160401b03821161067d576104646009840154614177565b601f8111610632575b50602090601f831160011461059957926009836000947fdcb4e7d05c037da60bf57616441cb8711fcae34c70488f4b761f03a43af7f3679997946105499997879261058e575b50508160011b9186199060031b1c1916179101555b33825260016020526104dd8160408420614449565b82518181610560575b505081805260036020526104fd8160408420614449565b6000805160206144ba8339815191526105216040519460608652606086019061406c565b93600160208201524260408201528033950390a460405191829160408352604083019061406c565b4260208301526001600160a01b03909416930390a2005b61058791602060405182610578829483858c01614049565b81016002815203019020614449565b87816104e6565b015190508b806104b3565b906009840160005260206000209160005b601f198516811061061a57506001847fdcb4e7d05c037da60bf57616441cb8711fcae34c70488f4b761f03a43af7f367999794610549999794600994600098601f19811610610602575b505050811b019101556104c8565b0151871960f88460031b161c191690558b80806105f4565b919260206001819286850151815501940192016105aa565b600984016000526020600020601f840160051c81019160208510610673575b601f0160051c01905b818110610667575061046d565b6000815560010161065a565b9091508190610651565b634e487b7160e01b600052604160045260246000fd5b01519050898061042c565b90601f198316916008860160005260206000209260005b8181106106f85750916001939185610140979694106106df575b505050811b016008840155610444565b015160001960f88460031b161c191690558980806106cf565b929360206001819287860151815501950193016106b5565b600885016000526020600020601f840160051c810160208510610750575b601f830160051c8201811061074457505061040e565b6000815560010161072e565b508061072e565b01519050888061039d565b9250600485016000526020600020906000935b601f19841685106107b9576001945083601f198116106107a0575b505050811b0160048301556103b5565b015160001960f88460031b161c19169055888080610790565b81810151835560209485019460019093019290910190610775565b909150600485016000526020600020601f840160051c810160208510610820575b90849392915b601f830160051c82018110610811575050610386565b600081558594506001016107fb565b50806107f5565b015190508880610340565b9250600385016000526020600020906000935b601f1984168510610889576001945083601f19811610610870575b505050811b016003830155610358565b015160001960f88460031b161c19169055888080610860565b81810151835560209485019460019093019290910190610845565b909150600385016000526020600020601f840160051c8101602085106108f0575b90849392915b601f830160051c820181106108e1575050610329565b600081558594506001016108cb565b50806108c5565b634e487b7160e01b600052602160045260246000fd5b634e487b7160e01b600052600060045260246000fd5b34610177576040366003190112610177576004356001600160401b038111610177576109539036906004016142e0565b61096f6020602435928160405193828580945193849201614049565b8101600281520301902080548210156101775760209161098e9161439c565b90546040519160031b1c8152f35b34610177576109aa36614336565b6040516109b6816141cd565b600e81526d1058d8d95cdcc819dc985b9d195960921b6020820152604051906109de826141e8565b600082526040516109ee816141e8565b60008152600454926109ff8461442e565b60045560405192610a0f846141b1565b8484526002602085015233604085015260018060a01b038716606085015285608085015260a0840152600060c0840152600160e084015242610100840152610120830152610140820152600054600160401b81101561067d57806001610a789201600055614129565b91909161090d5780518255600182016020820151600b8110156108f757815460ff610100600160a81b03604086015160081b169216906001600160581b0360a81b16171790556002820160018060a01b036060830151166001600160601b0360a01b82541617905560808101518051906001600160401b03821161067d578190610b056003860154614177565b601f8111611062575b50602090601f8311600114610ff057600092610fe5575b50508160011b916000199060031b1c19161760038301555b60a08101518051906001600160401b03821161067d578190610b626004860154614177565b601f8111610f92575b50602090601f8311600114610f2057600092610f15575b50508160011b916000199060031b1c19161760048301555b60c081015160058301556006820160e0820151151560ff8019835416911617905561010081015160078301556101208101518051906001600160401b03821161067d57610bea6008850154614177565b601f8111610ece575b50602090601f8311600114610e5a5761014093929160009183610e4f575b50508160011b916000199060031b1c19161760088401555b01518051906001600160401b03821161067d57610c496009840154614177565b601f8111610e04575b50602090601f8311600114610d6d5782610d2895937f9a6e9c0082af0f5e725edd781b0e9eadaa0b36b5e6299bf173fd8d7b85a3ff2b979593600993600092610d62575b50508160011b916000199060031b1c1916179101555b336000526001602052610cc3816040600020614449565b81518181610d43575b505060026000526003602052610d02817fc3a24b0501bd2c13a7e57f2db4369ec4c223447539fc0724a9d55ac4a06ebd4d614449565b600260405191606083526000805160206144ba833981519152610521606085018661406c565b4260208301526001600160a01b0394851695909416930390a3005b610d5b91602060405182610578829483858b01614049565b8681610ccc565b015190508a80610c96565b906009840160005260206000209160005b601f1985168110610dec5750837f9a6e9c0082af0f5e725edd781b0e9eadaa0b36b5e6299bf173fd8d7b85a3ff2b979593600993600193610d289997601f19811610610dd3575b505050811b01910155610cac565b015160001960f88460031b161c191690558a8080610dc5565b91926020600181928685015181550194019201610d7e565b600984016000526020600020601f840160051c81019160208510610e45575b601f0160051c01905b818110610e395750610c52565b60008155600101610e2c565b9091508190610e23565b015190508980610c11565b906008850160005260206000209160005b601f1985168110610eb657509183916001936101409695601f19811610610e9d575b505050811b016008840155610c29565b015160001960f88460031b161c19169055898080610e8d565b91926020600181928685015181550194019201610e6b565b600885016000526020600020601f840160051c810160208510610f0e575b601f830160051c82018110610f02575050610bf3565b60008155600101610eec565b5080610eec565b015190508880610b82565b9250600485016000526020600020906000935b601f1984168510610f77576001945083601f19811610610f5e575b505050811b016004830155610b9a565b015160001960f88460031b161c19169055888080610f4e565b81810151835560209485019460019093019290910190610f33565b909150600485016000526020600020601f840160051c810160208510610fde575b90849392915b601f830160051c82018110610fcf575050610b6b565b60008155859450600101610fb9565b5080610fb3565b015190508880610b25565b9250600385016000526020600020906000935b601f1984168510611047576001945083601f1981161061102e575b505050811b016003830155610b3d565b015160001960f88460031b161c1916905588808061101e565b81810151835560209485019460019093019290910190611003565b909150600385016000526020600020601f840160051c8101602085106110ae575b90849392915b601f830160051c8201811061109f575050610b0e565b60008155859450600101611089565b5080611083565b3461017757602080600319360112610177576000546004358181111561117d5750805b6110e1826144a2565b926110ef6040519485614203565b828452601f196110fe846144a2565b01368286013760005b83811061111c576040518061015e87826143f3565b83830390838211611167578082018092116111675785518110156111515761114c91838260051b8801015261442e565b611107565b634e487b7160e01b600052603260045260246000fd5b634e487b7160e01b600052601160045260246000fd5b906110d8565b346101775760803660031901126101775761119c6142ca565b6024356001600160401b038111610177576111bb9036906004016142e0565b6064356001600160401b038111610177576111da9036906004016142e0565b61121f602f60405180936e02230ba30903ab83637b0b232b21d1608d1b602083015261120f8151809260208686019101614049565b810103600f810184520182614203565b6040519061122c826141e8565b6000825260405161123c816141e8565b600081526004549261124d8461442e565b6004556040519261125d846141b1565b848452600160208501523360408501526000606085015285608085015260a084015260443560c0840152600160e084015242610100840152610120830152610140820152600054600160401b81101561067d578060016112c09201600055614129565b91909161090d5780518255600182016020820151600b8110156108f757815460ff610100600160a81b03604086015160081b169216906001600160581b0360a81b16171790556002820160018060a01b036060830151166001600160601b0360a01b82541617905560808101518051906001600160401b03821161067d57819061134d6003860154614177565b601f81116118a5575b50602090601f831160011461183357600092611828575b50508160011b916000199060031b1c19161760038301555b60a08101518051906001600160401b03821161067d5781906113aa6004860154614177565b601f81116117d5575b50602090601f831160011461176357600092611758575b50508160011b916000199060031b1c19161760048301555b60c081015160058301556006820160e0820151151560ff8019835416911617905561010081015160078301556101208101518051906001600160401b03821161067d576114326008850154614177565b601f8111611711575b50602090601f831160011461169d5761014093929160009183611692575b50508160011b916000199060031b1c19161760088401555b01518051906001600160401b03821161067d576114916009840154614177565b601f8111611647575b50602090601f83116001146115d75760099291600091836115cc575b50508160011b916000199060031b1c1916179101555b3360005260016020526114e3816040600020614449565b815181816115ad575b505060016000526003602052611522817fa15bc60c955c405d20d9149c709e2460f1c2d9a497496a7f46004d1772c3054c614449565b600160405191606083526000805160206144ba833981519152611548606085018661406c565b938360208201524260408201528033950390a47f77dcee3a495ae41a487a68f42e79b95d6da47a6b4ff8a956bd4f4563ddf47a496115916040519260408452604084019061406c565b426020840152604435936001600160a01b0316929081900390a3005b6115c591602060405182610578829483858b01614049565b83816114ec565b0151905087806114b6565b906009840160005260206000209160005b601f198516811061162f5750918391600193600995601f19811610611616575b505050811b019101556114cc565b015160001960f88460031b161c19169055878080611608565b919260206001819286850151815501940192016115e8565b600984016000526020600020601f840160051c81019160208510611688575b601f0160051c01905b81811061167c575061149a565b6000815560010161166f565b9091508190611666565b015190508880611459565b906008850160005260206000209160005b601f19851681106116f957509183916001936101409695601f198116106116e0575b505050811b016008840155611471565b015160001960f88460031b161c191690558880806116d0565b919260206001819286850151815501940192016116ae565b600885016000526020600020601f840160051c810160208510611751575b601f830160051c8201811061174557505061143b565b6000815560010161172f565b508061172f565b0151905087806113ca565b9250600485016000526020600020906000935b601f19841685106117ba576001945083601f198116106117a1575b505050811b0160048301556113e2565b015160001960f88460031b161c19169055878080611791565b81810151835560209485019460019093019290910190611776565b909150600485016000526020600020601f840160051c810160208510611821575b90849392915b601f830160051c820181106118125750506113b3565b600081558594506001016117fc565b50806117f6565b01519050878061136d565b9250600385016000526020600020906000935b601f198416851061188a576001945083601f19811610611871575b505050811b016003830155611385565b015160001960f88460031b161c19169055878080611861565b81810151835560209485019460019093019290910190611846565b909150600385016000526020600020601f840160051c8101602085106118f1575b90849392915b601f830160051c820181106118e2575050611356565b600081558594506001016118cc565b50806118c6565b34610177576080366003190112610177576119116142ca565b6024356001600160401b038111610177576119309036906004016142e0565b606435151560643503610177576064351561203757604051611951816141cd565b601781527f566572696669636174696f6e207375636365737366756c00000000000000000060208201525b60405190611989826141e8565b60008252604051611999816141e8565b60008152600454926119aa8461442e565b600455604051926119ba846141b1565b848452600560208501523360408501526000606085015285608085015260a084015260443560c0840152606435151560e084015242610100840152610120830152610140820152600054600160401b81101561067d57806001611a209201600055614129565b91909161090d5780518255600182016020820151600b8110156108f757815460ff610100600160a81b03604086015160081b169216906001600160581b0360a81b161717905560018060a01b0360608201511660028301906001600160601b0360a01b82541617905560808101518051906001600160401b03821161067d578190611aae6003860154614177565b601f8111611fe4575b50602090601f8311600114611f7257600092611f67575b50508160011b916000199060031b1c19161760038301555b60a08101518051906001600160401b03821161067d578190611b0b6004860154614177565b601f8111611f14575b50602090601f8311600114611ea257600092611e97575b50508160011b916000199060031b1c19161760048301555b60c081015160058301556006820160e0820151151560ff8019835416911617905561010081015160078301556101208101518051906001600160401b03821161067d57611b936008850154614177565b601f8111611e50575b50602090601f8311600114611dde5761014093929160009183611dd3575b50508160011b916000199060031b1c19161760088401555b01518051906001600160401b03821161067d57611bf26009840154614177565b601f8111611d8c575b50602090601f8311600114611d1c576009929160009183611d11575b50508160011b916000199060031b1c1916179101555b336000526001602052611c44816040600020614449565b81518181611cf2575b505060056000526003602052611c83817f405aad32e1adbac89bb7f176e338b8fc6e994ca210c9bb7bdca249b465942250614449565b6005604051916000805160206144ba833981519152339380611ca942606435898461447e565b0390a47fe16f3863734e99966a6300bbccef5447a8376be650e3f3f4b19d77d25890184860405180611ced6044359560018060a01b0316944290606435908461447e565b0390a3005b611d0a91602060405182610578829483858b01614049565b8381611c4d565b015190508780611c17565b906009840160005260206000209160005b601f1985168110611d745750918391600193600995601f19811610611d5b575b505050811b01910155611c2d565b015160001960f88460031b161c19169055878080611d4d565b91926020600181928685015181550194019201611d2d565b600984016000526020600020601f840160051c810160208510611dcc575b601f830160051c82018110611dc0575050611bfb565b60008155600101611daa565b5080611daa565b015190508880611bba565b90601f198316916008860160005260206000209260005b818110611e38575091600193918561014097969410611e1f575b505050811b016008840155611bd2565b015160001960f88460031b161c19169055888080611e0f565b92936020600181928786015181550195019301611df5565b600885016000526020600020601f840160051c810160208510611e90575b601f830160051c82018110611e84575050611b9c565b60008155600101611e6e565b5080611e6e565b015190508780611b2b565b9250600485016000526020600020906000935b601f1984168510611ef9576001945083601f19811610611ee0575b505050811b016004830155611b43565b015160001960f88460031b161c19169055878080611ed0565b81810151835560209485019460019093019290910190611eb5565b909150600485016000526020600020601f840160051c810160208510611f60575b90849392915b601f830160051c82018110611f51575050611b14565b60008155859450600101611f3b565b5080611f35565b015190508780611ace565b9250600385016000526020600020906000935b601f1984168510611fc9576001945083601f19811610611fb0575b505050811b016003830155611ae6565b015160001960f88460031b161c19169055878080611fa0565b81810151835560209485019460019093019290910190611f85565b909150600385016000526020600020601f840160051c810160208510612030575b90849392915b601f830160051c82018110612021575050611ab7565b6000815585945060010161200b565b5080612005565b604051612043816141cd565b601381527215995c9a599a58d85d1a5bdb8819985a5b1959606a1b602082015261197c565b3461017757602080600319360112610177576004356001600160401b038111610177578161209d6120b09236906004016142e0565b8160405193828580945193849201614049565b8101600281520301902090604051908181845491828152019360005281600020916000905b8282106120ec5761015e8561015281890382614203565b8354865294850194600193840193909101906120d5565b34610177576000366003190112610177576020600054604051908152f35b346101775760208060031936011261017757600435600b8110156101775761214890614383565b90604051908181845491828152019360005281600020916000905b82821061217a5761015e8561015281890382614203565b835486529485019460019384019390910190612163565b34610177576000366003190112610177576020600454604051908152f35b34610177576040366003190112610177576121c86142ca565b6001600160a01b03166000908152600160205260409020805460243591908210156101775760209161098e9161439c565b3461017757612207366143b4565b604051612213816141cd565b600d81526c11185d18481858d8d95cdcd959609a1b6020820152604051612239816141e8565b600081526040519061224a826141e8565b600082526004549261225b8461442e565b6004556040519261226b846141b1565b848452602084019060068252604085019333855260006060870152608086019388855260a0870152600060c0870152600160e087015242610100870152610120860152610140850152600054600160401b81101561067d578060016122d39201600055614129565b93909361090d578451845560018401915190600b8210156108f75760ff835491610100600160a81b03905160081b169216906001600160581b0360a81b16171790556002820160018060a01b036060850151166001600160601b0360a01b825416179055518051906001600160401b03821161067d5781906123586003850154614177565b601f8111612890575b50602090601f831160011461281e57600092612813575b50508160011b916000199060031b1c19161760038201555b60a08201518051906001600160401b03821161067d5781906123b56004850154614177565b601f81116127c0575b50602090601f831160011461274e57600092612743575b50508160011b916000199060031b1c19161760048201555b60c082015160058201556006810160e0830151151560ff8019835416911617905561010082015160078201556101208201518051906001600160401b03821161067d5761243d6008840154614177565b601f81116126fc575b50602090601f8311600114612686579180610140949260099460009261267b575b50508160011b916000199060031b1c19161760088201555b019101518051906001600160401b03821161067d5761249e8354614177565b601f8111612633575b50602090601f83116001146125a45791807f2073beaf124d3177812cc04e127f9af64f0519f426eeae123b868657b0b498579694926105499694600092612599575b50508160011b916000199060031b1c19161790555b336000526001602052612515816040600020614449565b8151818161257a575b505060066000526003602052612554817fc69056f16cbaa3c616b828e333ab7d3a32310765507f8f58359e99ebb7a885f3614449565b600660405191606083526000805160206144ba833981519152610521606085018661406c565b61259291602060405182610578829483858b01614049565b858161251e565b0151905088806124e9565b90601f198316918460005260206000209260005b81811061261b575092600192859261054998967f2073beaf124d3177812cc04e127f9af64f0519f426eeae123b868657b0b498579a989610612602575b505050811b0190556124fe565b015160001960f88460031b161c191690558880806125f5565b929360206001819287860151815501950193016125b8565b836000526020600020601f840160051c81019160208510612671575b601f0160051c01905b81811061266557506124a7565b60008155600101612658565b909150819061264f565b015190508980612467565b906008840160005260206000209160005b601f19851681106126e4575092610140949260019260099583601f198116106126cb575b505050811b01600882015561247f565b015160001960f88460031b161c191690558980806126bb565b91926020600181928685015181550194019201612697565b600884016000526020600020601f840160051c81016020851061273c575b601f830160051c82018110612730575050612446565b6000815560010161271a565b508061271a565b0151905087806123d5565b9250600484016000526020600020906000935b601f19841685106127a5576001945083601f1981161061278c575b505050811b0160048201556123ed565b015160001960f88460031b161c1916905587808061277c565b81810151835560209485019460019093019290910190612761565b909150600484016000526020600020601f840160051c81016020851061280c575b90849392915b601f830160051c820181106127fd5750506123be565b600081558594506001016127e7565b50806127e1565b015190508780612378565b9250600384016000526020600020906000935b601f1984168510612875576001945083601f1981161061285c575b505050811b016003820155612390565b015160001960f88460031b161c1916905587808061284c565b81810151835560209485019460019093019290910190612831565b909150600384016000526020600020601f840160051c8101602085106128dc575b90849392915b601f830160051c820181106128cd575050612361565b600081558594506001016128b7565b50806128b1565b3461017757604036600319011261017757600435600b8110156101775761290c60243591614383565b80548210156101775760209161098e9161439c565b346101775761292f36614336565b60405161293b816141cd565b600e81526d1058d8d95cdcc81c995d9bdad95960921b6020820152604051612962816141e8565b6000815260405190612973826141e8565b60008252600454926129848461442e565b60045560405191612994836141b1565b84835260208301600381526040840194338652606085019260018060a01b038a168452608086019489865260a0870152600060c0870152600160e087015242610100870152610120860152610140850152600054600160401b81101561067d57806001612a049201600055614129565b95909561090d578451865560018601915190600b8210156108f75760ff835491610100600160a81b03905160081b169216906001600160581b0360a81b1617179055600284019060018060a01b039051166001600160601b0360a01b825416179055518051906001600160401b03821161067d578190612a876003860154614177565b601f8111612fc9575b50602090601f8311600114612f5757600092612f4c575b50508160011b916000199060031b1c19161760038301555b60a08101518051906001600160401b03821161067d578190612ae46004860154614177565b601f8111612ef9575b50602090601f8311600114612e8757600092612e7c575b50508160011b916000199060031b1c19161760048301555b60c081015160058301556006820160e0820151151560ff8019835416911617905561010081015160078301556101208101518051906001600160401b03821161067d57612b6c6008850154614177565b601f8111612e35575b50602090601f8311600114612dc15761014093929160009183612db6575b50508160011b916000199060031b1c19161760088401555b01518051906001600160401b03821161067d57612bcb6009840154614177565b601f8111612d6b575b50602090601f8311600114612cd45782610d2895937fc30f943961ac73205547a1f345c0d6d2adf59a8ed12b16c431801f29967cbcd4979593600993600092612cc9575b50508160011b916000199060031b1c1916179101555b336000526001602052612c45816040600020614449565b81518181612caa575b505060036000819052602052612c84817fcbc4e5fb02c3d1de23a9f1e014b4d2ee5aeaea9505df5e855c9210bf472495af614449565b600360405191606083526000805160206144ba833981519152610521606085018661406c565b612cc291602060405182610578829483858b01614049565b8681612c4e565b015190508a80612c18565b906009840160005260206000209160005b601f1985168110612d535750837fc30f943961ac73205547a1f345c0d6d2adf59a8ed12b16c431801f29967cbcd4979593600993600193610d289997601f19811610612d3a575b505050811b01910155612c2e565b015160001960f88460031b161c191690558a8080612d2c565b91926020600181928685015181550194019201612ce5565b600984016000526020600020601f840160051c81019160208510612dac575b601f0160051c01905b818110612da05750612bd4565b60008155600101612d93565b9091508190612d8a565b015190508980612b93565b906008850160005260206000209160005b601f1985168110612e1d57509183916001936101409695601f19811610612e04575b505050811b016008840155612bab565b015160001960f88460031b161c19169055898080612df4565b91926020600181928685015181550194019201612dd2565b600885016000526020600020601f840160051c810160208510612e75575b601f830160051c82018110612e69575050612b75565b60008155600101612e53565b5080612e53565b015190508880612b04565b9250600485016000526020600020906000935b601f1984168510612ede576001945083601f19811610612ec5575b505050811b016004830155612b1c565b015160001960f88460031b161c19169055888080612eb5565b81810151835560209485019460019093019290910190612e9a565b909150600485016000526020600020601f840160051c810160208510612f45575b90849392915b601f830160051c82018110612f36575050612aed565b60008155859450600101612f20565b5080612f1a565b015190508880612aa7565b9250600385016000526020600020906000935b601f1984168510612fae576001945083601f19811610612f95575b505050811b016003830155612abf565b015160001960f88460031b161c19169055888080612f85565b81810151835560209485019460019093019290910190612f6a565b909150600385016000526020600020601f840160051c810160208510613015575b90849392915b601f830160051c82018110613006575050612a90565b60008155859450600101612ff0565b5080612fea565b34610177576060366003190112610177576130356142ca565b6024356001600160401b038111610177576130549036906004016142e0565b604051613060816141cd565b601681527515995c9a599a58d85d1a5bdb881c995c5d595cdd195960521b602082015260405190613090826141e8565b600082526040516130a0816141e8565b60008152600454926130b18461442e565b600455604051926130c1846141b1565b848452600460208501523360408501526000606085015285608085015260a084015260443560c0840152600160e084015242610100840152610120830152610140820152600054600160401b81101561067d578060016131249201600055614129565b91909161090d57805182556020810151600b8110156108f757600183015460ff610100600160a81b03604085015160081b169216906001600160581b0360a81b16171760018301556002820160018060a01b036060830151166001600160601b0360a01b82541617905560808101518051906001600160401b03821161067d5781906131b36003860154614177565b601f81116136f0575b50602090601f831160011461367e57600092613673575b50508160011b916000199060031b1c19161760038301555b60a08101518051906001600160401b03821161067d5781906132106004860154614177565b601f8111613620575b50602090601f83116001146135ae576000926135a3575b50508160011b916000199060031b1c19161760048301555b60c081015160058301556006820160e0820151151560ff8019835416911617905561010081015160078301556101208101518051906001600160401b03821161067d576132986008850154614177565b601f811161355c575b50602090601f83116001146134e857610140939291600091836134dd575b50508160011b916000199060031b1c19161760088401555b01518051906001600160401b03821161067d576132f76009840154614177565b601f8111613492575b50602090601f8311600114613422576009929160009183613417575b50508160011b916000199060031b1c1916179101555b336000526001602052613349816040600020614449565b815181816133f8575b505060046000526003602052613388817f83ec6a1f0257b830b5e016457c9cf1435391bf56cc98f369a58a54fe93772465614449565b600460405191606083526000805160206144ba8339815191526133ae606085018661406c565b93600160208201524260408201528033950390a47f605aa34692af80242158f86f6a3dbb6fd50ccd5a26c5cc8d0c157932c6843cf56115916040519260408452604084019061406c565b61341091602060405182610578829483858b01614049565b8381613352565b01519050878061331c565b906009840160005260206000209160005b601f198516811061347a5750918391600193600995601f19811610613461575b505050811b01910155613332565b015160001960f88460031b161c19169055878080613453565b91926020600181928685015181550194019201613433565b600984016000526020600020601f840160051c810191602085106134d3575b601f0160051c01905b8181106134c75750613300565b600081556001016134ba565b90915081906134b1565b0151905088806132bf565b906008850160005260206000209160005b601f198516811061354457509183916001936101409695601f1981161061352b575b505050811b0160088401556132d7565b015160001960f88460031b161c1916905588808061351b565b919260206001819286850151815501940192016134f9565b600885016000526020600020601f840160051c81016020851061359c575b601f830160051c820181106135905750506132a1565b6000815560010161357a565b508061357a565b015190508780613230565b9250600485016000526020600020906000935b601f1984168510613605576001945083601f198116106135ec575b505050811b016004830155613248565b015160001960f88460031b161c191690558780806135dc565b818101518355602094850194600190930192909101906135c1565b909150600485016000526020600020601f840160051c81016020851061366c575b90849392915b601f830160051c8201811061365d575050613219565b60008155859450600101613647565b5080613641565b0151905087806131d3565b9250600385016000526020600020906000935b601f19841685106136d5576001945083601f198116106136bc575b505050811b0160038301556131eb565b015160001960f88460031b161c191690558780806136ac565b81810151835560209485019460019093019290910190613691565b909150600385016000526020600020601f840160051c81016020851061373c575b90849392915b601f830160051c8201811061372d5750506131bc565b60008155859450600101613717565b5080613711565b346101775761010036600319011261017757600b6004351015610177576024356001600160a01b0381168103610177576044356001600160401b038111610177576137929036906004016142e0565b6064356001600160401b038111610177576137b19036906004016142e0565b9060a435151560a435036101775760c4356001600160401b038111610177576137de9036906004016142e0565b60e4356001600160401b038111610177576137fd9036906004016142e0565b906004549361380b8561442e565b6004556040519561381b876141b1565b85875261382d6004356020890161443d565b3360408801526001600160a01b031660608701526080860184905260a086015260843560c086015260a435151560e086015242610100860152610120850152610140840152600054600160401b81101561067d578060016138919201600055614129565b93909361090d5780518455600184016020820151600b8110156108f757815460ff610100600160a81b03604086015160081b169216906001600160581b0360a81b16171790556002840160018060a01b036060830151166001600160601b0360a01b82541617905560808101518051906001600160401b03821161067d57819061391e6003880154614177565b601f8111613dfa575b50602090601f8311600114613d8857600092613d7d575b50508160011b916000199060031b1c19161760038501555b60a08101518051906001600160401b03821161067d57819061397b6004880154614177565b601f8111613d2a575b50602090601f8311600114613cb857600092613cad575b50508160011b916000199060031b1c19161760048501555b60c081015160058501556006840160e0820151151560ff8019835416911617905561010081015160078501556101208101518051906001600160401b03821161067d57613a036008870154614177565b601f8111613c66575b50602090601f8311600114613bf45761014093929160009183613be9575b50508160011b916000199060031b1c19161760088601555b01519283516001600160401b03811161067d57613a626009830154614177565b94601f8611613b9e575b602095508590601f8311600114613b32576009929160009183613b27575b50508160011b916000199060031b1c1916179101555b3360005260018352613ab6826040600020614449565b80518281613b09575b613ad49150613acf600435614383565b614449565b60405190826000805160206144ba833981519152339380613afe60043595429060a435908461447e565b0390a4604051908152f35b613b20918560405182610578829483858a01614049565b8382613abf565b015190508780613a8a565b90601f1983169160098501600052876000209260005b818110613b8757509160019391856009969410613b6e575b505050811b01910155613aa0565b015160001960f88460031b161c19169055878080613b60565b929389600181928786015181550195019301613b48565b600983016000526020600020601f830160051c81019660208410613bdf575b601f0160051c01955b868110613bd35750613a6c565b60008155600101613bc6565b9096508690613bbd565b015190508780613a2a565b90601f198316916008880160005260206000209260005b818110613c4e575091600193918561014097969410613c35575b505050811b016008860155613a42565b015160001960f88460031b161c19169055878080613c25565b92936020600181928786015181550195019301613c0b565b600887016000526020600020601f840160051c810160208510613ca6575b601f830160051c82018110613c9a575050613a0c565b60008155600101613c84565b5080613c84565b01519050868061399b565b9250600487016000526020600020906000935b601f1984168510613d0f576001945083601f19811610613cf6575b505050811b0160048501556139b3565b015160001960f88460031b161c19169055868080613ce6565b81810151835560209485019460019093019290910190613ccb565b909150600487016000526020600020601f840160051c810160208510613d76575b90849392915b601f830160051c82018110613d67575050613984565b60008155859450600101613d51565b5080613d4b565b01519050868061393e565b9250600387016000526020600020906000935b601f1984168510613ddf576001945083601f19811610613dc6575b505050811b016003850155613956565b015160001960f88460031b161c19169055868080613db6565b81810151835560209485019460019093019290910190613d9b565b909150600387016000526020600020601f840160051c810160208510613e46575b90849392915b601f830160051c82018110613e37575050613927565b60008155859450600101613e21565b5080613e1b565b346101775760203660031901126101775760043560005481101561017757613e7660ff91614129565b508054600182015460028301546001600160a01b039361015e939290918516613ea160038401614224565b613ead60048501614224565b6005850154918960068701541693600787015495613ed96009613ed260088b01614224565b9901614224565b986040519c8d9c8360081c169216908c614091565b34610177576020366003190112610177576004359060005482101561401257613f1682614129565b5060405190613f24826141b1565b805482526001810154916020810191613f4060ff85168461443d565b604082019160018060a01b03809560081c168352846002830154169160608201928352613f6f60038201614224565b60808301908152613f8260048301614224565b60a08401908152600583015460c0850190815260ff6006850154169160e0860192151583526007850154936101008701948552613fd56009613fc660088901614224565b976101208a0198895201614224565b9661014081019788525199519a600b8c10156108f7578061015e9a511698511690519151925193511515945195519651976040519b8c9b8c614091565b62461bcd60e51b8152602060048201526012602482015271131bd9c8191bd95cc81b9bdd08195e1a5cdd60721b6044820152606490fd5b60005b83811061405c5750506000910152565b818101518382015260200161404c565b9060209161408581518092818552858086019101614049565b601f01601f1916010190565b999591909a98949a979392978a52600b8110156108f75760208a01526001600160a01b0396871660408a0152951660608801526101606080880181905261412698614117966140f69290916140e8918b019061406c565b9089820360a08b015261406c565b9360c0880152151560e087015261010086015284820361012086015261406c565b9161014081840391015261406c565b90565b90600091825481101561416357600a90838052027f290decd9548b62a8d60345a988386fc84ba6bc95484008f6362f93160ef3e563019190565b634e487b7160e01b83526032600452602483fd5b90600182811c921680156141a7575b602083101461419157565b634e487b7160e01b600052602260045260246000fd5b91607f1691614186565b61016081019081106001600160401b0382111761067d57604052565b604081019081106001600160401b0382111761067d57604052565b602081019081106001600160401b0382111761067d57604052565b90601f801991011681019081106001600160401b0382111761067d57604052565b906040519182600082549261423884614177565b9081845260019485811690816000146142a75750600114614264575b505061426292500383614203565b565b9093915060005260209081600020936000915b81831061428f57505061426293508201013880614254565b85548884018501529485019487945091830191614277565b91505061426294506020925060ff191682840152151560051b8201013880614254565b600435906001600160a01b038216820361017757565b81601f82011215610177578035906001600160401b03821161067d5760405192614314601f8401601f191660200185614203565b8284526020838301011161017757816000926020809301838601378301015290565b6060600319820112610177576001600160a01b03916004358381168103610177579260243590811681036101775791604435906001600160401b03821161017757614126916004016142e0565b600b8110156108f7576000526003602052604060002090565b80548210156111515760005260206000200190600090565b906040600319830112610177576004356001600160a01b03811681036101775791602435906001600160401b03821161017757614126916004016142e0565b6020908160408183019282815285518094520193019160005b82811061441a575050505090565b83518552938101939281019260010161440c565b60001981146111675760010190565b600b8210156108f75752565b8054600160401b81101561067d576144669160018201815561439c565b819291549060031b91821b91600019901b1916179055565b6144966040929594939560608352606083019061406c565b94151560208201520152565b6001600160401b03811161067d5760051b6020019056fe99e8ca4d8227f74a4d2de00d55a050efa1ecf8c703d790e6144de2d51e14305ca26469706673582212209463cc2c563560ea37c97b88a6ef3dcdd79798dd83edd21eb82fb39f1755cf2364736f6c63430008140033","opcodes":"PUSH1 0x80 DUP1 PUSH1 0x40 MSTORE CALLVALUE PUSH2 0x16 JUMPI PUSH2 0x450F SWAP1 DUP2 PUSH2 0x1C DUP3 CODECOPY RETURN JUMPDEST PUSH1 0x0 DUP1 REVERT INVALID PUSH1 0x80 DUP1 PUSH1 0x40 MSTORE PUSH1 0x4 CALLDATASIZE LT ISZERO PUSH2 0x13 JUMPI PUSH1 0x0 DUP1 REVERT JUMPDEST PUSH1 0x0 CALLDATALOAD PUSH1 0xE0 SHR SWAP1 DUP2 PUSH4 0x3206B2C6 EQ PUSH2 0x3EEE JUMPI POP DUP1 PUSH4 0x60760415 EQ PUSH2 0x3E4D JUMPI DUP1 PUSH4 0x6A5D1F19 EQ PUSH2 0x3743 JUMPI DUP1 PUSH4 0x724136C2 EQ PUSH2 0x301C JUMPI DUP1 PUSH4 0x7A893865 EQ PUSH2 0x2921 JUMPI DUP1 PUSH4 0x7E15C7E9 EQ PUSH2 0x28E3 JUMPI DUP1 PUSH4 0x905D9A0D EQ PUSH2 0x21F9 JUMPI DUP1 PUSH4 0xA9C85164 EQ PUSH2 0x21AF JUMPI DUP1 PUSH4 0xAC42100F EQ PUSH2 0x2191 JUMPI DUP1 PUSH4 0xB84046B4 EQ PUSH2 0x2121 JUMPI DUP1 PUSH4 0xBD628D26 EQ PUSH2 0x2103 JUMPI DUP1 PUSH4 0xD40FD399 EQ PUSH2 0x2068 JUMPI DUP1 PUSH4 0xD92B340D EQ PUSH2 0x18F8 JUMPI DUP1 PUSH4 0xE0DF6D25 EQ PUSH2 0x1183 JUMPI DUP1 PUSH4 0xE52E64F9 EQ PUSH2 0x10B5 JUMPI DUP1 PUSH4 0xED08CE16 EQ PUSH2 0x99C JUMPI DUP1 PUSH4 0xED9B95E2 EQ PUSH2 0x923 JUMPI DUP1 PUSH4 0xF3729920 EQ PUSH2 0x17C JUMPI PUSH4 0xF87C51D0 EQ PUSH2 0xF0 JUMPI PUSH1 0x0 DUP1 REVERT JUMPDEST CALLVALUE PUSH2 0x177 JUMPI PUSH1 0x20 DUP1 PUSH1 0x3 NOT CALLDATASIZE ADD SLT PUSH2 0x177 JUMPI PUSH1 0x1 PUSH1 0x1 PUSH1 0xA0 SHL SUB PUSH2 0x112 PUSH2 0x42CA JUMP JUMPDEST AND PUSH1 0x0 MSTORE PUSH1 0x1 DUP1 DUP3 MSTORE PUSH1 0x40 PUSH1 0x0 KECCAK256 SWAP2 PUSH1 0x40 MLOAD SWAP2 DUP3 DUP3 DUP6 SLOAD SWAP2 DUP3 DUP2 MSTORE ADD SWAP5 PUSH1 0x0 MSTORE DUP3 PUSH1 0x0 KECCAK256 SWAP3 PUSH1 0x0 SWAP1 JUMPDEST DUP3 DUP3 LT PUSH2 0x162 JUMPI PUSH2 0x15E DUP7 PUSH2 0x152 DUP2 DUP11 SUB DUP3 PUSH2 0x4203 JUMP JUMPDEST PUSH1 0x40 MLOAD SWAP2 DUP3 SWAP2 DUP3 PUSH2 0x43F3 JUMP JUMPDEST SUB SWAP1 RETURN JUMPDEST DUP5 SLOAD DUP8 MSTORE SWAP6 DUP7 ADD SWAP6 SWAP4 DUP4 ADD SWAP4 SWAP1 DUP4 ADD SWAP1 PUSH2 0x13B JUMP JUMPDEST PUSH1 0x0 DUP1 REVERT JUMPDEST CALLVALUE PUSH2 0x177 JUMPI PUSH2 0x18A CALLDATASIZE PUSH2 0x43B4 JUMP JUMPDEST PUSH1 0x40 MLOAD PUSH32 0x496E737469747574696F6E20726567697374657265643A200000000000000000 PUSH1 0x20 DUP3 ADD MSTORE PUSH2 0x1DB PUSH1 0x38 DUP3 DUP5 MLOAD PUSH2 0x1CB DUP2 DUP5 DUP5 ADD PUSH1 0x20 DUP10 ADD PUSH2 0x4049 JUMP JUMPDEST DUP2 ADD SUB PUSH1 0x18 DUP2 ADD DUP5 MSTORE ADD DUP3 PUSH2 0x4203 JUMP JUMPDEST PUSH1 0x40 MLOAD SWAP1 PUSH2 0x1E8 DUP3 PUSH2 0x41E8 JUMP JUMPDEST PUSH1 0x0 DUP3 MSTORE PUSH1 0x40 MLOAD SWAP1 PUSH2 0x1F9 DUP3 PUSH2 0x41E8 JUMP JUMPDEST PUSH1 0x0 DUP3 MSTORE PUSH1 0x40 MLOAD PUSH2 0x209 DUP2 PUSH2 0x41E8 JUMP JUMPDEST PUSH1 0x0 DUP2 MSTORE PUSH1 0x4 SLOAD SWAP3 PUSH2 0x21A DUP5 PUSH2 0x442E JUMP JUMPDEST PUSH1 0x4 SSTORE PUSH1 0x40 MLOAD SWAP3 PUSH2 0x22A DUP5 PUSH2 0x41B1 JUMP JUMPDEST DUP5 DUP5 MSTORE PUSH1 0x0 PUSH1 0x20 DUP6 ADD MSTORE CALLER PUSH1 0x40 DUP6 ADD MSTORE PUSH1 0x1 DUP1 PUSH1 0xA0 SHL SUB DUP9 AND PUSH1 0x60 DUP6 ADD MSTORE DUP6 PUSH1 0x80 DUP6 ADD MSTORE PUSH1 0xA0 DUP5 ADD MSTORE PUSH1 0x0 PUSH1 0xC0 DUP5 ADD MSTORE PUSH1 0x1 PUSH1 0xE0 DUP5 ADD MSTORE TIMESTAMP PUSH2 0x100 DUP5 ADD MSTORE PUSH2 0x120 DUP4 ADD MSTORE PUSH2 0x140 DUP3 ADD MSTORE PUSH1 0x0 SLOAD PUSH1 0x1 PUSH1 0x40 SHL DUP2 LT ISZERO PUSH2 0x67D JUMPI DUP1 PUSH1 0x1 PUSH2 0x293 SWAP3 ADD PUSH1 0x0 SSTORE PUSH2 0x4129 JUMP JUMPDEST SWAP2 SWAP1 SWAP2 PUSH2 0x90D JUMPI DUP1 MLOAD DUP3 SSTORE PUSH1 0x1 DUP3 ADD PUSH1 0x20 DUP3 ADD MLOAD PUSH1 0xB DUP2 LT ISZERO PUSH2 0x8F7 JUMPI DUP2 SLOAD PUSH1 0xFF PUSH2 0x100 PUSH1 0x1 PUSH1 0xA8 SHL SUB PUSH1 0x40 DUP7 ADD MLOAD PUSH1 0x8 SHL AND SWAP3 AND SWAP1 PUSH1 0x1 PUSH1 0x1 PUSH1 0x58 SHL SUB PUSH1 0xA8 SHL AND OR OR SWAP1 SSTORE PUSH1 0x2 DUP3 ADD PUSH1 0x1 DUP1 PUSH1 0xA0 SHL SUB PUSH1 0x60 DUP4 ADD MLOAD AND PUSH1 0x1 PUSH1 0x1 PUSH1 0x60 SHL SUB PUSH1 0xA0 SHL DUP3 SLOAD AND OR SWAP1 SSTORE PUSH1 0x80 DUP2 ADD MLOAD DUP1 MLOAD SWAP1 PUSH1 0x1 PUSH1 0x1 PUSH1 0x40 SHL SUB DUP3 GT PUSH2 0x67D JUMPI DUP2 SWAP1 PUSH2 0x320 PUSH1 0x3 DUP7 ADD SLOAD PUSH2 0x4177 JUMP JUMPDEST PUSH1 0x1F DUP2 GT PUSH2 0x8A4 JUMPI JUMPDEST POP PUSH1 0x20 SWAP1 PUSH1 0x1F DUP4 GT PUSH1 0x1 EQ PUSH2 0x832 JUMPI PUSH1 0x0 SWAP3 PUSH2 0x827 JUMPI JUMPDEST POP POP DUP2 PUSH1 0x1 SHL SWAP2 PUSH1 0x0 NOT SWAP1 PUSH1 0x3 SHL SHR NOT AND OR PUSH1 0x3 DUP4 ADD SSTORE JUMPDEST PUSH1 0xA0 DUP2 ADD MLOAD DUP1 MLOAD SWAP1 PUSH1 0x1 PUSH1 0x1 PUSH1 0x40 SHL SUB DUP3 GT PUSH2 0x67D JUMPI DUP2 SWAP1 PUSH2 0x37D PUSH1 0x4 DUP7 ADD SLOAD PUSH2 0x4177 JUMP JUMPDEST PUSH1 0x1F DUP2 GT PUSH2 0x7D4 JUMPI JUMPDEST POP PUSH1 0x20 SWAP1 PUSH1 0x1F DUP4 GT PUSH1 0x1 EQ PUSH2 0x762 JUMPI PUSH1 0x0 SWAP3 PUSH2 0x757 JUMPI JUMPDEST POP POP DUP2 PUSH1 0x1 SHL SWAP2 PUSH1 0x0 NOT SWAP1 PUSH1 0x3 SHL SHR NOT AND OR PUSH1 0x4 DUP4 ADD SSTORE JUMPDEST PUSH1 0xC0 DUP2 ADD MLOAD PUSH1 0x5 DUP4 ADD SSTORE PUSH1 0x6 DUP3 ADD PUSH1 0xE0 DUP3 ADD MLOAD ISZERO ISZERO PUSH1 0xFF DUP1 NOT DUP4 SLOAD AND SWAP2 AND OR SWAP1 SSTORE PUSH2 0x100 DUP2 ADD MLOAD PUSH1 0x7 DUP4 ADD SSTORE PUSH2 0x120 DUP2 ADD MLOAD DUP1 MLOAD SWAP1 PUSH1 0x1 PUSH1 0x1 PUSH1 0x40 SHL SUB DUP3 GT PUSH2 0x67D JUMPI PUSH2 0x405 PUSH1 0x8 DUP6 ADD SLOAD PUSH2 0x4177 JUMP JUMPDEST PUSH1 0x1F DUP2 GT PUSH2 0x710 JUMPI JUMPDEST POP PUSH1 0x20 SWAP1 PUSH1 0x1F DUP4 GT PUSH1 0x1 EQ PUSH2 0x69E JUMPI PUSH2 0x140 SWAP4 SWAP3 SWAP2 PUSH1 0x0 SWAP2 DUP4 PUSH2 0x693 JUMPI JUMPDEST POP POP DUP2 PUSH1 0x1 SHL SWAP2 PUSH1 0x0 NOT SWAP1 PUSH1 0x3 SHL SHR NOT AND OR PUSH1 0x8 DUP5 ADD SSTORE JUMPDEST ADD MLOAD DUP1 MLOAD SWAP1 PUSH1 0x1 PUSH1 0x1 PUSH1 0x40 SHL SUB DUP3 GT PUSH2 0x67D JUMPI PUSH2 0x464 PUSH1 0x9 DUP5 ADD SLOAD PUSH2 0x4177 JUMP JUMPDEST PUSH1 0x1F DUP2 GT PUSH2 0x632 JUMPI JUMPDEST POP PUSH1 0x20 SWAP1 PUSH1 0x1F DUP4 GT PUSH1 0x1 EQ PUSH2 0x599 JUMPI SWAP3 PUSH1 0x9 DUP4 PUSH1 0x0 SWAP5 PUSH32 0xDCB4E7D05C037DA60BF57616441CB8711FCAE34C70488F4B761F03A43AF7F367 SWAP10 SWAP8 SWAP5 PUSH2 0x549 SWAP10 SWAP8 DUP8 SWAP3 PUSH2 0x58E JUMPI JUMPDEST POP POP DUP2 PUSH1 0x1 SHL SWAP2 DUP7 NOT SWAP1 PUSH1 0x3 SHL SHR NOT AND OR SWAP2 ADD SSTORE JUMPDEST CALLER DUP3 MSTORE PUSH1 0x1 PUSH1 0x20 MSTORE PUSH2 0x4DD DUP2 PUSH1 0x40 DUP5 KECCAK256 PUSH2 0x4449 JUMP JUMPDEST DUP3 MLOAD DUP2 DUP2 PUSH2 0x560 JUMPI JUMPDEST POP POP DUP2 DUP1 MSTORE PUSH1 0x3 PUSH1 0x20 MSTORE PUSH2 0x4FD DUP2 PUSH1 0x40 DUP5 KECCAK256 PUSH2 0x4449 JUMP JUMPDEST PUSH1 0x0 DUP1 MLOAD PUSH1 0x20 PUSH2 0x44BA DUP4 CODECOPY DUP2 MLOAD SWAP2 MSTORE PUSH2 0x521 PUSH1 0x40 MLOAD SWAP5 PUSH1 0x60 DUP7 MSTORE PUSH1 0x60 DUP7 ADD SWAP1 PUSH2 0x406C JUMP JUMPDEST SWAP4 PUSH1 0x1 PUSH1 0x20 DUP3 ADD MSTORE TIMESTAMP PUSH1 0x40 DUP3 ADD MSTORE DUP1 CALLER SWAP6 SUB SWAP1 LOG4 PUSH1 0x40 MLOAD SWAP2 DUP3 SWAP2 PUSH1 0x40 DUP4 MSTORE PUSH1 0x40 DUP4 ADD SWAP1 PUSH2 0x406C JUMP JUMPDEST TIMESTAMP PUSH1 0x20 DUP4 ADD MSTORE PUSH1 0x1 PUSH1 0x1 PUSH1 0xA0 SHL SUB SWAP1 SWAP5 AND SWAP4 SUB SWAP1 LOG2 STOP JUMPDEST PUSH2 0x587 SWAP2 PUSH1 0x20 PUSH1 0x40 MLOAD DUP3 PUSH2 0x578 DUP3 SWAP5 DUP4 DUP6 DUP13 ADD PUSH2 0x4049 JUMP JUMPDEST DUP2 ADD PUSH1 0x2 DUP2 MSTORE SUB ADD SWAP1 KECCAK256 PUSH2 0x4449 JUMP JUMPDEST DUP8 DUP2 PUSH2 0x4E6 JUMP JUMPDEST ADD MLOAD SWAP1 POP DUP12 DUP1 PUSH2 0x4B3 JUMP JUMPDEST SWAP1 PUSH1 0x9 DUP5 ADD PUSH1 0x0 MSTORE PUSH1 0x20 PUSH1 0x0 KECCAK256 SWAP2 PUSH1 0x0 JUMPDEST PUSH1 0x1F NOT DUP6 AND DUP2 LT PUSH2 0x61A JUMPI POP PUSH1 0x1 DUP5 PUSH32 0xDCB4E7D05C037DA60BF57616441CB8711FCAE34C70488F4B761F03A43AF7F367 SWAP10 SWAP8 SWAP5 PUSH2 0x549 SWAP10 SWAP8 SWAP5 PUSH1 0x9 SWAP5 PUSH1 0x0 SWAP9 PUSH1 0x1F NOT DUP2 AND LT PUSH2 0x602 JUMPI JUMPDEST POP POP POP DUP2 SHL ADD SWAP2 ADD SSTORE PUSH2 0x4C8 JUMP JUMPDEST ADD MLOAD DUP8 NOT PUSH1 0xF8 DUP5 PUSH1 0x3 SHL AND SHR NOT AND SWAP1 SSTORE DUP12 DUP1 DUP1 PUSH2 0x5F4 JUMP JUMPDEST SWAP2 SWAP3 PUSH1 0x20 PUSH1 0x1 DUP2 SWAP3 DUP7 DUP6 ADD MLOAD DUP2 SSTORE ADD SWAP5 ADD SWAP3 ADD PUSH2 0x5AA JUMP JUMPDEST PUSH1 0x9 DUP5 ADD PUSH1 0x0 MSTORE PUSH1 0x20 PUSH1 0x0 KECCAK256 PUSH1 0x1F DUP5 ADD PUSH1 0x5 SHR DUP2 ADD SWAP2 PUSH1 0x20 DUP6 LT PUSH2 0x673 JUMPI JUMPDEST PUSH1 0x1F ADD PUSH1 0x5 SHR ADD SWAP1 JUMPDEST DUP2 DUP2 LT PUSH2 0x667 JUMPI POP PUSH2 0x46D JUMP JUMPDEST PUSH1 0x0 DUP2 SSTORE PUSH1 0x1 ADD PUSH2 0x65A JUMP JUMPDEST SWAP1 SWAP2 POP DUP2 SWAP1 PUSH2 0x651 JUMP JUMPDEST PUSH4 0x4E487B71 PUSH1 0xE0 SHL PUSH1 0x0 MSTORE PUSH1 0x41 PUSH1 0x4 MSTORE PUSH1 0x24 PUSH1 0x0 REVERT JUMPDEST ADD MLOAD SWAP1 POP DUP10 DUP1 PUSH2 0x42C JUMP JUMPDEST SWAP1 PUSH1 0x1F NOT DUP4 AND SWAP2 PUSH1 0x8 DUP7 ADD PUSH1 0x0 MSTORE PUSH1 0x20 PUSH1 0x0 KECCAK256 SWAP3 PUSH1 0x0 JUMPDEST DUP2 DUP2 LT PUSH2 0x6F8 JUMPI POP SWAP2 PUSH1 0x1 SWAP4 SWAP2 DUP6 PUSH2 0x140 SWAP8 SWAP7 SWAP5 LT PUSH2 0x6DF JUMPI JUMPDEST POP POP POP DUP2 SHL ADD PUSH1 0x8 DUP5 ADD SSTORE PUSH2 0x444 JUMP JUMPDEST ADD MLOAD PUSH1 0x0 NOT PUSH1 0xF8 DUP5 PUSH1 0x3 SHL AND SHR NOT AND SWAP1 SSTORE DUP10 DUP1 DUP1 PUSH2 0x6CF JUMP JUMPDEST SWAP3 SWAP4 PUSH1 0x20 PUSH1 0x1 DUP2 SWAP3 DUP8 DUP7 ADD MLOAD DUP2 SSTORE ADD SWAP6 ADD SWAP4 ADD PUSH2 0x6B5 JUMP JUMPDEST PUSH1 0x8 DUP6 ADD PUSH1 0x0 MSTORE PUSH1 0x20 PUSH1 0x0 KECCAK256 PUSH1 0x1F DUP5 ADD PUSH1 0x5 SHR DUP2 ADD PUSH1 0x20 DUP6 LT PUSH2 0x750 JUMPI JUMPDEST PUSH1 0x1F DUP4 ADD PUSH1 0x5 SHR DUP3 ADD DUP2 LT PUSH2 0x744 JUMPI POP POP PUSH2 0x40E JUMP JUMPDEST PUSH1 0x0 DUP2 SSTORE PUSH1 0x1 ADD PUSH2 0x72E JUMP JUMPDEST POP DUP1 PUSH2 0x72E JUMP JUMPDEST ADD MLOAD SWAP1 POP DUP9 DUP1 PUSH2 0x39D JUMP JUMPDEST SWAP3 POP PUSH1 0x4 DUP6 ADD PUSH1 0x0 MSTORE PUSH1 0x20 PUSH1 0x0 KECCAK256 SWAP1 PUSH1 0x0 SWAP4 JUMPDEST PUSH1 0x1F NOT DUP5 AND DUP6 LT PUSH2 0x7B9 JUMPI PUSH1 0x1 SWAP5 POP DUP4 PUSH1 0x1F NOT DUP2 AND LT PUSH2 0x7A0 JUMPI JUMPDEST POP POP POP DUP2 SHL ADD PUSH1 0x4 DUP4 ADD SSTORE PUSH2 0x3B5 JUMP JUMPDEST ADD MLOAD PUSH1 0x0 NOT PUSH1 0xF8 DUP5 PUSH1 0x3 SHL AND SHR NOT AND SWAP1 SSTORE DUP9 DUP1 DUP1 PUSH2 0x790 JUMP JUMPDEST DUP2 DUP2 ADD MLOAD DUP4 SSTORE PUSH1 0x20 SWAP5 DUP6 ADD SWAP5 PUSH1 0x1 SWAP1 SWAP4 ADD SWAP3 SWAP1 SWAP2 ADD SWAP1 PUSH2 0x775 JUMP JUMPDEST SWAP1 SWAP2 POP PUSH1 0x4 DUP6 ADD PUSH1 0x0 MSTORE PUSH1 0x20 PUSH1 0x0 KECCAK256 PUSH1 0x1F DUP5 ADD PUSH1 0x5 SHR DUP2 ADD PUSH1 0x20 DUP6 LT PUSH2 0x820 JUMPI JUMPDEST SWAP1 DUP5 SWAP4 SWAP3 SWAP2 JUMPDEST PUSH1 0x1F DUP4 ADD PUSH1 0x5 SHR DUP3 ADD DUP2 LT PUSH2 0x811 JUMPI POP POP PUSH2 0x386 JUMP JUMPDEST PUSH1 0x0 DUP2 SSTORE DUP6 SWAP5 POP PUSH1 0x1 ADD PUSH2 0x7FB JUMP JUMPDEST POP DUP1 PUSH2 0x7F5 JUMP JUMPDEST ADD MLOAD SWAP1 POP DUP9 DUP1 PUSH2 0x340 JUMP JUMPDEST SWAP3 POP PUSH1 0x3 DUP6 ADD PUSH1 0x0 MSTORE PUSH1 0x20 PUSH1 0x0 KECCAK256 SWAP1 PUSH1 0x0 SWAP4 JUMPDEST PUSH1 0x1F NOT DUP5 AND DUP6 LT PUSH2 0x889 JUMPI PUSH1 0x1 SWAP5 POP DUP4 PUSH1 0x1F NOT DUP2 AND LT PUSH2 0x870 JUMPI JUMPDEST POP POP POP DUP2 SHL ADD PUSH1 0x3 DUP4 ADD SSTORE PUSH2 0x358 JUMP JUMPDEST ADD MLOAD PUSH1 0x0 NOT PUSH1 0xF8 DUP5 PUSH1 0x3 SHL AND SHR NOT AND SWAP1 SSTORE DUP9 DUP1 DUP1 PUSH2 0x860 JUMP JUMPDEST DUP2 DUP2 ADD MLOAD DUP4 SSTORE PUSH1 0x20 SWAP5 DUP6 ADD SWAP5 PUSH1 0x1 SWAP1 SWAP4 ADD SWAP3 SWAP1 SWAP2 ADD SWAP1 PUSH2 0x845 JUMP JUMPDEST SWAP1 SWAP2 POP PUSH1 0x3 DUP6 ADD PUSH1 0x0 MSTORE PUSH1 0x20 PUSH1 0x0 KECCAK256 PUSH1 0x1F DUP5 ADD PUSH1 0x5 SHR DUP2 ADD PUSH1 0x20 DUP6 LT PUSH2 0x8F0 JUMPI JUMPDEST SWAP1 DUP5 SWAP4 SWAP3 SWAP2 JUMPDEST PUSH1 0x1F DUP4 ADD PUSH1 0x5 SHR DUP3 ADD DUP2 LT PUSH2 0x8E1 JUMPI POP POP PUSH2 0x329 JUMP JUMPDEST PUSH1 0x0 DUP2 SSTORE DUP6 SWAP5 POP PUSH1 0x1 ADD PUSH2 0x8CB JUMP JUMPDEST POP DUP1 PUSH2 0x8C5 JUMP JUMPDEST PUSH4 0x4E487B71 PUSH1 0xE0 SHL PUSH1 0x0 MSTORE PUSH1 0x21 PUSH1 0x4 MSTORE PUSH1 0x24 PUSH1 0x0 REVERT JUMPDEST PUSH4 0x4E487B71 PUSH1 0xE0 SHL PUSH1 0x0 MSTORE PUSH1 0x0 PUSH1 0x4 MSTORE PUSH1 0x24 PUSH1 0x0 REVERT JUMPDEST CALLVALUE PUSH2 0x177 JUMPI PUSH1 0x40 CALLDATASIZE PUSH1 0x3 NOT ADD SLT PUSH2 0x177 JUMPI PUSH1 0x4 CALLDATALOAD PUSH1 0x1 PUSH1 0x1 PUSH1 0x40 SHL SUB DUP2 GT PUSH2 0x177 JUMPI PUSH2 0x953 SWAP1 CALLDATASIZE SWAP1 PUSH1 0x4 ADD PUSH2 0x42E0 JUMP JUMPDEST PUSH2 0x96F PUSH1 0x20 PUSH1 0x24 CALLDATALOAD SWAP3 DUP2 PUSH1 0x40 MLOAD SWAP4 DUP3 DUP6 DUP1 SWAP5 MLOAD SWAP4 DUP5 SWAP3 ADD PUSH2 0x4049 JUMP JUMPDEST DUP2 ADD PUSH1 0x2 DUP2 MSTORE SUB ADD SWAP1 KECCAK256 DUP1 SLOAD DUP3 LT ISZERO PUSH2 0x177 JUMPI PUSH1 0x20 SWAP2 PUSH2 0x98E SWAP2 PUSH2 0x439C JUMP JUMPDEST SWAP1 SLOAD PUSH1 0x40 MLOAD SWAP2 PUSH1 0x3 SHL SHR DUP2 MSTORE RETURN JUMPDEST CALLVALUE PUSH2 0x177 JUMPI PUSH2 0x9AA CALLDATASIZE PUSH2 0x4336 JUMP JUMPDEST PUSH1 0x40 MLOAD PUSH2 0x9B6 DUP2 PUSH2 0x41CD JUMP JUMPDEST PUSH1 0xE DUP2 MSTORE PUSH14 0x1058D8D95CDCC819DC985B9D1959 PUSH1 0x92 SHL PUSH1 0x20 DUP3 ADD MSTORE PUSH1 0x40 MLOAD SWAP1 PUSH2 0x9DE DUP3 PUSH2 0x41E8 JUMP JUMPDEST PUSH1 0x0 DUP3 MSTORE PUSH1 0x40 MLOAD PUSH2 0x9EE DUP2 PUSH2 0x41E8 JUMP JUMPDEST PUSH1 0x0 DUP2 MSTORE PUSH1 0x4 SLOAD SWAP3 PUSH2 0x9FF DUP5 PUSH2 0x442E JUMP JUMPDEST PUSH1 0x4 SSTORE PUSH1 0x40 MLOAD SWAP3 PUSH2 0xA0F DUP5 PUSH2 0x41B1 JUMP JUMPDEST DUP5 DUP5 MSTORE PUSH1 0x2 PUSH1 0x20 DUP6 ADD MSTORE CALLER PUSH1 0x40 DUP6 ADD MSTORE PUSH1 0x1 DUP1 PUSH1 0xA0 SHL SUB DUP8 AND PUSH1 0x60 DUP6 ADD MSTORE DUP6 PUSH1 0x80 DUP6 ADD MSTORE PUSH1 0xA0 DUP5 ADD MSTORE PUSH1 0x0 PUSH1 0xC0 DUP5 ADD MSTORE PUSH1 0x1 PUSH1 0xE0 DUP5 ADD MSTORE TIMESTAMP PUSH2 0x100 DUP5 ADD MSTORE PUSH2 0x120 DUP4 ADD MSTORE PUSH2 0x140 DUP3 ADD MSTORE PUSH1 0x0 SLOAD PUSH1 0x1 PUSH1 0x40 SHL DUP2 LT ISZERO PUSH2 0x67D JUMPI DUP1 PUSH1 0x1 PUSH2 0xA78 SWAP3 ADD PUSH1 0x0 SSTORE PUSH2 0x4129 JUMP JUMPDEST SWAP2 SWAP1 SWAP2 PUSH2 0x90D JUMPI DUP1 MLOAD DUP3 SSTORE PUSH1 0x1 DUP3 ADD PUSH1 0x20 DUP3 ADD MLOAD PUSH1 0xB DUP2 LT ISZERO PUSH2 0x8F7 JUMPI DUP2 SLOAD PUSH1 0xFF PUSH2 0x100 PUSH1 0x1 PUSH1 0xA8 SHL SUB PUSH1 0x40 DUP7 ADD MLOAD PUSH1 0x8 SHL AND SWAP3 AND SWAP1 PUSH1 0x1 PUSH1 0x1 PUSH1 0x58 SHL SUB PUSH1 0xA8 SHL AND OR OR SWAP1 SSTORE PUSH1 0x2 DUP3 ADD PUSH1 0x1 DUP1 PUSH1 0xA0 SHL SUB PUSH1 0x60 DUP4 ADD MLOAD AND PUSH1 0x1 PUSH1 0x1 PUSH1 0x60 SHL SUB PUSH1 0xA0 SHL DUP3 SLOAD AND OR SWAP1 SSTORE PUSH1 0x80 DUP2 ADD MLOAD DUP1 MLOAD SWAP1 PUSH1 0x1 PUSH1 0x1 PUSH1 0x40 SHL SUB DUP3 GT PUSH2 0x67D JUMPI DUP2 SWAP1 PUSH2 0xB05 PUSH1 0x3 DUP7 ADD SLOAD PUSH2 0x4177 JUMP JUMPDEST PUSH1 0x1F DUP2 GT PUSH2 0x1062 JUMPI JUMPDEST POP PUSH1 0x20 SWAP1 PUSH1 0x1F DUP4 GT PUSH1 0x1 EQ PUSH2 0xFF0 JUMPI PUSH1 0x0 SWAP3 PUSH2 0xFE5 JUMPI JUMPDEST POP POP DUP2 PUSH1 0x1 SHL SWAP2 PUSH1 0x0 NOT SWAP1 PUSH1 0x3 SHL SHR NOT AND OR PUSH1 0x3 DUP4 ADD SSTORE JUMPDEST PUSH1 0xA0 DUP2 ADD MLOAD DUP1 MLOAD SWAP1 PUSH1 0x1 PUSH1 0x1 PUSH1 0x40 SHL SUB DUP3 GT PUSH2 0x67D JUMPI DUP2 SWAP1 PUSH2 0xB62 PUSH1 0x4 DUP7 ADD SLOAD PUSH2 0x4177 JUMP JUMPDEST PUSH1 0x1F DUP2 GT PUSH2 0xF92 JUMPI JUMPDEST POP PUSH1 0x20 SWAP1 PUSH1 0x1F DUP4 GT PUSH1 0x1 EQ PUSH2 0xF20 JUMPI PUSH1 0x0 SWAP3 PUSH2 0xF15 JUMPI JUMPDEST POP POP DUP2 PUSH1 0x1 SHL SWAP2 PUSH1 0x0 NOT SWAP1 PUSH1 0x3 SHL SHR NOT AND OR PUSH1 0x4 DUP4 ADD SSTORE JUMPDEST PUSH1 0xC0 DUP2 ADD MLOAD PUSH1 0x5 DUP4 ADD SSTORE PUSH1 0x6 DUP3 ADD PUSH1 0xE0 DUP3 ADD MLOAD ISZERO ISZERO PUSH1 0xFF DUP1 NOT DUP4 SLOAD AND SWAP2 AND OR SWAP1 SSTORE PUSH2 0x100 DUP2 ADD MLOAD PUSH1 0x7 DUP4 ADD SSTORE PUSH2 0x120 DUP2 ADD MLOAD DUP1 MLOAD SWAP1 PUSH1 0x1 PUSH1 0x1 PUSH1 0x40 SHL SUB DUP3 GT PUSH2 0x67D JUMPI PUSH2 0xBEA PUSH1 0x8 DUP6 ADD SLOAD PUSH2 0x4177 JUMP JUMPDEST PUSH1 0x1F DUP2 GT PUSH2 0xECE JUMPI JUMPDEST POP PUSH1 0x20 SWAP1 PUSH1 0x1F DUP4 GT PUSH1 0x1 EQ PUSH2 0xE5A JUMPI PUSH2 0x140 SWAP4 SWAP3 SWAP2 PUSH1 0x0 SWAP2 DUP4 PUSH2 0xE4F JUMPI JUMPDEST POP POP DUP2 PUSH1 0x1 SHL SWAP2 PUSH1 0x0 NOT SWAP1 PUSH1 0x3 SHL SHR NOT AND OR PUSH1 0x8 DUP5 ADD SSTORE JUMPDEST ADD MLOAD DUP1 MLOAD SWAP1 PUSH1 0x1 PUSH1 0x1 PUSH1 0x40 SHL SUB DUP3 GT PUSH2 0x67D JUMPI PUSH2 0xC49 PUSH1 0x9 DUP5 ADD SLOAD PUSH2 0x4177 JUMP JUMPDEST PUSH1 0x1F DUP2 GT PUSH2 0xE04 JUMPI JUMPDEST POP PUSH1 0x20 SWAP1 PUSH1 0x1F DUP4 GT PUSH1 0x1 EQ PUSH2 0xD6D JUMPI DUP3 PUSH2 0xD28 SWAP6 SWAP4 PUSH32 0x9A6E9C0082AF0F5E725EDD781B0E9EADAA0B36B5E6299BF173FD8D7B85A3FF2B SWAP8 SWAP6 SWAP4 PUSH1 0x9 SWAP4 PUSH1 0x0 SWAP3 PUSH2 0xD62 JUMPI JUMPDEST POP POP DUP2 PUSH1 0x1 SHL SWAP2 PUSH1 0x0 NOT SWAP1 PUSH1 0x3 SHL SHR NOT AND OR SWAP2 ADD SSTORE JUMPDEST CALLER PUSH1 0x0 MSTORE PUSH1 0x1 PUSH1 0x20 MSTORE PUSH2 0xCC3 DUP2 PUSH1 0x40 PUSH1 0x0 KECCAK256 PUSH2 0x4449 JUMP JUMPDEST DUP2 MLOAD DUP2 DUP2 PUSH2 0xD43 JUMPI JUMPDEST POP POP PUSH1 0x2 PUSH1 0x0 MSTORE PUSH1 0x3 PUSH1 0x20 MSTORE PUSH2 0xD02 DUP2 PUSH32 0xC3A24B0501BD2C13A7E57F2DB4369EC4C223447539FC0724A9D55AC4A06EBD4D PUSH2 0x4449 JUMP JUMPDEST PUSH1 0x2 PUSH1 0x40 MLOAD SWAP2 PUSH1 0x60 DUP4 MSTORE PUSH1 0x0 DUP1 MLOAD PUSH1 0x20 PUSH2 0x44BA DUP4 CODECOPY DUP2 MLOAD SWAP2 MSTORE PUSH2 0x521 PUSH1 0x60 DUP6 ADD DUP7 PUSH2 0x406C JUMP JUMPDEST TIMESTAMP PUSH1 0x20 DUP4 ADD MSTORE PUSH1 0x1 PUSH1 0x1 PUSH1 0xA0 SHL SUB SWAP5 DUP6 AND SWAP6 SWAP1 SWAP5 AND SWAP4 SUB SWAP1 LOG3 STOP JUMPDEST PUSH2 0xD5B SWAP2 PUSH1 0x20 PUSH1 0x40 MLOAD DUP3 PUSH2 0x578 DUP3 SWAP5 DUP4 DUP6 DUP12 ADD PUSH2 0x4049 JUMP JUMPDEST DUP7 DUP2 PUSH2 0xCCC JUMP JUMPDEST ADD MLOAD SWAP1 POP DUP11 DUP1 PUSH2 0xC96 JUMP JUMPDEST SWAP1 PUSH1 0x9 DUP5 ADD PUSH1 0x0 MSTORE PUSH1 0x20 PUSH1 0x0 KECCAK256 SWAP2 PUSH1 0x0 JUMPDEST PUSH1 0x1F NOT DUP6 AND DUP2 LT PUSH2 0xDEC JUMPI POP DUP4 PUSH32 0x9A6E9C0082AF0F5E725EDD781B0E9EADAA0B36B5E6299BF173FD8D7B85A3FF2B SWAP8 SWAP6 SWAP4 PUSH1 0x9 SWAP4 PUSH1 0x1 SWAP4 PUSH2 0xD28 SWAP10 SWAP8 PUSH1 0x1F NOT DUP2 AND LT PUSH2 0xDD3 JUMPI JUMPDEST POP POP POP DUP2 SHL ADD SWAP2 ADD SSTORE PUSH2 0xCAC JUMP JUMPDEST ADD MLOAD PUSH1 0x0 NOT PUSH1 0xF8 DUP5 PUSH1 0x3 SHL AND SHR NOT AND SWAP1 SSTORE DUP11 DUP1 DUP1 PUSH2 0xDC5 JUMP JUMPDEST SWAP2 SWAP3 PUSH1 0x20 PUSH1 0x1 DUP2 SWAP3 DUP7 DUP6 ADD MLOAD DUP2 SSTORE ADD SWAP5 ADD SWAP3 ADD PUSH2 0xD7E JUMP JUMPDEST PUSH1 0x9 DUP5 ADD PUSH1 0x0 MSTORE PUSH1 0x20 PUSH1 0x0 KECCAK256 PUSH1 0x1F DUP5 ADD PUSH1 0x5 SHR DUP2 ADD SWAP2 PUSH1 0x20 DUP6 LT PUSH2 0xE45 JUMPI JUMPDEST PUSH1 0x1F ADD PUSH1 0x5 SHR ADD SWAP1 JUMPDEST DUP2 DUP2 LT PUSH2 0xE39 JUMPI POP PUSH2 0xC52 JUMP JUMPDEST PUSH1 0x0 DUP2 SSTORE PUSH1 0x1 ADD PUSH2 0xE2C JUMP JUMPDEST SWAP1 SWAP2 POP DUP2 SWAP1 PUSH2 0xE23 JUMP JUMPDEST ADD MLOAD SWAP1 POP DUP10 DUP1 PUSH2 0xC11 JUMP JUMPDEST SWAP1 PUSH1 0x8 DUP6 ADD PUSH1 0x0 MSTORE PUSH1 0x20 PUSH1 0x0 KECCAK256 SWAP2 PUSH1 0x0 JUMPDEST PUSH1 0x1F NOT DUP6 AND DUP2 LT PUSH2 0xEB6 JUMPI POP SWAP2 DUP4 SWAP2 PUSH1 0x1 SWAP4 PUSH2 0x140 SWAP7 SWAP6 PUSH1 0x1F NOT DUP2 AND LT PUSH2 0xE9D JUMPI JUMPDEST POP POP POP DUP2 SHL ADD PUSH1 0x8 DUP5 ADD SSTORE PUSH2 0xC29 JUMP JUMPDEST ADD MLOAD PUSH1 0x0 NOT PUSH1 0xF8 DUP5 PUSH1 0x3 SHL AND SHR NOT AND SWAP1 SSTORE DUP10 DUP1 DUP1 PUSH2 0xE8D JUMP JUMPDEST SWAP2 SWAP3 PUSH1 0x20 PUSH1 0x1 DUP2 SWAP3 DUP7 DUP6 ADD MLOAD DUP2 SSTORE ADD SWAP5 ADD SWAP3 ADD PUSH2 0xE6B JUMP JUMPDEST PUSH1 0x8 DUP6 ADD PUSH1 0x0 MSTORE PUSH1 0x20 PUSH1 0x0 KECCAK256 PUSH1 0x1F DUP5 ADD PUSH1 0x5 SHR DUP2 ADD PUSH1 0x20 DUP6 LT PUSH2 0xF0E JUMPI JUMPDEST PUSH1 0x1F DUP4 ADD PUSH1 0x5 SHR DUP3 ADD DUP2 LT PUSH2 0xF02 JUMPI POP POP PUSH2 0xBF3 JUMP JUMPDEST PUSH1 0x0 DUP2 SSTORE PUSH1 0x1 ADD PUSH2 0xEEC JUMP JUMPDEST POP DUP1 PUSH2 0xEEC JUMP JUMPDEST ADD MLOAD SWAP1 POP DUP9 DUP1 PUSH2 0xB82 JUMP JUMPDEST SWAP3 POP PUSH1 0x4 DUP6 ADD PUSH1 0x0 MSTORE PUSH1 0x20 PUSH1 0x0 KECCAK256 SWAP1 PUSH1 0x0 SWAP4 JUMPDEST PUSH1 0x1F NOT DUP5 AND DUP6 LT PUSH2 0xF77 JUMPI PUSH1 0x1 SWAP5 POP DUP4 PUSH1 0x1F NOT DUP2 AND LT PUSH2 0xF5E JUMPI JUMPDEST POP POP POP DUP2 SHL ADD PUSH1 0x4 DUP4 ADD SSTORE PUSH2 0xB9A JUMP JUMPDEST ADD MLOAD PUSH1 0x0 NOT PUSH1 0xF8 DUP5 PUSH1 0x3 SHL AND SHR NOT AND SWAP1 SSTORE DUP9 DUP1 DUP1 PUSH2 0xF4E JUMP JUMPDEST DUP2 DUP2 ADD MLOAD DUP4 SSTORE PUSH1 0x20 SWAP5 DUP6 ADD SWAP5 PUSH1 0x1 SWAP1 SWAP4 ADD SWAP3 SWAP1 SWAP2 ADD SWAP1 PUSH2 0xF33 JUMP JUMPDEST SWAP1 SWAP2 POP PUSH1 0x4 DUP6 ADD PUSH1 0x0 MSTORE PUSH1 0x20 PUSH1 0x0 KECCAK256 PUSH1 0x1F DUP5 ADD PUSH1 0x5 SHR DUP2 ADD PUSH1 0x20 DUP6 LT PUSH2 0xFDE JUMPI JUMPDEST SWAP1 DUP5 SWAP4 SWAP3 SWAP2 JUMPDEST PUSH1 0x1F DUP4 ADD PUSH1 0x5 SHR DUP3 ADD DUP2 LT PUSH2 0xFCF JUMPI POP POP PUSH2 0xB6B JUMP JUMPDEST PUSH1 0x0 DUP2 SSTORE DUP6 SWAP5 POP PUSH1 0x1 ADD PUSH2 0xFB9 JUMP JUMPDEST POP DUP1 PUSH2 0xFB3 JUMP JUMPDEST ADD MLOAD SWAP1 POP DUP9 DUP1 PUSH2 0xB25 JUMP JUMPDEST SWAP3 POP PUSH1 0x3 DUP6 ADD PUSH1 0x0 MSTORE PUSH1 0x20 PUSH1 0x0 KECCAK256 SWAP1 PUSH1 0x0 SWAP4 JUMPDEST PUSH1 0x1F NOT DUP5 AND DUP6 LT PUSH2 0x1047 JUMPI PUSH1 0x1 SWAP5 POP DUP4 PUSH1 0x1F NOT DUP2 AND LT PUSH2 0x102E JUMPI JUMPDEST POP POP POP DUP2 SHL ADD PUSH1 0x3 DUP4 ADD SSTORE PUSH2 0xB3D JUMP JUMPDEST ADD MLOAD PUSH1 0x0 NOT PUSH1 0xF8 DUP5 PUSH1 0x3 SHL AND SHR NOT AND SWAP1 SSTORE DUP9 DUP1 DUP1 PUSH2 0x101E JUMP JUMPDEST DUP2 DUP2 ADD MLOAD DUP4 SSTORE PUSH1 0x20 SWAP5 DUP6 ADD SWAP5 PUSH1 0x1 SWAP1 SWAP4 ADD SWAP3 SWAP1 SWAP2 ADD SWAP1 PUSH2 0x1003 JUMP JUMPDEST SWAP1 SWAP2 POP PUSH1 0x3 DUP6 ADD PUSH1 0x0 MSTORE PUSH1 0x20 PUSH1 0x0 KECCAK256 PUSH1 0x1F DUP5 ADD PUSH1 0x5 SHR DUP2 ADD PUSH1 0x20 DUP6 LT PUSH2 0x10AE JUMPI JUMPDEST SWAP1 DUP5 SWAP4 SWAP3 SWAP2 JUMPDEST PUSH1 0x1F DUP4 ADD PUSH1 0x5 SHR DUP3 ADD DUP2 LT PUSH2 0x109F JUMPI POP POP PUSH2 0xB0E JUMP JUMPDEST PUSH1 0x0 DUP2 SSTORE DUP6 SWAP5 POP PUSH1 0x1 ADD PUSH2 0x1089 JUMP JUMPDEST POP DUP1 PUSH2 0x1083 JUMP JUMPDEST CALLVALUE PUSH2 0x177 JUMPI PUSH1 0x20 DUP1 PUSH1 0x3 NOT CALLDATASIZE ADD SLT PUSH2 0x177 JUMPI PUSH1 0x0 SLOAD PUSH1 0x4 CALLDATALOAD DUP2 DUP2 GT ISZERO PUSH2 0x117D JUMPI POP DUP1 JUMPDEST PUSH2 0x10E1 DUP3 PUSH2 0x44A2 JUMP JUMPDEST SWAP3 PUSH2 0x10EF PUSH1 0x40 MLOAD SWAP5 DUP6 PUSH2 0x4203 JUMP JUMPDEST DUP3 DUP5 MSTORE PUSH1 0x1F NOT PUSH2 0x10FE DUP5 PUSH2 0x44A2 JUMP JUMPDEST ADD CALLDATASIZE DUP3 DUP7 ADD CALLDATACOPY PUSH1 0x0 JUMPDEST DUP4 DUP2 LT PUSH2 0x111C JUMPI PUSH1 0x40 MLOAD DUP1 PUSH2 0x15E DUP8 DUP3 PUSH2 0x43F3 JUMP JUMPDEST DUP4 DUP4 SUB SWAP1 DUP4 DUP3 GT PUSH2 0x1167 JUMPI DUP1 DUP3 ADD DUP1 SWAP3 GT PUSH2 0x1167 JUMPI DUP6 MLOAD DUP2 LT ISZERO PUSH2 0x1151 JUMPI PUSH2 0x114C SWAP2 DUP4 DUP3 PUSH1 0x5 SHL DUP9 ADD ADD MSTORE PUSH2 0x442E JUMP JUMPDEST PUSH2 0x1107 JUMP JUMPDEST PUSH4 0x4E487B71 PUSH1 0xE0 SHL PUSH1 0x0 MSTORE PUSH1 0x32 PUSH1 0x4 MSTORE PUSH1 0x24 PUSH1 0x0 REVERT JUMPDEST PUSH4 0x4E487B71 PUSH1 0xE0 SHL PUSH1 0x0 MSTORE PUSH1 0x11 PUSH1 0x4 MSTORE PUSH1 0x24 PUSH1 0x0 REVERT JUMPDEST SWAP1 PUSH2 0x10D8 JUMP JUMPDEST CALLVALUE PUSH2 0x177 JUMPI PUSH1 0x80 CALLDATASIZE PUSH1 0x3 NOT ADD SLT PUSH2 0x177 JUMPI PUSH2 0x119C PUSH2 0x42CA JUMP JUMPDEST PUSH1 0x24 CALLDATALOAD PUSH1 0x1 PUSH1 0x1 PUSH1 0x40 SHL SUB DUP2 GT PUSH2 0x177 JUMPI PUSH2 0x11BB SWAP1 CALLDATASIZE SWAP1 PUSH1 0x4 ADD PUSH2 0x42E0 JUMP JUMPDEST PUSH1 0x64 CALLDATALOAD PUSH1 0x1 PUSH1 0x1 PUSH1 0x40 SHL SUB DUP2 GT PUSH2 0x177 JUMPI PUSH2 0x11DA SWAP1 CALLDATASIZE SWAP1 PUSH1 0x4 ADD PUSH2 0x42E0 JUMP JUMPDEST PUSH2 0x121F PUSH1 0x2F PUSH1 0x40 MLOAD DUP1 SWAP4 PUSH15 0x2230BA30903AB83637B0B232B21D1 PUSH1 0x8D SHL PUSH1 0x20 DUP4 ADD MSTORE PUSH2 0x120F DUP2 MLOAD DUP1 SWAP3 PUSH1 0x20 DUP7 DUP7 ADD SWAP2 ADD PUSH2 0x4049 JUMP JUMPDEST DUP2 ADD SUB PUSH1 0xF DUP2 ADD DUP5 MSTORE ADD DUP3 PUSH2 0x4203 JUMP JUMPDEST PUSH1 0x40 MLOAD SWAP1 PUSH2 0x122C DUP3 PUSH2 0x41E8 JUMP JUMPDEST PUSH1 0x0 DUP3 MSTORE PUSH1 0x40 MLOAD PUSH2 0x123C DUP2 PUSH2 0x41E8 JUMP JUMPDEST PUSH1 0x0 DUP2 MSTORE PUSH1 0x4 SLOAD SWAP3 PUSH2 0x124D DUP5 PUSH2 0x442E JUMP JUMPDEST PUSH1 0x4 SSTORE PUSH1 0x40 MLOAD SWAP3 PUSH2 0x125D DUP5 PUSH2 0x41B1 JUMP JUMPDEST DUP5 DUP5 MSTORE PUSH1 0x1 PUSH1 0x20 DUP6 ADD MSTORE CALLER PUSH1 0x40 DUP6 ADD MSTORE PUSH1 0x0 PUSH1 0x60 DUP6 ADD MSTORE DUP6 PUSH1 0x80 DUP6 ADD MSTORE PUSH1 0xA0 DUP5 ADD MSTORE PUSH1 0x44 CALLDATALOAD PUSH1 0xC0 DUP5 ADD MSTORE PUSH1 0x1 PUSH1 0xE0 DUP5 ADD MSTORE TIMESTAMP PUSH2 0x100 DUP5 ADD MSTORE PUSH2 0x120 DUP4 ADD MSTORE PUSH2 0x140 DUP3 ADD MSTORE PUSH1 0x0 SLOAD PUSH1 0x1 PUSH1 0x40 SHL DUP2 LT ISZERO PUSH2 0x67D JUMPI DUP1 PUSH1 0x1 PUSH2 0x12C0 SWAP3 ADD PUSH1 0x0 SSTORE PUSH2 0x4129 JUMP JUMPDEST SWAP2 SWAP1 SWAP2 PUSH2 0x90D JUMPI DUP1 MLOAD DUP3 SSTORE PUSH1 0x1 DUP3 ADD PUSH1 0x20 DUP3 ADD MLOAD PUSH1 0xB DUP2 LT ISZERO PUSH2 0x8F7 JUMPI DUP2 SLOAD PUSH1 0xFF PUSH2 0x100 PUSH1 0x1 PUSH1 0xA8 SHL SUB PUSH1 0x40 DUP7 ADD MLOAD PUSH1 0x8 SHL AND SWAP3 AND SWAP1 PUSH1 0x1 PUSH1 0x1 PUSH1 0x58 SHL SUB PUSH1 0xA8 SHL AND OR OR SWAP1 SSTORE PUSH1 0x2 DUP3 ADD PUSH1 0x1 DUP1 PUSH1 0xA0 SHL SUB PUSH1 0x60 DUP4 ADD MLOAD AND PUSH1 0x1 PUSH1 0x1 PUSH1 0x60 SHL SUB PUSH1 0xA0 SHL DUP3 SLOAD AND OR SWAP1 SSTORE PUSH1 0x80 DUP2 ADD MLOAD DUP1 MLOAD SWAP1 PUSH1 0x1 PUSH1 0x1 PUSH1 0x40 SHL SUB DUP3 GT PUSH2 0x67D JUMPI DUP2 SWAP1 PUSH2 0x134D PUSH1 0x3 DUP7 ADD SLOAD PUSH2 0x4177 JUMP JUMPDEST PUSH1 0x1F DUP2 GT PUSH2 0x18A5 JUMPI JUMPDEST POP PUSH1 0x20 SWAP1 PUSH1 0x1F DUP4 GT PUSH1 0x1 EQ PUSH2 0x1833 JUMPI PUSH1 0x0 SWAP3 PUSH2 0x1828 JUMPI JUMPDEST POP POP DUP2 PUSH1 0x1 SHL SWAP2 PUSH1 0x0 NOT SWAP1 PUSH1 0x3 SHL SHR NOT AND OR PUSH1 0x3 DUP4 ADD SSTORE JUMPDEST PUSH1 0xA0 DUP2 ADD MLOAD DUP1 MLOAD SWAP1 PUSH1 0x1 PUSH1 0x1 PUSH1 0x40 SHL SUB DUP3 GT PUSH2 0x67D JUMPI DUP2 SWAP1 PUSH2 0x13AA PUSH1 0x4 DUP7 ADD SLOAD PUSH2 0x4177 JUMP JUMPDEST PUSH1 0x1F DUP2 GT PUSH2 0x17D5 JUMPI JUMPDEST POP PUSH1 0x20 SWAP1 PUSH1 0x1F DUP4 GT PUSH1 0x1 EQ PUSH2 0x1763 JUMPI PUSH1 0x0 SWAP3 PUSH2 0x1758 JUMPI JUMPDEST POP POP DUP2 PUSH1 0x1 SHL SWAP2 PUSH1 0x0 NOT SWAP1 PUSH1 0x3 SHL SHR NOT AND OR PUSH1 0x4 DUP4 ADD SSTORE JUMPDEST PUSH1 0xC0 DUP2 ADD MLOAD PUSH1 0x5 DUP4 ADD SSTORE PUSH1 0x6 DUP3 ADD PUSH1 0xE0 DUP3 ADD MLOAD ISZERO ISZERO PUSH1 0xFF DUP1 NOT DUP4 SLOAD AND SWAP2 AND OR SWAP1 SSTORE PUSH2 0x100 DUP2 ADD MLOAD PUSH1 0x7 DUP4 ADD SSTORE PUSH2 0x120 DUP2 ADD MLOAD DUP1 MLOAD SWAP1 PUSH1 0x1 PUSH1 0x1 PUSH1 0x40 SHL SUB DUP3 GT PUSH2 0x67D JUMPI PUSH2 0x1432 PUSH1 0x8 DUP6 ADD SLOAD PUSH2 0x4177 JUMP JUMPDEST PUSH1 0x1F DUP2 GT PUSH2 0x1711 JUMPI JUMPDEST POP PUSH1 0x20 SWAP1 PUSH1 0x1F DUP4 GT PUSH1 0x1 EQ PUSH2 0x169D JUMPI PUSH2 0x140 SWAP4 SWAP3 SWAP2 PUSH1 0x0 SWAP2 DUP4 PUSH2 0x1692 JUMPI JUMPDEST POP POP DUP2 PUSH1 0x1 SHL SWAP2 PUSH1 0x0 NOT SWAP1 PUSH1 0x3 SHL SHR NOT AND OR PUSH1 0x8 DUP5 ADD SSTORE JUMPDEST ADD MLOAD DUP1 MLOAD SWAP1 PUSH1 0x1 PUSH1 0x1 PUSH1 0x40 SHL SUB DUP3 GT PUSH2 0x67D JUMPI PUSH2 0x1491 PUSH1 0x9 DUP5 ADD SLOAD PUSH2 0x4177 JUMP JUMPDEST PUSH1 0x1F DUP2 GT PUSH2 0x1647 JUMPI JUMPDEST POP PUSH1 0x20 SWAP1 PUSH1 0x1F DUP4 GT PUSH1 0x1 EQ PUSH2 0x15D7 JUMPI PUSH1 0x9 SWAP3 SWAP2 PUSH1 0x0 SWAP2 DUP4 PUSH2 0x15CC JUMPI JUMPDEST POP POP DUP2 PUSH1 0x1 SHL SWAP2 PUSH1 0x0 NOT SWAP1 PUSH1 0x3 SHL SHR NOT AND OR SWAP2 ADD SSTORE JUMPDEST CALLER PUSH1 0x0 MSTORE PUSH1 0x1 PUSH1 0x20 MSTORE PUSH2 0x14E3 DUP2 PUSH1 0x40 PUSH1 0x0 KECCAK256 PUSH2 0x4449 JUMP JUMPDEST DUP2 MLOAD DUP2 DUP2 PUSH2 0x15AD JUMPI JUMPDEST POP POP PUSH1 0x1 PUSH1 0x0 MSTORE PUSH1 0x3 PUSH1 0x20 MSTORE PUSH2 0x1522 DUP2 PUSH32 0xA15BC60C955C405D20D9149C709E2460F1C2D9A497496A7F46004D1772C3054C PUSH2 0x4449 JUMP JUMPDEST PUSH1 0x1 PUSH1 0x40 MLOAD SWAP2 PUSH1 0x60 DUP4 MSTORE PUSH1 0x0 DUP1 MLOAD PUSH1 0x20 PUSH2 0x44BA DUP4 CODECOPY DUP2 MLOAD SWAP2 MSTORE PUSH2 0x1548 PUSH1 0x60 DUP6 ADD DUP7 PUSH2 0x406C JUMP JUMPDEST SWAP4 DUP4 PUSH1 0x20 DUP3 ADD MSTORE TIMESTAMP PUSH1 0x40 DUP3 ADD MSTORE DUP1 CALLER SWAP6 SUB SWAP1 LOG4 PUSH32 0x77DCEE3A495AE41A487A68F42E79B95D6DA47A6B4FF8A956BD4F4563DDF47A49 PUSH2 0x1591 PUSH1 0x40 MLOAD SWAP3 PUSH1 0x40 DUP5 MSTORE PUSH1 0x40 DUP5 ADD SWAP1 PUSH2 0x406C JUMP JUMPDEST TIMESTAMP PUSH1 0x20 DUP5 ADD MSTORE PUSH1 0x44 CALLDATALOAD SWAP4 PUSH1 0x1 PUSH1 0x1 PUSH1 0xA0 SHL SUB AND SWAP3 SWAP1 DUP2 SWAP1 SUB SWAP1 LOG3 STOP JUMPDEST PUSH2 0x15C5 SWAP2 PUSH1 0x20 PUSH1 0x40 MLOAD DUP3 PUSH2 0x578 DUP3 SWAP5 DUP4 DUP6 DUP12 ADD PUSH2 0x4049 JUMP JUMPDEST DUP4 DUP2 PUSH2 0x14EC JUMP JUMPDEST ADD MLOAD SWAP1 POP DUP8 DUP1 PUSH2 0x14B6 JUMP JUMPDEST SWAP1 PUSH1 0x9 DUP5 ADD PUSH1 0x0 MSTORE PUSH1 0x20 PUSH1 0x0 KECCAK256 SWAP2 PUSH1 0x0 JUMPDEST PUSH1 0x1F NOT DUP6 AND DUP2 LT PUSH2 0x162F JUMPI POP SWAP2 DUP4 SWAP2 PUSH1 0x1 SWAP4 PUSH1 0x9 SWAP6 PUSH1 0x1F NOT DUP2 AND LT PUSH2 0x1616 JUMPI JUMPDEST POP POP POP DUP2 SHL ADD SWAP2 ADD SSTORE PUSH2 0x14CC JUMP JUMPDEST ADD MLOAD PUSH1 0x0 NOT PUSH1 0xF8 DUP5 PUSH1 0x3 SHL AND SHR NOT AND SWAP1 SSTORE DUP8 DUP1 DUP1 PUSH2 0x1608 JUMP JUMPDEST SWAP2 SWAP3 PUSH1 0x20 PUSH1 0x1 DUP2 SWAP3 DUP7 DUP6 ADD MLOAD DUP2 SSTORE ADD SWAP5 ADD SWAP3 ADD PUSH2 0x15E8 JUMP JUMPDEST PUSH1 0x9 DUP5 ADD PUSH1 0x0 MSTORE PUSH1 0x20 PUSH1 0x0 KECCAK256 PUSH1 0x1F DUP5 ADD PUSH1 0x5 SHR DUP2 ADD SWAP2 PUSH1 0x20 DUP6 LT PUSH2 0x1688 JUMPI JUMPDEST PUSH1 0x1F ADD PUSH1 0x5 SHR ADD SWAP1 JUMPDEST DUP2 DUP2 LT PUSH2 0x167C JUMPI POP PUSH2 0x149A JUMP JUMPDEST PUSH1 0x0 DUP2 SSTORE PUSH1 0x1 ADD PUSH2 0x166F JUMP JUMPDEST SWAP1 SWAP2 POP DUP2 SWAP1 PUSH2 0x1666 JUMP JUMPDEST ADD MLOAD SWAP1 POP DUP9 DUP1 PUSH2 0x1459 JUMP JUMPDEST SWAP1 PUSH1 0x8 DUP6 ADD PUSH1 0x0 MSTORE PUSH1 0x20 PUSH1 0x0 KECCAK256 SWAP2 PUSH1 0x0 JUMPDEST PUSH1 0x1F NOT DUP6 AND DUP2 LT PUSH2 0x16F9 JUMPI POP SWAP2 DUP4 SWAP2 PUSH1 0x1 SWAP4 PUSH2 0x140 SWAP7 SWAP6 PUSH1 0x1F NOT DUP2 AND LT PUSH2 0x16E0 JUMPI JUMPDEST POP POP POP DUP2 SHL ADD PUSH1 0x8 DUP5 ADD SSTORE PUSH2 0x1471 JUMP JUMPDEST ADD MLOAD PUSH1 0x0 NOT PUSH1 0xF8 DUP5 PUSH1 0x3 SHL AND SHR NOT AND SWAP1 SSTORE DUP9 DUP1 DUP1 PUSH2 0x16D0 JUMP JUMPDEST SWAP2 SWAP3 PUSH1 0x20 PUSH1 0x1 DUP2 SWAP3 DUP7 DUP6 ADD MLOAD DUP2 SSTORE ADD SWAP5 ADD SWAP3 ADD PUSH2 0x16AE JUMP JUMPDEST PUSH1 0x8 DUP6 ADD PUSH1 0x0 MSTORE PUSH1 0x20 PUSH1 0x0 KECCAK256 PUSH1 0x1F DUP5 ADD PUSH1 0x5 SHR DUP2 ADD PUSH1 0x20 DUP6 LT PUSH2 0x1751 JUMPI JUMPDEST PUSH1 0x1F DUP4 ADD PUSH1 0x5 SHR DUP3 ADD DUP2 LT PUSH2 0x1745 JUMPI POP POP PUSH2 0x143B JUMP JUMPDEST PUSH1 0x0 DUP2 SSTORE PUSH1 0x1 ADD PUSH2 0x172F JUMP JUMPDEST POP DUP1 PUSH2 0x172F JUMP JUMPDEST ADD MLOAD SWAP1 POP DUP8 DUP1 PUSH2 0x13CA JUMP JUMPDEST SWAP3 POP PUSH1 0x4 DUP6 ADD PUSH1 0x0 MSTORE PUSH1 0x20 PUSH1 0x0 KECCAK256 SWAP1 PUSH1 0x0 SWAP4 JUMPDEST PUSH1 0x1F NOT DUP5 AND DUP6 LT PUSH2 0x17BA JUMPI PUSH1 0x1 SWAP5 POP DUP4 PUSH1 0x1F NOT DUP2 AND LT PUSH2 0x17A1 JUMPI JUMPDEST POP POP POP DUP2 SHL ADD PUSH1 0x4 DUP4 ADD SSTORE PUSH2 0x13E2 JUMP JUMPDEST ADD MLOAD PUSH1 0x0 NOT PUSH1 0xF8 DUP5 PUSH1 0x3 SHL AND SHR NOT AND SWAP1 SSTORE DUP8 DUP1 DUP1 PUSH2 0x1791 JUMP JUMPDEST DUP2 DUP2 ADD MLOAD DUP4 SSTORE PUSH1 0x20 SWAP5 DUP6 ADD SWAP5 PUSH1 0x1 SWAP1 SWAP4 ADD SWAP3 SWAP1 SWAP2 ADD SWAP1 PUSH2 0x1776 JUMP JUMPDEST SWAP1 SWAP2 POP PUSH1 0x4 DUP6 ADD PUSH1 0x0 MSTORE PUSH1 0x20 PUSH1 0x0 KECCAK256 PUSH1 0x1F DUP5 ADD PUSH1 0x5 SHR DUP2 ADD PUSH1 0x20 DUP6 LT PUSH2 0x1821 JUMPI JUMPDEST SWAP1 DUP5 SWAP4 SWAP3 SWAP2 JUMPDEST PUSH1 0x1F DUP4 ADD PUSH1 0x5 SHR DUP3 ADD DUP2 LT PUSH2 0x1812 JUMPI POP POP PUSH2 0x13B3 JUMP JUMPDEST PUSH1 0x0 DUP2 SSTORE DUP6 SWAP5 POP PUSH1 0x1 ADD PUSH2 0x17FC JUMP JUMPDEST POP DUP1 PUSH2 0x17F6 JUMP JUMPDEST ADD MLOAD SWAP1 POP DUP8 DUP1 PUSH2 0x136D JUMP JUMPDEST SWAP3 POP PUSH1 0x3 DUP6 ADD PUSH1 0x0 MSTORE PUSH1 0x20 PUSH1 0x0 KECCAK256 SWAP1 PUSH1 0x0 SWAP4 JUMPDEST PUSH1 0x1F NOT DUP5 AND DUP6 LT PUSH2 0x188A JUMPI PUSH1 0x1 SWAP5 POP DUP4 PUSH1 0x1F NOT DUP2 AND LT PUSH2 0x1871 JUMPI JUMPDEST POP POP POP DUP2 SHL ADD PUSH1 0x3 DUP4 ADD SSTORE PUSH2 0x1385 JUMP JUMPDEST ADD MLOAD PUSH1 0x0 NOT PUSH1 0xF8 DUP5 PUSH1 0x3 SHL AND SHR NOT AND SWAP1 SSTORE DUP8 DUP1 DUP1 PUSH2 0x1861 JUMP JUMPDEST DUP2 DUP2 ADD MLOAD DUP4 SSTORE PUSH1 0x20 SWAP5 DUP6 ADD SWAP5 PUSH1 0x1 SWAP1 SWAP4 ADD SWAP3 SWAP1 SWAP2 ADD SWAP1 PUSH2 0x1846 JUMP JUMPDEST SWAP1 SWAP2 POP PUSH1 0x3 DUP6 ADD PUSH1 0x0 MSTORE PUSH1 0x20 PUSH1 0x0 KECCAK256 PUSH1 0x1F DUP5 ADD PUSH1 0x5 SHR DUP2 ADD PUSH1 0x20 DUP6 LT PUSH2 0x18F1 JUMPI JUMPDEST SWAP1 DUP5 SWAP4 SWAP3 SWAP2 JUMPDEST PUSH1 0x1F DUP4 ADD PUSH1 0x5 SHR DUP3 ADD DUP2 LT PUSH2 0x18E2 JUMPI POP POP PUSH2 0x1356 JUMP JUMPDEST PUSH1 0x0 DUP2 SSTORE DUP6 SWAP5 POP PUSH1 0x1 ADD PUSH2 0x18CC JUMP JUMPDEST POP DUP1 PUSH2 0x18C6 JUMP JUMPDEST CALLVALUE PUSH2 0x177 JUMPI PUSH1 0x80 CALLDATASIZE PUSH1 0x3 NOT ADD SLT PUSH2 0x177 JUMPI PUSH2 0x1911 PUSH2 0x42CA JUMP JUMPDEST PUSH1 0x24 CALLDATALOAD PUSH1 0x1 PUSH1 0x1 PUSH1 0x40 SHL SUB DUP2 GT PUSH2 0x177 JUMPI PUSH2 0x1930 SWAP1 CALLDATASIZE SWAP1 PUSH1 0x4 ADD PUSH2 0x42E0 JUMP JUMPDEST PUSH1 0x64 CALLDATALOAD ISZERO ISZERO PUSH1 0x64 CALLDATALOAD SUB PUSH2 0x177 JUMPI PUSH1 0x64 CALLDATALOAD ISZERO PUSH2 0x2037 JUMPI PUSH1 0x40 MLOAD PUSH2 0x1951 DUP2 PUSH2 0x41CD JUMP JUMPDEST PUSH1 0x17 DUP2 MSTORE PUSH32 0x566572696669636174696F6E207375636365737366756C000000000000000000 PUSH1 0x20 DUP3 ADD MSTORE JUMPDEST PUSH1 0x40 MLOAD SWAP1 PUSH2 0x1989 DUP3 PUSH2 0x41E8 JUMP JUMPDEST PUSH1 0x0 DUP3 MSTORE PUSH1 0x40 MLOAD PUSH2 0x1999 DUP2 PUSH2 0x41E8 JUMP JUMPDEST PUSH1 0x0 DUP2 MSTORE PUSH1 0x4 SLOAD SWAP3 PUSH2 0x19AA DUP5 PUSH2 0x442E JUMP JUMPDEST PUSH1 0x4 SSTORE PUSH1 0x40 MLOAD SWAP3 PUSH2 0x19BA DUP5 PUSH2 0x41B1 JUMP JUMPDEST DUP5 DUP5 MSTORE PUSH1 0x5 PUSH1 0x20 DUP6 ADD MSTORE CALLER PUSH1 0x40 DUP6 ADD MSTORE PUSH1 0x0 PUSH1 0x60 DUP6 ADD MSTORE DUP6 PUSH1 0x80 DUP6 ADD MSTORE PUSH1 0xA0 DUP5 ADD MSTORE PUSH1 0x44 CALLDATALOAD PUSH1 0xC0 DUP5 ADD MSTORE PUSH1 0x64 CALLDATALOAD ISZERO ISZERO PUSH1 0xE0 DUP5 ADD MSTORE TIMESTAMP PUSH2 0x100 DUP5 ADD MSTORE PUSH2 0x120 DUP4 ADD MSTORE PUSH2 0x140 DUP3 ADD MSTORE PUSH1 0x0 SLOAD PUSH1 0x1 PUSH1 0x40 SHL DUP2 LT ISZERO PUSH2 0x67D JUMPI DUP1 PUSH1 0x1 PUSH2 0x1A20 SWAP3 ADD PUSH1 0x0 SSTORE PUSH2 0x4129 JUMP JUMPDEST SWAP2 SWAP1 SWAP2 PUSH2 0x90D JUMPI DUP1 MLOAD DUP3 SSTORE PUSH1 0x1 DUP3 ADD PUSH1 0x20 DUP3 ADD MLOAD PUSH1 0xB DUP2 LT ISZERO PUSH2 0x8F7 JUMPI DUP2 SLOAD PUSH1 0xFF PUSH2 0x100 PUSH1 0x1 PUSH1 0xA8 SHL SUB PUSH1 0x40 DUP7 ADD MLOAD PUSH1 0x8 SHL AND SWAP3 AND SWAP1 PUSH1 0x1 PUSH1 0x1 PUSH1 0x58 SHL SUB PUSH1 0xA8 SHL AND OR OR SWAP1 SSTORE PUSH1 0x1 DUP1 PUSH1 0xA0 SHL SUB PUSH1 0x60 DUP3 ADD MLOAD AND PUSH1 0x2 DUP4 ADD SWAP1 PUSH1 0x1 PUSH1 0x1 PUSH1 0x60 SHL SUB PUSH1 0xA0 SHL DUP3 SLOAD AND OR SWAP1 SSTORE PUSH1 0x80 DUP2 ADD MLOAD DUP1 MLOAD SWAP1 PUSH1 0x1 PUSH1 0x1 PUSH1 0x40 SHL SUB DUP3 GT PUSH2 0x67D JUMPI DUP2 SWAP1 PUSH2 0x1AAE PUSH1 0x3 DUP7 ADD SLOAD PUSH2 0x4177 JUMP JUMPDEST PUSH1 0x1F DUP2 GT PUSH2 0x1FE4 JUMPI JUMPDEST POP PUSH1 0x20 SWAP1 PUSH1 0x1F DUP4 GT PUSH1 0x1 EQ PUSH2 0x1F72 JUMPI PUSH1 0x0 SWAP3 PUSH2 0x1F67 JUMPI JUMPDEST POP POP DUP2 PUSH1 0x1 SHL SWAP2 PUSH1 0x0 NOT SWAP1 PUSH1 0x3 SHL SHR NOT AND OR PUSH1 0x3 DUP4 ADD SSTORE JUMPDEST PUSH1 0xA0 DUP2 ADD MLOAD DUP1 MLOAD SWAP1 PUSH1 0x1 PUSH1 0x1 PUSH1 0x40 SHL SUB DUP3 GT PUSH2 0x67D JUMPI DUP2 SWAP1 PUSH2 0x1B0B PUSH1 0x4 DUP7 ADD SLOAD PUSH2 0x4177 JUMP JUMPDEST PUSH1 0x1F DUP2 GT PUSH2 0x1F14 JUMPI JUMPDEST POP PUSH1 0x20 SWAP1 PUSH1 0x1F DUP4 GT PUSH1 0x1 EQ PUSH2 0x1EA2 JUMPI PUSH1 0x0 SWAP3 PUSH2 0x1E97 JUMPI JUMPDEST POP POP DUP2 PUSH1 0x1 SHL SWAP2 PUSH1 0x0 NOT SWAP1 PUSH1 0x3 SHL SHR NOT AND OR PUSH1 0x4 DUP4 ADD SSTORE JUMPDEST PUSH1 0xC0 DUP2 ADD MLOAD PUSH1 0x5 DUP4 ADD SSTORE PUSH1 0x6 DUP3 ADD PUSH1 0xE0 DUP3 ADD MLOAD ISZERO ISZERO PUSH1 0xFF DUP1 NOT DUP4 SLOAD AND SWAP2 AND OR SWAP1 SSTORE PUSH2 0x100 DUP2 ADD MLOAD PUSH1 0x7 DUP4 ADD SSTORE PUSH2 0x120 DUP2 ADD MLOAD DUP1 MLOAD SWAP1 PUSH1 0x1 PUSH1 0x1 PUSH1 0x40 SHL SUB DUP3 GT PUSH2 0x67D JUMPI PUSH2 0x1B93 PUSH1 0x8 DUP6 ADD SLOAD PUSH2 0x4177 JUMP JUMPDEST PUSH1 0x1F DUP2 GT PUSH2 0x1E50 JUMPI JUMPDEST POP PUSH1 0x20 SWAP1 PUSH1 0x1F DUP4 GT PUSH1 0x1 EQ PUSH2 0x1DDE JUMPI PUSH2 0x140 SWAP4 SWAP3 SWAP2 PUSH1 0x0 SWAP2 DUP4 PUSH2 0x1DD3 JUMPI JUMPDEST POP POP DUP2 PUSH1 0x1 SHL SWAP2 PUSH1 0x0 NOT SWAP1 PUSH1 0x3 SHL SHR NOT AND OR PUSH1 0x8 DUP5 ADD SSTORE JUMPDEST ADD MLOAD DUP1 MLOAD SWAP1 PUSH1 0x1 PUSH1 0x1 PUSH1 0x40 SHL SUB DUP3 GT PUSH2 0x67D JUMPI PUSH2 0x1BF2 PUSH1 0x9 DUP5 ADD SLOAD PUSH2 0x4177 JUMP JUMPDEST PUSH1 0x1F DUP2 GT PUSH2 0x1D8C JUMPI JUMPDEST POP PUSH1 0x20 SWAP1 PUSH1 0x1F DUP4 GT PUSH1 0x1 EQ PUSH2 0x1D1C JUMPI PUSH1 0x9 SWAP3 SWAP2 PUSH1 0x0 SWAP2 DUP4 PUSH2 0x1D11 JUMPI JUMPDEST POP POP DUP2 PUSH1 0x1 SHL SWAP2 PUSH1 0x0 NOT SWAP1 PUSH1 0x3 SHL SHR NOT AND OR SWAP2 ADD SSTORE JUMPDEST CALLER PUSH1 0x0 MSTORE PUSH1 0x1 PUSH1 0x20 MSTORE PUSH2 0x1C44 DUP2 PUSH1 0x40 PUSH1 0x0 KECCAK256 PUSH2 0x4449 JUMP JUMPDEST DUP2 MLOAD DUP2 DUP2 PUSH2 0x1CF2 JUMPI JUMPDEST POP POP PUSH1 0x5 PUSH1 0x0 MSTORE PUSH1 0x3 PUSH1 0x20 MSTORE PUSH2 0x1C83 DUP2 PUSH32 0x405AAD32E1ADBAC89BB7F176E338B8FC6E994CA210C9BB7BDCA249B465942250 PUSH2 0x4449 JUMP JUMPDEST PUSH1 0x5 PUSH1 0x40 MLOAD SWAP2 PUSH1 0x0 DUP1 MLOAD PUSH1 0x20 PUSH2 0x44BA DUP4 CODECOPY DUP2 MLOAD SWAP2 MSTORE CALLER SWAP4 DUP1 PUSH2 0x1CA9 TIMESTAMP PUSH1 0x64 CALLDATALOAD DUP10 DUP5 PUSH2 0x447E JUMP JUMPDEST SUB SWAP1 LOG4 PUSH32 0xE16F3863734E99966A6300BBCCEF5447A8376BE650E3F3F4B19D77D258901848 PUSH1 0x40 MLOAD DUP1 PUSH2 0x1CED PUSH1 0x44 CALLDATALOAD SWAP6 PUSH1 0x1 DUP1 PUSH1 0xA0 SHL SUB AND SWAP5 TIMESTAMP SWAP1 PUSH1 0x64 CALLDATALOAD SWAP1 DUP5 PUSH2 0x447E JUMP JUMPDEST SUB SWAP1 LOG3 STOP JUMPDEST PUSH2 0x1D0A SWAP2 PUSH1 0x20 PUSH1 0x40 MLOAD DUP3 PUSH2 0x578 DUP3 SWAP5 DUP4 DUP6 DUP12 ADD PUSH2 0x4049 JUMP JUMPDEST DUP4 DUP2 PUSH2 0x1C4D JUMP JUMPDEST ADD MLOAD SWAP1 POP DUP8 DUP1 PUSH2 0x1C17 JUMP JUMPDEST SWAP1 PUSH1 0x9 DUP5 ADD PUSH1 0x0 MSTORE PUSH1 0x20 PUSH1 0x0 KECCAK256 SWAP2 PUSH1 0x0 JUMPDEST PUSH1 0x1F NOT DUP6 AND DUP2 LT PUSH2 0x1D74 JUMPI POP SWAP2 DUP4 SWAP2 PUSH1 0x1 SWAP4 PUSH1 0x9 SWAP6 PUSH1 0x1F NOT DUP2 AND LT PUSH2 0x1D5B JUMPI JUMPDEST POP POP POP DUP2 SHL ADD SWAP2 ADD SSTORE PUSH2 0x1C2D JUMP JUMPDEST ADD MLOAD PUSH1 0x0 NOT PUSH1 0xF8 DUP5 PUSH1 0x3 SHL AND SHR NOT AND SWAP1 SSTORE DUP8 DUP1 DUP1 PUSH2 0x1D4D JUMP JUMPDEST SWAP2 SWAP3 PUSH1 0x20 PUSH1 0x1 DUP2 SWAP3 DUP7 DUP6 ADD MLOAD DUP2 SSTORE ADD SWAP5 ADD SWAP3 ADD PUSH2 0x1D2D JUMP JUMPDEST PUSH1 0x9 DUP5 ADD PUSH1 0x0 MSTORE PUSH1 0x20 PUSH1 0x0 KECCAK256 PUSH1 0x1F DUP5 ADD PUSH1 0x5 SHR DUP2 ADD PUSH1 0x20 DUP6 LT PUSH2 0x1DCC JUMPI JUMPDEST PUSH1 0x1F DUP4 ADD PUSH1 0x5 SHR DUP3 ADD DUP2 LT PUSH2 0x1DC0 JUMPI POP POP PUSH2 0x1BFB JUMP JUMPDEST PUSH1 0x0 DUP2 SSTORE PUSH1 0x1 ADD PUSH2 0x1DAA JUMP JUMPDEST POP DUP1 PUSH2 0x1DAA JUMP JUMPDEST ADD MLOAD SWAP1 POP DUP9 DUP1 PUSH2 0x1BBA JUMP JUMPDEST SWAP1 PUSH1 0x1F NOT DUP4 AND SWAP2 PUSH1 0x8 DUP7 ADD PUSH1 0x0 MSTORE PUSH1 0x20 PUSH1 0x0 KECCAK256 SWAP3 PUSH1 0x0 JUMPDEST DUP2 DUP2 LT PUSH2 0x1E38 JUMPI POP SWAP2 PUSH1 0x1 SWAP4 SWAP2 DUP6 PUSH2 0x140 SWAP8 SWAP7 SWAP5 LT PUSH2 0x1E1F JUMPI JUMPDEST POP POP POP DUP2 SHL ADD PUSH1 0x8 DUP5 ADD SSTORE PUSH2 0x1BD2 JUMP JUMPDEST ADD MLOAD PUSH1 0x0 NOT PUSH1 0xF8 DUP5 PUSH1 0x3 SHL AND SHR NOT AND SWAP1 SSTORE DUP9 DUP1 DUP1 PUSH2 0x1E0F JUMP JUMPDEST SWAP3 SWAP4 PUSH1 0x20 PUSH1 0x1 DUP2 SWAP3 DUP8 DUP7 ADD MLOAD DUP2 SSTORE ADD SWAP6 ADD SWAP4 ADD PUSH2 0x1DF5 JUMP JUMPDEST PUSH1 0x8 DUP6 ADD PUSH1 0x0 MSTORE PUSH1 0x20 PUSH1 0x0 KECCAK256 PUSH1 0x1F DUP5 ADD PUSH1 0x5 SHR DUP2 ADD PUSH1 0x20 DUP6 LT PUSH2 0x1E90 JUMPI JUMPDEST PUSH1 0x1F DUP4 ADD PUSH1 0x5 SHR DUP3 ADD DUP2 LT PUSH2 0x1E84 JUMPI POP POP PUSH2 0x1B9C JUMP JUMPDEST PUSH1 0x0 DUP2 SSTORE PUSH1 0x1 ADD PUSH2 0x1E6E JUMP JUMPDEST POP DUP1 PUSH2 0x1E6E JUMP JUMPDEST ADD MLOAD SWAP1 POP DUP8 DUP1 PUSH2 0x1B2B JUMP JUMPDEST SWAP3 POP PUSH1 0x4 DUP6 ADD PUSH1 0x0 MSTORE PUSH1 0x20 PUSH1 0x0 KECCAK256 SWAP1 PUSH1 0x0 SWAP4 JUMPDEST PUSH1 0x1F NOT DUP5 AND DUP6 LT PUSH2 0x1EF9 JUMPI PUSH1 0x1 SWAP5 POP DUP4 PUSH1 0x1F NOT DUP2 AND LT PUSH2 0x1EE0 JUMPI JUMPDEST POP POP POP DUP2 SHL ADD PUSH1 0x4 DUP4 ADD SSTORE PUSH2 0x1B43 JUMP JUMPDEST ADD MLOAD PUSH1 0x0 NOT PUSH1 0xF8 DUP5 PUSH1 0x3 SHL AND SHR NOT AND SWAP1 SSTORE DUP8 DUP1 DUP1 PUSH2 0x1ED0 JUMP JUMPDEST DUP2 DUP2 ADD MLOAD DUP4 SSTORE PUSH1 0x20 SWAP5 DUP6 ADD SWAP5 PUSH1 0x1 SWAP1 SWAP4 ADD SWAP3 SWAP1 SWAP2 ADD SWAP1 PUSH2 0x1EB5 JUMP JUMPDEST SWAP1 SWAP2 POP PUSH1 0x4 DUP6 ADD PUSH1 0x0 MSTORE PUSH1 0x20 PUSH1 0x0 KECCAK256 PUSH1 0x1F DUP5 ADD PUSH1 0x5 SHR DUP2 ADD PUSH1 0x20 DUP6 LT PUSH2 0x1F60 JUMPI JUMPDEST SWAP1 DUP5 SWAP4 SWAP3 SWAP2 JUMPDEST PUSH1 0x1F DUP4 ADD PUSH1 0x5 SHR DUP3 ADD DUP2 LT PUSH2 0x1F51 JUMPI POP POP PUSH2 0x1B14 JUMP JUMPDEST PUSH1 0x0 DUP2 SSTORE DUP6 SWAP5 POP PUSH1 0x1 ADD PUSH2 0x1F3B JUMP JUMPDEST POP DUP1 PUSH2 0x1F35 JUMP JUMPDEST ADD MLOAD SWAP1 POP DUP8 DUP1 PUSH2 0x1ACE JUMP JUMPDEST SWAP3 POP PUSH1 0x3 DUP6 ADD PUSH1 0x0 MSTORE PUSH1 0x20 PUSH1 0x0 KECCAK256 SWAP1 PUSH1 0x0 SWAP4 JUMPDEST PUSH1 0x1F NOT DUP5 AND DUP6 LT PUSH2 0x1FC9 JUMPI PUSH1 0x1 SWAP5 POP DUP4 PUSH1 0x1F NOT DUP2 AND LT PUSH2 0x1FB0 JUMPI JUMPDEST POP POP POP DUP2 SHL ADD PUSH1 0x3 DUP4 ADD SSTORE PUSH2 0x1AE6 JUMP JUMPDEST ADD MLOAD PUSH1 0x0 NOT PUSH1 0xF8 DUP5 PUSH1 0x3 SHL AND SHR NOT AND SWAP1 SSTORE DUP8 DUP1 DUP1 PUSH2 0x1FA0 JUMP JUMPDEST DUP2 DUP2 ADD MLOAD DUP4 SSTORE PUSH1 0x20 SWAP5 DUP6 ADD SWAP5 PUSH1 0x1 SWAP1 SWAP4 ADD SWAP3 SWAP1 SWAP2 ADD SWAP1 PUSH2 0x1F85 JUMP JUMPDEST SWAP1 SWAP2 POP PUSH1 0x3 DUP6 ADD PUSH1 0x0 MSTORE PUSH1 0x20 PUSH1 0x0 KECCAK256 PUSH1 0x1F DUP5 ADD PUSH1 0x5 SHR DUP2 ADD PUSH1 0x20 DUP6 LT PUSH2 0x2030 JUMPI JUMPDEST SWAP1 DUP5 SWAP4 SWAP3 SWAP2 JUMPDEST PUSH1 0x1F DUP4 ADD PUSH1 0x5 SHR DUP3 ADD DUP2 LT PUSH2 0x2021 JUMPI POP POP PUSH2 0x1AB7 JUMP JUMPDEST PUSH1 0x0 DUP2 SSTORE DUP6 SWAP5 POP PUSH1 0x1 ADD PUSH2 0x200B JUMP JUMPDEST POP DUP1 PUSH2 0x2005 JUMP JUMPDEST PUSH1 0x40 MLOAD PUSH2 0x2043 DUP2 PUSH2 0x41CD JUMP JUMPDEST PUSH1 0x13 DUP2 MSTORE PUSH19 0x15995C9A599A58D85D1A5BDB8819985A5B1959 PUSH1 0x6A SHL PUSH1 0x20 DUP3 ADD MSTORE PUSH2 0x197C JUMP JUMPDEST CALLVALUE PUSH2 0x177 JUMPI PUSH1 0x20 DUP1 PUSH1 0x3 NOT CALLDATASIZE ADD SLT PUSH2 0x177 JUMPI PUSH1 0x4 CALLDATALOAD PUSH1 0x1 PUSH1 0x1 PUSH1 0x40 SHL SUB DUP2 GT PUSH2 0x177 JUMPI DUP2 PUSH2 0x209D PUSH2 0x20B0 SWAP3 CALLDATASIZE SWAP1 PUSH1 0x4 ADD PUSH2 0x42E0 JUMP JUMPDEST DUP2 PUSH1 0x40 MLOAD SWAP4 DUP3 DUP6 DUP1 SWAP5 MLOAD SWAP4 DUP5 SWAP3 ADD PUSH2 0x4049 JUMP JUMPDEST DUP2 ADD PUSH1 0x2 DUP2 MSTORE SUB ADD SWAP1 KECCAK256 SWAP1 PUSH1 0x40 MLOAD SWAP1 DUP2 DUP2 DUP5 SLOAD SWAP2 DUP3 DUP2 MSTORE ADD SWAP4 PUSH1 0x0 MSTORE DUP2 PUSH1 0x0 KECCAK256 SWAP2 PUSH1 0x0 SWAP1 JUMPDEST DUP3 DUP3 LT PUSH2 0x20EC JUMPI PUSH2 0x15E DUP6 PUSH2 0x152 DUP2 DUP10 SUB DUP3 PUSH2 0x4203 JUMP JUMPDEST DUP4 SLOAD DUP7 MSTORE SWAP5 DUP6 ADD SWAP5 PUSH1 0x1 SWAP4 DUP5 ADD SWAP4 SWAP1 SWAP2 ADD SWAP1 PUSH2 0x20D5 JUMP JUMPDEST CALLVALUE PUSH2 0x177 JUMPI PUSH1 0x0 CALLDATASIZE PUSH1 0x3 NOT ADD SLT PUSH2 0x177 JUMPI PUSH1 0x20 PUSH1 0x0 SLOAD PUSH1 0x40 MLOAD SWAP1 DUP2 MSTORE RETURN JUMPDEST CALLVALUE PUSH2 0x177 JUMPI PUSH1 0x20 DUP1 PUSH1 0x3 NOT CALLDATASIZE ADD SLT PUSH2 0x177 JUMPI PUSH1 0x4 CALLDATALOAD PUSH1 0xB DUP2 LT ISZERO PUSH2 0x177 JUMPI PUSH2 0x2148 SWAP1 PUSH2 0x4383 JUMP JUMPDEST SWAP1 PUSH1 0x40 MLOAD SWAP1 DUP2 DUP2 DUP5 SLOAD SWAP2 DUP3 DUP2 MSTORE ADD SWAP4 PUSH1 0x0 MSTORE DUP2 PUSH1 0x0 KECCAK256 SWAP2 PUSH1 0x0 SWAP1 JUMPDEST DUP3 DUP3 LT PUSH2 0x217A JUMPI PUSH2 0x15E DUP6 PUSH2 0x152 DUP2 DUP10 SUB DUP3 PUSH2 0x4203 JUMP JUMPDEST DUP4 SLOAD DUP7 MSTORE SWAP5 DUP6 ADD SWAP5 PUSH1 0x1 SWAP4 DUP5 ADD SWAP4 SWAP1 SWAP2 ADD SWAP1 PUSH2 0x2163 JUMP JUMPDEST CALLVALUE PUSH2 0x177 JUMPI PUSH1 0x0 CALLDATASIZE PUSH1 0x3 NOT ADD SLT PUSH2 0x177 JUMPI PUSH1 0x20 PUSH1 0x4 SLOAD PUSH1 0x40 MLOAD SWAP1 DUP2 MSTORE RETURN JUMPDEST CALLVALUE PUSH2 0x177 JUMPI PUSH1 0x40 CALLDATASIZE PUSH1 0x3 NOT ADD SLT PUSH2 0x177 JUMPI PUSH2 0x21C8 PUSH2 0x42CA JUMP JUMPDEST PUSH1 0x1 PUSH1 0x1 PUSH1 0xA0 SHL SUB AND PUSH1 0x0 SWAP1 DUP2 MSTORE PUSH1 0x1 PUSH1 0x20 MSTORE PUSH1 0x40 SWAP1 KECCAK256 DUP1 SLOAD PUSH1 0x24 CALLDATALOAD SWAP2 SWAP1 DUP3 LT ISZERO PUSH2 0x177 JUMPI PUSH1 0x20 SWAP2 PUSH2 0x98E SWAP2 PUSH2 0x439C JUMP JUMPDEST CALLVALUE PUSH2 0x177 JUMPI PUSH2 0x2207 CALLDATASIZE PUSH2 0x43B4 JUMP JUMPDEST PUSH1 0x40 MLOAD PUSH2 0x2213 DUP2 PUSH2 0x41CD JUMP JUMPDEST PUSH1 0xD DUP2 MSTORE PUSH13 0x11185D18481858D8D95CDCD959 PUSH1 0x9A SHL PUSH1 0x20 DUP3 ADD MSTORE PUSH1 0x40 MLOAD PUSH2 0x2239 DUP2 PUSH2 0x41E8 JUMP JUMPDEST PUSH1 0x0 DUP2 MSTORE PUSH1 0x40 MLOAD SWAP1 PUSH2 0x224A DUP3 PUSH2 0x41E8 JUMP JUMPDEST PUSH1 0x0 DUP3 MSTORE PUSH1 0x4 SLOAD SWAP3 PUSH2 0x225B DUP5 PUSH2 0x442E JUMP JUMPDEST PUSH1 0x4 SSTORE PUSH1 0x40 MLOAD SWAP3 PUSH2 0x226B DUP5 PUSH2 0x41B1 JUMP JUMPDEST DUP5 DUP5 MSTORE PUSH1 0x20 DUP5 ADD SWAP1 PUSH1 0x6 DUP3 MSTORE PUSH1 0x40 DUP6 ADD SWAP4 CALLER DUP6 MSTORE PUSH1 0x0 PUSH1 0x60 DUP8 ADD MSTORE PUSH1 0x80 DUP7 ADD SWAP4 DUP9 DUP6 MSTORE PUSH1 0xA0 DUP8 ADD MSTORE PUSH1 0x0 PUSH1 0xC0 DUP8 ADD MSTORE PUSH1 0x1 PUSH1 0xE0 DUP8 ADD MSTORE TIMESTAMP PUSH2 0x100 DUP8 ADD MSTORE PUSH2 0x120 DUP7 ADD MSTORE PUSH2 0x140 DUP6 ADD MSTORE PUSH1 0x0 SLOAD PUSH1 0x1 PUSH1 0x40 SHL DUP2 LT ISZERO PUSH2 0x67D JUMPI DUP1 PUSH1 0x1 PUSH2 0x22D3 SWAP3 ADD PUSH1 0x0 SSTORE PUSH2 0x4129 JUMP JUMPDEST SWAP4 SWAP1 SWAP4 PUSH2 0x90D JUMPI DUP5 MLOAD DUP5 SSTORE PUSH1 0x1 DUP5 ADD SWAP2 MLOAD SWAP1 PUSH1 0xB DUP3 LT ISZERO PUSH2 0x8F7 JUMPI PUSH1 0xFF DUP4 SLOAD SWAP2 PUSH2 0x100 PUSH1 0x1 PUSH1 0xA8 SHL SUB SWAP1 MLOAD PUSH1 0x8 SHL AND SWAP3 AND SWAP1 PUSH1 0x1 PUSH1 0x1 PUSH1 0x58 SHL SUB PUSH1 0xA8 SHL AND OR OR SWAP1 SSTORE PUSH1 0x2 DUP3 ADD PUSH1 0x1 DUP1 PUSH1 0xA0 SHL SUB PUSH1 0x60 DUP6 ADD MLOAD AND PUSH1 0x1 PUSH1 0x1 PUSH1 0x60 SHL SUB PUSH1 0xA0 SHL DUP3 SLOAD AND OR SWAP1 SSTORE MLOAD DUP1 MLOAD SWAP1 PUSH1 0x1 PUSH1 0x1 PUSH1 0x40 SHL SUB DUP3 GT PUSH2 0x67D JUMPI DUP2 SWAP1 PUSH2 0x2358 PUSH1 0x3 DUP6 ADD SLOAD PUSH2 0x4177 JUMP JUMPDEST PUSH1 0x1F DUP2 GT PUSH2 0x2890 JUMPI JUMPDEST POP PUSH1 0x20 SWAP1 PUSH1 0x1F DUP4 GT PUSH1 0x1 EQ PUSH2 0x281E JUMPI PUSH1 0x0 SWAP3 PUSH2 0x2813 JUMPI JUMPDEST POP POP DUP2 PUSH1 0x1 SHL SWAP2 PUSH1 0x0 NOT SWAP1 PUSH1 0x3 SHL SHR NOT AND OR PUSH1 0x3 DUP3 ADD SSTORE JUMPDEST PUSH1 0xA0 DUP3 ADD MLOAD DUP1 MLOAD SWAP1 PUSH1 0x1 PUSH1 0x1 PUSH1 0x40 SHL SUB DUP3 GT PUSH2 0x67D JUMPI DUP2 SWAP1 PUSH2 0x23B5 PUSH1 0x4 DUP6 ADD SLOAD PUSH2 0x4177 JUMP JUMPDEST PUSH1 0x1F DUP2 GT PUSH2 0x27C0 JUMPI JUMPDEST POP PUSH1 0x20 SWAP1 PUSH1 0x1F DUP4 GT PUSH1 0x1 EQ PUSH2 0x274E JUMPI PUSH1 0x0 SWAP3 PUSH2 0x2743 JUMPI JUMPDEST POP POP DUP2 PUSH1 0x1 SHL SWAP2 PUSH1 0x0 NOT SWAP1 PUSH1 0x3 SHL SHR NOT AND OR PUSH1 0x4 DUP3 ADD SSTORE JUMPDEST PUSH1 0xC0 DUP3 ADD MLOAD PUSH1 0x5 DUP3 ADD SSTORE PUSH1 0x6 DUP2 ADD PUSH1 0xE0 DUP4 ADD MLOAD ISZERO ISZERO PUSH1 0xFF DUP1 NOT DUP4 SLOAD AND SWAP2 AND OR SWAP1 SSTORE PUSH2 0x100 DUP3 ADD MLOAD PUSH1 0x7 DUP3 ADD SSTORE PUSH2 0x120 DUP3 ADD MLOAD DUP1 MLOAD SWAP1 PUSH1 0x1 PUSH1 0x1 PUSH1 0x40 SHL SUB DUP3 GT PUSH2 0x67D JUMPI PUSH2 0x243D PUSH1 0x8 DUP5 ADD SLOAD PUSH2 0x4177 JUMP JUMPDEST PUSH1 0x1F DUP2 GT PUSH2 0x26FC JUMPI JUMPDEST POP PUSH1 0x20 SWAP1 PUSH1 0x1F DUP4 GT PUSH1 0x1 EQ PUSH2 0x2686 JUMPI SWAP2 DUP1 PUSH2 0x140 SWAP5 SWAP3 PUSH1 0x9 SWAP5 PUSH1 0x0 SWAP3 PUSH2 0x267B JUMPI JUMPDEST POP POP DUP2 PUSH1 0x1 SHL SWAP2 PUSH1 0x0 NOT SWAP1 PUSH1 0x3 SHL SHR NOT AND OR PUSH1 0x8 DUP3 ADD SSTORE JUMPDEST ADD SWAP2 ADD MLOAD DUP1 MLOAD SWAP1 PUSH1 0x1 PUSH1 0x1 PUSH1 0x40 SHL SUB DUP3 GT PUSH2 0x67D JUMPI PUSH2 0x249E DUP4 SLOAD PUSH2 0x4177 JUMP JUMPDEST PUSH1 0x1F DUP2 GT PUSH2 0x2633 JUMPI JUMPDEST POP PUSH1 0x20 SWAP1 PUSH1 0x1F DUP4 GT PUSH1 0x1 EQ PUSH2 0x25A4 JUMPI SWAP2 DUP1 PUSH32 0x2073BEAF124D3177812CC04E127F9AF64F0519F426EEAE123B868657B0B49857 SWAP7 SWAP5 SWAP3 PUSH2 0x549 SWAP7 SWAP5 PUSH1 0x0 SWAP3 PUSH2 0x2599 JUMPI JUMPDEST POP POP DUP2 PUSH1 0x1 SHL SWAP2 PUSH1 0x0 NOT SWAP1 PUSH1 0x3 SHL SHR NOT AND OR SWAP1 SSTORE JUMPDEST CALLER PUSH1 0x0 MSTORE PUSH1 0x1 PUSH1 0x20 MSTORE PUSH2 0x2515 DUP2 PUSH1 0x40 PUSH1 0x0 KECCAK256 PUSH2 0x4449 JUMP JUMPDEST DUP2 MLOAD DUP2 DUP2 PUSH2 0x257A JUMPI JUMPDEST POP POP PUSH1 0x6 PUSH1 0x0 MSTORE PUSH1 0x3 PUSH1 0x20 MSTORE PUSH2 0x2554 DUP2 PUSH32 0xC69056F16CBAA3C616B828E333AB7D3A32310765507F8F58359E99EBB7A885F3 PUSH2 0x4449 JUMP JUMPDEST PUSH1 0x6 PUSH1 0x40 MLOAD SWAP2 PUSH1 0x60 DUP4 MSTORE PUSH1 0x0 DUP1 MLOAD PUSH1 0x20 PUSH2 0x44BA DUP4 CODECOPY DUP2 MLOAD SWAP2 MSTORE PUSH2 0x521 PUSH1 0x60 DUP6 ADD DUP7 PUSH2 0x406C JUMP JUMPDEST PUSH2 0x2592 SWAP2 PUSH1 0x20 PUSH1 0x40 MLOAD DUP3 PUSH2 0x578 DUP3 SWAP5 DUP4 DUP6 DUP12 ADD PUSH2 0x4049 JUMP JUMPDEST DUP6 DUP2 PUSH2 0x251E JUMP JUMPDEST ADD MLOAD SWAP1 POP DUP9 DUP1 PUSH2 0x24E9 JUMP JUMPDEST SWAP1 PUSH1 0x1F NOT DUP4 AND SWAP2 DUP5 PUSH1 0x0 MSTORE PUSH1 0x20 PUSH1 0x0 KECCAK256 SWAP3 PUSH1 0x0 JUMPDEST DUP2 DUP2 LT PUSH2 0x261B JUMPI POP SWAP3 PUSH1 0x1 SWAP3 DUP6 SWAP3 PUSH2 0x549 SWAP9 SWAP7 PUSH32 0x2073BEAF124D3177812CC04E127F9AF64F0519F426EEAE123B868657B0B49857 SWAP11 SWAP9 SWAP7 LT PUSH2 0x2602 JUMPI JUMPDEST POP POP POP DUP2 SHL ADD SWAP1 SSTORE PUSH2 0x24FE JUMP JUMPDEST ADD MLOAD PUSH1 0x0 NOT PUSH1 0xF8 DUP5 PUSH1 0x3 SHL AND SHR NOT AND SWAP1 SSTORE DUP9 DUP1 DUP1 PUSH2 0x25F5 JUMP JUMPDEST SWAP3 SWAP4 PUSH1 0x20 PUSH1 0x1 DUP2 SWAP3 DUP8 DUP7 ADD MLOAD DUP2 SSTORE ADD SWAP6 ADD SWAP4 ADD PUSH2 0x25B8 JUMP JUMPDEST DUP4 PUSH1 0x0 MSTORE PUSH1 0x20 PUSH1 0x0 KECCAK256 PUSH1 0x1F DUP5 ADD PUSH1 0x5 SHR DUP2 ADD SWAP2 PUSH1 0x20 DUP6 LT PUSH2 0x2671 JUMPI JUMPDEST PUSH1 0x1F ADD PUSH1 0x5 SHR ADD SWAP1 JUMPDEST DUP2 DUP2 LT PUSH2 0x2665 JUMPI POP PUSH2 0x24A7 JUMP JUMPDEST PUSH1 0x0 DUP2 SSTORE PUSH1 0x1 ADD PUSH2 0x2658 JUMP JUMPDEST SWAP1 SWAP2 POP DUP2 SWAP1 PUSH2 0x264F JUMP JUMPDEST ADD MLOAD SWAP1 POP DUP10 DUP1 PUSH2 0x2467 JUMP JUMPDEST SWAP1 PUSH1 0x8 DUP5 ADD PUSH1 0x0 MSTORE PUSH1 0x20 PUSH1 0x0 KECCAK256 SWAP2 PUSH1 0x0 JUMPDEST PUSH1 0x1F NOT DUP6 AND DUP2 LT PUSH2 0x26E4 JUMPI POP SWAP3 PUSH2 0x140 SWAP5 SWAP3 PUSH1 0x1 SWAP3 PUSH1 0x9 SWAP6 DUP4 PUSH1 0x1F NOT DUP2 AND LT PUSH2 0x26CB JUMPI JUMPDEST POP POP POP DUP2 SHL ADD PUSH1 0x8 DUP3 ADD SSTORE PUSH2 0x247F JUMP JUMPDEST ADD MLOAD PUSH1 0x0 NOT PUSH1 0xF8 DUP5 PUSH1 0x3 SHL AND SHR NOT AND SWAP1 SSTORE DUP10 DUP1 DUP1 PUSH2 0x26BB JUMP JUMPDEST SWAP2 SWAP3 PUSH1 0x20 PUSH1 0x1 DUP2 SWAP3 DUP7 DUP6 ADD MLOAD DUP2 SSTORE ADD SWAP5 ADD SWAP3 ADD PUSH2 0x2697 JUMP JUMPDEST PUSH1 0x8 DUP5 ADD PUSH1 0x0 MSTORE PUSH1 0x20 PUSH1 0x0 KECCAK256 PUSH1 0x1F DUP5 ADD PUSH1 0x5 SHR DUP2 ADD PUSH1 0x20 DUP6 LT PUSH2 0x273C JUMPI JUMPDEST PUSH1 0x1F DUP4 ADD PUSH1 0x5 SHR DUP3 ADD DUP2 LT PUSH2 0x2730 JUMPI POP POP PUSH2 0x2446 JUMP JUMPDEST PUSH1 0x0 DUP2 SSTORE PUSH1 0x1 ADD PUSH2 0x271A JUMP JUMPDEST POP DUP1 PUSH2 0x271A JUMP JUMPDEST ADD MLOAD SWAP1 POP DUP8 DUP1 PUSH2 0x23D5 JUMP JUMPDEST SWAP3 POP PUSH1 0x4 DUP5 ADD PUSH1 0x0 MSTORE PUSH1 0x20 PUSH1 0x0 KECCAK256 SWAP1 PUSH1 0x0 SWAP4 JUMPDEST PUSH1 0x1F NOT DUP5 AND DUP6 LT PUSH2 0x27A5 JUMPI PUSH1 0x1 SWAP5 POP DUP4 PUSH1 0x1F NOT DUP2 AND LT PUSH2 0x278C JUMPI JUMPDEST POP POP POP DUP2 SHL ADD PUSH1 0x4 DUP3 ADD SSTORE PUSH2 0x23ED JUMP JUMPDEST ADD MLOAD PUSH1 0x0 NOT PUSH1 0xF8 DUP5 PUSH1 0x3 SHL AND SHR NOT AND SWAP1 SSTORE DUP8 DUP1 DUP1 PUSH2 0x277C JUMP JUMPDEST DUP2 DUP2 ADD MLOAD DUP4 SSTORE PUSH1 0x20 SWAP5 DUP6 ADD SWAP5 PUSH1 0x1 SWAP1 SWAP4 ADD SWAP3 SWAP1 SWAP2 ADD SWAP1 PUSH2 0x2761 JUMP JUMPDEST SWAP1 SWAP2 POP PUSH1 0x4 DUP5 ADD PUSH1 0x0 MSTORE PUSH1 0x20 PUSH1 0x0 KECCAK256 PUSH1 0x1F DUP5 ADD PUSH1 0x5 SHR DUP2 ADD PUSH1 0x20 DUP6 LT PUSH2 0x280C JUMPI JUMPDEST SWAP1 DUP5 SWAP4 SWAP3 SWAP2 JUMPDEST PUSH1 0x1F DUP4 ADD PUSH1 0x5 SHR DUP3 ADD DUP2 LT PUSH2 0x27FD JUMPI POP POP PUSH2 0x23BE JUMP JUMPDEST PUSH1 0x0 DUP2 SSTORE DUP6 SWAP5 POP PUSH1 0x1 ADD PUSH2 0x27E7 JUMP JUMPDEST POP DUP1 PUSH2 0x27E1 JUMP JUMPDEST ADD MLOAD SWAP1 POP DUP8 DUP1 PUSH2 0x2378 JUMP JUMPDEST SWAP3 POP PUSH1 0x3 DUP5 ADD PUSH1 0x0 MSTORE PUSH1 0x20 PUSH1 0x0 KECCAK256 SWAP1 PUSH1 0x0 SWAP4 JUMPDEST PUSH1 0x1F NOT DUP5 AND DUP6 LT PUSH2 0x2875 JUMPI PUSH1 0x1 SWAP5 POP DUP4 PUSH1 0x1F NOT DUP2 AND LT PUSH2 0x285C JUMPI JUMPDEST POP POP POP DUP2 SHL ADD PUSH1 0x3 DUP3 ADD SSTORE PUSH2 0x2390 JUMP JUMPDEST ADD MLOAD PUSH1 0x0 NOT PUSH1 0xF8 DUP5 PUSH1 0x3 SHL AND SHR NOT AND SWAP1 SSTORE DUP8 DUP1 DUP1 PUSH2 0x284C JUMP JUMPDEST DUP2 DUP2 ADD MLOAD DUP4 SSTORE PUSH1 0x20 SWAP5 DUP6 ADD SWAP5 PUSH1 0x1 SWAP1 SWAP4 ADD SWAP3 SWAP1 SWAP2 ADD SWAP1 PUSH2 0x2831 JUMP JUMPDEST SWAP1 SWAP2 POP PUSH1 0x3 DUP5 ADD PUSH1 0x0 MSTORE PUSH1 0x20 PUSH1 0x0 KECCAK256 PUSH1 0x1F DUP5 ADD PUSH1 0x5 SHR DUP2 ADD PUSH1 0x20 DUP6 LT PUSH2 0x28DC JUMPI JUMPDEST SWAP1 DUP5 SWAP4 SWAP3 SWAP2 JUMPDEST PUSH1 0x1F DUP4 ADD PUSH1 0x5 SHR DUP3 ADD DUP2 LT PUSH2 0x28CD JUMPI POP POP PUSH2 0x2361 JUMP JUMPDEST PUSH1 0x0 DUP2 SSTORE DUP6 SWAP5 POP PUSH1 0x1 ADD PUSH2 0x28B7 JUMP JUMPDEST POP DUP1 PUSH2 0x28B1 JUMP JUMPDEST CALLVALUE PUSH2 0x177 JUMPI PUSH1 0x40 CALLDATASIZE PUSH1 0x3 NOT ADD SLT PUSH2 0x177 JUMPI PUSH1 0x4 CALLDATALOAD PUSH1 0xB DUP2 LT ISZERO PUSH2 0x177 JUMPI PUSH2 0x290C PUSH1 0x24 CALLDATALOAD SWAP2 PUSH2 0x4383 JUMP JUMPDEST DUP1 SLOAD DUP3 LT ISZERO PUSH2 0x177 JUMPI PUSH1 0x20 SWAP2 PUSH2 0x98E SWAP2 PUSH2 0x439C JUMP JUMPDEST CALLVALUE PUSH2 0x177 JUMPI PUSH2 0x292F CALLDATASIZE PUSH2 0x4336 JUMP JUMPDEST PUSH1 0x40 MLOAD PUSH2 0x293B DUP2 PUSH2 0x41CD JUMP JUMPDEST PUSH1 0xE DUP2 MSTORE PUSH14 0x1058D8D95CDCC81C995D9BDAD959 PUSH1 0x92 SHL PUSH1 0x20 DUP3 ADD MSTORE PUSH1 0x40 MLOAD PUSH2 0x2962 DUP2 PUSH2 0x41E8 JUMP JUMPDEST PUSH1 0x0 DUP2 MSTORE PUSH1 0x40 MLOAD SWAP1 PUSH2 0x2973 DUP3 PUSH2 0x41E8 JUMP JUMPDEST PUSH1 0x0 DUP3 MSTORE PUSH1 0x4 SLOAD SWAP3 PUSH2 0x2984 DUP5 PUSH2 0x442E JUMP JUMPDEST PUSH1 0x4 SSTORE PUSH1 0x40 MLOAD SWAP2 PUSH2 0x2994 DUP4 PUSH2 0x41B1 JUMP JUMPDEST DUP5 DUP4 MSTORE PUSH1 0x20 DUP4 ADD PUSH1 0x3 DUP2 MSTORE PUSH1 0x40 DUP5 ADD SWAP5 CALLER DUP7 MSTORE PUSH1 0x60 DUP6 ADD SWAP3 PUSH1 0x1 DUP1 PUSH1 0xA0 SHL SUB DUP11 AND DUP5 MSTORE PUSH1 0x80 DUP7 ADD SWAP5 DUP10 DUP7 MSTORE PUSH1 0xA0 DUP8 ADD MSTORE PUSH1 0x0 PUSH1 0xC0 DUP8 ADD MSTORE PUSH1 0x1 PUSH1 0xE0 DUP8 ADD MSTORE TIMESTAMP PUSH2 0x100 DUP8 ADD MSTORE PUSH2 0x120 DUP7 ADD MSTORE PUSH2 0x140 DUP6 ADD MSTORE PUSH1 0x0 SLOAD PUSH1 0x1 PUSH1 0x40 SHL DUP2 LT ISZERO PUSH2 0x67D JUMPI DUP1 PUSH1 0x1 PUSH2 0x2A04 SWAP3 ADD PUSH1 0x0 SSTORE PUSH2 0x4129 JUMP JUMPDEST SWAP6 SWAP1 SWAP6 PUSH2 0x90D JUMPI DUP5 MLOAD DUP7 SSTORE PUSH1 0x1 DUP7 ADD SWAP2 MLOAD SWAP1 PUSH1 0xB DUP3 LT ISZERO PUSH2 0x8F7 JUMPI PUSH1 0xFF DUP4 SLOAD SWAP2 PUSH2 0x100 PUSH1 0x1 PUSH1 0xA8 SHL SUB SWAP1 MLOAD PUSH1 0x8 SHL AND SWAP3 AND SWAP1 PUSH1 0x1 PUSH1 0x1 PUSH1 0x58 SHL SUB PUSH1 0xA8 SHL AND OR OR SWAP1 SSTORE PUSH1 0x2 DUP5 ADD SWAP1 PUSH1 0x1 DUP1 PUSH1 0xA0 SHL SUB SWAP1 MLOAD AND PUSH1 0x1 PUSH1 0x1 PUSH1 0x60 SHL SUB PUSH1 0xA0 SHL DUP3 SLOAD AND OR SWAP1 SSTORE MLOAD DUP1 MLOAD SWAP1 PUSH1 0x1 PUSH1 0x1 PUSH1 0x40 SHL SUB DUP3 GT PUSH2 0x67D JUMPI DUP2 SWAP1 PUSH2 0x2A87 PUSH1 0x3 DUP7 ADD SLOAD PUSH2 0x4177 JUMP JUMPDEST PUSH1 0x1F DUP2 GT PUSH2 0x2FC9 JUMPI JUMPDEST POP PUSH1 0x20 SWAP1 PUSH1 0x1F DUP4 GT PUSH1 0x1 EQ PUSH2 0x2F57 JUMPI PUSH1 0x0 SWAP3 PUSH2 0x2F4C JUMPI JUMPDEST POP POP DUP2 PUSH1 0x1 SHL SWAP2 PUSH1 0x0 NOT SWAP1 PUSH1 0x3 SHL SHR NOT AND OR PUSH1 0x3 DUP4 ADD SSTORE JUMPDEST PUSH1 0xA0 DUP2 ADD MLOAD DUP1 MLOAD SWAP1 PUSH1 0x1 PUSH1 0x1 PUSH1 0x40 SHL SUB DUP3 GT PUSH2 0x67D JUMPI DUP2 SWAP1 PUSH2 0x2AE4 PUSH1 0x4 DUP7 ADD SLOAD PUSH2 0x4177 JUMP JUMPDEST PUSH1 0x1F DUP2 GT PUSH2 0x2EF9 JUMPI JUMPDEST POP PUSH1 0x20 SWAP1 PUSH1 0x1F DUP4 GT PUSH1 0x1 EQ PUSH2 0x2E87 JUMPI PUSH1 0x0 SWAP3 PUSH2 0x2E7C JUMPI JUMPDEST POP POP DUP2 PUSH1 0x1 SHL SWAP2 PUSH1 0x0 NOT SWAP1 PUSH1 0x3 SHL SHR NOT AND OR PUSH1 0x4 DUP4 ADD SSTORE JUMPDEST PUSH1 0xC0 DUP2 ADD MLOAD PUSH1 0x5 DUP4 ADD SSTORE PUSH1 0x6 DUP3 ADD PUSH1 0xE0 DUP3 ADD MLOAD ISZERO ISZERO PUSH1 0xFF DUP1 NOT DUP4 SLOAD AND SWAP2 AND OR SWAP1 SSTORE PUSH2 0x100 DUP2 ADD MLOAD PUSH1 0x7 DUP4 ADD SSTORE PUSH2 0x120 DUP2 ADD MLOAD DUP1 MLOAD SWAP1 PUSH1 0x1 PUSH1 0x1 PUSH1 0x40 SHL SUB DUP3 GT PUSH2 0x67D JUMPI PUSH2 0x2B6C PUSH1 0x8 DUP6 ADD SLOAD PUSH2 0x4177 JUMP JUMPDEST PUSH1 0x1F DUP2 GT PUSH2 0x2E35 JUMPI JUMPDEST POP PUSH1 0x20 SWAP1 PUSH1 0x1F DUP4 GT PUSH1 0x1 EQ PUSH2 0x2DC1 JUMPI PUSH2 0x140 SWAP4 SWAP3 SWAP2 PUSH1 0x0 SWAP2 DUP4 PUSH2 0x2DB6 JUMPI JUMPDEST POP POP DUP2 PUSH1 0x1 SHL SWAP2 PUSH1 0x0 NOT SWAP1 PUSH1 0x3 SHL SHR NOT AND OR PUSH1 0x8 DUP5 ADD SSTORE JUMPDEST ADD MLOAD DUP1 MLOAD SWAP1 PUSH1 0x1 PUSH1 0x1 PUSH1 0x40 SHL SUB DUP3 GT PUSH2 0x67D JUMPI PUSH2 0x2BCB PUSH1 0x9 DUP5 ADD SLOAD PUSH2 0x4177 JUMP JUMPDEST PUSH1 0x1F DUP2 GT PUSH2 0x2D6B JUMPI JUMPDEST POP PUSH1 0x20 SWAP1 PUSH1 0x1F DUP4 GT PUSH1 0x1 EQ PUSH2 0x2CD4 JUMPI DUP3 PUSH2 0xD28 SWAP6 SWAP4 PUSH32 0xC30F943961AC73205547A1F345C0D6D2ADF59A8ED12B16C431801F29967CBCD4 SWAP8 SWAP6 SWAP4 PUSH1 0x9 SWAP4 PUSH1 0x0 SWAP3 PUSH2 0x2CC9 JUMPI JUMPDEST POP POP DUP2 PUSH1 0x1 SHL SWAP2 PUSH1 0x0 NOT SWAP1 PUSH1 0x3 SHL SHR NOT AND OR SWAP2 ADD SSTORE JUMPDEST CALLER PUSH1 0x0 MSTORE PUSH1 0x1 PUSH1 0x20 MSTORE PUSH2 0x2C45 DUP2 PUSH1 0x40 PUSH1 0x0 KECCAK256 PUSH2 0x4449 JUMP JUMPDEST DUP2 MLOAD DUP2 DUP2 PUSH2 0x2CAA JUMPI JUMPDEST POP POP PUSH1 0x3 PUSH1 0x0 DUP2 SWAP1 MSTORE PUSH1 0x20 MSTORE PUSH2 0x2C84 DUP2 PUSH32 0xCBC4E5FB02C3D1DE23A9F1E014B4D2EE5AEAEA9505DF5E855C9210BF472495AF PUSH2 0x4449 JUMP JUMPDEST PUSH1 0x3 PUSH1 0x40 MLOAD SWAP2 PUSH1 0x60 DUP4 MSTORE PUSH1 0x0 DUP1 MLOAD PUSH1 0x20 PUSH2 0x44BA DUP4 CODECOPY DUP2 MLOAD SWAP2 MSTORE PUSH2 0x521 PUSH1 0x60 DUP6 ADD DUP7 PUSH2 0x406C JUMP JUMPDEST PUSH2 0x2CC2 SWAP2 PUSH1 0x20 PUSH1 0x40 MLOAD DUP3 PUSH2 0x578 DUP3 SWAP5 DUP4 DUP6 DUP12 ADD PUSH2 0x4049 JUMP JUMPDEST DUP7 DUP2 PUSH2 0x2C4E JUMP JUMPDEST ADD MLOAD SWAP1 POP DUP11 DUP1 PUSH2 0x2C18 JUMP JUMPDEST SWAP1 PUSH1 0x9 DUP5 ADD PUSH1 0x0 MSTORE PUSH1 0x20 PUSH1 0x0 KECCAK256 SWAP2 PUSH1 0x0 JUMPDEST PUSH1 0x1F NOT DUP6 AND DUP2 LT PUSH2 0x2D53 JUMPI POP DUP4 PUSH32 0xC30F943961AC73205547A1F345C0D6D2ADF59A8ED12B16C431801F29967CBCD4 SWAP8 SWAP6 SWAP4 PUSH1 0x9 SWAP4 PUSH1 0x1 SWAP4 PUSH2 0xD28 SWAP10 SWAP8 PUSH1 0x1F NOT DUP2 AND LT PUSH2 0x2D3A JUMPI JUMPDEST POP POP POP DUP2 SHL ADD SWAP2 ADD SSTORE PUSH2 0x2C2E JUMP JUMPDEST ADD MLOAD PUSH1 0x0 NOT PUSH1 0xF8 DUP5 PUSH1 0x3 SHL AND SHR NOT AND SWAP1 SSTORE DUP11 DUP1 DUP1 PUSH2 0x2D2C JUMP JUMPDEST SWAP2 SWAP3 PUSH1 0x20 PUSH1 0x1 DUP2 SWAP3 DUP7 DUP6 ADD MLOAD DUP2 SSTORE ADD SWAP5 ADD SWAP3 ADD PUSH2 0x2CE5 JUMP JUMPDEST PUSH1 0x9 DUP5 ADD PUSH1 0x0 MSTORE PUSH1 0x20 PUSH1 0x0 KECCAK256 PUSH1 0x1F DUP5 ADD PUSH1 0x5 SHR DUP2 ADD SWAP2 PUSH1 0x20 DUP6 LT PUSH2 0x2DAC JUMPI JUMPDEST PUSH1 0x1F ADD PUSH1 0x5 SHR ADD SWAP1 JUMPDEST DUP2 DUP2 LT PUSH2 0x2DA0 JUMPI POP PUSH2 0x2BD4 JUMP JUMPDEST PUSH1 0x0 DUP2 SSTORE PUSH1 0x1 ADD PUSH2 0x2D93 JUMP JUMPDEST SWAP1 SWAP2 POP DUP2 SWAP1 PUSH2 0x2D8A JUMP JUMPDEST ADD MLOAD SWAP1 POP DUP10 DUP1 PUSH2 0x2B93 JUMP JUMPDEST SWAP1 PUSH1 0x8 DUP6 ADD PUSH1 0x0 MSTORE PUSH1 0x20 PUSH1 0x0 KECCAK256 SWAP2 PUSH1 0x0 JUMPDEST PUSH1 0x1F NOT DUP6 AND DUP2 LT PUSH2 0x2E1D JUMPI POP SWAP2 DUP4 SWAP2 PUSH1 0x1 SWAP4 PUSH2 0x140 SWAP7 SWAP6 PUSH1 0x1F NOT DUP2 AND LT PUSH2 0x2E04 JUMPI JUMPDEST POP POP POP DUP2 SHL ADD PUSH1 0x8 DUP5 ADD SSTORE PUSH2 0x2BAB JUMP JUMPDEST ADD MLOAD PUSH1 0x0 NOT PUSH1 0xF8 DUP5 PUSH1 0x3 SHL AND SHR NOT AND SWAP1 SSTORE DUP10 DUP1 DUP1 PUSH2 0x2DF4 JUMP JUMPDEST SWAP2 SWAP3 PUSH1 0x20 PUSH1 0x1 DUP2 SWAP3 DUP7 DUP6 ADD MLOAD DUP2 SSTORE ADD SWAP5 ADD SWAP3 ADD PUSH2 0x2DD2 JUMP JUMPDEST PUSH1 0x8 DUP6 ADD PUSH1 0x0 MSTORE PUSH1 0x20 PUSH1 0x0 KECCAK256 PUSH1 0x1F DUP5 ADD PUSH1 0x5 SHR DUP2 ADD PUSH1 0x20 DUP6 LT PUSH2 0x2E75 JUMPI JUMPDEST PUSH1 0x1F DUP4 ADD PUSH1 0x5 SHR DUP3 ADD DUP2 LT PUSH2 0x2E69 JUMPI POP POP PUSH2 0x2B75 JUMP JUMPDEST PUSH1 0x0 DUP2 SSTORE PUSH1 0x1 ADD PUSH2 0x2E53 JUMP JUMPDEST POP DUP1 PUSH2 0x2E53 JUMP JUMPDEST ADD MLOAD SWAP1 POP DUP9 DUP1 PUSH2 0x2B04 JUMP JUMPDEST SWAP3 POP PUSH1 0x4 DUP6 ADD PUSH1 0x0 MSTORE PUSH1 0x20 PUSH1 0x0 KECCAK256 SWAP1 PUSH1 0x0 SWAP4 JUMPDEST PUSH1 0x1F NOT DUP5 AND DUP6 LT PUSH2 0x2EDE JUMPI PUSH1 0x1 SWAP5 POP DUP4 PUSH1 0x1F NOT DUP2 AND LT PUSH2 0x2EC5 JUMPI JUMPDEST POP POP POP DUP2 SHL ADD PUSH1 0x4 DUP4 ADD SSTORE PUSH2 0x2B1C JUMP JUMPDEST ADD MLOAD PUSH1 0x0 NOT PUSH1 0xF8 DUP5 PUSH1 0x3 SHL AND SHR NOT AND SWAP1 SSTORE DUP9 DUP1 DUP1 PUSH2 0x2EB5 JUMP JUMPDEST DUP2 DUP2 ADD MLOAD DUP4 SSTORE PUSH1 0x20 SWAP5 DUP6 ADD SWAP5 PUSH1 0x1 SWAP1 SWAP4 ADD SWAP3 SWAP1 SWAP2 ADD SWAP1 PUSH2 0x2E9A JUMP JUMPDEST SWAP1 SWAP2 POP PUSH1 0x4 DUP6 ADD PUSH1 0x0 MSTORE PUSH1 0x20 PUSH1 0x0 KECCAK256 PUSH1 0x1F DUP5 ADD PUSH1 0x5 SHR DUP2 ADD PUSH1 0x20 DUP6 LT PUSH2 0x2F45 JUMPI JUMPDEST SWAP1 DUP5 SWAP4 SWAP3 SWAP2 JUMPDEST PUSH1 0x1F DUP4 ADD PUSH1 0x5 SHR DUP3 ADD DUP2 LT PUSH2 0x2F36 JUMPI POP POP PUSH2 0x2AED JUMP JUMPDEST PUSH1 0x0 DUP2 SSTORE DUP6 SWAP5 POP PUSH1 0x1 ADD PUSH2 0x2F20 JUMP JUMPDEST POP DUP1 PUSH2 0x2F1A JUMP JUMPDEST ADD MLOAD SWAP1 POP DUP9 DUP1 PUSH2 0x2AA7 JUMP JUMPDEST SWAP3 POP PUSH1 0x3 DUP6 ADD PUSH1 0x0 MSTORE PUSH1 0x20 PUSH1 0x0 KECCAK256 SWAP1 PUSH1 0x0 SWAP4 JUMPDEST PUSH1 0x1F NOT DUP5 AND DUP6 LT PUSH2 0x2FAE JUMPI PUSH1 0x1 SWAP5 POP DUP4 PUSH1 0x1F NOT DUP2 AND LT PUSH2 0x2F95 JUMPI JUMPDEST POP POP POP DUP2 SHL ADD PUSH1 0x3 DUP4 ADD SSTORE PUSH2 0x2ABF JUMP JUMPDEST ADD MLOAD PUSH1 0x0 NOT PUSH1 0xF8 DUP5 PUSH1 0x3 SHL AND SHR NOT AND SWAP1 SSTORE DUP9 DUP1 DUP1 PUSH2 0x2F85 JUMP JUMPDEST DUP2 DUP2 ADD MLOAD DUP4 SSTORE PUSH1 0x20 SWAP5 DUP6 ADD SWAP5 PUSH1 0x1 SWAP1 SWAP4 ADD SWAP3 SWAP1 SWAP2 ADD SWAP1 PUSH2 0x2F6A JUMP JUMPDEST SWAP1 SWAP2 POP PUSH1 0x3 DUP6 ADD PUSH1 0x0 MSTORE PUSH1 0x20 PUSH1 0x0 KECCAK256 PUSH1 0x1F DUP5 ADD PUSH1 0x5 SHR DUP2 ADD PUSH1 0x20 DUP6 LT PUSH2 0x3015 JUMPI JUMPDEST SWAP1 DUP5 SWAP4 SWAP3 SWAP2 JUMPDEST PUSH1 0x1F DUP4 ADD PUSH1 0x5 SHR DUP3 ADD DUP2 LT PUSH2 0x3006 JUMPI POP POP PUSH2 0x2A90 JUMP JUMPDEST PUSH1 0x0 DUP2 SSTORE DUP6 SWAP5 POP PUSH1 0x1 ADD PUSH2 0x2FF0 JUMP JUMPDEST POP DUP1 PUSH2 0x2FEA JUMP JUMPDEST CALLVALUE PUSH2 0x177 JUMPI PUSH1 0x60 CALLDATASIZE PUSH1 0x3 NOT ADD SLT PUSH2 0x177 JUMPI PUSH2 0x3035 PUSH2 0x42CA JUMP JUMPDEST PUSH1 0x24 CALLDATALOAD PUSH1 0x1 PUSH1 0x1 PUSH1 0x40 SHL SUB DUP2 GT PUSH2 0x177 JUMPI PUSH2 0x3054 SWAP1 CALLDATASIZE SWAP1 PUSH1 0x4 ADD PUSH2 0x42E0 JUMP JUMPDEST PUSH1 0x40 MLOAD PUSH2 0x3060 DUP2 PUSH2 0x41CD JUMP JUMPDEST PUSH1 0x16 DUP2 MSTORE PUSH22 0x15995C9A599A58D85D1A5BDB881C995C5D595CDD1959 PUSH1 0x52 SHL PUSH1 0x20 DUP3 ADD MSTORE PUSH1 0x40 MLOAD SWAP1 PUSH2 0x3090 DUP3 PUSH2 0x41E8 JUMP JUMPDEST PUSH1 0x0 DUP3 MSTORE PUSH1 0x40 MLOAD PUSH2 0x30A0 DUP2 PUSH2 0x41E8 JUMP JUMPDEST PUSH1 0x0 DUP2 MSTORE PUSH1 0x4 SLOAD SWAP3 PUSH2 0x30B1 DUP5 PUSH2 0x442E JUMP JUMPDEST PUSH1 0x4 SSTORE PUSH1 0x40 MLOAD SWAP3 PUSH2 0x30C1 DUP5 PUSH2 0x41B1 JUMP JUMPDEST DUP5 DUP5 MSTORE PUSH1 0x4 PUSH1 0x20 DUP6 ADD MSTORE CALLER PUSH1 0x40 DUP6 ADD MSTORE PUSH1 0x0 PUSH1 0x60 DUP6 ADD MSTORE DUP6 PUSH1 0x80 DUP6 ADD MSTORE PUSH1 0xA0 DUP5 ADD MSTORE PUSH1 0x44 CALLDATALOAD PUSH1 0xC0 DUP5 ADD MSTORE PUSH1 0x1 PUSH1 0xE0 DUP5 ADD MSTORE TIMESTAMP PUSH2 0x100 DUP5 ADD MSTORE PUSH2 0x120 DUP4 ADD MSTORE PUSH2 0x140 DUP3 ADD MSTORE PUSH1 0x0 SLOAD PUSH1 0x1 PUSH1 0x40 SHL DUP2 LT ISZERO PUSH2 0x67D JUMPI DUP1 PUSH1 0x1 PUSH2 0x3124 SWAP3 ADD PUSH1 0x0 SSTORE PUSH2 0x4129 JUMP JUMPDEST SWAP2 SWAP1 SWAP2 PUSH2 0x90D JUMPI DUP1 MLOAD DUP3 SSTORE PUSH1 0x20 DUP2 ADD MLOAD PUSH1 0xB DUP2 LT ISZERO PUSH2 0x8F7 JUMPI PUSH1 0x1 DUP4 ADD SLOAD PUSH1 0xFF PUSH2 0x100 PUSH1 0x1 PUSH1 0xA8 SHL SUB PUSH1 0x40 DUP6 ADD MLOAD PUSH1 0x8 SHL AND SWAP3 AND SWAP1 PUSH1 0x1 PUSH1 0x1 PUSH1 0x58 SHL SUB PUSH1 0xA8 SHL AND OR OR PUSH1 0x1 DUP4 ADD SSTORE PUSH1 0x2 DUP3 ADD PUSH1 0x1 DUP1 PUSH1 0xA0 SHL SUB PUSH1 0x60 DUP4 ADD MLOAD AND PUSH1 0x1 PUSH1 0x1 PUSH1 0x60 SHL SUB PUSH1 0xA0 SHL DUP3 SLOAD AND OR SWAP1 SSTORE PUSH1 0x80 DUP2 ADD MLOAD DUP1 MLOAD SWAP1 PUSH1 0x1 PUSH1 0x1 PUSH1 0x40 SHL SUB DUP3 GT PUSH2 0x67D JUMPI DUP2 SWAP1 PUSH2 0x31B3 PUSH1 0x3 DUP7 ADD SLOAD PUSH2 0x4177 JUMP JUMPDEST PUSH1 0x1F DUP2 GT PUSH2 0x36F0 JUMPI JUMPDEST POP PUSH1 0x20 SWAP1 PUSH1 0x1F DUP4 GT PUSH1 0x1 EQ PUSH2 0x367E JUMPI PUSH1 0x0 SWAP3 PUSH2 0x3673 JUMPI JUMPDEST POP POP DUP2 PUSH1 0x1 SHL SWAP2 PUSH1 0x0 NOT SWAP1 PUSH1 0x3 SHL SHR NOT AND OR PUSH1 0x3 DUP4 ADD SSTORE JUMPDEST PUSH1 0xA0 DUP2 ADD MLOAD DUP1 MLOAD SWAP1 PUSH1 0x1 PUSH1 0x1 PUSH1 0x40 SHL SUB DUP3 GT PUSH2 0x67D JUMPI DUP2 SWAP1 PUSH2 0x3210 PUSH1 0x4 DUP7 ADD SLOAD PUSH2 0x4177 JUMP JUMPDEST PUSH1 0x1F DUP2 GT PUSH2 0x3620 JUMPI JUMPDEST POP PUSH1 0x20 SWAP1 PUSH1 0x1F DUP4 GT PUSH1 0x1 EQ PUSH2 0x35AE JUMPI PUSH1 0x0 SWAP3 PUSH2 0x35A3 JUMPI JUMPDEST POP POP DUP2 PUSH1 0x1 SHL SWAP2 PUSH1 0x0 NOT SWAP1 PUSH1 0x3 SHL SHR NOT AND OR PUSH1 0x4 DUP4 ADD SSTORE JUMPDEST PUSH1 0xC0 DUP2 ADD MLOAD PUSH1 0x5 DUP4 ADD SSTORE PUSH1 0x6 DUP3 ADD PUSH1 0xE0 DUP3 ADD MLOAD ISZERO ISZERO PUSH1 0xFF DUP1 NOT DUP4 SLOAD AND SWAP2 AND OR SWAP1 SSTORE PUSH2 0x100 DUP2 ADD MLOAD PUSH1 0x7 DUP4 ADD SSTORE PUSH2 0x120 DUP2 ADD MLOAD DUP1 MLOAD SWAP1 PUSH1 0x1 PUSH1 0x1 PUSH1 0x40 SHL SUB DUP3 GT PUSH2 0x67D JUMPI PUSH2 0x3298 PUSH1 0x8 DUP6 ADD SLOAD PUSH2 0x4177 JUMP JUMPDEST PUSH1 0x1F DUP2 GT PUSH2 0x355C JUMPI JUMPDEST POP PUSH1 0x20 SWAP1 PUSH1 0x1F DUP4 GT PUSH1 0x1 EQ PUSH2 0x34E8 JUMPI PUSH2 0x140 SWAP4 SWAP3 SWAP2 PUSH1 0x0 SWAP2 DUP4 PUSH2 0x34DD JUMPI JUMPDEST POP POP DUP2 PUSH1 0x1 SHL SWAP2 PUSH1 0x0 NOT SWAP1 PUSH1 0x3 SHL SHR NOT AND OR PUSH1 0x8 DUP5 ADD SSTORE JUMPDEST ADD MLOAD DUP1 MLOAD SWAP1 PUSH1 0x1 PUSH1 0x1 PUSH1 0x40 SHL SUB DUP3 GT PUSH2 0x67D JUMPI PUSH2 0x32F7 PUSH1 0x9 DUP5 ADD SLOAD PUSH2 0x4177 JUMP JUMPDEST PUSH1 0x1F DUP2 GT PUSH2 0x3492 JUMPI JUMPDEST POP PUSH1 0x20 SWAP1 PUSH1 0x1F DUP4 GT PUSH1 0x1 EQ PUSH2 0x3422 JUMPI PUSH1 0x9 SWAP3 SWAP2 PUSH1 0x0 SWAP2 DUP4 PUSH2 0x3417 JUMPI JUMPDEST POP POP DUP2 PUSH1 0x1 SHL SWAP2 PUSH1 0x0 NOT SWAP1 PUSH1 0x3 SHL SHR NOT AND OR SWAP2 ADD SSTORE JUMPDEST CALLER PUSH1 0x0 MSTORE PUSH1 0x1 PUSH1 0x20 MSTORE PUSH2 0x3349 DUP2 PUSH1 0x40 PUSH1 0x0 KECCAK256 PUSH2 0x4449 JUMP JUMPDEST DUP2 MLOAD DUP2 DUP2 PUSH2 0x33F8 JUMPI JUMPDEST POP POP PUSH1 0x4 PUSH1 0x0 MSTORE PUSH1 0x3 PUSH1 0x20 MSTORE PUSH2 0x3388 DUP2 PUSH32 0x83EC6A1F0257B830B5E016457C9CF1435391BF56CC98F369A58A54FE93772465 PUSH2 0x4449 JUMP JUMPDEST PUSH1 0x4 PUSH1 0x40 MLOAD SWAP2 PUSH1 0x60 DUP4 MSTORE PUSH1 0x0 DUP1 MLOAD PUSH1 0x20 PUSH2 0x44BA DUP4 CODECOPY DUP2 MLOAD SWAP2 MSTORE PUSH2 0x33AE PUSH1 0x60 DUP6 ADD DUP7 PUSH2 0x406C JUMP JUMPDEST SWAP4 PUSH1 0x1 PUSH1 0x20 DUP3 ADD MSTORE TIMESTAMP PUSH1 0x40 DUP3 ADD MSTORE DUP1 CALLER SWAP6 SUB SWAP1 LOG4 PUSH32 0x605AA34692AF80242158F86F6A3DBB6FD50CCD5A26C5CC8D0C157932C6843CF5 PUSH2 0x1591 PUSH1 0x40 MLOAD SWAP3 PUSH1 0x40 DUP5 MSTORE PUSH1 0x40 DUP5 ADD SWAP1 PUSH2 0x406C JUMP JUMPDEST PUSH2 0x3410 SWAP2 PUSH1 0x20 PUSH1 0x40 MLOAD DUP3 PUSH2 0x578 DUP3 SWAP5 DUP4 DUP6 DUP12 ADD PUSH2 0x4049 JUMP JUMPDEST DUP4 DUP2 PUSH2 0x3352 JUMP JUMPDEST ADD MLOAD SWAP1 POP DUP8 DUP1 PUSH2 0x331C JUMP JUMPDEST SWAP1 PUSH1 0x9 DUP5 ADD PUSH1 0x0 MSTORE PUSH1 0x20 PUSH1 0x0 KECCAK256 SWAP2 PUSH1 0x0 JUMPDEST PUSH1 0x1F NOT DUP6 AND DUP2 LT PUSH2 0x347A JUMPI POP SWAP2 DUP4 SWAP2 PUSH1 0x1 SWAP4 PUSH1 0x9 SWAP6 PUSH1 0x1F NOT DUP2 AND LT PUSH2 0x3461 JUMPI JUMPDEST POP POP POP DUP2 SHL ADD SWAP2 ADD SSTORE PUSH2 0x3332 JUMP JUMPDEST ADD MLOAD PUSH1 0x0 NOT PUSH1 0xF8 DUP5 PUSH1 0x3 SHL AND SHR NOT AND SWAP1 SSTORE DUP8 DUP1 DUP1 PUSH2 0x3453 JUMP JUMPDEST SWAP2 SWAP3 PUSH1 0x20 PUSH1 0x1 DUP2 SWAP3 DUP7 DUP6 ADD MLOAD DUP2 SSTORE ADD SWAP5 ADD SWAP3 ADD PUSH2 0x3433 JUMP JUMPDEST PUSH1 0x9 DUP5 ADD PUSH1 0x0 MSTORE PUSH1 0x20 PUSH1 0x0 KECCAK256 PUSH1 0x1F DUP5 ADD PUSH1 0x5 SHR DUP2 ADD SWAP2 PUSH1 0x20 DUP6 LT PUSH2 0x34D3 JUMPI JUMPDEST PUSH1 0x1F ADD PUSH1 0x5 SHR ADD SWAP1 JUMPDEST DUP2 DUP2 LT PUSH2 0x34C7 JUMPI POP PUSH2 0x3300 JUMP JUMPDEST PUSH1 0x0 DUP2 SSTORE PUSH1 0x1 ADD PUSH2 0x34BA JUMP JUMPDEST SWAP1 SWAP2 POP DUP2 SWAP1 PUSH2 0x34B1 JUMP JUMPDEST ADD MLOAD SWAP1 POP DUP9 DUP1 PUSH2 0x32BF JUMP JUMPDEST SWAP1 PUSH1 0x8 DUP6 ADD PUSH1 0x0 MSTORE PUSH1 0x20 PUSH1 0x0 KECCAK256 SWAP2 PUSH1 0x0 JUMPDEST PUSH1 0x1F NOT DUP6 AND DUP2 LT PUSH2 0x3544 JUMPI POP SWAP2 DUP4 SWAP2 PUSH1 0x1 SWAP4 PUSH2 0x140 SWAP7 SWAP6 PUSH1 0x1F NOT DUP2 AND LT PUSH2 0x352B JUMPI JUMPDEST POP POP POP DUP2 SHL ADD PUSH1 0x8 DUP5 ADD SSTORE PUSH2 0x32D7 JUMP JUMPDEST ADD MLOAD PUSH1 0x0 NOT PUSH1 0xF8 DUP5 PUSH1 0x3 SHL AND SHR NOT AND SWAP1 SSTORE DUP9 DUP1 DUP1 PUSH2 0x351B JUMP JUMPDEST SWAP2 SWAP3 PUSH1 0x20 PUSH1 0x1 DUP2 SWAP3 DUP7 DUP6 ADD MLOAD DUP2 SSTORE ADD SWAP5 ADD SWAP3 ADD PUSH2 0x34F9 JUMP JUMPDEST PUSH1 0x8 DUP6 ADD PUSH1 0x0 MSTORE PUSH1 0x20 PUSH1 0x0 KECCAK256 PUSH1 0x1F DUP5 ADD PUSH1 0x5 SHR DUP2 ADD PUSH1 0x20 DUP6 LT PUSH2 0x359C JUMPI JUMPDEST PUSH1 0x1F DUP4 ADD PUSH1 0x5 SHR DUP3 ADD DUP2 LT PUSH2 0x3590 JUMPI POP POP PUSH2 0x32A1 JUMP JUMPDEST PUSH1 0x0 DUP2 SSTORE PUSH1 0x1 ADD PUSH2 0x357A JUMP JUMPDEST POP DUP1 PUSH2 0x357A JUMP JUMPDEST ADD MLOAD SWAP1 POP DUP8 DUP1 PUSH2 0x3230 JUMP JUMPDEST SWAP3 POP PUSH1 0x4 DUP6 ADD PUSH1 0x0 MSTORE PUSH1 0x20 PUSH1 0x0 KECCAK256 SWAP1 PUSH1 0x0 SWAP4 JUMPDEST PUSH1 0x1F NOT DUP5 AND DUP6 LT PUSH2 0x3605 JUMPI PUSH1 0x1 SWAP5 POP DUP4 PUSH1 0x1F NOT DUP2 AND LT PUSH2 0x35EC JUMPI JUMPDEST POP POP POP DUP2 SHL ADD PUSH1 0x4 DUP4 ADD SSTORE PUSH2 0x3248 JUMP JUMPDEST ADD MLOAD PUSH1 0x0 NOT PUSH1 0xF8 DUP5 PUSH1 0x3 SHL AND SHR NOT AND SWAP1 SSTORE DUP8 DUP1 DUP1 PUSH2 0x35DC JUMP JUMPDEST DUP2 DUP2 ADD MLOAD DUP4 SSTORE PUSH1 0x20 SWAP5 DUP6 ADD SWAP5 PUSH1 0x1 SWAP1 SWAP4 ADD SWAP3 SWAP1 SWAP2 ADD SWAP1 PUSH2 0x35C1 JUMP JUMPDEST SWAP1 SWAP2 POP PUSH1 0x4 DUP6 ADD PUSH1 0x0 MSTORE PUSH1 0x20 PUSH1 0x0 KECCAK256 PUSH1 0x1F DUP5 ADD PUSH1 0x5 SHR DUP2 ADD PUSH1 0x20 DUP6 LT PUSH2 0x366C JUMPI JUMPDEST SWAP1 DUP5 SWAP4 SWAP3 SWAP2 JUMPDEST PUSH1 0x1F DUP4 ADD PUSH1 0x5 SHR DUP3 ADD DUP2 LT PUSH2 0x365D JUMPI POP POP PUSH2 0x3219 JUMP JUMPDEST PUSH1 0x0 DUP2 SSTORE DUP6 SWAP5 POP PUSH1 0x1 ADD PUSH2 0x3647 JUMP JUMPDEST POP DUP1 PUSH2 0x3641 JUMP JUMPDEST ADD MLOAD SWAP1 POP DUP8 DUP1 PUSH2 0x31D3 JUMP JUMPDEST SWAP3 POP PUSH1 0x3 DUP6 ADD PUSH1 0x0 MSTORE PUSH1 0x20 PUSH1 0x0 KECCAK256 SWAP1 PUSH1 0x0 SWAP4 JUMPDEST PUSH1 0x1F NOT DUP5 AND DUP6 LT PUSH2 0x36D5 JUMPI PUSH1 0x1 SWAP5 POP DUP4 PUSH1 0x1F NOT DUP2 AND LT PUSH2 0x36BC JUMPI JUMPDEST POP POP POP DUP2 SHL ADD PUSH1 0x3 DUP4 ADD SSTORE PUSH2 0x31EB JUMP JUMPDEST ADD MLOAD PUSH1 0x0 NOT PUSH1 0xF8 DUP5 PUSH1 0x3 SHL AND SHR NOT AND SWAP1 SSTORE DUP8 DUP1 DUP1 PUSH2 0x36AC JUMP JUMPDEST DUP2 DUP2 ADD MLOAD DUP4 SSTORE PUSH1 0x20 SWAP5 DUP6 ADD SWAP5 PUSH1 0x1 SWAP1 SWAP4 ADD SWAP3 SWAP1 SWAP2 ADD SWAP1 PUSH2 0x3691 JUMP JUMPDEST SWAP1 SWAP2 POP PUSH1 0x3 DUP6 ADD PUSH1 0x0 MSTORE PUSH1 0x20 PUSH1 0x0 KECCAK256 PUSH1 0x1F DUP5 ADD PUSH1 0x5 SHR DUP2 ADD PUSH1 0x20 DUP6 LT PUSH2 0x373C JUMPI JUMPDEST SWAP1 DUP5 SWAP4 SWAP3 SWAP2 JUMPDEST PUSH1 0x1F DUP4 ADD PUSH1 0x5 SHR DUP3 ADD DUP2 LT PUSH2 0x372D JUMPI POP POP PUSH2 0x31BC JUMP JUMPDEST PUSH1 0x0 DUP2 SSTORE DUP6 SWAP5 POP PUSH1 0x1 ADD PUSH2 0x3717 JUMP JUMPDEST POP DUP1 PUSH2 0x3711 JUMP JUMPDEST CALLVALUE PUSH2 0x177 JUMPI PUSH2 0x100 CALLDATASIZE PUSH1 0x3 NOT ADD SLT PUSH2 0x177 JUMPI PUSH1 0xB PUSH1 0x4 CALLDATALOAD LT ISZERO PUSH2 0x177 JUMPI PUSH1 0x24 CALLDATALOAD PUSH1 0x1 PUSH1 0x1 PUSH1 0xA0 SHL SUB DUP2 AND DUP2 SUB PUSH2 0x177 JUMPI PUSH1 0x44 CALLDATALOAD PUSH1 0x1 PUSH1 0x1 PUSH1 0x40 SHL SUB DUP2 GT PUSH2 0x177 JUMPI PUSH2 0x3792 SWAP1 CALLDATASIZE SWAP1 PUSH1 0x4 ADD PUSH2 0x42E0 JUMP JUMPDEST PUSH1 0x64 CALLDATALOAD PUSH1 0x1 PUSH1 0x1 PUSH1 0x40 SHL SUB DUP2 GT PUSH2 0x177 JUMPI PUSH2 0x37B1 SWAP1 CALLDATASIZE SWAP1 PUSH1 0x4 ADD PUSH2 0x42E0 JUMP JUMPDEST SWAP1 PUSH1 0xA4 CALLDATALOAD ISZERO ISZERO PUSH1 0xA4 CALLDATALOAD SUB PUSH2 0x177 JUMPI PUSH1 0xC4 CALLDATALOAD PUSH1 0x1 PUSH1 0x1 PUSH1 0x40 SHL SUB DUP2 GT PUSH2 0x177 JUMPI PUSH2 0x37DE SWAP1 CALLDATASIZE SWAP1 PUSH1 0x4 ADD PUSH2 0x42E0 JUMP JUMPDEST PUSH1 0xE4 CALLDATALOAD PUSH1 0x1 PUSH1 0x1 PUSH1 0x40 SHL SUB DUP2 GT PUSH2 0x177 JUMPI PUSH2 0x37FD SWAP1 CALLDATASIZE SWAP1 PUSH1 0x4 ADD PUSH2 0x42E0 JUMP JUMPDEST SWAP1 PUSH1 0x4 SLOAD SWAP4 PUSH2 0x380B DUP6 PUSH2 0x442E JUMP JUMPDEST PUSH1 0x4 SSTORE PUSH1 0x40 MLOAD SWAP6 PUSH2 0x381B DUP8 PUSH2 0x41B1 JUMP JUMPDEST DUP6 DUP8 MSTORE PUSH2 0x382D PUSH1 0x4 CALLDATALOAD PUSH1 0x20 DUP10 ADD PUSH2 0x443D JUMP JUMPDEST CALLER PUSH1 0x40 DUP9 ADD MSTORE PUSH1 0x1 PUSH1 0x1 PUSH1 0xA0 SHL SUB AND PUSH1 0x60 DUP8 ADD MSTORE PUSH1 0x80 DUP7 ADD DUP5 SWAP1 MSTORE PUSH1 0xA0 DUP7 ADD MSTORE PUSH1 0x84 CALLDATALOAD PUSH1 0xC0 DUP7 ADD MSTORE PUSH1 0xA4 CALLDATALOAD ISZERO ISZERO PUSH1 0xE0 DUP7 ADD MSTORE TIMESTAMP PUSH2 0x100 DUP7 ADD MSTORE PUSH2 0x120 DUP6 ADD MSTORE PUSH2 0x140 DUP5 ADD MSTORE PUSH1 0x0 SLOAD PUSH1 0x1 PUSH1 0x40 SHL DUP2 LT ISZERO PUSH2 0x67D JUMPI DUP1 PUSH1 0x1 PUSH2 0x3891 SWAP3 ADD PUSH1 0x0 SSTORE PUSH2 0x4129 JUMP JUMPDEST SWAP4 SWAP1 SWAP4 PUSH2 0x90D JUMPI DUP1 MLOAD DUP5 SSTORE PUSH1 0x1 DUP5 ADD PUSH1 0x20 DUP3 ADD MLOAD PUSH1 0xB DUP2 LT ISZERO PUSH2 0x8F7 JUMPI DUP2 SLOAD PUSH1 0xFF PUSH2 0x100 PUSH1 0x1 PUSH1 0xA8 SHL SUB PUSH1 0x40 DUP7 ADD MLOAD PUSH1 0x8 SHL AND SWAP3 AND SWAP1 PUSH1 0x1 PUSH1 0x1 PUSH1 0x58 SHL SUB PUSH1 0xA8 SHL AND OR OR SWAP1 SSTORE PUSH1 0x2 DUP5 ADD PUSH1 0x1 DUP1 PUSH1 0xA0 SHL SUB PUSH1 0x60 DUP4 ADD MLOAD AND PUSH1 0x1 PUSH1 0x1 PUSH1 0x60 SHL SUB PUSH1 0xA0 SHL DUP3 SLOAD AND OR SWAP1 SSTORE PUSH1 0x80 DUP2 ADD MLOAD DUP1 MLOAD SWAP1 PUSH1 0x1 PUSH1 0x1 PUSH1 0x40 SHL SUB DUP3 GT PUSH2 0x67D JUMPI DUP2 SWAP1 PUSH2 0x391E PUSH1 0x3 DUP9 ADD SLOAD PUSH2 0x4177 JUMP JUMPDEST PUSH1 0x1F DUP2 GT PUSH2 0x3DFA JUMPI JUMPDEST POP PUSH1 0x20 SWAP1 PUSH1 0x1F DUP4 GT PUSH1 0x1 EQ PUSH2 0x3D88 JUMPI PUSH1 0x0 SWAP3 PUSH2 0x3D7D JUMPI JUMPDEST POP POP DUP2 PUSH1 0x1 SHL SWAP2 PUSH1 0x0 NOT SWAP1 PUSH1 0x3 SHL SHR NOT AND OR PUSH1 0x3 DUP6 ADD SSTORE JUMPDEST PUSH1 0xA0 DUP2 ADD MLOAD DUP1 MLOAD SWAP1 PUSH1 0x1 PUSH1 0x1 PUSH1 0x40 SHL SUB DUP3 GT PUSH2 0x67D JUMPI DUP2 SWAP1 PUSH2 0x397B PUSH1 0x4 DUP9 ADD SLOAD PUSH2 0x4177 JUMP JUMPDEST PUSH1 0x1F DUP2 GT PUSH2 0x3D2A JUMPI JUMPDEST POP PUSH1 0x20 SWAP1 PUSH1 0x1F DUP4 GT PUSH1 0x1 EQ PUSH2 0x3CB8 JUMPI PUSH1 0x0 SWAP3 PUSH2 0x3CAD JUMPI JUMPDEST POP POP DUP2 PUSH1 0x1 SHL SWAP2 PUSH1 0x0 NOT SWAP1 PUSH1 0x3 SHL SHR NOT AND OR PUSH1 0x4 DUP6 ADD SSTORE JUMPDEST PUSH1 0xC0 DUP2 ADD MLOAD PUSH1 0x5 DUP6 ADD SSTORE PUSH1 0x6 DUP5 ADD PUSH1 0xE0 DUP3 ADD MLOAD ISZERO ISZERO PUSH1 0xFF DUP1 NOT DUP4 SLOAD AND SWAP2 AND OR SWAP1 SSTORE PUSH2 0x100 DUP2 ADD MLOAD PUSH1 0x7 DUP6 ADD SSTORE PUSH2 0x120 DUP2 ADD MLOAD DUP1 MLOAD SWAP1 PUSH1 0x1 PUSH1 0x1 PUSH1 0x40 SHL SUB DUP3 GT PUSH2 0x67D JUMPI PUSH2 0x3A03 PUSH1 0x8 DUP8 ADD SLOAD PUSH2 0x4177 JUMP JUMPDEST PUSH1 0x1F DUP2 GT PUSH2 0x3C66 JUMPI JUMPDEST POP PUSH1 0x20 SWAP1 PUSH1 0x1F DUP4 GT PUSH1 0x1 EQ PUSH2 0x3BF4 JUMPI PUSH2 0x140 SWAP4 SWAP3 SWAP2 PUSH1 0x0 SWAP2 DUP4 PUSH2 0x3BE9 JUMPI JUMPDEST POP POP DUP2 PUSH1 0x1 SHL SWAP2 PUSH1 0x0 NOT SWAP1 PUSH1 0x3 SHL SHR NOT AND OR PUSH1 0x8 DUP7 ADD SSTORE JUMPDEST ADD MLOAD SWAP3 DUP4 MLOAD PUSH1 0x1 PUSH1 0x1 PUSH1 0x40 SHL SUB DUP2 GT PUSH2 0x67D JUMPI PUSH2 0x3A62 PUSH1 0x9 DUP4 ADD SLOAD PUSH2 0x4177 JUMP JUMPDEST SWAP5 PUSH1 0x1F DUP7 GT PUSH2 0x3B9E JUMPI JUMPDEST PUSH1 0x20 SWAP6 POP DUP6 SWAP1 PUSH1 0x1F DUP4 GT PUSH1 0x1 EQ PUSH2 0x3B32 JUMPI PUSH1 0x9 SWAP3 SWAP2 PUSH1 0x0 SWAP2 DUP4 PUSH2 0x3B27 JUMPI JUMPDEST POP POP DUP2 PUSH1 0x1 SHL SWAP2 PUSH1 0x0 NOT SWAP1 PUSH1 0x3 SHL SHR NOT AND OR SWAP2 ADD SSTORE JUMPDEST CALLER PUSH1 0x0 MSTORE PUSH1 0x1 DUP4 MSTORE PUSH2 0x3AB6 DUP3 PUSH1 0x40 PUSH1 0x0 KECCAK256 PUSH2 0x4449 JUMP JUMPDEST DUP1 MLOAD DUP3 DUP2 PUSH2 0x3B09 JUMPI JUMPDEST PUSH2 0x3AD4 SWAP2 POP PUSH2 0x3ACF PUSH1 0x4 CALLDATALOAD PUSH2 0x4383 JUMP JUMPDEST PUSH2 0x4449 JUMP JUMPDEST PUSH1 0x40 MLOAD SWAP1 DUP3 PUSH1 0x0 DUP1 MLOAD PUSH1 0x20 PUSH2 0x44BA DUP4 CODECOPY DUP2 MLOAD SWAP2 MSTORE CALLER SWAP4 DUP1 PUSH2 0x3AFE PUSH1 0x4 CALLDATALOAD SWAP6 TIMESTAMP SWAP1 PUSH1 0xA4 CALLDATALOAD SWAP1 DUP5 PUSH2 0x447E JUMP JUMPDEST SUB SWAP1 LOG4 PUSH1 0x40 MLOAD SWAP1 DUP2 MSTORE RETURN JUMPDEST PUSH2 0x3B20 SWAP2 DUP6 PUSH1 0x40 MLOAD DUP3 PUSH2 0x578 DUP3 SWAP5 DUP4 DUP6 DUP11 ADD PUSH2 0x4049 JUMP JUMPDEST DUP4 DUP3 PUSH2 0x3ABF JUMP JUMPDEST ADD MLOAD SWAP1 POP DUP8 DUP1 PUSH2 0x3A8A JUMP JUMPDEST SWAP1 PUSH1 0x1F NOT DUP4 AND SWAP2 PUSH1 0x9 DUP6 ADD PUSH1 0x0 MSTORE DUP8 PUSH1 0x0 KECCAK256 SWAP3 PUSH1 0x0 JUMPDEST DUP2 DUP2 LT PUSH2 0x3B87 JUMPI POP SWAP2 PUSH1 0x1 SWAP4 SWAP2 DUP6 PUSH1 0x9 SWAP7 SWAP5 LT PUSH2 0x3B6E JUMPI JUMPDEST POP POP POP DUP2 SHL ADD SWAP2 ADD SSTORE PUSH2 0x3AA0 JUMP JUMPDEST ADD MLOAD PUSH1 0x0 NOT PUSH1 0xF8 DUP5 PUSH1 0x3 SHL AND SHR NOT AND SWAP1 SSTORE DUP8 DUP1 DUP1 PUSH2 0x3B60 JUMP JUMPDEST SWAP3 SWAP4 DUP10 PUSH1 0x1 DUP2 SWAP3 DUP8 DUP7 ADD MLOAD DUP2 SSTORE ADD SWAP6 ADD SWAP4 ADD PUSH2 0x3B48 JUMP JUMPDEST PUSH1 0x9 DUP4 ADD PUSH1 0x0 MSTORE PUSH1 0x20 PUSH1 0x0 KECCAK256 PUSH1 0x1F DUP4 ADD PUSH1 0x5 SHR DUP2 ADD SWAP7 PUSH1 0x20 DUP5 LT PUSH2 0x3BDF JUMPI JUMPDEST PUSH1 0x1F ADD PUSH1 0x5 SHR ADD SWAP6 JUMPDEST DUP7 DUP2 LT PUSH2 0x3BD3 JUMPI POP PUSH2 0x3A6C JUMP JUMPDEST PUSH1 0x0 DUP2 SSTORE PUSH1 0x1 ADD PUSH2 0x3BC6 JUMP JUMPDEST SWAP1 SWAP7 POP DUP7 SWAP1 PUSH2 0x3BBD JUMP JUMPDEST ADD MLOAD SWAP1 POP DUP8 DUP1 PUSH2 0x3A2A JUMP JUMPDEST SWAP1 PUSH1 0x1F NOT DUP4 AND SWAP2 PUSH1 0x8 DUP9 ADD PUSH1 0x0 MSTORE PUSH1 0x20 PUSH1 0x0 KECCAK256 SWAP3 PUSH1 0x0 JUMPDEST DUP2 DUP2 LT PUSH2 0x3C4E JUMPI POP SWAP2 PUSH1 0x1 SWAP4 SWAP2 DUP6 PUSH2 0x140 SWAP8 SWAP7 SWAP5 LT PUSH2 0x3C35 JUMPI JUMPDEST POP POP POP DUP2 SHL ADD PUSH1 0x8 DUP7 ADD SSTORE PUSH2 0x3A42 JUMP JUMPDEST ADD MLOAD PUSH1 0x0 NOT PUSH1 0xF8 DUP5 PUSH1 0x3 SHL AND SHR NOT AND SWAP1 SSTORE DUP8 DUP1 DUP1 PUSH2 0x3C25 JUMP JUMPDEST SWAP3 SWAP4 PUSH1 0x20 PUSH1 0x1 DUP2 SWAP3 DUP8 DUP7 ADD MLOAD DUP2 SSTORE ADD SWAP6 ADD SWAP4 ADD PUSH2 0x3C0B JUMP JUMPDEST PUSH1 0x8 DUP8 ADD PUSH1 0x0 MSTORE PUSH1 0x20 PUSH1 0x0 KECCAK256 PUSH1 0x1F DUP5 ADD PUSH1 0x5 SHR DUP2 ADD PUSH1 0x20 DUP6 LT PUSH2 0x3CA6 JUMPI JUMPDEST PUSH1 0x1F DUP4 ADD PUSH1 0x5 SHR DUP3 ADD DUP2 LT PUSH2 0x3C9A JUMPI POP POP PUSH2 0x3A0C JUMP JUMPDEST PUSH1 0x0 DUP2 SSTORE PUSH1 0x1 ADD PUSH2 0x3C84 JUMP JUMPDEST POP DUP1 PUSH2 0x3C84 JUMP JUMPDEST ADD MLOAD SWAP1 POP DUP7 DUP1 PUSH2 0x399B JUMP JUMPDEST SWAP3 POP PUSH1 0x4 DUP8 ADD PUSH1 0x0 MSTORE PUSH1 0x20 PUSH1 0x0 KECCAK256 SWAP1 PUSH1 0x0 SWAP4 JUMPDEST PUSH1 0x1F NOT DUP5 AND DUP6 LT PUSH2 0x3D0F JUMPI PUSH1 0x1 SWAP5 POP DUP4 PUSH1 0x1F NOT DUP2 AND LT PUSH2 0x3CF6 JUMPI JUMPDEST POP POP POP DUP2 SHL ADD PUSH1 0x4 DUP6 ADD SSTORE PUSH2 0x39B3 JUMP JUMPDEST ADD MLOAD PUSH1 0x0 NOT PUSH1 0xF8 DUP5 PUSH1 0x3 SHL AND SHR NOT AND SWAP1 SSTORE DUP7 DUP1 DUP1 PUSH2 0x3CE6 JUMP JUMPDEST DUP2 DUP2 ADD MLOAD DUP4 SSTORE PUSH1 0x20 SWAP5 DUP6 ADD SWAP5 PUSH1 0x1 SWAP1 SWAP4 ADD SWAP3 SWAP1 SWAP2 ADD SWAP1 PUSH2 0x3CCB JUMP JUMPDEST SWAP1 SWAP2 POP PUSH1 0x4 DUP8 ADD PUSH1 0x0 MSTORE PUSH1 0x20 PUSH1 0x0 KECCAK256 PUSH1 0x1F DUP5 ADD PUSH1 0x5 SHR DUP2 ADD PUSH1 0x20 DUP6 LT PUSH2 0x3D76 JUMPI JUMPDEST SWAP1 DUP5 SWAP4 SWAP3 SWAP2 JUMPDEST PUSH1 0x1F DUP4 ADD PUSH1 0x5 SHR DUP3 ADD DUP2 LT PUSH2 0x3D67 JUMPI POP POP PUSH2 0x3984 JUMP JUMPDEST PUSH1 0x0 DUP2 SSTORE DUP6 SWAP5 POP PUSH1 0x1 ADD PUSH2 0x3D51 JUMP JUMPDEST POP DUP1 PUSH2 0x3D4B JUMP JUMPDEST ADD MLOAD SWAP1 POP DUP7 DUP1 PUSH2 0x393E JUMP JUMPDEST SWAP3 POP PUSH1 0x3 DUP8 ADD PUSH1 0x0 MSTORE PUSH1 0x20 PUSH1 0x0 KECCAK256 SWAP1 PUSH1 0x0 SWAP4 JUMPDEST PUSH1 0x1F NOT DUP5 AND DUP6 LT PUSH2 0x3DDF JUMPI PUSH1 0x1 SWAP5 POP DUP4 PUSH1 0x1F NOT DUP2 AND LT PUSH2 0x3DC6 JUMPI JUMPDEST POP POP POP DUP2 SHL ADD PUSH1 0x3 DUP6 ADD SSTORE PUSH2 0x3956 JUMP JUMPDEST ADD MLOAD PUSH1 0x0 NOT PUSH1 0xF8 DUP5 PUSH1 0x3 SHL AND SHR NOT AND SWAP1 SSTORE DUP7 DUP1 DUP1 PUSH2 0x3DB6 JUMP JUMPDEST DUP2 DUP2 ADD MLOAD DUP4 SSTORE PUSH1 0x20 SWAP5 DUP6 ADD SWAP5 PUSH1 0x1 SWAP1 SWAP4 ADD SWAP3 SWAP1 SWAP2 ADD SWAP1 PUSH2 0x3D9B JUMP JUMPDEST SWAP1 SWAP2 POP PUSH1 0x3 DUP8 ADD PUSH1 0x0 MSTORE PUSH1 0x20 PUSH1 0x0 KECCAK256 PUSH1 0x1F DUP5 ADD PUSH1 0x5 SHR DUP2 ADD PUSH1 0x20 DUP6 LT PUSH2 0x3E46 JUMPI JUMPDEST SWAP1 DUP5 SWAP4 SWAP3 SWAP2 JUMPDEST PUSH1 0x1F DUP4 ADD PUSH1 0x5 SHR DUP3 ADD DUP2 LT PUSH2 0x3E37 JUMPI POP POP PUSH2 0x3927 JUMP JUMPDEST PUSH1 0x0 DUP2 SSTORE DUP6 SWAP5 POP PUSH1 0x1 ADD PUSH2 0x3E21 JUMP JUMPDEST POP DUP1 PUSH2 0x3E1B JUMP JUMPDEST CALLVALUE PUSH2 0x177 JUMPI PUSH1 0x20 CALLDATASIZE PUSH1 0x3 NOT ADD SLT PUSH2 0x177 JUMPI PUSH1 0x4 CALLDATALOAD PUSH1 0x0 SLOAD DUP2 LT ISZERO PUSH2 0x177 JUMPI PUSH2 0x3E76 PUSH1 0xFF SWAP2 PUSH2 0x4129 JUMP JUMPDEST POP DUP1 SLOAD PUSH1 0x1 DUP3 ADD SLOAD PUSH1 0x2 DUP4 ADD SLOAD PUSH1 0x1 PUSH1 0x1 PUSH1 0xA0 SHL SUB SWAP4 PUSH2 0x15E SWAP4 SWAP3 SWAP1 SWAP2 DUP6 AND PUSH2 0x3EA1 PUSH1 0x3 DUP5 ADD PUSH2 0x4224 JUMP JUMPDEST PUSH2 0x3EAD PUSH1 0x4 DUP6 ADD PUSH2 0x4224 JUMP JUMPDEST PUSH1 0x5 DUP6 ADD SLOAD SWAP2 DUP10 PUSH1 0x6 DUP8 ADD SLOAD AND SWAP4 PUSH1 0x7 DUP8 ADD SLOAD SWAP6 PUSH2 0x3ED9 PUSH1 0x9 PUSH2 0x3ED2 PUSH1 0x8 DUP12 ADD PUSH2 0x4224 JUMP JUMPDEST SWAP10 ADD PUSH2 0x4224 JUMP JUMPDEST SWAP9 PUSH1 0x40 MLOAD SWAP13 DUP14 SWAP13 DUP4 PUSH1 0x8 SHR AND SWAP3 AND SWAP1 DUP13 PUSH2 0x4091 JUMP JUMPDEST CALLVALUE PUSH2 0x177 JUMPI PUSH1 0x20 CALLDATASIZE PUSH1 0x3 NOT ADD SLT PUSH2 0x177 JUMPI PUSH1 0x4 CALLDATALOAD SWAP1 PUSH1 0x0 SLOAD DUP3 LT ISZERO PUSH2 0x4012 JUMPI PUSH2 0x3F16 DUP3 PUSH2 0x4129 JUMP JUMPDEST POP PUSH1 0x40 MLOAD SWAP1 PUSH2 0x3F24 DUP3 PUSH2 0x41B1 JUMP JUMPDEST DUP1 SLOAD DUP3 MSTORE PUSH1 0x1 DUP2 ADD SLOAD SWAP2 PUSH1 0x20 DUP2 ADD SWAP2 PUSH2 0x3F40 PUSH1 0xFF DUP6 AND DUP5 PUSH2 0x443D JUMP JUMPDEST PUSH1 0x40 DUP3 ADD SWAP2 PUSH1 0x1 DUP1 PUSH1 0xA0 SHL SUB DUP1 SWAP6 PUSH1 0x8 SHR AND DUP4 MSTORE DUP5 PUSH1 0x2 DUP4 ADD SLOAD AND SWAP2 PUSH1 0x60 DUP3 ADD SWAP3 DUP4 MSTORE PUSH2 0x3F6F PUSH1 0x3 DUP3 ADD PUSH2 0x4224 JUMP JUMPDEST PUSH1 0x80 DUP4 ADD SWAP1 DUP2 MSTORE PUSH2 0x3F82 PUSH1 0x4 DUP4 ADD PUSH2 0x4224 JUMP JUMPDEST PUSH1 0xA0 DUP5 ADD SWAP1 DUP2 MSTORE PUSH1 0x5 DUP4 ADD SLOAD PUSH1 0xC0 DUP6 ADD SWAP1 DUP2 MSTORE PUSH1 0xFF PUSH1 0x6 DUP6 ADD SLOAD AND SWAP2 PUSH1 0xE0 DUP7 ADD SWAP3 ISZERO ISZERO DUP4 MSTORE PUSH1 0x7 DUP6 ADD SLOAD SWAP4 PUSH2 0x100 DUP8 ADD SWAP5 DUP6 MSTORE PUSH2 0x3FD5 PUSH1 0x9 PUSH2 0x3FC6 PUSH1 0x8 DUP10 ADD PUSH2 0x4224 JUMP JUMPDEST SWAP8 PUSH2 0x120 DUP11 ADD SWAP9 DUP10 MSTORE ADD PUSH2 0x4224 JUMP JUMPDEST SWAP7 PUSH2 0x140 DUP2 ADD SWAP8 DUP9 MSTORE MLOAD SWAP10 MLOAD SWAP11 PUSH1 0xB DUP13 LT ISZERO PUSH2 0x8F7 JUMPI DUP1 PUSH2 0x15E SWAP11 MLOAD AND SWAP9 MLOAD AND SWAP1 MLOAD SWAP2 MLOAD SWAP3 MLOAD SWAP4 MLOAD ISZERO ISZERO SWAP5 MLOAD SWAP6 MLOAD SWAP7 MLOAD SWAP8 PUSH1 0x40 MLOAD SWAP12 DUP13 SWAP12 DUP13 PUSH2 0x4091 JUMP JUMPDEST PUSH3 0x461BCD PUSH1 0xE5 SHL DUP2 MSTORE PUSH1 0x20 PUSH1 0x4 DUP3 ADD MSTORE PUSH1 0x12 PUSH1 0x24 DUP3 ADD MSTORE PUSH18 0x131BD9C8191BD95CC81B9BDD08195E1A5CDD PUSH1 0x72 SHL PUSH1 0x44 DUP3 ADD MSTORE PUSH1 0x64 SWAP1 REVERT JUMPDEST PUSH1 0x0 JUMPDEST DUP4 DUP2 LT PUSH2 0x405C JUMPI POP POP PUSH1 0x0 SWAP2 ADD MSTORE JUMP JUMPDEST DUP2 DUP2 ADD MLOAD DUP4 DUP3 ADD MSTORE PUSH1 0x20 ADD PUSH2 0x404C JUMP JUMPDEST SWAP1 PUSH1 0x20 SWAP2 PUSH2 0x4085 DUP2 MLOAD DUP1 SWAP3 DUP2 DUP6 MSTORE DUP6 DUP1 DUP7 ADD SWAP2 ADD PUSH2 0x4049 JUMP JUMPDEST PUSH1 0x1F ADD PUSH1 0x1F NOT AND ADD ADD SWAP1 JUMP JUMPDEST SWAP10 SWAP6 SWAP2 SWAP1 SWAP11 SWAP9 SWAP5 SWAP11 SWAP8 SWAP4 SWAP3 SWAP8 DUP11 MSTORE PUSH1 0xB DUP2 LT ISZERO PUSH2 0x8F7 JUMPI PUSH1 0x20 DUP11 ADD MSTORE PUSH1 0x1 PUSH1 0x1 PUSH1 0xA0 SHL SUB SWAP7 DUP8 AND PUSH1 0x40 DUP11 ADD MSTORE SWAP6 AND PUSH1 0x60 DUP9 ADD MSTORE PUSH2 0x160 PUSH1 0x80 DUP9 ADD DUP2 SWAP1 MSTORE PUSH2 0x4126 SWAP9 PUSH2 0x4117 SWAP7 PUSH2 0x40F6 SWAP3 SWAP1 SWAP2 PUSH2 0x40E8 SWAP2 DUP12 ADD SWAP1 PUSH2 0x406C JUMP JUMPDEST SWAP1 DUP10 DUP3 SUB PUSH1 0xA0 DUP12 ADD MSTORE PUSH2 0x406C JUMP JUMPDEST SWAP4 PUSH1 0xC0 DUP9 ADD MSTORE ISZERO ISZERO PUSH1 0xE0 DUP8 ADD MSTORE PUSH2 0x100 DUP7 ADD MSTORE DUP5 DUP3 SUB PUSH2 0x120 DUP7 ADD MSTORE PUSH2 0x406C JUMP JUMPDEST SWAP2 PUSH2 0x140 DUP2 DUP5 SUB SWAP2 ADD MSTORE PUSH2 0x406C JUMP JUMPDEST SWAP1 JUMP JUMPDEST SWAP1 PUSH1 0x0 SWAP2 DUP3 SLOAD DUP2 LT ISZERO PUSH2 0x4163 JUMPI PUSH1 0xA SWAP1 DUP4 DUP1 MSTORE MUL PUSH32 0x290DECD9548B62A8D60345A988386FC84BA6BC95484008F6362F93160EF3E563 ADD SWAP2 SWAP1 JUMP JUMPDEST PUSH4 0x4E487B71 PUSH1 0xE0 SHL DUP4 MSTORE PUSH1 0x32 PUSH1 0x4 MSTORE PUSH1 0x24 DUP4 REVERT JUMPDEST SWAP1 PUSH1 0x1 DUP3 DUP2 SHR SWAP3 AND DUP1 ISZERO PUSH2 0x41A7 JUMPI JUMPDEST PUSH1 0x20 DUP4 LT EQ PUSH2 0x4191 JUMPI JUMP JUMPDEST PUSH4 0x4E487B71 PUSH1 0xE0 SHL PUSH1 0x0 MSTORE PUSH1 0x22 PUSH1 0x4 MSTORE PUSH1 0x24 PUSH1 0x0 REVERT JUMPDEST SWAP2 PUSH1 0x7F AND SWAP2 PUSH2 0x4186 JUMP JUMPDEST PUSH2 0x160 DUP2 ADD SWAP1 DUP2 LT PUSH1 0x1 PUSH1 0x1 PUSH1 0x40 SHL SUB DUP3 GT OR PUSH2 0x67D JUMPI PUSH1 0x40 MSTORE JUMP JUMPDEST PUSH1 0x40 DUP2 ADD SWAP1 DUP2 LT PUSH1 0x1 PUSH1 0x1 PUSH1 0x40 SHL SUB DUP3 GT OR PUSH2 0x67D JUMPI PUSH1 0x40 MSTORE JUMP JUMPDEST PUSH1 0x20 DUP2 ADD SWAP1 DUP2 LT PUSH1 0x1 PUSH1 0x1 PUSH1 0x40 SHL SUB DUP3 GT OR PUSH2 0x67D JUMPI PUSH1 0x40 MSTORE JUMP JUMPDEST SWAP1 PUSH1 0x1F DUP1 NOT SWAP2 ADD AND DUP2 ADD SWAP1 DUP2 LT PUSH1 0x1 PUSH1 0x1 PUSH1 0x40 SHL SUB DUP3 GT OR PUSH2 0x67D JUMPI PUSH1 0x40 MSTORE JUMP JUMPDEST SWAP1 PUSH1 0x40 MLOAD SWAP2 DUP3 PUSH1 0x0 DUP3 SLOAD SWAP3 PUSH2 0x4238 DUP5 PUSH2 0x4177 JUMP JUMPDEST SWAP1 DUP2 DUP5 MSTORE PUSH1 0x1 SWAP5 DUP6 DUP2 AND SWAP1 DUP2 PUSH1 0x0 EQ PUSH2 0x42A7 JUMPI POP PUSH1 0x1 EQ PUSH2 0x4264 JUMPI JUMPDEST POP POP PUSH2 0x4262 SWAP3 POP SUB DUP4 PUSH2 0x4203 JUMP JUMPDEST JUMP JUMPDEST SWAP1 SWAP4 SWAP2 POP PUSH1 0x0 MSTORE PUSH1 0x20 SWAP1 DUP2 PUSH1 0x0 KECCAK256 SWAP4 PUSH1 0x0 SWAP2 JUMPDEST DUP2 DUP4 LT PUSH2 0x428F JUMPI POP POP PUSH2 0x4262 SWAP4 POP DUP3 ADD ADD CODESIZE DUP1 PUSH2 0x4254 JUMP JUMPDEST DUP6 SLOAD DUP9 DUP5 ADD DUP6 ADD MSTORE SWAP5 DUP6 ADD SWAP5 DUP8 SWAP5 POP SWAP2 DUP4 ADD SWAP2 PUSH2 0x4277 JUMP JUMPDEST SWAP2 POP POP PUSH2 0x4262 SWAP5 POP PUSH1 0x20 SWAP3 POP PUSH1 0xFF NOT AND DUP3 DUP5 ADD MSTORE ISZERO ISZERO PUSH1 0x5 SHL DUP3 ADD ADD CODESIZE DUP1 PUSH2 0x4254 JUMP JUMPDEST PUSH1 0x4 CALLDATALOAD SWAP1 PUSH1 0x1 PUSH1 0x1 PUSH1 0xA0 SHL SUB DUP3 AND DUP3 SUB PUSH2 0x177 JUMPI JUMP JUMPDEST DUP2 PUSH1 0x1F DUP3 ADD SLT ISZERO PUSH2 0x177 JUMPI DUP1 CALLDATALOAD SWAP1 PUSH1 0x1 PUSH1 0x1 PUSH1 0x40 SHL SUB DUP3 GT PUSH2 0x67D JUMPI PUSH1 0x40 MLOAD SWAP3 PUSH2 0x4314 PUSH1 0x1F DUP5 ADD PUSH1 0x1F NOT AND PUSH1 0x20 ADD DUP6 PUSH2 0x4203 JUMP JUMPDEST DUP3 DUP5 MSTORE PUSH1 0x20 DUP4 DUP4 ADD ADD GT PUSH2 0x177 JUMPI DUP2 PUSH1 0x0 SWAP3 PUSH1 0x20 DUP1 SWAP4 ADD DUP4 DUP7 ADD CALLDATACOPY DUP4 ADD ADD MSTORE SWAP1 JUMP JUMPDEST PUSH1 0x60 PUSH1 0x3 NOT DUP3 ADD SLT PUSH2 0x177 JUMPI PUSH1 0x1 PUSH1 0x1 PUSH1 0xA0 SHL SUB SWAP2 PUSH1 0x4 CALLDATALOAD DUP4 DUP2 AND DUP2 SUB PUSH2 0x177 JUMPI SWAP3 PUSH1 0x24 CALLDATALOAD SWAP1 DUP2 AND DUP2 SUB PUSH2 0x177 JUMPI SWAP2 PUSH1 0x44 CALLDATALOAD SWAP1 PUSH1 0x1 PUSH1 0x1 PUSH1 0x40 SHL SUB DUP3 GT PUSH2 0x177 JUMPI PUSH2 0x4126 SWAP2 PUSH1 0x4 ADD PUSH2 0x42E0 JUMP JUMPDEST PUSH1 0xB DUP2 LT ISZERO PUSH2 0x8F7 JUMPI PUSH1 0x0 MSTORE PUSH1 0x3 PUSH1 0x20 MSTORE PUSH1 0x40 PUSH1 0x0 KECCAK256 SWAP1 JUMP JUMPDEST DUP1 SLOAD DUP3 LT ISZERO PUSH2 0x1151 JUMPI PUSH1 0x0 MSTORE PUSH1 0x20 PUSH1 0x0 KECCAK256 ADD SWAP1 PUSH1 0x0 SWAP1 JUMP JUMPDEST SWAP1 PUSH1 0x40 PUSH1 0x3 NOT DUP4 ADD SLT PUSH2 0x177 JUMPI PUSH1 0x4 CALLDATALOAD PUSH1 0x1 PUSH1 0x1 PUSH1 0xA0 SHL SUB DUP2 AND DUP2 SUB PUSH2 0x177 JUMPI SWAP2 PUSH1 0x24 CALLDATALOAD SWAP1 PUSH1 0x1 PUSH1 0x1 PUSH1 0x40 SHL SUB DUP3 GT PUSH2 0x177 JUMPI PUSH2 0x4126 SWAP2 PUSH1 0x4 ADD PUSH2 0x42E0 JUMP JUMPDEST PUSH1 0x20 SWAP1 DUP2 PUSH1 0x40 DUP2 DUP4 ADD SWAP3 DUP3 DUP2 MSTORE DUP6 MLOAD DUP1 SWAP5 MSTORE ADD SWAP4 ADD SWAP2 PUSH1 0x0 JUMPDEST DUP3 DUP2 LT PUSH2 0x441A JUMPI POP POP POP POP SWAP1 JUMP JUMPDEST DUP4 MLOAD DUP6 MSTORE SWAP4 DUP2 ADD SWAP4 SWAP3 DUP2 ADD SWAP3 PUSH1 0x1 ADD PUSH2 0x440C JUMP JUMPDEST PUSH1 0x0 NOT DUP2 EQ PUSH2 0x1167 JUMPI PUSH1 0x1 ADD SWAP1 JUMP JUMPDEST PUSH1 0xB DUP3 LT ISZERO PUSH2 0x8F7 JUMPI MSTORE JUMP JUMPDEST DUP1 SLOAD PUSH1 0x1 PUSH1 0x40 SHL DUP2 LT ISZERO PUSH2 0x67D JUMPI PUSH2 0x4466 SWAP2 PUSH1 0x1 DUP3 ADD DUP2 SSTORE PUSH2 0x439C JUMP JUMPDEST DUP2 SWAP3 SWAP2 SLOAD SWAP1 PUSH1 0x3 SHL SWAP2 DUP3 SHL SWAP2 PUSH1 0x0 NOT SWAP1 SHL NOT AND OR SWAP1 SSTORE JUMP JUMPDEST PUSH2 0x4496 PUSH1 0x40 SWAP3 SWAP6 SWAP5 SWAP4 SWAP6 PUSH1 0x60 DUP4 MSTORE PUSH1 0x60 DUP4 ADD SWAP1 PUSH2 0x406C JUMP JUMPDEST SWAP5 ISZERO ISZERO PUSH1 0x20 DUP3 ADD MSTORE ADD MSTORE JUMP JUMPDEST PUSH1 0x1 PUSH1 0x1 PUSH1 0x40 SHL SUB DUP2 GT PUSH2 0x67D JUMPI PUSH1 0x5 SHL PUSH1 0x20 ADD SWAP1 JUMP INVALID SWAP10 0xE8 0xCA 0x4D DUP3 0x27 0xF7 0x4A 0x4D 0x2D 0xE0 0xD SSTORE LOG0 POP 0xEF LOG1 0xEC 0xF8 0xC7 SUB 0xD7 SWAP1 0xE6 EQ 0x4D 0xE2 0xD5 0x1E EQ ADDRESS 0x5C LOG2 PUSH5 0x6970667358 0x22 SLT KECCAK256 SWAP5 PUSH4 0xCC2C5635 PUSH1 0xEA CALLDATACOPY 0xC9 PUSH28 0x88A6EF3DCDD79798DD83EDD21EB82FB39F1755CF2364736F6C634300 ADDMOD EQ STOP CALLER "},"methodIdentifiers":{"actionTypeLogs(uint8,uint256)":"7e15c7e9","actorLogs(address,uint256)":"a9c85164","auditLogs(uint256)":"60760415","createLog(uint8,address,string,string,bytes32,bool,string,string)":"6a5d1f19","getLog(uint256)":"3206b2c6","getLogsByActionType(uint8)":"b84046b4","getLogsByActor(address)":"f87c51d0","getLogsByRecord(string)":"d40fd399","getRecentLogs(uint256)":"e52e64f9","getTotalLogs()":"bd628d26","logAccessGranted(address,address,string)":"ed08ce16","logAccessRevoked(address,address,string)":"7a893865","logCounter()":"ac42100f","logDataAccess(address,string)":"905d9a0d","logDataUpload(address,string,bytes32,string)":"e0df6d25","logInstitutionRegistration(address,string)":"f3729920","logVerificationCompletion(address,string,bytes32,bool)":"d92b340d","logVerificationRequest(address,string,bytes32)":"724136c2","recordLogs(string,uint256)":"ed9b95e2"}}}}}