{
  "_format": "hh-sol-artifact-1",
  "contractName": "AccessControlContract",
  "sourceName": "contracts/AccessControlContract.sol",
  "abi": [
    {
      "inputs": [
        {
          "internalType": "address",
          "name": "_dataVaultContract",
          "type": "address"
        },
        {
          "internalType": "address",
          "name": "_institutionRegistry",
          "type": "address"
        }
      ],
      "stateMutability": "nonpayable",
      "type": "constructor"
    },
    {
      "anonymous": false,
      "inputs": [
        {
          "indexed": true,
          "internalType": "string",
          "name": "recordId",
          "type": "string"
        },
        {
          "indexed": true,
          "internalType": "address",
          "name": "grantee",
          "type": "address"
        },
        {
          "indexed": false,
          "internalType": "uint256",
          "name": "timestamp",
          "type": "uint256"
        }
      ],
      "name": "AccessExpired",
      "type": "event"
    },
    {
      "anonymous": false,
      "inputs": [
        {
          "indexed": true,
          "internalType": "string",
          "name": "recordId",
          "type": "string"
        },
        {
          "indexed": true,
          "internalType": "address",
          "name": "owner",
          "type": "address"
        },
        {
          "indexed": true,
          "internalType": "address",
          "name": "grantee",
          "type": "address"
        },
        {
          "indexed": false,
          "internalType": "string",
          "name": "permissionType",
          "type": "string"
        },
        {
          "indexed": false,
          "internalType": "uint256",
          "name": "expiresAt",
          "type": "uint256"
        },
        {
          "indexed": false,
          "internalType": "uint256",
          "name": "timestamp",
          "type": "uint256"
        }
      ],
      "name": "AccessGranted",
      "type": "event"
    },
    {
      "anonymous": false,
      "inputs": [
        {
          "indexed": true,
          "internalType": "string",
          "name": "recordId",
          "type": "string"
        },
        {
          "indexed": true,
          "internalType": "address",
          "name": "owner",
          "type": "address"
        },
        {
          "indexed": true,
          "internalType": "address",
          "name": "grantee",
          "type": "address"
        },
        {
          "indexed": false,
          "internalType": "uint256",
          "name": "timestamp",
          "type": "uint256"
        }
      ],
      "name": "AccessRevoked",
      "type": "event"
    },
    {
      "anonymous": false,
      "inputs": [
        {
          "indexed": true,
          "internalType": "string",
          "name": "recordId",
          "type": "string"
        },
        {
          "indexed": true,
          "internalType": "address",
          "name": "owner",
          "type": "address"
        },
        {
          "indexed": true,
          "internalType": "address",
          "name": "grantee",
          "type": "address"
        },
        {
          "indexed": false,
          "internalType": "uint256",
          "name": "timestamp",
          "type": "uint256"
        }
      ],
      "name": "PermissionUpdated",
      "type": "event"
    },
    {
      "inputs": [
        {
          "internalType": "string",
          "name": "_recordId",
          "type": "string"
        },
        {
          "internalType": "address",
          "name": "_grantee",
          "type": "address"
        }
      ],
      "name": "checkAccess",
      "outputs": [
        {
          "internalType": "bool",
          "name": "",
          "type": "bool"
        }
      ],
      "stateMutability": "view",
      "type": "function"
    },
    {
      "inputs": [],
      "name": "dataVaultContract",
      "outputs": [
        {
          "internalType": "address",
          "name": "",
          "type": "address"
        }
      ],
      "stateMutability": "view",
      "type": "function"
    },
    {
      "inputs": [
        {
          "internalType": "string",
          "name": "_recordId",
          "type": "string"
        },
        {
          "internalType": "address",
          "name": "_grantee",
          "type": "address"
        }
      ],
      "name": "expireAccess",
      "outputs": [],
      "stateMutability": "nonpayable",
      "type": "function"
    },
    {
      "inputs": [
        {
          "internalType": "address",
          "name": "_grantee",
          "type": "address"
        }
      ],
      "name": "getGranteeRecords",
      "outputs": [
        {
          "internalType": "string[]",
          "name": "",
          "type": "string[]"
        }
      ],
      "stateMutability": "view",
      "type": "function"
    },
    {
      "inputs": [
        {
          "internalType": "string",
          "name": "_recordId",
          "type": "string"
        },
        {
          "internalType": "address",
          "name": "_grantee",
          "type": "address"
        }
      ],
      "name": "getPermission",
      "outputs": [
        {
          "internalType": "string",
          "name": "recordId",
          "type": "string"
        },
        {
          "internalType": "address",
          "name": "owner",
          "type": "address"
        },
        {
          "internalType": "address",
          "name": "grantee",
          "type": "address"
        },
        {
          "internalType": "uint256",
          "name": "grantedAt",
          "type": "uint256"
        },
        {
          "internalType": "uint256",
          "name": "expiresAt",
          "type": "uint256"
        },
        {
          "internalType": "bool",
          "name": "isActive",
          "type": "bool"
        },
        {
          "internalType": "string",
          "name": "permissionType",
          "type": "string"
        },
        {
          "internalType": "string",
          "name": "grantReason",
          "type": "string"
        }
      ],
      "stateMutability": "view",
      "type": "function"
    },
    {
      "inputs": [
        {
          "internalType": "string",
          "name": "_recordId",
          "type": "string"
        }
      ],
      "name": "getRecordGrantees",
      "outputs": [
        {
          "internalType": "address[]",
          "name": "",
          "type": "address[]"
        }
      ],
      "stateMutability": "view",
      "type": "function"
    },
    {
      "inputs": [
        {
          "internalType": "string",
          "name": "_recordId",
          "type": "string"
        },
        {
          "internalType": "address",
          "name": "_grantee",
          "type": "address"
        },
        {
          "internalType": "uint256",
          "name": "_expiresAt",
          "type": "uint256"
        },
        {
          "internalType": "string",
          "name": "_permissionType",
          "type": "string"
        },
        {
          "internalType": "string",
          "name": "_grantReason",
          "type": "string"
        }
      ],
      "name": "grantAccess",
      "outputs": [],
      "stateMutability": "nonpayable",
      "type": "function"
    },
    {
      "inputs": [
        {
          "internalType": "address",
          "name": "",
          "type": "address"
        },
        {
          "internalType": "uint256",
          "name": "",
          "type": "uint256"
        }
      ],
      "name": "granteeRecords",
      "outputs": [
        {
          "internalType": "string",
          "name": "",
          "type": "string"
        }
      ],
      "stateMutability": "view",
      "type": "function"
    },
    {
      "inputs": [
        {
          "internalType": "string",
          "name": "",
          "type": "string"
        },
        {
          "internalType": "address",
          "name": "",
          "type": "address"
        }
      ],
      "name": "hasAccess",
      "outputs": [
        {
          "internalType": "bool",
          "name": "",
          "type": "bool"
        }
      ],
      "stateMutability": "view",
      "type": "function"
    },
    {
      "inputs": [],
      "name": "institutionRegistry",
      "outputs": [
        {
          "internalType": "address",
          "name": "",
          "type": "address"
        }
      ],
      "stateMutability": "view",
      "type": "function"
    },
    {
      "inputs": [
        {
          "internalType": "string",
          "name": "",
          "type": "string"
        },
        {
          "internalType": "address",
          "name": "",
          "type": "address"
        }
      ],
      "name": "permissions",
      "outputs": [
        {
          "internalType": "string",
          "name": "recordId",
          "type": "string"
        },
        {
          "internalType": "address",
          "name": "owner",
          "type": "address"
        },
        {
          "internalType": "address",
          "name": "grantee",
          "type": "address"
        },
        {
          "internalType": "uint256",
          "name": "grantedAt",
          "type": "uint256"
        },
        {
          "internalType": "uint256",
          "name": "expiresAt",
          "type": "uint256"
        },
        {
          "internalType": "bool",
          "name": "isActive",
          "type": "bool"
        },
        {
          "internalType": "string",
          "name": "permissionType",
          "type": "string"
        },
        {
          "internalType": "string",
          "name": "grantReason",
          "type": "string"
        }
      ],
      "stateMutability": "view",
      "type": "function"
    },
    {
      "inputs": [
        {
          "internalType": "string",
          "name": "",
          "type": "string"
        },
        {
          "internalType": "uint256",
          "name": "",
          "type": "uint256"
        }
      ],
      "name": "recordGrantees",
      "outputs": [
        {
          "internalType": "address",
          "name": "",
          "type": "address"
        }
      ],
      "stateMutability": "view",
      "type": "function"
    },
    {
      "inputs": [
        {
          "internalType": "string",
          "name": "_recordId",
          "type": "string"
        },
        {
          "internalType": "address",
          "name": "_grantee",
          "type": "address"
        }
      ],
      "name": "revokeAccess",
      "outputs": [],
      "stateMutability": "nonpayable",
      "type": "function"
    }
  ],
  "bytecode": "0x6080346200012b57601f62001a2638819003918201601f19168301916001600160401b03831184841017620001305780849260409485528339810103126200012b576200005a6020620000528362000146565b920162000146565b6001600160a01b0391821691908215620000e65716908115620000a15760018060a01b03199081600454161760045560055416176005556040516118ca90816200015c8239f35b60405162461bcd60e51b815260206004820152601860248201527f496e76616c6964207265676973747279206164647265737300000000000000006044820152606490fd5b60405162461bcd60e51b815260206004820152601560248201527f496e76616c6964207661756c74206164647265737300000000000000000000006044820152606490fd5b600080fd5b634e487b7160e01b600052604160045260246000fd5b51906001600160a01b03821682036200012b5756fe60406080815260048036101561001457600080fd5b600091823560e01c8063065f593b14610af95780630c1244ee146108aa57806313bd20e2146108555780631b1fcb041461082c57806344a08b36146108075780635d572eaa146107df5780636fc8977b146106db57806382cb725b1461065d578063baadd702146104df578063d2244b2d146103fc57838163dfe0b5fe146101d957508063edbb398d1461014f5763f8681e75146100b157600080fd5b3461014b5780610147916020946100de6100ca36610cd3565b979081855193828580945193849201610d15565b8101848152030190206001600160a01b0396871682526020522061010181610e2a565b938560018301541695600283015416906003830154908301549060ff6005850154169261013c600761013560068801610e2a565b9601610e2a565b955198899889610d5d565b0390f35b8280fd5b50903461014b578160031936011261014b5780359067ffffffffffffffff82116101d55761017f91369101610c71565b9161019b60206024359481855193828580945193849201610d15565b810160018152030190209081548410156101d257506020926101bc91610dc2565b905491519160018060a01b039160031b1c168152f35b80fd5b8380fd5b808484346103f8576101ea36610cd3565b939060018060a01b038094541693835194602086858083809a01630540248f60e41b815284602485015283610222604482018a610d38565b0393610236601f1995868101835282610c33565b5190865afa610243610ed0565b81610394575b5095806103889695946102ef946102d9946102847ffca9e5383feff2471021f2af92b9704199954a3966435d939edeaf684d47591b9b610f0d565b6102b68c51918383019362e9a5e360e71b85526024840152826102aa604482018d610d38565b03908101835282610c33565b51915afa6102cb6102c5610ed0565b91610f51565b888082518301019101610fd6565b50505050505050505091505082339116146110ce565b845190825191878181860194610306818388610d15565b81016003815203019020971696878952865261032760ff868a205416611736565b845186818451610338818387610d15565b81018b815203019020878952865261036b866005878b20019260ff19938481541690558751809381928751928391610d15565b810160038152030190208789528652848820908154169055611221565b9151924284523393a480f35b80809397969594925051810103126103f457857ffca9e5383feff2471021f2af92b9704199954a3966435d939edeaf684d47591b966102ef938a610388986102846103e3836102d99801610f00565b959b50509450945094959650610249565b8580fd5b5050fd5b50903461014b57602090816003193601126101d55780359067ffffffffffffffff82116104db5761043291949294369101610c71565b908361044684519384815193849201610d15565b82019184816001948581520301902093835190818187549182815201908197855282852090855b8181106104bf5750505082610483910383610c33565b8451948186019282875251809352850195925b8281106104a35785870386f35b83516001600160a01b0316875295810195928101928401610496565b82546001600160a01b031684529284019291870191870161046d565b8480fd5b503461014b576104ee36610cd3565b929082519181519060209384818186019461050a818388610d15565b810160038152030190209560018060a01b031695868852845261053260ff8689205416611736565b845184818551610543818388610d15565b81018a81520301902086885284528487209080820154801561061a574211156105d75750916105ce916105b18560057fc59e87c7e6f2931a0bb1c18fb7163a104d4fce32884ac64a8efbcb5ca308a3109796019260ff19938481541690558851809381928751928391610d15565b810160038152030190208789528452858820908154169055611221565b9251428152a380f35b855162461bcd60e51b8152908101859052601a60248201527f5065726d697373696f6e206e6f742079657420657870697265640000000000006044820152606490fd5b865162461bcd60e51b8152808301879052601c60248201527f5065726d697373696f6e20686173206e6f2065787069726174696f6e000000006044820152606490fd5b5082346101d257816003193601126101d257610677610cbd565b6001600160a01b0316815260026020528181208054602435919082101561014b57906106a291610dc2565b9390936106c957610147836106b686610e2a565b9051918291602083526020830190610d38565b634e487b7160e01b8252819052602490fd5b509190346107db576020908160031936011261014b576001600160a01b03610701610cbd565b168352600282528383209182549167ffffffffffffffff83116107c857509290845190610733858260051b0183610c33565b8082528482018094845285842084915b8383106107a457505050508451938085019181865251809252858501958260051b8601019392955b8287106107785785850386f35b909192938280610794600193603f198a82030186528851610d38565b960192019601959291909261076b565b60018881926107b6859b98999b610e2a565b81520192019201919096949396610743565b634e487b7160e01b855260419052602484fd5b5080fd5b50903461014b578260031936011261014b575490516001600160a01b03909116815260209150f35b8382346107db5760209061082361081d36610cd3565b9061177b565b90519015158152f35b8382346107db57816003193601126107db5760055490516001600160a01b039091168152602090f35b8382346107db5760ff816020938461088361086f36610cd3565b929081865193828580945193849201610d15565b6003908201908152030190206001600160a01b039091168252855220549151911615158152f35b503461014b5760a036600319011261014b5767ffffffffffffffff82358181116104db576108db9036908501610c71565b6024938435906001600160a01b03908183168303610af557606435858111610af15761090a9036908301610c71565b94608435908111610af1576109229036908301610c71565b95826005541691898083519460209586810190631f0b428b60e11b82528d33908201528d815261095181610c17565b51915afa61095d610ed0565b81610ace575b5015610a8e5790838a9254169080519083808c8780860191630540248f60e41b835286015284610996604482018d610d38565b03946109aa601f1996878101835282610c33565b5190865afa6109b7610ed0565b81610a43575b5092610a409b6102aa6109fe87958c610a2199966109df610a379d9c9a610f0d565b519384918a8084019762e9a5e360e71b89528401526044830190610d38565b51915afa90610a14610a0e610ed0565b92610f51565b8082518301019101610fd6565b50505050505050505092915050339116146110ce565b60443591611241565b80f35b969580949150878096949396518101031261014b57610a409b6102aa6109fe85948c610a21996109df610a7a8b610a379f01610f00565b979a9c9d505096505095975050509b6109bd565b601c8984606494519362461bcd60e51b85528401528201527f4e6f742061207265676973746572656420696e737469747574696f6e000000006044820152fd5b90508381805181010312610aed5783610ae79101610f00565b38610963565b8a80fd5b8880fd5b8780fd5b5082346101d2578160209261014792610b28610b1436610cd3565b969081855193828580945193849201610d15565b8101848152030190206001600160a01b0395861682526020522081519190610b4f83610be4565b610b5881610e2a565b8352846001820154169460208401958652806002830154169683850197885260038301549060608601918252830154906080860191825260ff6005850154169260a08701931515845280610bc16007610bb360068901610e2a565b9760c08b0198895201610e2a565b978860e08201525199511699511690519151925115159351945198899889610d5d565b610100810190811067ffffffffffffffff821117610c0157604052565b634e487b7160e01b600052604160045260246000fd5b6060810190811067ffffffffffffffff821117610c0157604052565b90601f8019910116810190811067ffffffffffffffff821117610c0157604052565b67ffffffffffffffff8111610c0157601f01601f191660200190565b81601f82011215610cb857803590610c8882610c55565b92610c966040519485610c33565b82845260208383010111610cb857816000926020809301838601378301015290565b600080fd5b600435906001600160a01b0382168203610cb857565b6040600319820112610cb8576004359067ffffffffffffffff8211610cb857610cfe91600401610c71565b906024356001600160a01b0381168103610cb85790565b60005b838110610d285750506000910152565b8181015183820152602001610d18565b90602091610d5181518092818552858086019101610d15565b601f01601f1916010190565b969293610dbf989692610d7c610db19793610100808c528b0190610d38565b6001600160a01b0391821660208b01529516604089015260608801526080870152151560a086015284820360c0860152610d38565b9160e0818403910152610d38565b90565b8054821015610dda5760005260206000200190600090565b634e487b7160e01b600052603260045260246000fd5b90600182811c92168015610e20575b6020831014610e0a57565b634e487b7160e01b600052602260045260246000fd5b91607f1691610dff565b9060405191826000825492610e3e84610df0565b908184526001948581169081600014610ead5750600114610e6a575b5050610e6892500383610c33565b565b9093915060005260209081600020936000915b818310610e95575050610e6893508201013880610e5a565b85548884018501529485019487945091830191610e7d565b915050610e6894506020925060ff191682840152151560051b8201013880610e5a565b3d15610efb573d90610ee182610c55565b91610eef6040519384610c33565b82523d6000602084013e565b606090565b51908115158203610cb857565b15610f1457565b60405162461bcd60e51b8152602060048201526015602482015274149958dbdc9908191bd95cc81b9bdd08195e1a5cdd605a1b6044820152606490fd5b15610f5857565b60405162461bcd60e51b815260206004820152601460248201527311985a5b1959081d1bc819d95d081c9958dbdc9960621b6044820152606490fd5b81601f82011215610cb8578051610faa81610c55565b92610fb86040519485610c33565b81845260208284010111610cb857610dbf9160208085019101610d15565b9161018083830312610cb85782519067ffffffffffffffff91828111610cb85783611002918601610f94565b93602081015193604082015160018060a01b0381168103610cb857936060830151818111610cb85782611036918501610f94565b936080840151828111610cb8578361104f918601610f94565b9360a08101519360c0820151848111610cb8578161106e918401610f94565b9360e0830151818111610cb85782611087918501610f94565b936101008401519361109c6101208201610f00565b93610140820151848111610cb857816110b6918401610f94565b93610160830151908111610cb857610dbf9201610f94565b156110d557565b60405162461bcd60e51b81526020600482015260146024820152732737ba103a3432903932b1b7b9321037bbb732b960611b6044820152606490fd5b919091825167ffffffffffffffff8111610c015761112f8254610df0565b601f81116111d9575b50602080601f831160011461117557508192939460009261116a575b50508160011b916000199060031b1c1916179055565b015190503880611154565b90601f198316958460005282600020926000905b8882106111c1575050836001959697106111a8575b505050811b019055565b015160001960f88460031b161c1916905538808061119e565b80600185968294968601518155019501930190611189565b600083815260208120601f840160051c81019260208510611217575b601f0160051c01915b82811061120c575050611138565b8181556001016111fe565b90925082906111f5565b61123990602060405192828480945193849201610d15565b810103902090565b9293919290916001600160a01b039190828416156116f15733838516146116ac57841580156116a3575b1561165e578260055416906000806040519360208501631f0b428b60e11b8152602495888a16878201528681526112a181610c17565b51915afa6112ad610ed0565b8161163d575b50156115e95760405160208185516112ce8183858a01610d15565b8101600381520301902084861660005260205260ff60406000205416611544576113e5604051916112fe83610be4565b848352600760208401913383526113dd8b8b878a8d8d61135960206040860194838516865260e0606088019742895260808101998a52600160a082015260c081019a8b52019a8b528160405193828580945193849201610d15565b81016000815203019020911660005260205260406000209761137c8b518a611111565b8d60018a01915116906bffffffffffffffffffffffff60a01b91828254161790558d60028a019251169082541617905551600387015551600486015560a06005860197015115159660ff199760ff8983541691161790555160068501611111565b519101611111565b60405160208185516113fa8183858a01610d15565b81016003815203019020848616600052602052600160406000209182541617905560405160208184516114308183858901610d15565b81016001815203019020805468010000000000000000918282101561152f579061145f91600182018155610dc2565b81549060031b9086808916831b921b19161790558385166000526002602052604060002080549182101561151a579061149d91600182018155610dc2565b9190916115065750816114d57f4bbd4fdaaf443bfe8eb3270c8762f9881f4bacf6c11fe8c08099ed7b83b4a48694936114da93611111565b611221565b926114f060405196606088526060880190610d38565b94602087015242604087015216938033940390a4565b634e487b7160e01b60005260006004526000fd5b82634e487b7160e01b60005260416004526000fd5b83634e487b7160e01b60005260416004526000fd5b505090936114d5906115b7939460405160208186516115668183858b01610d15565b8101600081520301902087871660005260205260046040600020015560405160208185516115978183858a01610d15565b810160008152030190208686166000526020526006604060002001611111565b916040519142835216917fad6fa5256d43629aa84cada3818a35a4b56732482659b18914daa580ff29febd60203393a4565b60405162461bcd60e51b8152602060048201526027818401527f4772616e746565206973206e6f742061207265676973746572656420696e737460448201526634ba3aba34b7b760c91b6064820152608490fd5b9050602081805181010312610cb85760206116589101610f00565b386112b3565b60405162461bcd60e51b815260206004820152601760248201527f496e76616c69642065787069726174696f6e2074696d650000000000000000006044820152606490fd5b5042851161126b565b60405162461bcd60e51b815260206004820152601b60248201527f43616e6e6f74206772616e742061636365737320746f2073656c6600000000006044820152606490fd5b60405162461bcd60e51b815260206004820152601760248201527f496e76616c6964206772616e74656520616464726573730000000000000000006044820152606490fd5b1561173d57565b60405162461bcd60e51b8152602060048201526016602482015275139bc81858dd1a5d99481858d8d95cdcc8199bdd5b9960521b6044820152606490fd5b9060409081519183519360209384818184019761179981838b610d15565b810160038152030190209460018060a01b0380941691600096838852865260ff84882054161561188b576117d99186918551938492839251928391610d15565b8101888152030190209085528352808420918151936117f785610be4565b61180084610e2a565b8552816001850154169085015260028301541690830152600381015460608301526004810154916080810192835260e061185e600760ff6005860154169460a08501951515865261185360068201610e2a565b60c086015201610e2a565b91015251156118875751801515908161187d575b50610dbf5750600190565b9050421138611872565b5090565b5050505050509056fea2646970667358221220ebe298a2b8a0c13199e31facce0178465a0973c01059ec1d7663ef7ddfa13ff064736f6c63430008140033",
  "linkReferences": {},
  "deployedLinkReferences": {}
}