{
  "_format": "hh-sol-artifact-1",
  "contractName": "DataVaultContract",
  "sourceName": "contracts/DataVaultContract.sol",
  "abi": [
    {
      "inputs": [
        {
          "internalType": "address",
          "name": "_institutionRegistry",
          "type": "address"
        }
      ],
      "stateMutability": "nonpayable",
      "type": "constructor"
    },
    {
      "anonymous": false,
      "inputs": [
        {
          "indexed": true,
          "internalType": "string",
          "name": "recordId",
          "type": "string"
        },
        {
          "indexed": true,
          "internalType": "address",
          "name": "owner",
          "type": "address"
        },
        {
          "indexed": false,
          "internalType": "uint256",
          "name": "timestamp",
          "type": "uint256"
        }
      ],
      "name": "DataDeactivated",
      "type": "event"
    },
    {
      "anonymous": false,
      "inputs": [
        {
          "indexed": true,
          "internalType": "string",
          "name": "recordId",
          "type": "string"
        },
        {
          "indexed": true,
          "internalType": "address",
          "name": "owner",
          "type": "address"
        },
        {
          "indexed": false,
          "internalType": "uint256",
          "name": "timestamp",
          "type": "uint256"
        }
      ],
      "name": "DataMetadataUpdated",
      "type": "event"
    },
    {
      "anonymous": false,
      "inputs": [
        {
          "indexed": true,
          "internalType": "string",
          "name": "recordId",
          "type": "string"
        },
        {
          "indexed": true,
          "internalType": "address",
          "name": "owner",
          "type": "address"
        },
        {
          "indexed": false,
          "internalType": "uint256",
          "name": "timestamp",
          "type": "uint256"
        }
      ],
      "name": "DataReactivated",
      "type": "event"
    },
    {
      "anonymous": false,
      "inputs": [
        {
          "indexed": true,
          "internalType": "string",
          "name": "recordId",
          "type": "string"
        },
        {
          "indexed": true,
          "internalType": "address",
          "name": "owner",
          "type": "address"
        },
        {
          "indexed": false,
          "internalType": "bytes32",
          "name": "dataHash",
          "type": "bytes32"
        },
        {
          "indexed": false,
          "internalType": "string",
          "name": "ipfsHash",
          "type": "string"
        },
        {
          "indexed": false,
          "internalType": "uint256",
          "name": "timestamp",
          "type": "uint256"
        }
      ],
      "name": "DataUploaded",
      "type": "event"
    },
    {
      "inputs": [
        {
          "internalType": "uint256",
          "name": "",
          "type": "uint256"
        }
      ],
      "name": "allRecordIds",
      "outputs": [
        {
          "internalType": "string",
          "name": "",
          "type": "string"
        }
      ],
      "stateMutability": "view",
      "type": "function"
    },
    {
      "inputs": [
        {
          "internalType": "string",
          "name": "",
          "type": "string"
        }
      ],
      "name": "dataRecords",
      "outputs": [
        {
          "internalType": "string",
          "name": "recordId",
          "type": "string"
        },
        {
          "internalType": "bytes32",
          "name": "dataHash",
          "type": "bytes32"
        },
        {
          "internalType": "address",
          "name": "owner",
          "type": "address"
        },
        {
          "internalType": "string",
          "name": "fileName",
          "type": "string"
        },
        {
          "internalType": "string",
          "name": "fileType",
          "type": "string"
        },
        {
          "internalType": "uint256",
          "name": "fileSize",
          "type": "uint256"
        },
        {
          "internalType": "string",
          "name": "ipfsHash",
          "type": "string"
        },
        {
          "internalType": "string",
          "name": "encryptionAlgorithm",
          "type": "string"
        },
        {
          "internalType": "uint256",
          "name": "uploadedAt",
          "type": "uint256"
        },
        {
          "internalType": "bool",
          "name": "isActive",
          "type": "bool"
        },
        {
          "internalType": "string",
          "name": "metadataURI",
          "type": "string"
        },
        {
          "internalType": "string",
          "name": "category",
          "type": "string"
        }
      ],
      "stateMutability": "view",
      "type": "function"
    },
    {
      "inputs": [
        {
          "internalType": "string",
          "name": "_recordId",
          "type": "string"
        }
      ],
      "name": "deactivateRecord",
      "outputs": [],
      "stateMutability": "nonpayable",
      "type": "function"
    },
    {
      "inputs": [
        {
          "internalType": "string",
          "name": "_recordId",
          "type": "string"
        }
      ],
      "name": "getDataRecord",
      "outputs": [
        {
          "internalType": "string",
          "name": "recordId",
          "type": "string"
        },
        {
          "internalType": "bytes32",
          "name": "dataHash",
          "type": "bytes32"
        },
        {
          "internalType": "address",
          "name": "owner",
          "type": "address"
        },
        {
          "internalType": "string",
          "name": "fileName",
          "type": "string"
        },
        {
          "internalType": "string",
          "name": "fileType",
          "type": "string"
        },
        {
          "internalType": "uint256",
          "name": "fileSize",
          "type": "uint256"
        },
        {
          "internalType": "string",
          "name": "ipfsHash",
          "type": "string"
        },
        {
          "internalType": "string",
          "name": "encryptionAlgorithm",
          "type": "string"
        },
        {
          "internalType": "uint256",
          "name": "uploadedAt",
          "type": "uint256"
        },
        {
          "internalType": "bool",
          "name": "isActive",
          "type": "bool"
        },
        {
          "internalType": "string",
          "name": "metadataURI",
          "type": "string"
        },
        {
          "internalType": "string",
          "name": "category",
          "type": "string"
        }
      ],
      "stateMutability": "view",
      "type": "function"
    },
    {
      "inputs": [
        {
          "internalType": "uint256",
          "name": "_index",
          "type": "uint256"
        }
      ],
      "name": "getRecordByIndex",
      "outputs": [
        {
          "internalType": "string",
          "name": "",
          "type": "string"
        }
      ],
      "stateMutability": "view",
      "type": "function"
    },
    {
      "inputs": [
        {
          "internalType": "address",
          "name": "_owner",
          "type": "address"
        }
      ],
      "name": "getRecordsByOwner",
      "outputs": [
        {
          "internalType": "string[]",
          "name": "",
          "type": "string[]"
        }
      ],
      "stateMutability": "view",
      "type": "function"
    },
    {
      "inputs": [],
      "name": "getTotalRecords",
      "outputs": [
        {
          "internalType": "uint256",
          "name": "",
          "type": "uint256"
        }
      ],
      "stateMutability": "view",
      "type": "function"
    },
    {
      "inputs": [],
      "name": "institutionRegistry",
      "outputs": [
        {
          "internalType": "address",
          "name": "",
          "type": "address"
        }
      ],
      "stateMutability": "view",
      "type": "function"
    },
    {
      "inputs": [
        {
          "internalType": "address",
          "name": "",
          "type": "address"
        },
        {
          "internalType": "uint256",
          "name": "",
          "type": "uint256"
        }
      ],
      "name": "ownerRecords",
      "outputs": [
        {
          "internalType": "string",
          "name": "",
          "type": "string"
        }
      ],
      "stateMutability": "view",
      "type": "function"
    },
    {
      "inputs": [
        {
          "internalType": "string",
          "name": "_recordId",
          "type": "string"
        }
      ],
      "name": "reactivateRecord",
      "outputs": [],
      "stateMutability": "nonpayable",
      "type": "function"
    },
    {
      "inputs": [
        {
          "internalType": "string",
          "name": "",
          "type": "string"
        }
      ],
      "name": "recordExists",
      "outputs": [
        {
          "internalType": "bool",
          "name": "",
          "type": "bool"
        }
      ],
      "stateMutability": "view",
      "type": "function"
    },
    {
      "inputs": [
        {
          "internalType": "string",
          "name": "_recordId",
          "type": "string"
        },
        {
          "internalType": "string",
          "name": "_metadataURI",
          "type": "string"
        }
      ],
      "name": "updateMetadata",
      "outputs": [],
      "stateMutability": "nonpayable",
      "type": "function"
    },
    {
      "inputs": [
        {
          "internalType": "string",
          "name": "_recordId",
          "type": "string"
        },
        {
          "internalType": "bytes32",
          "name": "_dataHash",
          "type": "bytes32"
        },
        {
          "internalType": "string",
          "name": "_fileName",
          "type": "string"
        },
        {
          "internalType": "string",
          "name": "_fileType",
          "type": "string"
        },
        {
          "internalType": "uint256",
          "name": "_fileSize",
          "type": "uint256"
        },
        {
          "internalType": "string",
          "name": "_ipfsHash",
          "type": "string"
        },
        {
          "internalType": "string",
          "name": "_encryptionAlgorithm",
          "type": "string"
        },
        {
          "internalType": "string",
          "name": "_category",
          "type": "string"
        },
        {
          "internalType": "string",
          "name": "_metadataURI",
          "type": "string"
        }
      ],
      "name": "uploadData",
      "outputs": [],
      "stateMutability": "nonpayable",
      "type": "function"
    },
    {
      "inputs": [
        {
          "internalType": "string",
          "name": "_recordId",
          "type": "string"
        },
        {
          "internalType": "bytes32",
          "name": "_providedHash",
          "type": "bytes32"
        }
      ],
      "name": "verifyData",
      "outputs": [
        {
          "internalType": "bool",
          "name": "",
          "type": "bool"
        }
      ],
      "stateMutability": "view",
      "type": "function"
    }
  ],
  "bytecode": "0x6080346100bf57601f6114c738819003918201601f19168301916001600160401b038311848410176100c4578084926020946040528339810103126100bf57516001600160a01b038116908190036100bf57801561007a57600480546001600160a01b0319169190911790556040516113ec90816100db8239f35b60405162461bcd60e51b815260206004820152601860248201527f496e76616c6964207265676973747279206164647265737300000000000000006044820152606490fd5b600080fd5b634e487b7160e01b600052604160045260246000fdfe608080604052600436101561001357600080fd5b60003560e01c9081630aeacb5e14610ee2575080631b1fcb0414610eb95780632a601f3314610d895780633a6827d414610c405780633dd390b214610c13578063540248f014610bc5578063552d710514610acb57806356ce0e6c146109d557806374d2f18014610863578063b3d4e03314610810578063b489fac614610780578063c146905114610223578063d1b4b039146101445763e1c627c4146100b957600080fd5b3461013f57602036600319011261013f57600435600354811015610104576100ec6100e661010092610f9c565b5061103b565b604051918291602083526020830190611115565b0390f35b60405162461bcd60e51b8152602060048201526013602482015272496e646578206f7574206f6620626f756e647360681b6044820152606490fd5b600080fd5b3461013f57602036600319011261013f576004356001600160401b03811161013f57602061017961018c923690600401610f55565b81604051938285809451938492016110f2565b8101600081520301902061019f8161103b565b600182015460028301549092610100916001600160a01b0316906101c56003820161103b565b6101d16004830161103b565b60058301546101e26006850161103b565b6101ee6007860161103b565b9160088601549360ff60098801541695610216600b61020f600a8b0161103b565b990161103b565b986040519c8d9c8d611150565b3461013f5761012036600319011261013f576001600160401b0360043581811161013f57610255903690600401610f55565b60443582811161013f5761026d903690600401610f55565b60643583811161013f57610285903690600401610f55565b60a43584811161013f5761029d903690600401610f55565b9360c43581811161013f576102b6903690600401610f55565b60e43582811161013f576102ce903690600401610f55565b926101043583811161013f576102e8903690600401610f55565b9260018060a01b036004541660405191631f0b428b60e11b602084015233602484015260248352826060810110906060840111176105f45781600092916060849301604052602082519201905afa3d15610779573d61034681610f3a565b906103546040519283610f19565b81523d6000602083013e5b81610757575b50156107125760ff604051602081816103848b838151938492016110f2565b8101600281520301902054166106cd57602435156106945784511561064f5786511561060a57604051946103b786610efd565b86865260243560208701523360408701526060860152608085015260843560a08501528560c085015260e08401524261010084015260016101208401526101408301526101608201526104f460405160208185516104188183858a016110f2565b8101600081520301902061042d835182611200565b602083015160018201556002810160018060a01b036040850151166bffffffffffffffffffffffff60a01b82541617905561046f606084015160038301611200565b610480608084015160048301611200565b60a0830151600582015561049b60c084015160068301611200565b6104ac60e084015160078301611200565b6101008301516008820155600b610160600983019461012081015115159560ff199660ff8883541691161790556104eb610140820151600a8601611200565b01519101611200565b6001604051602081855161050b8183858a016110f2565b810160028152030190209182541617905533600052600160205260406000208054906801000000000000000091828110156105f45761054f91600182018155610fe9565b6105de578261055d91611200565b600354908110156105f4578060016105789201600355610f9c565b9190916105de5761058c8161059193611200565b61130f565b7f34a5148f8ec91aeb7c64a6994e32c5862be65fd4cb5ca121d870a45c93044e736105cf604051936024358552606060208601526060850190611115565b924260408201528033940390a3005b634e487b7160e01b600052600060045260246000fd5b634e487b7160e01b600052604160045260246000fd5b60405162461bcd60e51b815260206004820152601960248201527f4950465320686173682063616e6e6f7420626520656d707479000000000000006044820152606490fd5b60405162461bcd60e51b815260206004820152601960248201527f46696c65206e616d652063616e6e6f7420626520656d707479000000000000006044820152606490fd5b60405162461bcd60e51b8152602060048201526011602482015270092dcecc2d8d2c840c8c2e8c240d0c2e6d607b1b6044820152606490fd5b60405162461bcd60e51b815260206004820152601860248201527f5265636f726420494420616c72656164792065786973747300000000000000006044820152606490fd5b60405162461bcd60e51b815260206004820152601c60248201527f4e6f742061207265676973746572656420696e737469747574696f6e000000006044820152606490fd5b905060208180518101031261013f5760200151801515810361013f5788610365565b606061035f565b3461013f57604036600319011261013f576004356001600160401b03811161013f576107b26020913690600401610f55565b6001604051916107e260ff8251948681818601976107d181838b6110f2565b81016002815203019020541661132f565b6107f4604051938492519283916110f2565b8201916000835283816024359403019020015414604051908152f35b3461013f57604036600319011261013f5761082961113a565b6001600160a01b0316600090815260016020526040902080546024359081101561013f5761085d6100ec9161010093610fe9565b906110e1565b3461013f57602036600319011261013f576004356001600160401b03811161013f5760206108986108c6923690600401610f55565b604051906108b560ff8251938581818601966107d181838a6110f2565b6040519384928392519283916110f2565b810160008152030190206040516108dc81610efd565b6108e58261103b565b81526101006001830154916020810192835260018060a01b038060028601541694604083019586526109196003820161103b565b916060840192835261092d6004830161103b565b60808501908152600583015460a0860190815261094c6006850161103b565b60c0870190815261095f6007860161103b565b9160e08801928352600886015493610100890194855260ff600988015416956101208a0196151587526109a8600b610999600a8b0161103b565b996101408d019a8b520161103b565b998a610160820152519b519c5116975190519151925193519451955115159651976040519c8d9c8d611150565b3461013f57604036600319011261013f576001600160401b0360043581811161013f57610a06903690600401610f55565b60243591821161013f5761058c610a24610a9c933690600401610f55565b600a610a8c6020604051610a4760ff8851928481818c01956107d18183896110f2565b610a7b60405160028951610a5c8184876110f2565b82019160008352858160018060a01b0394030190200154163314611373565b6040518093819289519283916110f2565b8101600081520301902001611200565b604051904282527f3c10e5e20050e138eb0910325c8f485ac17a2ace320a2e60bb909b3c5615467f60203393a3005b3461013f5760208060031936011261013f576001600160a01b03610aed61113a565b16600052600190818152604060002080546001600160401b0381116105f457838360405192610b21828260051b0185610f19565b8084528184018095600052826000206000915b838310610b9c5750505050604051928184019082855251809152604084019160408260051b86010195926000905b838210610b6f5786880387f35b90919293948380610b8b839a603f198b82030186528951611115565b999701959493919091019101610b62565b90858086819a989594610bb1859b999b61103b565b815201920192019250969496959395610b34565b3461013f57602036600319011261013f576004356001600160401b03811161013f5760ff610bfd602061017981943690600401610f55565b8101600281520301902054166040519015158152f35b3461013f57602036600319011261013f5760043560035481101561013f576100ec61085d61010092610f9c565b3461013f5760208060031936011261013f576004356001600160401b03811161013f57610c71903690600401610f55565b604051610c8d60ff8351928581818701956107d18183896110f2565b610cc160405160028451610ca28184876110f2565b82019160008352868160018060a01b0394030190200154163314611373565b60ff600960405185818651610cd78183896110f2565b81016000815203019020015416610d4c57906009610d0484610d1f946040518093819287519283916110f2565b8101600081520301902001600160ff1982541617905561130f565b7f54748dd6fbf0824e3c0cb520f1c9625ea97e13250191b7d58eaf1064c4b302cf604051924284523393a3005b60405162461bcd60e51b81526004810184905260156024820152745265636f726420616c72656164792061637469766560581b6044820152606490fd5b3461013f5760208060031936011261013f576004356001600160401b03811161013f57610dba903690600401610f55565b604051610dd660ff8351928581818701956107d18183896110f2565b610deb60405160028451610ca28184876110f2565b60ff600960405185818651610e018183896110f2565b8101600081520301902001541615610e7457906009610e2f84610e47946040518093819287519283916110f2565b810160008152030190200160ff19815416905561130f565b7f94bae1a830b918ee72fa71e68d17b4a106af6752a8a6fa9ebdfefc2a6c24149b604051924284523393a3005b60405162461bcd60e51b815260048101849052601a60248201527f5265636f726420616c72656164792064656163746976617465640000000000006044820152606490fd5b3461013f57600036600319011261013f576004546040516001600160a01b039091168152602090f35b3461013f57600036600319011261013f576020906003548152f35b61018081019081106001600160401b038211176105f457604052565b90601f801991011681019081106001600160401b038211176105f457604052565b6001600160401b0381116105f457601f01601f191660200190565b81601f8201121561013f57803590610f6c82610f3a565b92610f7a6040519485610f19565b8284526020838301011161013f57816000926020809301838601378301015290565b600354811015610fd35760036000527fc2575a0e9e593c00f959f8c92f12db2869c3395a3b0502d05e2516446f71f85b0190600090565b634e487b7160e01b600052603260045260246000fd5b8054821015610fd35760005260206000200190600090565b90600182811c92168015611031575b602083101461101b57565b634e487b7160e01b600052602260045260246000fd5b91607f1691611010565b906040519182600082549261104f84611001565b9081845260019485811690816000146110be575060011461107b575b505061107992500383610f19565b565b9093915060005260209081600020936000915b8183106110a65750506110799350820101388061106b565b8554888401850152948501948794509183019161108e565b91505061107994506020925060ff191682840152151560051b820101388061106b565b906105de576110ef9061103b565b90565b60005b8381106111055750506000910152565b81810151838201526020016110f5565b9060209161112e815180928185528580860191016110f2565b601f01601f1916010190565b600435906001600160a01b038216820361013f57565b9a96906111d4956111a56110ef9e9c98946111f19c9b978f6111c6986111816111b397610180808552840190611115565b60208301949094526001600160a01b03166040820152808303606090910152611115565b8d810360808f015290611115565b9160a08c01528a820360c08c0152611115565b9088820360e08a0152611115565b926101008701521515610120860152848203610140860152611115565b91610160818403910152611115565b91909182516001600160401b0381116105f45761121d8254611001565b601f81116112c7575b50602080601f8311600114611263575081929394600092611258575b50508160011b916000199060031b1c1916179055565b015190503880611242565b90601f198316958460005282600020926000905b8882106112af57505083600195969710611296575b505050811b019055565b015160001960f88460031b161c1916905538808061128c565b80600185968294968601518155019501930190611277565b600083815260208120601f840160051c81019260208510611305575b601f0160051c01915b8281106112fa575050611226565b8181556001016112ec565b90925082906112e3565b611327906020604051928284809451938492016110f2565b810103902090565b1561133657565b60405162461bcd60e51b8152602060048201526015602482015274149958dbdc9908191bd95cc81b9bdd08195e1a5cdd605a1b6044820152606490fd5b1561137a57565b60405162461bcd60e51b81526020600482015260146024820152732737ba103a3432903932b1b7b9321037bbb732b960611b6044820152606490fdfea2646970667358221220d0d8500df7c63352aa79f54c4bf5fb1babd915029220c0df0e78055a71f13f6d64736f6c63430008140033",
  "linkReferences": {},
  "deployedLinkReferences": {}
}