{
  "_format": "hh-sol-artifact-1",
  "contractName": "InstitutionRegistry",
  "sourceName": "contracts/InstitutionRegistry.sol",
  "abi": [
    {
      "inputs": [],
      "stateMutability": "nonpayable",
      "type": "constructor"
    },
    {
      "anonymous": false,
      "inputs": [
        {
          "indexed": true,
          "internalType": "address",
          "name": "wallet",
          "type": "address"
        },
        {
          "indexed": false,
          "internalType": "uint256",
          "name": "timestamp",
          "type": "uint256"
        }
      ],
      "name": "InstitutionDeactivated",
      "type": "event"
    },
    {
      "anonymous": false,
      "inputs": [
        {
          "indexed": true,
          "internalType": "address",
          "name": "wallet",
          "type": "address"
        },
        {
          "indexed": false,
          "internalType": "uint256",
          "name": "timestamp",
          "type": "uint256"
        }
      ],
      "name": "InstitutionReactivated",
      "type": "event"
    },
    {
      "anonymous": false,
      "inputs": [
        {
          "indexed": true,
          "internalType": "address",
          "name": "wallet",
          "type": "address"
        },
        {
          "indexed": false,
          "internalType": "string",
          "name": "name",
          "type": "string"
        },
        {
          "indexed": false,
          "internalType": "string",
          "name": "institutionType",
          "type": "string"
        },
        {
          "indexed": false,
          "internalType": "uint256",
          "name": "timestamp",
          "type": "uint256"
        }
      ],
      "name": "InstitutionRegistered",
      "type": "event"
    },
    {
      "anonymous": false,
      "inputs": [
        {
          "indexed": true,
          "internalType": "address",
          "name": "wallet",
          "type": "address"
        },
        {
          "indexed": false,
          "internalType": "string",
          "name": "name",
          "type": "string"
        },
        {
          "indexed": false,
          "internalType": "uint256",
          "name": "timestamp",
          "type": "uint256"
        }
      ],
      "name": "InstitutionUpdated",
      "type": "event"
    },
    {
      "inputs": [
        {
          "internalType": "address",
          "name": "_wallet",
          "type": "address"
        }
      ],
      "name": "deactivateInstitution",
      "outputs": [],
      "stateMutability": "nonpayable",
      "type": "function"
    },
    {
      "inputs": [
        {
          "internalType": "address",
          "name": "_wallet",
          "type": "address"
        }
      ],
      "name": "getInstitution",
      "outputs": [
        {
          "internalType": "string",
          "name": "name",
          "type": "string"
        },
        {
          "internalType": "string",
          "name": "institutionType",
          "type": "string"
        },
        {
          "internalType": "string",
          "name": "registrationNumber",
          "type": "string"
        },
        {
          "internalType": "address",
          "name": "walletAddress",
          "type": "address"
        },
        {
          "internalType": "uint256",
          "name": "registeredAt",
          "type": "uint256"
        },
        {
          "internalType": "bool",
          "name": "isActive",
          "type": "bool"
        },
        {
          "internalType": "string",
          "name": "metadataURI",
          "type": "string"
        }
      ],
      "stateMutability": "view",
      "type": "function"
    },
    {
      "inputs": [
        {
          "internalType": "uint256",
          "name": "_index",
          "type": "uint256"
        }
      ],
      "name": "getInstitutionByIndex",
      "outputs": [
        {
          "internalType": "address",
          "name": "",
          "type": "address"
        }
      ],
      "stateMutability": "view",
      "type": "function"
    },
    {
      "inputs": [],
      "name": "getTotalInstitutions",
      "outputs": [
        {
          "internalType": "uint256",
          "name": "",
          "type": "uint256"
        }
      ],
      "stateMutability": "view",
      "type": "function"
    },
    {
      "inputs": [
        {
          "internalType": "uint256",
          "name": "",
          "type": "uint256"
        }
      ],
      "name": "institutionAddresses",
      "outputs": [
        {
          "internalType": "address",
          "name": "",
          "type": "address"
        }
      ],
      "stateMutability": "view",
      "type": "function"
    },
    {
      "inputs": [
        {
          "internalType": "address",
          "name": "",
          "type": "address"
        }
      ],
      "name": "institutions",
      "outputs": [
        {
          "internalType": "string",
          "name": "name",
          "type": "string"
        },
        {
          "internalType": "string",
          "name": "institutionType",
          "type": "string"
        },
        {
          "internalType": "string",
          "name": "registrationNumber",
          "type": "string"
        },
        {
          "internalType": "address",
          "name": "walletAddress",
          "type": "address"
        },
        {
          "internalType": "uint256",
          "name": "registeredAt",
          "type": "uint256"
        },
        {
          "internalType": "bool",
          "name": "isActive",
          "type": "bool"
        },
        {
          "internalType": "string",
          "name": "metadataURI",
          "type": "string"
        }
      ],
      "stateMutability": "view",
      "type": "function"
    },
    {
      "inputs": [
        {
          "internalType": "address",
          "name": "",
          "type": "address"
        }
      ],
      "name": "isRegistered",
      "outputs": [
        {
          "internalType": "bool",
          "name": "",
          "type": "bool"
        }
      ],
      "stateMutability": "view",
      "type": "function"
    },
    {
      "inputs": [],
      "name": "owner",
      "outputs": [
        {
          "internalType": "address",
          "name": "",
          "type": "address"
        }
      ],
      "stateMutability": "view",
      "type": "function"
    },
    {
      "inputs": [
        {
          "internalType": "address",
          "name": "_wallet",
          "type": "address"
        }
      ],
      "name": "reactivateInstitution",
      "outputs": [],
      "stateMutability": "nonpayable",
      "type": "function"
    },
    {
      "inputs": [
        {
          "internalType": "string",
          "name": "_name",
          "type": "string"
        },
        {
          "internalType": "string",
          "name": "_institutionType",
          "type": "string"
        },
        {
          "internalType": "string",
          "name": "_registrationNumber",
          "type": "string"
        },
        {
          "internalType": "string",
          "name": "_metadataURI",
          "type": "string"
        }
      ],
      "name": "registerInstitution",
      "outputs": [],
      "stateMutability": "nonpayable",
      "type": "function"
    },
    {
      "inputs": [
        {
          "internalType": "string",
          "name": "_name",
          "type": "string"
        },
        {
          "internalType": "string",
          "name": "_metadataURI",
          "type": "string"
        }
      ],
      "name": "updateInstitution",
      "outputs": [],
      "stateMutability": "nonpayable",
      "type": "function"
    },
    {
      "inputs": [
        {
          "internalType": "address",
          "name": "_wallet",
          "type": "address"
        }
      ],
      "name": "verifyInstitution",
      "outputs": [
        {
          "internalType": "bool",
          "name": "",
          "type": "bool"
        }
      ],
      "stateMutability": "view",
      "type": "function"
    }
  ],
  "bytecode": "0x6080806040523461002857600380546001600160a01b031916331790556113bd908161002e8239f35b600080fdfe608080604052600436101561001357600080fd5b60003560e01c9081633e16851614610fe15750806349dd6f03146108d6578063594598be146108b857806371199236146107cc5780637f416835146107a35780638da5cb5b1461077a578063a354c5b2146106fd578063a354e08e1461060a578063b2d9767f1461057d578063b445b7f6146101dc578063c3c5a547146101995763c6bd734e146100a357600080fd5b3461019457602080600319360112610194576004356001600160a01b038181169291839003610194576100db906003541633146112ec565b81600052600181526100f460ff60406000205416611343565b816000526000815260ff6005604060002001541615610150577fb745a626a355a4fe2a9617333e0db79e43d4f21f73418eb9116fe779127c306c908260005260008152600560406000200160ff198154169055604051428152a2005b6064906040519062461bcd60e51b82526004820152601f60248201527f496e737469747574696f6e20616c7265616479206465616374697661746564006044820152fd5b600080fd5b34610194576020366003190112610194576004356001600160a01b03811690819003610194576000526001602052602060ff604060002054166040519015158152f35b346101945760403660031901126101945767ffffffffffffffff6004358181116101945761020e90369060040161107b565b6024358281116101945761022690369060040161107b565b903360005260019160209383855260ff604060002054161561053857336000526000855260ff60056040600020015416156104f357610267835115156112a9565b336000526000855260406000209383519482861161042b5761028981546111c9565b95601f968781116104ad575b50808888821160011461044c57600091610441575b50600019600383901b1c191690831b1790555b3360005260008652600660406000200192805192831161042b576102e184546111c9565b8681116103e5575b50869583116001146103635782917f7b160d34ba749ddf83adedee3d4afc3715fb0a01251f1e86525585e5a13c4dc4968392600094610358575b50501b916000199060031b1c19161790555b61034a604051916040835260408301906110d2565b9242908201528033930390a2005b015192508880610323565b601f9291921982169584600052876000209160005b898982106103d1575050837f7b160d34ba749ddf83adedee3d4afc3715fb0a01251f1e86525585e5a13c4dc498106103b8575b505050811b019055610335565b015160001960f88460031b161c191690558680806103ab565b828401518555938601939283019201610378565b84600052876000208780860160051c8201928a8710610422575b0160051c019083905b8281106104165750506102e9565b60008155018390610408565b925081926103ff565b634e487b7160e01b600052604160045260246000fd5b9050860151896102aa565b849250601f19821690846000528a6000209160005b8c828210610497575050831161047e575b5050811b0190556102bd565b88015160001960f88460031b161c191690558980610472565b838c015185558896909401939283019201610461565b82600052886000208880840160051c8201928b85106104ea575b0160051c019084905b8281106104de575050610295565b600081550184906104d0565b925081926104c7565b60405162461bcd60e51b815260048101869052601a60248201527f496e737469747574696f6e2069732064656163746976617465640000000000006044820152606490fd5b60405162461bcd60e51b815260048101869052601a60248201527f496e737469747574696f6e206e6f7420726567697374657265640000000000006044820152606490fd5b34610194576020366003190112610194576001600160a01b03600435818116908190036101945760005260006020526040600020906106066105be83611203565b916105cb60018501611203565b936105d860028201611203565b916003820154166004820154906105f9600660ff6005860154169401611203565b9360405197889788611112565b0390f35b3461019457602080600319360112610194576004356001600160a01b03818116929183900361019457610642906003541633146112ec565b816000526001815261065b60ff60406000205416611343565b816000526000815260ff600560406000200154166106b9577f2bfea66b50069ddba7202e01f1ad6beb8b3875485bb9a198e9f9fbe9cd3822459082600052600081526005604060002001600160ff19825416179055604051428152a2005b6064906040519062461bcd60e51b82526004820152601a60248201527f496e737469747574696f6e20616c7265616479206163746976650000000000006044820152fd5b346101945760203660031901126101945760043560025481101561073f5761072660209161117c565b905460405160039290921b1c6001600160a01b03168152f35b60405162461bcd60e51b8152602060048201526013602482015272496e646578206f7574206f6620626f756e647360681b6044820152606490fd5b34610194576000366003190112610194576003546040516001600160a01b039091168152602090f35b34610194576020366003190112610194576004356002548110156101945761072660209161117c565b34610194576020366003190112610194576001600160a01b03600435818116908190036101945780600052600160205261080d60ff60406000205416611343565b600052600060205260406000209061060660405161082a8161103d565b61083384611203565b815261084160018501611203565b926020820193845261085560028601611203565b946040830195865281600382015416916060840192835260048201549060808501918252610896600660ff6005860154169460a08801951515865201611203565b948560c082015251965197519351169051915115159260405197889788611112565b34610194576000366003190112610194576020600254604051908152f35b346101945760803660031901126101945760043567ffffffffffffffff81116101945761090790369060040161107b565b60243567ffffffffffffffff81116101945761092790369060040161107b565b60443567ffffffffffffffff81116101945761094790369060040161107b565b60643567ffffffffffffffff81116101945761096790369060040161107b565b33600052600160205260ff60406000205416610f9c57610989845115156112a9565b825115610f58576040519161099d8361103d565b8483528360208401526040830152336060830152426080830152600160a083015260c0820152336000526000602052604060002090805180519067ffffffffffffffff821161042b5781906109f285546111c9565b601f8111610f08575b50602090601f8311600114610e9c57600092610e91575b50508160011b916000199060031b1c19161782555b602081015180519067ffffffffffffffff821161042b578190610a4d60018601546111c9565b601f8111610e3e575b50602090601f8311600114610dcc57600092610dc1575b50508160011b916000199060031b1c19161760018301555b604081015180519067ffffffffffffffff821161042b57610aa960028501546111c9565b601f8111610d7a575b50602090601f8311600114610d075760c093929160009183610cfc575b50508160011b916000199060031b1c19161760028401555b6003830160018060a01b036060830151166bffffffffffffffffffffffff60a01b825416179055608081015160048401556005830160a0820151151560ff80198354169116179055015180519067ffffffffffffffff821161042b57610b5060068401546111c9565b601f8111610cb1575b50602090601f8311600114610c43576006929160009183610c38575b50508160011b916000199060031b1c1916179101555b3360005260016020526040600020600160ff198254161790556002546801000000000000000081101561042b577f2d10a18eca5d453423fca77c61f6b5675540c603317b9f24882ee50da556906391610bed826001610c29940160025561117c565b81549060031b9033821b9160018060a01b03901b1916179055610c1b604051946060865260608601906110d2565b9084820360208601526110d2565b914260408201528033930390a2005b015190508680610b75565b90601f198316916006850160005260206000209260005b818110610c9957509160019391856006969410610c80575b505050811b01910155610b8b565b015160001960f88460031b161c19169055868080610c72565b92936020600181928786015181550195019301610c5a565b600684016000526020600020601f840160051c81019160208510610cf2575b601f0160051c01905b818110610ce65750610b59565b60008155600101610cd9565b9091508190610cd0565b015190508780610acf565b906002850160005260206000209160005b601f1985168110610d62575091839160019360c09695601f19811610610d49575b505050811b016002840155610ae7565b015160001960f88460031b161c19169055878080610d39565b91926020600181928685015181550194019201610d18565b600285016000526020600020601f840160051c810160208510610dba575b601f830160051c82018110610dae575050610ab2565b60008155600101610d98565b5080610d98565b015190508680610a6d565b9250600185016000526020600020906000935b601f1984168510610e23576001945083601f19811610610e0a575b505050811b016001830155610a85565b015160001960f88460031b161c19169055868080610dfa565b81810151835560209485019460019093019290910190610ddf565b909150600185016000526020600020601f840160051c810160208510610e8a575b90849392915b601f830160051c82018110610e7b575050610a56565b60008155859450600101610e65565b5080610e5f565b015190508680610a12565b9250846000526020600020906000935b601f1984168510610eed576001945083601f19811610610ed4575b505050811b018255610a27565b015160001960f88460031b161c19169055868080610ec7565b81810151835560209485019460019093019290910190610eac565b909150846000526020600020601f840160051c810160208510610f51575b90849392915b601f830160051c82018110610f425750506109fb565b60008155859450600101610f2c565b5080610f26565b606460405162461bcd60e51b815260206004820152602060248201527f496e737469747574696f6e20747970652063616e6e6f7420626520656d7074796044820152fd5b60405162461bcd60e51b815260206004820152601e60248201527f496e737469747574696f6e20616c7265616479207265676973746572656400006044820152606490fd5b34610194576020366003190112610194576004356001600160a01b0381169190829003610194576020916000526001825260ff6040600020541680611027575b15158152f35b506000825260ff60056040600020015416611021565b60e0810190811067ffffffffffffffff82111761042b57604052565b90601f8019910116810190811067ffffffffffffffff82111761042b57604052565b81601f820112156101945780359067ffffffffffffffff821161042b57604051926110b0601f8401601f191660200185611059565b8284526020838301011161019457816000926020809301838601378301015290565b919082519283825260005b8481106110fe575050826000602080949584010152601f8019910116010190565b6020818301810151848301820152016110dd565b93959261114161117998969361113361114f9460e0895260e08901906110d2565b9087820360208901526110d2565b9085820360408701526110d2565b6001600160a01b0390951660608401526080830152151560a082015280830360c0909101526110d2565b90565b6002548110156111b35760026000527f405787fa12a823e0f2b7631cc41b3ba8828b3321ca811111fa75cd3aa3bb5ace0190600090565b634e487b7160e01b600052603260045260246000fd5b90600182811c921680156111f9575b60208310146111e357565b634e487b7160e01b600052602260045260246000fd5b91607f16916111d8565b9060405191826000825492611217846111c9565b9081845260019485811690816000146112865750600114611243575b505061124192500383611059565b565b9093915060005260209081600020936000915b81831061126e57505061124193508201013880611233565b85548884018501529485019487945091830191611256565b91505061124194506020925060ff191682840152151560051b8201013880611233565b156112b057565b60405162461bcd60e51b81526020600482015260146024820152734e616d652063616e6e6f7420626520656d70747960601b6044820152606490fd5b156112f357565b60405162461bcd60e51b815260206004820152602260248201527f4f6e6c79206f776e65722063616e20706572666f726d2074686973206163746960448201526137b760f11b6064820152608490fd5b1561134a57565b60405162461bcd60e51b8152602060048201526015602482015274125b9cdd1a5d1d5d1a5bdb881b9bdd08199bdd5b99605a1b6044820152606490fdfea2646970667358221220960e5308fcf1fc16270236a1935e249927641890db819923a0dd735a40b62d3864736f6c63430008140033",
  "linkReferences": {},
  "deployedLinkReferences": {}
}