{
  "_format": "hh-sol-artifact-1",
  "contractName": "InstitutionRegistry",
  "sourceName": "contracts/InstitutionRegistry.sol",
  "abi": [
    {
      "inputs": [],
      "stateMutability": "nonpayable",
      "type": "constructor"
    },
    {
      "anonymous": false,
      "inputs": [
        {
          "indexed": true,
          "internalType": "address",
          "name": "wallet",
          "type": "address"
        },
        {
          "indexed": false,
          "internalType": "uint256",
          "name": "timestamp",
          "type": "uint256"
        }
      ],
      "name": "InstitutionDeactivated",
      "type": "event"
    },
    {
      "anonymous": false,
      "inputs": [
        {
          "indexed": true,
          "internalType": "address",
          "name": "wallet",
          "type": "address"
        },
        {
          "indexed": false,
          "internalType": "uint256",
          "name": "timestamp",
          "type": "uint256"
        }
      ],
      "name": "InstitutionReactivated",
      "type": "event"
    },
    {
      "anonymous": false,
      "inputs": [
        {
          "indexed": true,
          "internalType": "address",
          "name": "wallet",
          "type": "address"
        },
        {
          "indexed": false,
          "internalType": "string",
          "name": "name",
          "type": "string"
        },
        {
          "indexed": false,
          "internalType": "string",
          "name": "institutionType",
          "type": "string"
        },
        {
          "indexed": false,
          "internalType": "uint256",
          "name": "timestamp",
          "type": "uint256"
        }
      ],
      "name": "InstitutionRegistered",
      "type": "event"
    },
    {
      "anonymous": false,
      "inputs": [
        {
          "indexed": true,
          "internalType": "address",
          "name": "wallet",
          "type": "address"
        },
        {
          "indexed": false,
          "internalType": "string",
          "name": "name",
          "type": "string"
        },
        {
          "indexed": false,
          "internalType": "uint256",
          "name": "timestamp",
          "type": "uint256"
        }
      ],
      "name": "InstitutionUpdated",
      "type": "event"
    },
    {
      "inputs": [
        {
          "internalType": "address",
          "name": "_wallet",
          "type": "address"
        }
      ],
      "name": "deactivateInstitution",
      "outputs": [],
      "stateMutability": "nonpayable",
      "type": "function"
    },
    {
      "inputs": [
        {
          "internalType": "address",
          "name": "_wallet",
          "type": "address"
        }
      ],
      "name": "getInstitution",
      "outputs": [
        {
          "internalType": "string",
          "name": "name",
          "type": "string"
        },
        {
          "internalType": "string",
          "name": "institutionType",
          "type": "string"
        },
        {
          "internalType": "string",
          "name": "registrationNumber",
          "type": "string"
        },
        {
          "internalType": "address",
          "name": "walletAddress",
          "type": "address"
        },
        {
          "internalType": "uint256",
          "name": "registeredAt",
          "type": "uint256"
        },
        {
          "internalType": "bool",
          "name": "isActive",
          "type": "bool"
        },
        {
          "internalType": "string",
          "name": "metadataURI",
          "type": "string"
        }
      ],
      "stateMutability": "view",
      "type": "function"
    },
    {
      "inputs": [
        {
          "internalType": "uint256",
          "name": "_index",
          "type": "uint256"
        }
      ],
      "name": "getInstitutionByIndex",
      "outputs": [
        {
          "internalType": "address",
          "name": "",
          "type": "address"
        }
      ],
      "stateMutability": "view",
      "type": "function"
    },
    {
      "inputs": [],
      "name": "getTotalInstitutions",
      "outputs": [
        {
          "internalType": "uint256",
          "name": "",
          "type": "uint256"
        }
      ],
      "stateMutability": "view",
      "type": "function"
    },
    {
      "inputs": [
        {
          "internalType": "uint256",
          "name": "",
          "type": "uint256"
        }
      ],
      "name": "institutionAddresses",
      "outputs": [
        {
          "internalType": "address",
          "name": "",
          "type": "address"
        }
      ],
      "stateMutability": "view",
      "type": "function"
    },
    {
      "inputs": [
        {
          "internalType": "address",
          "name": "",
          "type": "address"
        }
      ],
      "name": "institutions",
      "outputs": [
        {
          "internalType": "string",
          "name": "name",
          "type": "string"
        },
        {
          "internalType": "string",
          "name": "institutionType",
          "type": "string"
        },
        {
          "internalType": "string",
          "name": "registrationNumber",
          "type": "string"
        },
        {
          "internalType": "address",
          "name": "walletAddress",
          "type": "address"
        },
        {
          "internalType": "uint256",
          "name": "registeredAt",
          "type": "uint256"
        },
        {
          "internalType": "bool",
          "name": "isActive",
          "type": "bool"
        },
        {
          "internalType": "string",
          "name": "metadataURI",
          "type": "string"
        }
      ],
      "stateMutability": "view",
      "type": "function"
    },
    {
      "inputs": [
        {
          "internalType": "address",
          "name": "",
          "type": "address"
        }
      ],
      "name": "isRegistered",
      "outputs": [
        {
          "internalType": "bool",
          "name": "",
          "type": "bool"
        }
      ],
      "stateMutability": "view",
      "type": "function"
    },
    {
      "inputs": [],
      "name": "owner",
      "outputs": [
        {
          "internalType": "address",
          "name": "",
          "type": "address"
        }
      ],
      "stateMutability": "view",
      "type": "function"
    },
    {
      "inputs": [
        {
          "internalType": "address",
          "name": "_wallet",
          "type": "address"
        }
      ],
      "name": "reactivateInstitution",
      "outputs": [],
      "stateMutability": "nonpayable",
      "type": "function"
    },
    {
      "inputs": [
        {
          "internalType": "address",
          "name": "_walletAddress",
          "type": "address"
        },
        {
          "internalType": "string",
          "name": "_name",
          "type": "string"
        },
        {
          "internalType": "string",
          "name": "_institutionType",
          "type": "string"
        },
        {
          "internalType": "string",
          "name": "_registrationNumber",
          "type": "string"
        },
        {
          "internalType": "string",
          "name": "_metadataURI",
          "type": "string"
        }
      ],
      "name": "registerInstitution",
      "outputs": [],
      "stateMutability": "nonpayable",
      "type": "function"
    },
    {
      "inputs": [
        {
          "internalType": "string",
          "name": "_name",
          "type": "string"
        },
        {
          "internalType": "string",
          "name": "_metadataURI",
          "type": "string"
        }
      ],
      "name": "updateInstitution",
      "outputs": [],
      "stateMutability": "nonpayable",
      "type": "function"
    },
    {
      "inputs": [
        {
          "internalType": "address",
          "name": "_wallet",
          "type": "address"
        }
      ],
      "name": "verifyInstitution",
      "outputs": [
        {
          "internalType": "bool",
          "name": "",
          "type": "bool"
        }
      ],
      "stateMutability": "view",
      "type": "function"
    }
  ],
  "bytecode": "0x6080806040523461002857600380546001600160a01b03191633179055611442908161002e8239f35b600080fdfe608080604052600436101561001357600080fd5b60003560e01c9081633e1685161461105557508063594598be146110375780637119923614610f4f5780637f41683514610f265780638da5cb5b14610efd578063a354c5b214610e80578063a354e08e14610d8f578063b2d9767f14610d06578063b445b7f61461097b578063c3c5a5471461093c578063c3e168ab146101975763c6bd734e146100a357600080fd5b3461019257602080600319360112610192576100bd6110ac565b6003546001600160a01b0391906100d79083163314611371565b169081600052600181526100f260ff604060002054166113c8565b816000526000815260ff600560406000200154161561014e577fb745a626a355a4fe2a9617333e0db79e43d4f21f73418eb9116fe779127c306c908260005260008152600560406000200160ff198154169055604051428152a2005b6064906040519062461bcd60e51b82526004820152601f60248201527f496e737469747574696f6e20616c7265616479206465616374697661746564006044820152fd5b600080fd5b346101925760a0366003190112610192576101b06110ac565b60243567ffffffffffffffff8111610192576101d09036906004016112d7565b60443567ffffffffffffffff8111610192576101f09036906004016112d7565b60643567ffffffffffffffff8111610192576102109036906004016112d7565b60843567ffffffffffffffff8111610192576102309036906004016112d7565b6001600160a01b03851660009081526001602052604090205460ff166108f75761025c8451151561132e565b8251156108b3576001600160a01b03851615610875576040519161027f836111f3565b848352836020840152604083015260018060a01b0385166060830152426080830152600160a083015260c082015260018060a01b0384166000526000602052604060002090805180519067ffffffffffffffff82116105435781906102e485546111b9565b601f8111610825575b50602090601f83116001146107b9576000926107ae575b50508160011b916000199060031b1c19161782555b602081015180519067ffffffffffffffff821161054357819061033f60018601546111b9565b601f811161075b575b50602090601f83116001146106e9576000926106de575b50508160011b916000199060031b1c19161760018301555b604081015180519067ffffffffffffffff82116105435761039b60028501546111b9565b601f8111610697575b50602090601f83116001146106245760c093929160009183610619575b50508160011b916000199060031b1c19161760028401555b6003830160018060a01b036060830151166bffffffffffffffffffffffff60a01b825416179055608081015160048401556005830160a0820151151560ff80198354169116179055015180519067ffffffffffffffff82116105435761044260068401546111b9565b601f81116105d2575b50602090601f8311600114610564576006929160009183610559575b50508160011b916000199060031b1c1916179101555b60018060a01b03831660005260016020526040600020600160ff1982541617905560025491680100000000000000008310156105435761052c61051e926104eb8560017f2d10a18eca5d453423fca77c61f6b5675540c603317b9f24882ee50da5569063970160025561116c565b81546001600160a01b0389811660039390931b92831b921b191617905560405160608082529094859490918501906110c2565b9083820360208501526110c2565b4260408301526001600160a01b03909416930390a2005b634e487b7160e01b600052604160045260246000fd5b015190508780610467565b90601f198316916006850160005260206000209260005b8181106105ba575091600193918560069694106105a1575b505050811b0191015561047d565b015160001960f88460031b161c19169055878080610593565b9293602060018192878601518155019501930161057b565b600684016000526020600020601f840160051c810160208510610612575b601f830160051c8201811061060657505061044b565b600081556001016105f0565b50806105f0565b0151905088806103c1565b906002850160005260206000209160005b601f198516811061067f575091839160019360c09695601f19811610610666575b505050811b0160028401556103d9565b015160001960f88460031b161c19169055888080610656565b91926020600181928685015181550194019201610635565b600285016000526020600020601f840160051c8101602085106106d7575b601f830160051c820181106106cb5750506103a4565b600081556001016106b5565b50806106b5565b01519050878061035f565b9250600185016000526020600020906000935b601f1984168510610740576001945083601f19811610610727575b505050811b016001830155610377565b015160001960f88460031b161c19169055878080610717565b818101518355602094850194600190930192909101906106fc565b909150600185016000526020600020601f840160051c8101602085106107a7575b90849392915b601f830160051c82018110610798575050610348565b60008155859450600101610782565b508061077c565b015190508780610304565b9250846000526020600020906000935b601f198416851061080a576001945083601f198116106107f1575b505050811b018255610319565b015160001960f88460031b161c191690558780806107e4565b818101518355602094850194600190930192909101906107c9565b909150846000526020600020601f840160051c81016020851061086e575b90849392915b601f830160051c8201811061085f5750506102ed565b60008155859450600101610849565b5080610843565b60405162461bcd60e51b8152602060048201526016602482015275496e76616c69642077616c6c6574206164647265737360501b6044820152606490fd5b606460405162461bcd60e51b815260206004820152602060248201527f496e737469747574696f6e20747970652063616e6e6f7420626520656d7074796044820152fd5b60405162461bcd60e51b815260206004820152601e60248201527f496e737469747574696f6e20616c7265616479207265676973746572656400006044820152606490fd5b34610192576020366003190112610192576001600160a01b0361095d6110ac565b166000526001602052602060ff604060002054166040519015158152f35b346101925760403660031901126101925767ffffffffffffffff600435818111610192576109ad9036906004016112d7565b602435828111610192576109c59036906004016112d7565b903360005260019160209383855260ff6040600020541615610cc157336000526000855260ff6005604060002001541615610c7c57610a068351151561132e565b336000526000855260406000209383519482861161054357610a2881546111b9565b95601f96878111610c36575b508088888211600114610bd557600091610bca575b50600019600383901b1c191690831b1790555b3360005260008652600660406000200192805192831161054357610a8084546111b9565b868111610b84575b5086958311600114610b025782917f7b160d34ba749ddf83adedee3d4afc3715fb0a01251f1e86525585e5a13c4dc4968392600094610af7575b50501b916000199060031b1c19161790555b610ae9604051916040835260408301906110c2565b9242908201528033930390a2005b015192508880610ac2565b601f9291921982169584600052876000209160005b89898210610b70575050837f7b160d34ba749ddf83adedee3d4afc3715fb0a01251f1e86525585e5a13c4dc49810610b57575b505050811b019055610ad4565b015160001960f88460031b161c19169055868080610b4a565b828401518555938601939283019201610b17565b84600052876000208780860160051c8201928a8710610bc1575b0160051c019083905b828110610bb5575050610a88565b60008155018390610ba7565b92508192610b9e565b905086015189610a49565b849250601f19821690846000528a6000209160005b8c828210610c205750508311610c07575b5050811b019055610a5c565b88015160001960f88460031b161c191690558980610bfb565b838c015185558896909401939283019201610bea565b82600052886000208880840160051c8201928b8510610c73575b0160051c019084905b828110610c67575050610a34565b60008155018490610c59565b92508192610c50565b60405162461bcd60e51b815260048101869052601a60248201527f496e737469747574696f6e2069732064656163746976617465640000000000006044820152606490fd5b60405162461bcd60e51b815260048101869052601a60248201527f496e737469747574696f6e206e6f7420726567697374657265640000000000006044820152606490fd5b34610192576020366003190112610192576001600160a01b0380610d286110ac565b166000526000602052604060002090610d8b610d4383611231565b91610d5060018501611231565b93610d5d60028201611231565b91600382015416600482015490610d7e600660ff6005860154169401611231565b9360405197889788611102565b0390f35b346101925760208060031936011261019257610da96110ac565b6003546001600160a01b039190610dc39083163314611371565b16908160005260018152610dde60ff604060002054166113c8565b816000526000815260ff60056040600020015416610e3c577f2bfea66b50069ddba7202e01f1ad6beb8b3875485bb9a198e9f9fbe9cd3822459082600052600081526005604060002001600160ff19825416179055604051428152a2005b6064906040519062461bcd60e51b82526004820152601a60248201527f496e737469747574696f6e20616c7265616479206163746976650000000000006044820152fd5b3461019257602036600319011261019257600435600254811015610ec257610ea960209161116c565b905460405160039290921b1c6001600160a01b03168152f35b60405162461bcd60e51b8152602060048201526013602482015272496e646578206f7574206f6620626f756e647360681b6044820152606490fd5b34610192576000366003190112610192576003546040516001600160a01b039091168152602090f35b346101925760203660031901126101925760043560025481101561019257610ea960209161116c565b34610192576020366003190112610192576001600160a01b0380610f716110ac565b16806000526001602052610f8c60ff604060002054166113c8565b6000526000602052604060002090610d8b604051610fa9816111f3565b610fb284611231565b8152610fc060018501611231565b9260208201938452610fd460028601611231565b946040830195865281600382015416916060840192835260048201549060808501918252611015600660ff6005860154169460a08801951515865201611231565b948560c082015251965197519351169051915115159260405197889788611102565b34610192576000366003190112610192576020600254604051908152f35b34610192576020366003190112610192576020906001600160a01b036110796110ac565b166000526001825260ff6040600020541680611096575b15158152f35b506000825260ff60056040600020015416611090565b600435906001600160a01b038216820361019257565b919082519283825260005b8481106110ee575050826000602080949584010152601f8019910116010190565b6020818301810151848301820152016110cd565b93959261113161116998969361112361113f9460e0895260e08901906110c2565b9087820360208901526110c2565b9085820360408701526110c2565b6001600160a01b0390951660608401526080830152151560a082015280830360c0909101526110c2565b90565b6002548110156111a35760026000527f405787fa12a823e0f2b7631cc41b3ba8828b3321ca811111fa75cd3aa3bb5ace0190600090565b634e487b7160e01b600052603260045260246000fd5b90600182811c921680156111e9575b60208310146111d357565b634e487b7160e01b600052602260045260246000fd5b91607f16916111c8565b60e0810190811067ffffffffffffffff82111761054357604052565b90601f8019910116810190811067ffffffffffffffff82111761054357604052565b9060405191826000825492611245846111b9565b9081845260019485811690816000146112b45750600114611271575b505061126f9250038361120f565b565b9093915060005260209081600020936000915b81831061129c57505061126f93508201013880611261565b85548884018501529485019487945091830191611284565b91505061126f94506020925060ff191682840152151560051b8201013880611261565b81601f820112156101925780359067ffffffffffffffff8211610543576040519261130c601f8401601f19166020018561120f565b8284526020838301011161019257816000926020809301838601378301015290565b1561133557565b60405162461bcd60e51b81526020600482015260146024820152734e616d652063616e6e6f7420626520656d70747960601b6044820152606490fd5b1561137857565b60405162461bcd60e51b815260206004820152602260248201527f4f6e6c79206f776e65722063616e20706572666f726d2074686973206163746960448201526137b760f11b6064820152608490fd5b156113cf57565b60405162461bcd60e51b8152602060048201526015602482015274125b9cdd1a5d1d5d1a5bdb881b9bdd08199bdd5b99605a1b6044820152606490fdfea26469706673582212205c183a6478a61b67351696ab5b2cac5774224c41f9939163ecbb26f03e76958464736f6c63430008140033",
  "linkReferences": {},
  "deployedLinkReferences": {}
}